{"contracts/BoxProtocol.sol":{"BoxProtocol":{"abi":[{"inputs":[],"stateMutability":"nonpayable","type":"constructor"},{"anonymous":false,"inputs":[{"indexed":true,"internalType":"address","name":"account","type":"address"},{"indexed":true,"internalType":"address","name":"operator","type":"address"},{"indexed":false,"internalType":"bool","name":"approved","type":"bool"}],"name":"ApprovalForAll","type":"event"},{"anonymous":false,"inputs":[{"indexed":false,"internalType":"uint256","name":"boxId","type":"uint256"},{"indexed":false,"internalType":"uint256","name":"buyAmount","type":"uint256"},{"indexed":false,"internalType":"uint256","name":"boxTokenReceived","type":"uint256"}],"name":"Buy","type":"event"},{"anonymous":false,"inputs":[{"indexed":false,"internalType":"uint256","name":"boxId","type":"uint256"},{"indexed":false,"internalType":"uint256","name":"sellAmount","type":"uint256"},{"indexed":false,"internalType":"uint256","name":"amountReceived","type":"uint256"}],"name":"Sell","type":"event"},{"anonymous":false,"inputs":[{"indexed":true,"internalType":"address","name":"operator","type":"address"},{"indexed":true,"internalType":"address","name":"from","type":"address"},{"indexed":true,"internalType":"address","name":"to","type":"address"},{"indexed":false,"internalType":"uint256[]","name":"ids","type":"uint256[]"},{"indexed":false,"internalType":"uint256[]","name":"values","type":"uint256[]"}],"name":"TransferBatch","type":"event"},{"anonymous":false,"inputs":[{"indexed":true,"internalType":"address","name":"operator","type":"address"},{"indexed":true,"internalType":"address","name":"from","type":"address"},{"indexed":true,"internalType":"address","name":"to","type":"address"},{"indexed":false,"internalType":"uint256","name":"id","type":"uint256"},{"indexed":false,"internalType":"uint256","name":"value","type":"uint256"}],"name":"TransferSingle","type":"event"},{"anonymous":false,"inputs":[{"indexed":false,"internalType":"string","name":"value","type":"string"},{"indexed":true,"internalType":"uint256","name":"id","type":"uint256"}],"name":"URI","type":"event"},{"stateMutability":"payable","type":"fallback"},{"inputs":[{"internalType":"string","name":"_tokenSymbol","type":"string"},{"internalType":"address","name":"_tokenAddress","type":"address"},{"internalType":"address","name":"_tokenPriceFeed","type":"address"}],"name":"addToken","outputs":[],"stateMutability":"nonpayable","type":"function"},{"inputs":[{"internalType":"address","name":"account","type":"address"},{"internalType":"uint256","name":"id","type":"uint256"}],"name":"balanceOf","outputs":[{"internalType":"uint256","name":"","type":"uint256"}],"stateMutability":"view","type":"function"},{"inputs":[{"internalType":"address[]","name":"accounts","type":"address[]"},{"internalType":"uint256[]","name":"ids","type":"uint256[]"}],"name":"balanceOfBatch","outputs":[{"internalType":"uint256[]","name":"","type":"uint256[]"}],"stateMutability":"view","type":"function"},{"inputs":[{"internalType":"uint24","name":"","type":"uint24"},{"internalType":"address","name":"","type":"address"}],"name":"boxBalance","outputs":[{"internalType":"uint256","name":"","type":"uint256"}],"stateMutability":"view","type":"function"},{"inputs":[{"internalType":"uint24","name":"boxId","type":"uint24"}],"name":"buy","outputs":[{"internalType":"uint256","name":"boxTokenMinted","type":"uint256"}],"stateMutability":"payable","type":"function"},{"inputs":[{"components":[{"internalType":"string","name":"name","type":"string"},{"internalType":"uint8","name":"percentage","type":"uint8"}],"internalType":"struct BoxProtocol.Token[]","name":"tokens","type":"tuple[]"}],"name":"createBox","outputs":[{"internalType":"uint256","name":"boxId","type":"uint256"}],"stateMutability":"nonpayable","type":"function"},{"inputs":[{"internalType":"uint256","name":"id","type":"uint256"}],"name":"exists","outputs":[{"internalType":"bool","name":"","type":"bool"}],"stateMutability":"view","type":"function"},{"inputs":[{"internalType":"uint24","name":"boxId","type":"uint24"},{"internalType":"uint256","name":"tokenNumber","type":"uint256"}],"name":"getBoxDistribution","outputs":[{"components":[{"internalType":"string","name":"name","type":"string"},{"internalType":"uint8","name":"percentage","type":"uint8"}],"internalType":"struct BoxProtocol.Token","name":"","type":"tuple"}],"stateMutability":"view","type":"function"},{"inputs":[{"internalType":"uint24","name":"boxId","type":"uint24"}],"name":"getBoxTVL","outputs":[{"internalType":"uint256","name":"","type":"uint256"}],"stateMutability":"view","type":"function"},{"inputs":[{"internalType":"uint24","name":"boxId","type":"uint24"}],"name":"getBoxTokenPrice","outputs":[{"internalType":"uint256","name":"","type":"uint256"}],"stateMutability":"view","type":"function"},{"inputs":[{"internalType":"address","name":"_tokenPriceFeed","type":"address"}],"name":"getLatestPrice","outputs":[{"internalType":"int256","name":"","type":"int256"}],"stateMutability":"view","type":"function"},{"inputs":[{"internalType":"uint24","name":"boxId","type":"uint24"}],"name":"getNumberOfTokensInBox","outputs":[{"internalType":"uint256","name":"","type":"uint256"}],"stateMutability":"view","type":"function"},{"inputs":[{"internalType":"address","name":"account","type":"address"},{"internalType":"address","name":"operator","type":"address"}],"name":"isApprovedForAll","outputs":[{"internalType":"bool","name":"","type":"bool"}],"stateMutability":"view","type":"function"},{"inputs":[],"name":"poolFee","outputs":[{"internalType":"uint24","name":"","type":"uint24"}],"stateMutability":"view","type":"function"},{"inputs":[{"internalType":"address","name":"from","type":"address"},{"internalType":"address","name":"to","type":"address"},{"internalType":"uint256[]","name":"ids","type":"uint256[]"},{"internalType":"uint256[]","name":"amounts","type":"uint256[]"},{"internalType":"bytes","name":"data","type":"bytes"}],"name":"safeBatchTransferFrom","outputs":[],"stateMutability":"nonpayable","type":"function"},{"inputs":[{"internalType":"address","name":"from","type":"address"},{"internalType":"address","name":"to","type":"address"},{"internalType":"uint256","name":"id","type":"uint256"},{"internalType":"uint256","name":"amount","type":"uint256"},{"internalType":"bytes","name":"data","type":"bytes"}],"name":"safeTransferFrom","outputs":[],"stateMutability":"nonpayable","type":"function"},{"inputs":[{"internalType":"uint24","name":"boxId","type":"uint24"},{"internalType":"uint256","name":"tokenSellAmount","type":"uint256"}],"name":"sell","outputs":[{"internalType":"uint256","name":"","type":"uint256"}],"stateMutability":"nonpayable","type":"function"},{"inputs":[{"internalType":"address","name":"operator","type":"address"},{"internalType":"bool","name":"approved","type":"bool"}],"name":"setApprovalForAll","outputs":[],"stateMutability":"nonpayable","type":"function"},{"inputs":[{"internalType":"bytes4","name":"interfaceId","type":"bytes4"}],"name":"supportsInterface","outputs":[{"internalType":"bool","name":"","type":"bool"}],"stateMutability":"view","type":"function"},{"inputs":[],"name":"swapRouter","outputs":[{"internalType":"contract ISwapRouter","name":"","type":"address"}],"stateMutability":"view","type":"function"},{"inputs":[{"internalType":"uint256","name":"id","type":"uint256"}],"name":"totalSupply","outputs":[{"internalType":"uint256","name":"","type":"uint256"}],"stateMutability":"view","type":"function"},{"inputs":[{"internalType":"uint256","name":"","type":"uint256"}],"name":"uri","outputs":[{"internalType":"string","name":"","type":"string"}],"stateMutability":"view","type":"function"},{"stateMutability":"payable","type":"receive"}],"evm":{"bytecode":{"linkReferences":{},"object":"60a06040523480156200001157600080fd5b506040518060400160405280600181526020017f20000000000000000000000000000000000000000000000000000000000000008152506200005981620002a660201b60201c565b5033600560006101000a81548173ffffffffffffffffffffffffffffffffffffffff021916908373ffffffffffffffffffffffffffffffffffffffff16021790555073e592427a0aece92de3edee1f18e0157c0586156473ffffffffffffffffffffffffffffffffffffffff1660808173ffffffffffffffffffffffffffffffffffffffff168152505073ab594600376ec9fd91f8e885dadf0ce036862de0600a60006101000a81548173ffffffffffffffffffffffffffffffffffffffff021916908373ffffffffffffffffffffffffffffffffffffffff160217905550620001a36040518060400160405280600381526020017f44455600000000000000000000000000000000000000000000000000000000008152506000600a60009054906101000a900473ffffffffffffffffffffffffffffffffffffffff16620002bb60201b60201c565b620002216040518060400160405280600481526020017f5744455600000000000000000000000000000000000000000000000000000000815250730d500b1d8e8ef31e21c99d1db9a6444d3adf1270600a60009054906101000a900473ffffffffffffffffffffffffffffffffffffffff16620002bb60201b60201c565b600860405162000231906200046c565b908152602001604051809103902060009054906101000a900473ffffffffffffffffffffffffffffffffffffffff16600460006101000a81548173ffffffffffffffffffffffffffffffffffffffff021916908373ffffffffffffffffffffffffffffffffffffffff160217905550620008e3565b8060029081620002b79190620006fd565b5050565b600560009054906101000a900473ffffffffffffffffffffffffffffffffffffffff1673ffffffffffffffffffffffffffffffffffffffff163373ffffffffffffffffffffffffffffffffffffffff16146200034e576040517f08c379a0000000000000000000000000000000000000000000000000000000008152600401620003459062000845565b60405180910390fd5b81600884604051620003619190620008ca565b908152602001604051809103902060006101000a81548173ffffffffffffffffffffffffffffffffffffffff021916908373ffffffffffffffffffffffffffffffffffffffff16021790555080600984604051620003c09190620008ca565b908152602001604051809103902060006101000a81548173ffffffffffffffffffffffffffffffffffffffff021916908373ffffffffffffffffffffffffffffffffffffffff160217905550505050565b600081905092915050565b7f5744455600000000000000000000000000000000000000000000000000000000600082015250565b60006200045460048362000411565b915062000461826200041c565b600482019050919050565b6000620004798262000445565b9150819050919050565b600081519050919050565b7f4e487b7100000000000000000000000000000000000000000000000000000000600052604160045260246000fd5b7f4e487b7100000000000000000000000000000000000000000000000000000000600052602260045260246000fd5b600060028204905060018216806200050557607f821691505b6020821081036200051b576200051a620004bd565b5b50919050565b60008190508160005260206000209050919050565b60006020601f8301049050919050565b600082821b905092915050565b600060088302620005857fffffffffffffffffffffffffffffffffffffffffffffffffffffffffffffffff8262000546565b62000591868362000546565b95508019841693508086168417925050509392505050565b6000819050919050565b6000819050919050565b6000620005de620005d8620005d284620005a9565b620005b3565b620005a9565b9050919050565b6000819050919050565b620005fa83620005bd565b620006126200060982620005e5565b84845462000553565b825550505050565b600090565b620006296200061a565b62000636818484620005ef565b505050565b5b818110156200065e57620006526000826200061f565b6001810190506200063c565b5050565b601f821115620006ad57620006778162000521565b620006828462000536565b8101602085101562000692578190505b620006aa620006a18562000536565b8301826200063b565b50505b505050565b600082821c905092915050565b6000620006d260001984600802620006b2565b1980831691505092915050565b6000620006ed8383620006bf565b9150826002028217905092915050565b620007088262000483565b67ffffffffffffffff8111156200072457620007236200048e565b5b620007308254620004ec565b6200073d82828562000662565b600060209050601f83116001811462000775576000841562000760578287015190505b6200076c8582620006df565b865550620007dc565b601f198416620007858662000521565b60005b82811015620007af5784890151825560018201915060208501945060208101905062000788565b86831015620007cf5784890151620007cb601f891682620006bf565b8355505b6001600288020188555050505b505050505050565b600082825260208201905092915050565b7f4f776e657220616363657373206f6e6c79000000000000000000000000000000600082015250565b60006200082d601183620007e4565b91506200083a82620007f5565b602082019050919050565b6000602082019050818103600083015262000860816200081e565b9050919050565b60005b83811015620008875780820151818401526020810190506200086a565b60008484015250505050565b6000620008a08262000483565b620008ac818562000411565b9350620008be81856020860162000867565b80840191505092915050565b6000620008d8828462000893565b915081905092915050565b6080516166166200090d60003960008181611e0d01528181612d620152612e2801526166166000f3fe6080604052600436106101385760003560e01c8063991f6826116100ab578063d772927c1161006f578063d772927c146104b8578063d863d544146104f5578063deada8031461051e578063e985e9c51461055b578063efb2e2aa14610598578063f242432a146105d55761013f565b8063991f6826146103ba5780639fe204b6146103f7578063a22cb46514610427578063bd85b03914610450578063c31c9c071461048d5761013f565b80632eb2c2d6116100fd5780632eb2c2d6146102605780634e1273f4146102895780634f558e79146102c65780635f51cca4146103035780638cbc8b071461034057806392a90a871461037d5761013f565b8062fdd58e1461014157806301ffc9a71461017e578063089fe6aa146101bb5780630e89341c146101e657806316345f18146102235761013f565b3661013f57005b005b34801561014d57600080fd5b506101686004803603810190610163919061400f565b6105fe565b604051610175919061405e565b60405180910390f35b34801561018a57600080fd5b506101a560048036038101906101a091906140d1565b6106c6565b6040516101b29190614119565b60405180910390f35b3480156101c757600080fd5b506101d06107a8565b6040516101dd9190614152565b60405180910390f35b3480156101f257600080fd5b5061020d6004803603810190610208919061416d565b6107ae565b60405161021a919061422a565b60405180910390f35b34801561022f57600080fd5b5061024a6004803603810190610245919061424c565b610842565b6040516102579190614292565b60405180910390f35b34801561026c57600080fd5b50610287600480360381019061028291906144aa565b6108c9565b005b34801561029557600080fd5b506102b060048036038101906102ab919061463c565b61096a565b6040516102bd9190614772565b60405180910390f35b3480156102d257600080fd5b506102ed60048036038101906102e8919061416d565b610a83565b6040516102fa9190614119565b60405180910390f35b34801561030f57600080fd5b5061032a600480360381019061032591906147c0565b610a97565b604051610337919061405e565b60405180910390f35b34801561034c57600080fd5b50610367600480360381019061036291906147c0565b610b20565b604051610374919061405e565b60405180910390f35b34801561038957600080fd5b506103a4600480360381019061039f91906147ed565b610be8565b6040516103b191906148d0565b60405180910390f35b3480156103c657600080fd5b506103e160048036038101906103dc91906147ed565b610d4e565b6040516103ee919061405e565b60405180910390f35b610411600480360381019061040c91906147c0565b6116ca565b60405161041e919061405e565b60405180910390f35b34801561043357600080fd5b5061044e6004803603810190610449919061491e565b611dd8565b005b34801561045c57600080fd5b506104776004803603810190610472919061416d565b611dee565b604051610484919061405e565b60405180910390f35b34801561049957600080fd5b506104a2611e0b565b6040516104af91906149bd565b60405180910390f35b3480156104c457600080fd5b506104df60048036038101906104da91906147c0565b611e2f565b6040516104ec919061405e565b60405180910390f35b34801561050157600080fd5b5061051c60048036038101906105179190614a79565b612374565b005b34801561052a57600080fd5b5061054560048036038101906105409190614ae8565b6124c3565b604051610552919061405e565b60405180910390f35b34801561056757600080fd5b50610582600480360381019061057d9190614b28565b6124e8565b60405161058f9190614119565b60405180910390f35b3480156105a457600080fd5b506105bf60048036038101906105ba9190614ceb565b61257c565b6040516105cc919061405e565b60405180910390f35b3480156105e157600080fd5b506105fc60048036038101906105f79190614d34565b612926565b005b60008073ffffffffffffffffffffffffffffffffffffffff168373ffffffffffffffffffffffffffffffffffffffff160361066e576040517f08c379a000000000000000000000000000000000000000000000000000000000815260040161066590614e3d565b60405180910390fd5b60008083815260200190815260200160002060008473ffffffffffffffffffffffffffffffffffffffff1673ffffffffffffffffffffffffffffffffffffffff16815260200190815260200160002054905092915050565b60007fd9b67a26000000000000000000000000000000000000000000000000000000007bffffffffffffffffffffffffffffffffffffffffffffffffffffffff1916827bffffffffffffffffffffffffffffffffffffffffffffffffffffffff1916148061079157507f0e89341c000000000000000000000000000000000000000000000000000000007bffffffffffffffffffffffffffffffffffffffffffffffffffffffff1916827bffffffffffffffffffffffffffffffffffffffffffffffffffffffff1916145b806107a157506107a0826129c7565b5b9050919050565b610bb881565b6060600280546107bd90614e8c565b80601f01602080910402602001604051908101604052809291908181526020018280546107e990614e8c565b80156108365780601f1061080b57610100808354040283529160200191610836565b820191906000526020600020905b81548152906001019060200180831161081957829003601f168201915b50505050509050919050565b60008082905060008173ffffffffffffffffffffffffffffffffffffffff1663feaf968c6040518163ffffffff1660e01b815260040160a060405180830381865afa158015610895573d6000803e3d6000fd5b505050506040513d601f19601f820116820180604052508101906108b99190614f40565b5050509150508092505050919050565b6108d1612a31565b73ffffffffffffffffffffffffffffffffffffffff168573ffffffffffffffffffffffffffffffffffffffff161480610917575061091685610911612a31565b6124e8565b5b610956576040517f08c379a000000000000000000000000000000000000000000000000000000000815260040161094d9061502d565b60405180910390fd5b6109638585858585612a39565b5050505050565b606081518351146109b0576040517f08c379a00000000000000000000000000000000000000000000000000000000081526004016109a7906150bf565b60405180910390fd5b6000835167ffffffffffffffff8111156109cd576109cc6142b2565b5b6040519080825280602002602001820160405280156109fb5781602001602082028036833780820191505090505b50905060005b8451811015610a7857610a48858281518110610a2057610a1f6150df565b5b6020026020010151858381518110610a3b57610a3a6150df565b5b60200260200101516105fe565b828281518110610a5b57610a5a6150df565b5b60200260200101818152505080610a719061513d565b9050610a01565b508091505092915050565b600080610a8f83611dee565b119050919050565b600081600a60149054906101000a900462ffffff1662ffffff168162ffffff1610610af7576040517f08c379a0000000000000000000000000000000000000000000000000000000008152600401610aee906151d1565b60405180910390fd5b600660008462ffffff1662ffffff16815260200190815260200160002080549050915050919050565b600081600a60149054906101000a900462ffffff1662ffffff168162ffffff1610610b80576040517f08c379a0000000000000000000000000000000000000000000000000000000008152600401610b77906151d1565b60405180910390fd5b6000610b8b84611e2f565b90506000610b9d8562ffffff16611dee565b905060008103610bb957670de0b6b3a764000093505050610be2565b806002600a610bc89190615324565b83610bd3919061536f565b610bdd91906153e0565b935050505b50919050565b610bf0613f4a565b82600a60149054906101000a900462ffffff1662ffffff168162ffffff1610610c4e576040517f08c379a0000000000000000000000000000000000000000000000000000000008152600401610c45906151d1565b60405180910390fd5b600660008562ffffff1662ffffff1681526020019081526020016000208381548110610c7d57610c7c6150df565b5b9060005260206000209060020201604051806040016040529081600082018054610ca690614e8c565b80601f0160208091040260200160405190810160405280929190818152602001828054610cd290614e8c565b8015610d1f5780601f10610cf457610100808354040283529160200191610d1f565b820191906000526020600020905b815481529060010190602001808311610d0257829003601f168201915b505050505081526020016001820160009054906101000a900460ff1660ff1660ff168152505091505092915050565b600082600a60149054906101000a900462ffffff1662ffffff168162ffffff1610610dae576040517f08c379a0000000000000000000000000000000000000000000000000000000008152600401610da5906151d1565b60405180910390fd5b6000610dbe8562ffffff16611dee565b90506000816103e8606487610dd3919061536f565b610ddd919061536f565b610de791906153e0565b90506000610df487610a97565b9050600080600090505b828110156115f9576000600660008b62ffffff1662ffffff1681526020019081526020016000208281548110610e3757610e366150df565b5b9060005260206000209060020201604051806040016040529081600082018054610e6090614e8c565b80601f0160208091040260200160405190810160405280929190818152602001828054610e8c90614e8c565b8015610ed95780601f10610eae57610100808354040283529160200191610ed9565b820191906000526020600020905b815481529060010190602001808311610ebc57829003601f168201915b505050505081526020016001820160009054906101000a900460ff1660ff1660ff16815250509050604051602001610f1090615468565b604051602081830303815290604052805190602001208160000151604051602001610f3b91906154ae565b60405160208183030381529060405280519060200120036110dd576000600760008c62ffffff1662ffffff168152602001908152602001600020600060088460000151604051610f8b91906154ae565b908152602001604051809103902060009054906101000a900473ffffffffffffffffffffffffffffffffffffffff1673ffffffffffffffffffffffffffffffffffffffff1673ffffffffffffffffffffffffffffffffffffffff1681526020019081526020016000205490506000620186a08783611009919061536f565b61101391906153e0565b905080600760008e62ffffff1662ffffff16815260200190815260200160002060006008866000015160405161104991906154ae565b908152602001604051809103902060009054906101000a900473ffffffffffffffffffffffffffffffffffffffff1673ffffffffffffffffffffffffffffffffffffffff1673ffffffffffffffffffffffffffffffffffffffff16815260200190815260200160002060008282546110c191906154c5565b9250508190555080856110d491906154f9565b945050506115e5565b6040516020016110ec90615579565b60405160208183030381529060405280519060200120816000015160405160200161111791906154ae565b6040516020818303038152906040528051906020012003611346576000600760008c62ffffff1662ffffff16815260200190815260200160002060006008846000015160405161116791906154ae565b908152602001604051809103902060009054906101000a900473ffffffffffffffffffffffffffffffffffffffff1673ffffffffffffffffffffffffffffffffffffffff1673ffffffffffffffffffffffffffffffffffffffff1681526020019081526020016000205490506000620186a087836111e5919061536f565b6111ef91906153e0565b905080600760008e62ffffff1662ffffff16815260200190815260200160002060006008866000015160405161122591906154ae565b908152602001604051809103902060009054906101000a900473ffffffffffffffffffffffffffffffffffffffff1673ffffffffffffffffffffffffffffffffffffffff1673ffffffffffffffffffffffffffffffffffffffff168152602001908152602001600020600082825461129d91906154c5565b92505081905550600460009054906101000a900473ffffffffffffffffffffffffffffffffffffffff1673ffffffffffffffffffffffffffffffffffffffff16632e1a7d4d826040518263ffffffff1660e01b81526004016112ff919061405e565b600060405180830381600087803b15801561131957600080fd5b505af115801561132d573d6000803e3d6000fd5b50505050808561133d91906154f9565b945050506115e4565b6000600760008c62ffffff1662ffffff16815260200190815260200160002060006008846000015160405161137b91906154ae565b908152602001604051809103902060009054906101000a900473ffffffffffffffffffffffffffffffffffffffff1673ffffffffffffffffffffffffffffffffffffffff1673ffffffffffffffffffffffffffffffffffffffff1681526020019081526020016000205490506000620186a087836113f9919061536f565b61140391906153e0565b905080600760008e62ffffff1662ffffff16815260200190815260200160002060006008866000015160405161143991906154ae565b908152602001604051809103902060009054906101000a900473ffffffffffffffffffffffffffffffffffffffff1673ffffffffffffffffffffffffffffffffffffffff1673ffffffffffffffffffffffffffffffffffffffff16815260200190815260200160002060008282546114b191906154c5565b92505081905550600061154382600886600001516040516114d291906154ae565b908152602001604051809103902060009054906101000a900473ffffffffffffffffffffffffffffffffffffffff16600860405161150f90615579565b908152602001604051809103902060009054906101000a900473ffffffffffffffffffffffffffffffffffffffff16612d5a565b9050600460009054906101000a900473ffffffffffffffffffffffffffffffffffffffff1673ffffffffffffffffffffffffffffffffffffffff16632e1a7d4d826040518263ffffffff1660e01b81526004016115a0919061405e565b600060405180830381600087803b1580156115ba57600080fd5b505af11580156115ce573d6000803e3d6000fd5b5050505080866115de91906154f9565b95505050505b5b5080806115f19061513d565b915050610dfe565b5061160a338962ffffff1689612ecc565b60003373ffffffffffffffffffffffffffffffffffffffff1682604051611630906155bf565b60006040518083038185875af1925050503d806000811461166d576040519150601f19603f3d011682016040523d82523d6000602084013e611672565b606091505b505090508061168057600080fd5b7f3a8c7f8ee392a5f03a68614a07481b2744d70742e4402781016d459204313ac88989846040516116b393929190615605565b60405180910390a181965050505050505092915050565b600081600a60149054906101000a900462ffffff1662ffffff168162ffffff161061172a576040517f08c379a0000000000000000000000000000000000000000000000000000000008152600401611721906151d1565b60405180910390fd5b6000341161176d576040517f08c379a000000000000000000000000000000000000000000000000000000000815260040161176490615688565b60405180910390fd5b60006117798434613112565b9050600061178685610a97565b905060005b81811015611d71576000600660008862ffffff1662ffffff16815260200190815260200160002082815481106117c4576117c36150df565b5b90600052602060002090600202016040518060400160405290816000820180546117ed90614e8c565b80601f016020809104026020016040519081016040528092919081815260200182805461181990614e8c565b80156118665780601f1061183b57610100808354040283529160200191611866565b820191906000526020600020905b81548152906001019060200180831161184957829003601f168201915b505050505081526020016001820160009054906101000a900460ff1660ff1660ff1681525050905060405160200161189d90615468565b6040516020818303038152906040528051906020012081600001516040516020016118c891906154ae565b60405160208183030381529060405280519060200120036119bf5760006064826020015160ff16346118fa919061536f565b61190491906153e0565b905080600760008a62ffffff1662ffffff16815260200190815260200160002060006008856000015160405161193a91906154ae565b908152602001604051809103902060009054906101000a900473ffffffffffffffffffffffffffffffffffffffff1673ffffffffffffffffffffffffffffffffffffffff1673ffffffffffffffffffffffffffffffffffffffff16815260200190815260200160002060008282546119b291906154f9565b9250508190555050611d5d565b6040516020016119ce90615579565b6040516020818303038152906040528051906020012081600001516040516020016119f991906154ae565b6040516020818303038152906040528051906020012003611b735760006064826020015160ff1634611a2b919061536f565b611a3591906153e0565b9050600460009054906101000a900473ffffffffffffffffffffffffffffffffffffffff1673ffffffffffffffffffffffffffffffffffffffff1663d0e30db0826040518263ffffffff1660e01b81526004016000604051808303818588803b158015611aa157600080fd5b505af1158015611ab5573d6000803e3d6000fd5b505050505080600760008a62ffffff1662ffffff168152602001908152602001600020600060088560000151604051611aee91906154ae565b908152602001604051809103902060009054906101000a900473ffffffffffffffffffffffffffffffffffffffff1673ffffffffffffffffffffffffffffffffffffffff1673ffffffffffffffffffffffffffffffffffffffff1681526020019081526020016000206000828254611b6691906154f9565b9250508190555050611d5c565b60006064826020015160ff1634611b8a919061536f565b611b9491906153e0565b9050600460009054906101000a900473ffffffffffffffffffffffffffffffffffffffff1673ffffffffffffffffffffffffffffffffffffffff1663d0e30db0826040518263ffffffff1660e01b81526004016000604051808303818588803b158015611c0057600080fd5b505af1158015611c14573d6000803e3d6000fd5b50505050506000611ca4826008604051611c2d90615579565b908152602001604051809103902060009054906101000a900473ffffffffffffffffffffffffffffffffffffffff1660088660000151604051611c7091906154ae565b908152602001604051809103902060009054906101000a900473ffffffffffffffffffffffffffffffffffffffff16612d5a565b905080600760008b62ffffff1662ffffff168152602001908152602001600020600060088660000151604051611cda91906154ae565b908152602001604051809103902060009054906101000a900473ffffffffffffffffffffffffffffffffffffffff1673ffffffffffffffffffffffffffffffffffffffff1673ffffffffffffffffffffffffffffffffffffffff1681526020019081526020016000206000828254611d5291906154f9565b9250508190555050505b5b508080611d699061513d565b91505061178b565b50611d92338662ffffff1684604051806020016040528060008152506131fd565b7fb05532e21b444e9778dc1661bc462d41ba18ec113dc5e87d9d7a3849ff02d1e8853484604051611dc593929190615605565b60405180910390a1819350505050919050565b611dea611de3612a31565b83836133ad565b5050565b600060036000838152602001908152602001600020549050919050565b7f000000000000000000000000000000000000000000000000000000000000000081565b600081600a60149054906101000a900462ffffff1662ffffff168162ffffff1610611e8f576040517f08c379a0000000000000000000000000000000000000000000000000000000008152600401611e86906151d1565b60405180910390fd5b6000611e9a84610a97565b9050600080600090505b82811015612368576000600660008862ffffff1662ffffff1681526020019081526020016000208281548110611edd57611edc6150df565b5b9060005260206000209060020201604051806040016040529081600082018054611f0690614e8c565b80601f0160208091040260200160405190810160405280929190818152602001828054611f3290614e8c565b8015611f7f5780601f10611f5457610100808354040283529160200191611f7f565b820191906000526020600020905b815481529060010190602001808311611f6257829003601f168201915b505050505081526020016001820160009054906101000a900460ff1660ff1660ff16815250509050604051602001611fb690615468565b604051602081830303815290604052805190602001208160000151604051602001611fe191906154ae565b604051602081830303815290604052805190602001201480612050575060405160200161200d90615579565b60405160208183030381529060405280519060200120816000015160405160200161203891906154ae565b60405160208183030381529060405280519060200120145b1561215a576000600760008962ffffff1662ffffff16815260200190815260200160002060006008846000015160405161208a91906154ae565b908152602001604051809103902060009054906101000a900473ffffffffffffffffffffffffffffffffffffffff1673ffffffffffffffffffffffffffffffffffffffff1673ffffffffffffffffffffffffffffffffffffffff1681526020019081526020016000205490506000612123600a60009054906101000a900473ffffffffffffffffffffffffffffffffffffffff16610842565b905060006305f5e1008284612138919061536f565b61214291906153e0565b9050808661215091906154f9565b9550505050612354565b60006008826000015160405161217091906154ae565b908152602001604051809103902060009054906101000a900473ffffffffffffffffffffffffffffffffffffffff1673ffffffffffffffffffffffffffffffffffffffff1663313ce5676040518163ffffffff1660e01b8152600401602060405180830381865afa1580156121e9573d6000803e3d6000fd5b505050506040513d601f19601f8201168201806040525081019061220d91906156bd565b90506000600760008a62ffffff1662ffffff16815260200190815260200160002060006008856000015160405161224491906154ae565b908152602001604051809103902060009054906101000a900473ffffffffffffffffffffffffffffffffffffffff1673ffffffffffffffffffffffffffffffffffffffff1673ffffffffffffffffffffffffffffffffffffffff16815260200190815260200160002054905060006122fd600985600001516040516122c991906154ae565b908152602001604051809103902060009054906101000a900473ffffffffffffffffffffffffffffffffffffffff16610842565b905060006305f5e1008285601261231491906156ea565b600a6123209190615324565b8561232b919061536f565b612335919061536f565b61233f91906153e0565b9050808761234d91906154f9565b9650505050505b5080806123609061513d565b915050611ea4565b50809350505050919050565b600560009054906101000a900473ffffffffffffffffffffffffffffffffffffffff1673ffffffffffffffffffffffffffffffffffffffff163373ffffffffffffffffffffffffffffffffffffffff1614612404576040517f08c379a00000000000000000000000000000000000000000000000000000000081526004016123fb9061576b565b60405180910390fd5b8160088460405161241591906154ae565b908152602001604051809103902060006101000a81548173ffffffffffffffffffffffffffffffffffffffff021916908373ffffffffffffffffffffffffffffffffffffffff1602179055508060098460405161247291906154ae565b908152602001604051809103902060006101000a81548173ffffffffffffffffffffffffffffffffffffffff021916908373ffffffffffffffffffffffffffffffffffffffff160217905550505050565b6007602052816000526040600020602052806000526040600020600091509150505481565b6000600160008473ffffffffffffffffffffffffffffffffffffffff1673ffffffffffffffffffffffffffffffffffffffff16815260200190815260200160002060008373ffffffffffffffffffffffffffffffffffffffff1673ffffffffffffffffffffffffffffffffffffffff16815260200190815260200160002060009054906101000a900460ff16905092915050565b6000600560009054906101000a900473ffffffffffffffffffffffffffffffffffffffff1673ffffffffffffffffffffffffffffffffffffffff163373ffffffffffffffffffffffffffffffffffffffff161461260e576040517f08c379a00000000000000000000000000000000000000000000000000000000081526004016126059061576b565b60405180910390fd5b60008251905061261c613f4a565b600080600090505b838110156128745760405160200161263b90615468565b60405160208183030381529060405280519060200120868281518110612664576126636150df565b5b60200260200101516000015160405160200161268091906154ae565b604051602081830303815290604052805190602001201461276757600073ffffffffffffffffffffffffffffffffffffffff1660088783815181106126c8576126c76150df565b5b6020026020010151600001516040516126e191906154ae565b908152602001604051809103902060009054906101000a900473ffffffffffffffffffffffffffffffffffffffff1673ffffffffffffffffffffffffffffffffffffffff1603612766576040517f08c379a000000000000000000000000000000000000000000000000000000000815260040161275d906157d7565b60405180910390fd5b5b85818151811061277a576127796150df565b5b60200260200101516000015183600001819052508581815181106127a1576127a06150df565b5b602002602001015160200151836020019060ff16908160ff16815250508260200151826127ce91906157f7565b915060066000600a60149054906101000a900462ffffff1662ffffff1662ffffff168152602001908152602001600020839080600181540180825580915050600190039060005260206000209060020201600090919091909150600082015181600001908161283d91906159ce565b5060208201518160010160006101000a81548160ff021916908360ff1602179055505050808061286c9061513d565b915050612624565b50600a601481819054906101000a900462ffffff168092919061289690615aa0565b91906101000a81548162ffffff021916908362ffffff1602179055505060648160ff16146128f9576040517f08c379a00000000000000000000000000000000000000000000000000000000081526004016128f090615b17565b60405180910390fd5b6001600a60149054906101000a900462ffffff166129179190615b37565b62ffffff169350505050919050565b61292e612a31565b73ffffffffffffffffffffffffffffffffffffffff168573ffffffffffffffffffffffffffffffffffffffff16148061297457506129738561296e612a31565b6124e8565b5b6129b3576040517f08c379a00000000000000000000000000000000000000000000000000000000081526004016129aa9061502d565b60405180910390fd5b6129c08585858585613519565b5050505050565b60007f01ffc9a7000000000000000000000000000000000000000000000000000000007bffffffffffffffffffffffffffffffffffffffffffffffffffffffff1916827bffffffffffffffffffffffffffffffffffffffffffffffffffffffff1916149050919050565b600033905090565b8151835114612a7d576040517f08c379a0000000000000000000000000000000000000000000000000000000008152600401612a7490615be0565b60405180910390fd5b600073ffffffffffffffffffffffffffffffffffffffff168473ffffffffffffffffffffffffffffffffffffffff1603612aec576040517f08c379a0000000000000000000000000000000000000000000000000000000008152600401612ae390615c72565b60405180910390fd5b6000612af6612a31565b9050612b068187878787876137b4565b60005b8451811015612cb7576000858281518110612b2757612b266150df565b5b602002602001015190506000858381518110612b4657612b456150df565b5b60200260200101519050600080600084815260200190815260200160002060008b73ffffffffffffffffffffffffffffffffffffffff1673ffffffffffffffffffffffffffffffffffffffff16815260200190815260200160002054905081811015612be7576040517f08c379a0000000000000000000000000000000000000000000000000000000008152600401612bde90615d04565b60405180910390fd5b81810360008085815260200190815260200160002060008c73ffffffffffffffffffffffffffffffffffffffff1673ffffffffffffffffffffffffffffffffffffffff168152602001908152602001600020819055508160008085815260200190815260200160002060008b73ffffffffffffffffffffffffffffffffffffffff1673ffffffffffffffffffffffffffffffffffffffff1681526020019081526020016000206000828254612c9c91906154f9565b9250508190555050505080612cb09061513d565b9050612b09565b508473ffffffffffffffffffffffffffffffffffffffff168673ffffffffffffffffffffffffffffffffffffffff168273ffffffffffffffffffffffffffffffffffffffff167f4a39dc06d4c0dbc64b70af90fd698a233a518aa5d07e595d983b8c0526c8f7fb8787604051612d2e929190615d24565b60405180910390a4612d448187878787876137ca565b612d528187878787876137d2565b505050505050565b6000612d87837f0000000000000000000000000000000000000000000000000000000000000000866139a9565b60006040518061010001604052808573ffffffffffffffffffffffffffffffffffffffff1681526020018473ffffffffffffffffffffffffffffffffffffffff168152602001610bb862ffffff1681526020013073ffffffffffffffffffffffffffffffffffffffff16815260200142815260200186815260200160008152602001600073ffffffffffffffffffffffffffffffffffffffff1681525090507f000000000000000000000000000000000000000000000000000000000000000073ffffffffffffffffffffffffffffffffffffffff1663414bf389826040518263ffffffff1660e01b8152600401612e7f9190615e2a565b6020604051808303816000875af1158015612e9e573d6000803e3d6000fd5b505050506040513d601f19601f82011682018060405250810190612ec29190615e46565b9150509392505050565b600073ffffffffffffffffffffffffffffffffffffffff168373ffffffffffffffffffffffffffffffffffffffff1603612f3b576040517f08c379a0000000000000000000000000000000000000000000000000000000008152600401612f3290615ee5565b60405180910390fd5b6000612f45612a31565b90506000612f5284613afe565b90506000612f5f84613afe565b9050612f7f838760008585604051806020016040528060008152506137b4565b600080600087815260200190815260200160002060008873ffffffffffffffffffffffffffffffffffffffff1673ffffffffffffffffffffffffffffffffffffffff16815260200190815260200160002054905084811015613016576040517f08c379a000000000000000000000000000000000000000000000000000000000815260040161300d90615f77565b60405180910390fd5b84810360008088815260200190815260200160002060008973ffffffffffffffffffffffffffffffffffffffff1673ffffffffffffffffffffffffffffffffffffffff16815260200190815260200160002081905550600073ffffffffffffffffffffffffffffffffffffffff168773ffffffffffffffffffffffffffffffffffffffff168573ffffffffffffffffffffffffffffffffffffffff167fc3d58168c5ae7397731d063d5bbf3d657854427343f4c083240f7aacaa2d0f6289896040516130e3929190615f97565b60405180910390a4613109848860008686604051806020016040528060008152506137ca565b50505050505050565b600082600a60149054906101000a900462ffffff1662ffffff168162ffffff1610613172576040517f08c379a0000000000000000000000000000000000000000000000000000000008152600401613169906151d1565b60405180910390fd5b600061319f600a60009054906101000a900473ffffffffffffffffffffffffffffffffffffffff16610842565b905060006305f5e10082866131b4919061536f565b6131be91906153e0565b905060006131cb87610b20565b9050806002600a6131dc9190615324565b836131e7919061536f565b6131f191906153e0565b94505050505092915050565b600073ffffffffffffffffffffffffffffffffffffffff168473ffffffffffffffffffffffffffffffffffffffff160361326c576040517f08c379a000000000000000000000000000000000000000000000000000000000815260040161326390616032565b60405180910390fd5b6000613276612a31565b9050600061328385613afe565b9050600061329085613afe565b90506132a1836000898585896137b4565b8460008088815260200190815260200160002060008973ffffffffffffffffffffffffffffffffffffffff1673ffffffffffffffffffffffffffffffffffffffff168152602001908152602001600020600082825461330091906154f9565b925050819055508673ffffffffffffffffffffffffffffffffffffffff16600073ffffffffffffffffffffffffffffffffffffffff168473ffffffffffffffffffffffffffffffffffffffff167fc3d58168c5ae7397731d063d5bbf3d657854427343f4c083240f7aacaa2d0f62898960405161337e929190615f97565b60405180910390a4613395836000898585896137ca565b6133a483600089898989613b78565b50505050505050565b8173ffffffffffffffffffffffffffffffffffffffff168373ffffffffffffffffffffffffffffffffffffffff160361341b576040517f08c379a0000000000000000000000000000000000000000000000000000000008152600401613412906160c4565b60405180910390fd5b80600160008573ffffffffffffffffffffffffffffffffffffffff1673ffffffffffffffffffffffffffffffffffffffff16815260200190815260200160002060008473ffffffffffffffffffffffffffffffffffffffff1673ffffffffffffffffffffffffffffffffffffffff16815260200190815260200160002060006101000a81548160ff0219169083151502179055508173ffffffffffffffffffffffffffffffffffffffff168373ffffffffffffffffffffffffffffffffffffffff167f17307eab39ab6107e8899845ad3d59bd9653f200f220920489ca2b5937696c318360405161350c9190614119565b60405180910390a3505050565b600073ffffffffffffffffffffffffffffffffffffffff168473ffffffffffffffffffffffffffffffffffffffff1603613588576040517f08c379a000000000000000000000000000000000000000000000000000000000815260040161357f90615c72565b60405180910390fd5b6000613592612a31565b9050600061359f85613afe565b905060006135ac85613afe565b90506135bc8389898585896137b4565b600080600088815260200190815260200160002060008a73ffffffffffffffffffffffffffffffffffffffff1673ffffffffffffffffffffffffffffffffffffffff16815260200190815260200160002054905085811015613653576040517f08c379a000000000000000000000000000000000000000000000000000000000815260040161364a90615d04565b60405180910390fd5b85810360008089815260200190815260200160002060008b73ffffffffffffffffffffffffffffffffffffffff1673ffffffffffffffffffffffffffffffffffffffff168152602001908152602001600020819055508560008089815260200190815260200160002060008a73ffffffffffffffffffffffffffffffffffffffff1673ffffffffffffffffffffffffffffffffffffffff168152602001908152602001600020600082825461370891906154f9565b925050819055508773ffffffffffffffffffffffffffffffffffffffff168973ffffffffffffffffffffffffffffffffffffffff168573ffffffffffffffffffffffffffffffffffffffff167fc3d58168c5ae7397731d063d5bbf3d657854427343f4c083240f7aacaa2d0f628a8a604051613785929190615f97565b60405180910390a461379b848a8a86868a6137ca565b6137a9848a8a8a8a8a613b78565b505050505050505050565b6137c2868686868686613d4f565b505050505050565b505050505050565b6137f18473ffffffffffffffffffffffffffffffffffffffff16613f1f565b156139a1578373ffffffffffffffffffffffffffffffffffffffff1663bc197c8187878686866040518663ffffffff1660e01b8152600401613837959493929190616148565b6020604051808303816000875af192505050801561387357506040513d601f19601f8201168201806040525081019061387091906161c5565b60015b6139185761387f6161ff565b806308c379a0036138db5750613893616221565b8061389e57506138dd565b806040517f08c379a00000000000000000000000000000000000000000000000000000000081526004016138d2919061422a565b60405180910390fd5b505b6040517f08c379a000000000000000000000000000000000000000000000000000000000815260040161390f90616323565b60405180910390fd5b63bc197c8160e01b7bffffffffffffffffffffffffffffffffffffffffffffffffffffffff1916817bffffffffffffffffffffffffffffffffffffffffffffffffffffffff19161461399f576040517f08c379a0000000000000000000000000000000000000000000000000000000008152600401613996906163b5565b60405180910390fd5b505b505050505050565b6000808473ffffffffffffffffffffffffffffffffffffffff1663095ea7b360e01b85856040516024016139de9291906163d5565b604051602081830303815290604052907bffffffffffffffffffffffffffffffffffffffffffffffffffffffff19166020820180517bffffffffffffffffffffffffffffffffffffffffffffffffffffffff8381831617835250505050604051613a48919061642f565b6000604051808303816000865af19150503d8060008114613a85576040519150601f19603f3d011682016040523d82523d6000602084013e613a8a565b606091505b5091509150818015613ab85750600081511480613ab7575080806020019051810190613ab6919061645b565b5b5b613af7576040517f08c379a0000000000000000000000000000000000000000000000000000000008152600401613aee906164d4565b60405180910390fd5b5050505050565b60606000600167ffffffffffffffff811115613b1d57613b1c6142b2565b5b604051908082528060200260200182016040528015613b4b5781602001602082028036833780820191505090505b5090508281600081518110613b6357613b626150df565b5b60200260200101818152505080915050919050565b613b978473ffffffffffffffffffffffffffffffffffffffff16613f1f565b15613d47578373ffffffffffffffffffffffffffffffffffffffff1663f23a6e6187878686866040518663ffffffff1660e01b8152600401613bdd9594939291906164f4565b6020604051808303816000875af1925050508015613c1957506040513d601f19601f82011682018060405250810190613c1691906161c5565b60015b613cbe57613c256161ff565b806308c379a003613c815750613c39616221565b80613c445750613c83565b806040517f08c379a0000000000000000000000000000000000000000000000000000000008152600401613c78919061422a565b60405180910390fd5b505b6040517f08c379a0000000000000000000000000000000000000000000000000000000008152600401613cb590616323565b60405180910390fd5b63f23a6e6160e01b7bffffffffffffffffffffffffffffffffffffffffffffffffffffffff1916817bffffffffffffffffffffffffffffffffffffffffffffffffffffffff191614613d45576040517f08c379a0000000000000000000000000000000000000000000000000000000008152600401613d3c906163b5565b60405180910390fd5b505b505050505050565b613d5d868686868686613f42565b600073ffffffffffffffffffffffffffffffffffffffff168573ffffffffffffffffffffffffffffffffffffffff1603613e0e5760005b8351811015613e0c57828181518110613db057613daf6150df565b5b602002602001015160036000868481518110613dcf57613dce6150df565b5b602002602001015181526020019081526020016000206000828254613df491906154f9565b9250508190555080613e059061513d565b9050613d94565b505b600073ffffffffffffffffffffffffffffffffffffffff168473ffffffffffffffffffffffffffffffffffffffff1603613f175760005b8351811015613f15576000848281518110613e6357613e626150df565b5b602002602001015190506000848381518110613e8257613e816150df565b5b6020026020010151905060006003600084815260200190815260200160002054905081811015613ee7576040517f08c379a0000000000000000000000000000000000000000000000000000000008152600401613ede906165c0565b60405180910390fd5b818103600360008581526020019081526020016000208190555050505080613f0e9061513d565b9050613e45565b505b505050505050565b6000808273ffffffffffffffffffffffffffffffffffffffff163b119050919050565b505050505050565b604051806040016040528060608152602001600060ff1681525090565b6000604051905090565b600080fd5b600080fd5b600073ffffffffffffffffffffffffffffffffffffffff82169050919050565b6000613fa682613f7b565b9050919050565b613fb681613f9b565b8114613fc157600080fd5b50565b600081359050613fd381613fad565b92915050565b6000819050919050565b613fec81613fd9565b8114613ff757600080fd5b50565b60008135905061400981613fe3565b92915050565b6000806040838503121561402657614025613f71565b5b600061403485828601613fc4565b925050602061404585828601613ffa565b9150509250929050565b61405881613fd9565b82525050565b6000602082019050614073600083018461404f565b92915050565b60007fffffffff0000000000000000000000000000000000000000000000000000000082169050919050565b6140ae81614079565b81146140b957600080fd5b50565b6000813590506140cb816140a5565b92915050565b6000602082840312156140e7576140e6613f71565b5b60006140f5848285016140bc565b91505092915050565b60008115159050919050565b614113816140fe565b82525050565b600060208201905061412e600083018461410a565b92915050565b600062ffffff82169050919050565b61414c81614134565b82525050565b60006020820190506141676000830184614143565b92915050565b60006020828403121561418357614182613f71565b5b600061419184828501613ffa565b91505092915050565b600081519050919050565b600082825260208201905092915050565b60005b838110156141d45780820151818401526020810190506141b9565b60008484015250505050565b6000601f19601f8301169050919050565b60006141fc8261419a565b61420681856141a5565b93506142168185602086016141b6565b61421f816141e0565b840191505092915050565b6000602082019050818103600083015261424481846141f1565b905092915050565b60006020828403121561426257614261613f71565b5b600061427084828501613fc4565b91505092915050565b6000819050919050565b61428c81614279565b82525050565b60006020820190506142a76000830184614283565b92915050565b600080fd5b7f4e487b7100000000000000000000000000000000000000000000000000000000600052604160045260246000fd5b6142ea826141e0565b810181811067ffffffffffffffff82111715614309576143086142b2565b5b80604052505050565b600061431c613f67565b905061432882826142e1565b919050565b600067ffffffffffffffff821115614348576143476142b2565b5b602082029050602081019050919050565b600080fd5b600061437161436c8461432d565b614312565b9050808382526020820190506020840283018581111561439457614393614359565b5b835b818110156143bd57806143a98882613ffa565b845260208401935050602081019050614396565b5050509392505050565b600082601f8301126143dc576143db6142ad565b5b81356143ec84826020860161435e565b91505092915050565b600080fd5b600067ffffffffffffffff821115614415576144146142b2565b5b61441e826141e0565b9050602081019050919050565b82818337600083830152505050565b600061444d614448846143fa565b614312565b905082815260208101848484011115614469576144686143f5565b5b61447484828561442b565b509392505050565b600082601f830112614491576144906142ad565b5b81356144a184826020860161443a565b91505092915050565b600080600080600060a086880312156144c6576144c5613f71565b5b60006144d488828901613fc4565b95505060206144e588828901613fc4565b945050604086013567ffffffffffffffff81111561450657614505613f76565b5b614512888289016143c7565b935050606086013567ffffffffffffffff81111561453357614532613f76565b5b61453f888289016143c7565b925050608086013567ffffffffffffffff8111156145605761455f613f76565b5b61456c8882890161447c565b9150509295509295909350565b600067ffffffffffffffff821115614594576145936142b2565b5b602082029050602081019050919050565b60006145b86145b384614579565b614312565b905080838252602082019050602084028301858111156145db576145da614359565b5b835b8181101561460457806145f08882613fc4565b8452602084019350506020810190506145dd565b5050509392505050565b600082601f830112614623576146226142ad565b5b81356146338482602086016145a5565b91505092915050565b6000806040838503121561465357614652613f71565b5b600083013567ffffffffffffffff81111561467157614670613f76565b5b61467d8582860161460e565b925050602083013567ffffffffffffffff81111561469e5761469d613f76565b5b6146aa858286016143c7565b9150509250929050565b600081519050919050565b600082825260208201905092915050565b6000819050602082019050919050565b6146e981613fd9565b82525050565b60006146fb83836146e0565b60208301905092915050565b6000602082019050919050565b600061471f826146b4565b61472981856146bf565b9350614734836146d0565b8060005b8381101561476557815161474c88826146ef565b975061475783614707565b925050600181019050614738565b5085935050505092915050565b6000602082019050818103600083015261478c8184614714565b905092915050565b61479d81614134565b81146147a857600080fd5b50565b6000813590506147ba81614794565b92915050565b6000602082840312156147d6576147d5613f71565b5b60006147e4848285016147ab565b91505092915050565b6000806040838503121561480457614803613f71565b5b6000614812858286016147ab565b925050602061482385828601613ffa565b9150509250929050565b600082825260208201905092915050565b60006148498261419a565b614853818561482d565b93506148638185602086016141b6565b61486c816141e0565b840191505092915050565b600060ff82169050919050565b61488d81614877565b82525050565b600060408301600083015184820360008601526148b0828261483e565b91505060208301516148c56020860182614884565b508091505092915050565b600060208201905081810360008301526148ea8184614893565b905092915050565b6148fb816140fe565b811461490657600080fd5b50565b600081359050614918816148f2565b92915050565b6000806040838503121561493557614934613f71565b5b600061494385828601613fc4565b925050602061495485828601614909565b9150509250929050565b6000819050919050565b600061498361497e61497984613f7b565b61495e565b613f7b565b9050919050565b600061499582614968565b9050919050565b60006149a78261498a565b9050919050565b6149b78161499c565b82525050565b60006020820190506149d260008301846149ae565b92915050565b600067ffffffffffffffff8211156149f3576149f26142b2565b5b6149fc826141e0565b9050602081019050919050565b6000614a1c614a17846149d8565b614312565b905082815260208101848484011115614a3857614a376143f5565b5b614a4384828561442b565b509392505050565b600082601f830112614a6057614a5f6142ad565b5b8135614a70848260208601614a09565b91505092915050565b600080600060608486031215614a9257614a91613f71565b5b600084013567ffffffffffffffff811115614ab057614aaf613f76565b5b614abc86828701614a4b565b9350506020614acd86828701613fc4565b9250506040614ade86828701613fc4565b9150509250925092565b60008060408385031215614aff57614afe613f71565b5b6000614b0d858286016147ab565b9250506020614b1e85828601613fc4565b9150509250929050565b60008060408385031215614b3f57614b3e613f71565b5b6000614b4d85828601613fc4565b9250506020614b5e85828601613fc4565b9150509250929050565b600067ffffffffffffffff821115614b8357614b826142b2565b5b602082029050602081019050919050565b600080fd5b600080fd5b614ba781614877565b8114614bb257600080fd5b50565b600081359050614bc481614b9e565b92915050565b600060408284031215614be057614bdf614b94565b5b614bea6040614312565b9050600082013567ffffffffffffffff811115614c0a57614c09614b99565b5b614c1684828501614a4b565b6000830152506020614c2a84828501614bb5565b60208301525092915050565b6000614c49614c4484614b68565b614312565b90508083825260208201905060208402830185811115614c6c57614c6b614359565b5b835b81811015614cb357803567ffffffffffffffff811115614c9157614c906142ad565b5b808601614c9e8982614bca565b85526020850194505050602081019050614c6e565b5050509392505050565b600082601f830112614cd257614cd16142ad565b5b8135614ce2848260208601614c36565b91505092915050565b600060208284031215614d0157614d00613f71565b5b600082013567ffffffffffffffff811115614d1f57614d1e613f76565b5b614d2b84828501614cbd565b91505092915050565b600080600080600060a08688031215614d5057614d4f613f71565b5b6000614d5e88828901613fc4565b9550506020614d6f88828901613fc4565b9450506040614d8088828901613ffa565b9350506060614d9188828901613ffa565b925050608086013567ffffffffffffffff811115614db257614db1613f76565b5b614dbe8882890161447c565b9150509295509295909350565b7f455243313135353a2061646472657373207a65726f206973206e6f742061207660008201527f616c6964206f776e657200000000000000000000000000000000000000000000602082015250565b6000614e27602a836141a5565b9150614e3282614dcb565b604082019050919050565b60006020820190508181036000830152614e5681614e1a565b9050919050565b7f4e487b7100000000000000000000000000000000000000000000000000000000600052602260045260246000fd5b60006002820490506001821680614ea457607f821691505b602082108103614eb757614eb6614e5d565b5b50919050565b600069ffffffffffffffffffff82169050919050565b614edc81614ebd565b8114614ee757600080fd5b50565b600081519050614ef981614ed3565b92915050565b614f0881614279565b8114614f1357600080fd5b50565b600081519050614f2581614eff565b92915050565b600081519050614f3a81613fe3565b92915050565b600080600080600060a08688031215614f5c57614f5b613f71565b5b6000614f6a88828901614eea565b9550506020614f7b88828901614f16565b9450506040614f8c88828901614f2b565b9350506060614f9d88828901614f2b565b9250506080614fae88828901614eea565b9150509295509295909350565b7f455243313135353a2063616c6c6572206973206e6f7420746f6b656e206f776e60008201527f6572206f7220617070726f766564000000000000000000000000000000000000602082015250565b6000615017602e836141a5565b915061502282614fbb565b604082019050919050565b600060208201905081810360008301526150468161500a565b9050919050565b7f455243313135353a206163636f756e747320616e6420696473206c656e67746860008201527f206d69736d617463680000000000000000000000000000000000000000000000602082015250565b60006150a96029836141a5565b91506150b48261504d565b604082019050919050565b600060208201905081810360008301526150d88161509c565b9050919050565b7f4e487b7100000000000000000000000000000000000000000000000000000000600052603260045260246000fd5b7f4e487b7100000000000000000000000000000000000000000000000000000000600052601160045260246000fd5b600061514882613fd9565b91507fffffffffffffffffffffffffffffffffffffffffffffffffffffffffffffffff820361517a5761517961510e565b5b600182019050919050565b7f496e76616c696420426f78494420706172616d657465722e0000000000000000600082015250565b60006151bb6018836141a5565b91506151c682615185565b602082019050919050565b600060208201905081810360008301526151ea816151ae565b9050919050565b60008160011c9050919050565b6000808291508390505b6001851115615248578086048111156152245761522361510e565b5b60018516156152335780820291505b8081029050615241856151f1565b9450615208565b94509492505050565b600082615261576001905061531d565b8161526f576000905061531d565b8160018114615285576002811461528f576152be565b600191505061531d565b60ff8411156152a1576152a061510e565b5b8360020a9150848211156152b8576152b761510e565b5b5061531d565b5060208310610133831016604e8410600b84101617156152f35782820a9050838111156152ee576152ed61510e565b5b61531d565b61530084848460016151fe565b925090508184048111156153175761531661510e565b5b81810290505b9392505050565b600061532f82613fd9565b915061533a83614877565b92506153677fffffffffffffffffffffffffffffffffffffffffffffffffffffffffffffffff8484615251565b905092915050565b600061537a82613fd9565b915061538583613fd9565b925082820261539381613fd9565b915082820484148315176153aa576153a961510e565b5b5092915050565b7f4e487b7100000000000000000000000000000000000000000000000000000000600052601260045260246000fd5b60006153eb82613fd9565b91506153f683613fd9565b925082615406576154056153b1565b5b828204905092915050565b600081905092915050565b7f4445560000000000000000000000000000000000000000000000000000000000600082015250565b6000615452600383615411565b915061545d8261541c565b600382019050919050565b600061547382615445565b9150819050919050565b60006154888261419a565b6154928185615411565b93506154a28185602086016141b6565b80840191505092915050565b60006154ba828461547d565b915081905092915050565b60006154d082613fd9565b91506154db83613fd9565b92508282039050818111156154f3576154f261510e565b5b92915050565b600061550482613fd9565b915061550f83613fd9565b92508282019050808211156155275761552661510e565b5b92915050565b7f5744455600000000000000000000000000000000000000000000000000000000600082015250565b6000615563600483615411565b915061556e8261552d565b600482019050919050565b600061558482615556565b9150819050919050565b600081905092915050565b50565b60006155a960008361558e565b91506155b482615599565b600082019050919050565b60006155ca8261559c565b9150819050919050565b60006155ef6155ea6155e584614134565b61495e565b613fd9565b9050919050565b6155ff816155d4565b82525050565b600060608201905061561a60008301866155f6565b615627602083018561404f565b615634604083018461404f565b949350505050565b7f6d73672e76616c75652069732030000000000000000000000000000000000000600082015250565b6000615672600e836141a5565b915061567d8261563c565b602082019050919050565b600060208201905081810360008301526156a181615665565b9050919050565b6000815190506156b781614b9e565b92915050565b6000602082840312156156d3576156d2613f71565b5b60006156e1848285016156a8565b91505092915050565b60006156f582614877565b915061570083614877565b9250828203905060ff8111156157195761571861510e565b5b92915050565b7f4f776e657220616363657373206f6e6c79000000000000000000000000000000600082015250565b60006157556011836141a5565b91506157608261571f565b602082019050919050565b6000602082019050818103600083015261578481615748565b9050919050565b7f546f6b656e206e6f7420626f7820636f6d70617469626c652e00000000000000600082015250565b60006157c16019836141a5565b91506157cc8261578b565b602082019050919050565b600060208201905081810360008301526157f0816157b4565b9050919050565b600061580282614877565b915061580d83614877565b9250828201905060ff8111156158265761582561510e565b5b92915050565b60008190508160005260206000209050919050565b60006020601f8301049050919050565b600082821b905092915050565b60006008830261588e7fffffffffffffffffffffffffffffffffffffffffffffffffffffffffffffffff82615851565b6158988683615851565b95508019841693508086168417925050509392505050565b60006158cb6158c66158c184613fd9565b61495e565b613fd9565b9050919050565b6000819050919050565b6158e5836158b0565b6158f96158f1826158d2565b84845461585e565b825550505050565b600090565b61590e615901565b6159198184846158dc565b505050565b5b8181101561593d57615932600082615906565b60018101905061591f565b5050565b601f821115615982576159538161582c565b61595c84615841565b8101602085101561596b578190505b61597f61597785615841565b83018261591e565b50505b505050565b600082821c905092915050565b60006159a560001984600802615987565b1980831691505092915050565b60006159be8383615994565b9150826002028217905092915050565b6159d78261419a565b67ffffffffffffffff8111156159f0576159ef6142b2565b5b6159fa8254614e8c565b615a05828285615941565b600060209050601f831160018114615a385760008415615a26578287015190505b615a3085826159b2565b865550615a98565b601f198416615a468661582c565b60005b82811015615a6e57848901518255600182019150602085019450602081019050615a49565b86831015615a8b5784890151615a87601f891682615994565b8355505b6001600288020188555050505b505050505050565b6000615aab82614134565b915062ffffff8203615ac057615abf61510e565b5b600182019050919050565b7f70657263656e7461676520213d20313030000000000000000000000000000000600082015250565b6000615b016011836141a5565b9150615b0c82615acb565b602082019050919050565b60006020820190508181036000830152615b3081615af4565b9050919050565b6000615b4282614134565b9150615b4d83614134565b9250828203905062ffffff811115615b6857615b6761510e565b5b92915050565b7f455243313135353a2069647320616e6420616d6f756e7473206c656e6774682060008201527f6d69736d61746368000000000000000000000000000000000000000000000000602082015250565b6000615bca6028836141a5565b9150615bd582615b6e565b604082019050919050565b60006020820190508181036000830152615bf981615bbd565b9050919050565b7f455243313135353a207472616e7366657220746f20746865207a65726f20616460008201527f6472657373000000000000000000000000000000000000000000000000000000602082015250565b6000615c5c6025836141a5565b9150615c6782615c00565b604082019050919050565b60006020820190508181036000830152615c8b81615c4f565b9050919050565b7f455243313135353a20696e73756666696369656e742062616c616e636520666f60008201527f72207472616e7366657200000000000000000000000000000000000000000000602082015250565b6000615cee602a836141a5565b9150615cf982615c92565b604082019050919050565b60006020820190508181036000830152615d1d81615ce1565b9050919050565b60006040820190508181036000830152615d3e8185614714565b90508181036020830152615d528184614714565b90509392505050565b615d6481613f9b565b82525050565b615d7381614134565b82525050565b615d8281613f7b565b82525050565b61010082016000820151615d9f6000850182615d5b565b506020820151615db26020850182615d5b565b506040820151615dc56040850182615d6a565b506060820151615dd86060850182615d5b565b506080820151615deb60808501826146e0565b5060a0820151615dfe60a08501826146e0565b5060c0820151615e1160c08501826146e0565b5060e0820151615e2460e0850182615d79565b50505050565b600061010082019050615e406000830184615d88565b92915050565b600060208284031215615e5c57615e5b613f71565b5b6000615e6a84828501614f2b565b91505092915050565b7f455243313135353a206275726e2066726f6d20746865207a65726f206164647260008201527f6573730000000000000000000000000000000000000000000000000000000000602082015250565b6000615ecf6023836141a5565b9150615eda82615e73565b604082019050919050565b60006020820190508181036000830152615efe81615ec2565b9050919050565b7f455243313135353a206275726e20616d6f756e7420657863656564732062616c60008201527f616e636500000000000000000000000000000000000000000000000000000000602082015250565b6000615f616024836141a5565b9150615f6c82615f05565b604082019050919050565b60006020820190508181036000830152615f9081615f54565b9050919050565b6000604082019050615fac600083018561404f565b615fb9602083018461404f565b9392505050565b7f455243313135353a206d696e7420746f20746865207a65726f2061646472657360008201527f7300000000000000000000000000000000000000000000000000000000000000602082015250565b600061601c6021836141a5565b915061602782615fc0565b604082019050919050565b6000602082019050818103600083015261604b8161600f565b9050919050565b7f455243313135353a2073657474696e6720617070726f76616c2073746174757360008201527f20666f722073656c660000000000000000000000000000000000000000000000602082015250565b60006160ae6029836141a5565b91506160b982616052565b604082019050919050565b600060208201905081810360008301526160dd816160a1565b9050919050565b6160ed81613f9b565b82525050565b600081519050919050565b600082825260208201905092915050565b600061611a826160f3565b61612481856160fe565b93506161348185602086016141b6565b61613d816141e0565b840191505092915050565b600060a08201905061615d60008301886160e4565b61616a60208301876160e4565b818103604083015261617c8186614714565b905081810360608301526161908185614714565b905081810360808301526161a4818461610f565b90509695505050505050565b6000815190506161bf816140a5565b92915050565b6000602082840312156161db576161da613f71565b5b60006161e9848285016161b0565b91505092915050565b60008160e01c9050919050565b600060033d111561621e5760046000803e61621b6000516161f2565b90505b90565b600060443d106162ae57616233613f67565b60043d036004823e80513d602482011167ffffffffffffffff8211171561625b5750506162ae565b808201805167ffffffffffffffff81111561627957505050506162ae565b80602083010160043d0385018111156162965750505050506162ae565b6162a5826020018501866142e1565b82955050505050505b90565b7f455243313135353a207472616e7366657220746f206e6f6e2d4552433131353560008201527f526563656976657220696d706c656d656e746572000000000000000000000000602082015250565b600061630d6034836141a5565b9150616318826162b1565b604082019050919050565b6000602082019050818103600083015261633c81616300565b9050919050565b7f455243313135353a204552433131353552656365697665722072656a6563746560008201527f6420746f6b656e73000000000000000000000000000000000000000000000000602082015250565b600061639f6028836141a5565b91506163aa82616343565b604082019050919050565b600060208201905081810360008301526163ce81616392565b9050919050565b60006040820190506163ea60008301856160e4565b6163f7602083018461404f565b9392505050565b6000616409826160f3565b616413818561558e565b93506164238185602086016141b6565b80840191505092915050565b600061643b82846163fe565b915081905092915050565b600081519050616455816148f2565b92915050565b60006020828403121561647157616470613f71565b5b600061647f84828501616446565b91505092915050565b7f5341000000000000000000000000000000000000000000000000000000000000600082015250565b60006164be6002836141a5565b91506164c982616488565b602082019050919050565b600060208201905081810360008301526164ed816164b1565b9050919050565b600060a08201905061650960008301886160e4565b61651660208301876160e4565b616523604083018661404f565b616530606083018561404f565b8181036080830152616542818461610f565b90509695505050505050565b7f455243313135353a206275726e20616d6f756e74206578636565647320746f7460008201527f616c537570706c79000000000000000000000000000000000000000000000000602082015250565b60006165aa6028836141a5565b91506165b58261654e565b604082019050919050565b600060208201905081810360008301526165d98161659d565b905091905056fea2646970667358221220d4f9f9fed8992d8929a001dc78ea8770dd9f55eeadf78ae67ac55d2cbb58f5c064736f6c63430008120033","opcodes":"PUSH1 0xA0 PUSH1 0x40 MSTORE CALLVALUE DUP1 ISZERO PUSH3 0x11 JUMPI PUSH1 0x0 DUP1 REVERT JUMPDEST POP PUSH1 0x40 MLOAD DUP1 PUSH1 0x40 ADD PUSH1 0x40 MSTORE DUP1 PUSH1 0x1 DUP2 MSTORE PUSH1 0x20 ADD PUSH32 0x2000000000000000000000000000000000000000000000000000000000000000 DUP2 MSTORE POP PUSH3 0x59 DUP2 PUSH3 0x2A6 PUSH1 0x20 SHL PUSH1 0x20 SHR JUMP JUMPDEST POP CALLER PUSH1 0x5 PUSH1 0x0 PUSH2 0x100 EXP DUP2 SLOAD DUP2 PUSH20 0xFFFFFFFFFFFFFFFFFFFFFFFFFFFFFFFFFFFFFFFF MUL NOT AND SWAP1 DUP4 PUSH20 0xFFFFFFFFFFFFFFFFFFFFFFFFFFFFFFFFFFFFFFFF AND MUL OR SWAP1 SSTORE POP PUSH20 0xE592427A0AECE92DE3EDEE1F18E0157C05861564 PUSH20 0xFFFFFFFFFFFFFFFFFFFFFFFFFFFFFFFFFFFFFFFF AND PUSH1 0x80 DUP2 PUSH20 0xFFFFFFFFFFFFFFFFFFFFFFFFFFFFFFFFFFFFFFFF AND DUP2 MSTORE POP POP PUSH20 0xAB594600376EC9FD91F8E885DADF0CE036862DE0 PUSH1 0xA PUSH1 0x0 PUSH2 0x100 EXP DUP2 SLOAD DUP2 PUSH20 0xFFFFFFFFFFFFFFFFFFFFFFFFFFFFFFFFFFFFFFFF MUL NOT AND SWAP1 DUP4 PUSH20 0xFFFFFFFFFFFFFFFFFFFFFFFFFFFFFFFFFFFFFFFF AND MUL OR SWAP1 SSTORE POP PUSH3 0x1A3 PUSH1 0x40 MLOAD DUP1 PUSH1 0x40 ADD PUSH1 0x40 MSTORE DUP1 PUSH1 0x3 DUP2 MSTORE PUSH1 0x20 ADD PUSH32 0x4445560000000000000000000000000000000000000000000000000000000000 DUP2 MSTORE POP PUSH1 0x0 PUSH1 0xA PUSH1 0x0 SWAP1 SLOAD SWAP1 PUSH2 0x100 EXP SWAP1 DIV PUSH20 0xFFFFFFFFFFFFFFFFFFFFFFFFFFFFFFFFFFFFFFFF AND PUSH3 0x2BB PUSH1 0x20 SHL PUSH1 0x20 SHR JUMP JUMPDEST PUSH3 0x221 PUSH1 0x40 MLOAD DUP1 PUSH1 0x40 ADD PUSH1 0x40 MSTORE DUP1 PUSH1 0x4 DUP2 MSTORE PUSH1 0x20 ADD PUSH32 0x5744455600000000000000000000000000000000000000000000000000000000 DUP2 MSTORE POP PUSH20 0xD500B1D8E8EF31E21C99D1DB9A6444D3ADF1270 PUSH1 0xA PUSH1 0x0 SWAP1 SLOAD SWAP1 PUSH2 0x100 EXP SWAP1 DIV PUSH20 0xFFFFFFFFFFFFFFFFFFFFFFFFFFFFFFFFFFFFFFFF AND PUSH3 0x2BB PUSH1 0x20 SHL PUSH1 0x20 SHR JUMP JUMPDEST PUSH1 0x8 PUSH1 0x40 MLOAD PUSH3 0x231 SWAP1 PUSH3 0x46C JUMP JUMPDEST SWAP1 DUP2 MSTORE PUSH1 0x20 ADD PUSH1 0x40 MLOAD DUP1 SWAP2 SUB SWAP1 KECCAK256 PUSH1 0x0 SWAP1 SLOAD SWAP1 PUSH2 0x100 EXP SWAP1 DIV PUSH20 0xFFFFFFFFFFFFFFFFFFFFFFFFFFFFFFFFFFFFFFFF AND PUSH1 0x4 PUSH1 0x0 PUSH2 0x100 EXP DUP2 SLOAD DUP2 PUSH20 0xFFFFFFFFFFFFFFFFFFFFFFFFFFFFFFFFFFFFFFFF MUL NOT AND SWAP1 DUP4 PUSH20 0xFFFFFFFFFFFFFFFFFFFFFFFFFFFFFFFFFFFFFFFF AND MUL OR SWAP1 SSTORE POP PUSH3 0x8E3 JUMP JUMPDEST DUP1 PUSH1 0x2 SWAP1 DUP2 PUSH3 0x2B7 SWAP2 SWAP1 PUSH3 0x6FD JUMP JUMPDEST POP POP JUMP JUMPDEST PUSH1 0x5 PUSH1 0x0 SWAP1 SLOAD SWAP1 PUSH2 0x100 EXP SWAP1 DIV PUSH20 0xFFFFFFFFFFFFFFFFFFFFFFFFFFFFFFFFFFFFFFFF AND PUSH20 0xFFFFFFFFFFFFFFFFFFFFFFFFFFFFFFFFFFFFFFFF AND CALLER PUSH20 0xFFFFFFFFFFFFFFFFFFFFFFFFFFFFFFFFFFFFFFFF AND EQ PUSH3 0x34E JUMPI PUSH1 0x40 MLOAD PUSH32 0x8C379A000000000000000000000000000000000000000000000000000000000 DUP2 MSTORE PUSH1 0x4 ADD PUSH3 0x345 SWAP1 PUSH3 0x845 JUMP JUMPDEST PUSH1 0x40 MLOAD DUP1 SWAP2 SUB SWAP1 REVERT JUMPDEST DUP2 PUSH1 0x8 DUP5 PUSH1 0x40 MLOAD PUSH3 0x361 SWAP2 SWAP1 PUSH3 0x8CA JUMP JUMPDEST SWAP1 DUP2 MSTORE PUSH1 0x20 ADD PUSH1 0x40 MLOAD DUP1 SWAP2 SUB SWAP1 KECCAK256 PUSH1 0x0 PUSH2 0x100 EXP DUP2 SLOAD DUP2 PUSH20 0xFFFFFFFFFFFFFFFFFFFFFFFFFFFFFFFFFFFFFFFF MUL NOT AND SWAP1 DUP4 PUSH20 0xFFFFFFFFFFFFFFFFFFFFFFFFFFFFFFFFFFFFFFFF AND MUL OR SWAP1 SSTORE POP DUP1 PUSH1 0x9 DUP5 PUSH1 0x40 MLOAD PUSH3 0x3C0 SWAP2 SWAP1 PUSH3 0x8CA JUMP JUMPDEST SWAP1 DUP2 MSTORE PUSH1 0x20 ADD PUSH1 0x40 MLOAD DUP1 SWAP2 SUB SWAP1 KECCAK256 PUSH1 0x0 PUSH2 0x100 EXP DUP2 SLOAD DUP2 PUSH20 0xFFFFFFFFFFFFFFFFFFFFFFFFFFFFFFFFFFFFFFFF MUL NOT AND SWAP1 DUP4 PUSH20 0xFFFFFFFFFFFFFFFFFFFFFFFFFFFFFFFFFFFFFFFF AND MUL OR SWAP1 SSTORE POP POP POP POP JUMP JUMPDEST PUSH1 0x0 DUP2 SWAP1 POP SWAP3 SWAP2 POP POP JUMP JUMPDEST PUSH32 0x5744455600000000000000000000000000000000000000000000000000000000 PUSH1 0x0 DUP3 ADD MSTORE POP JUMP JUMPDEST PUSH1 0x0 PUSH3 0x454 PUSH1 0x4 DUP4 PUSH3 0x411 JUMP JUMPDEST SWAP2 POP PUSH3 0x461 DUP3 PUSH3 0x41C JUMP JUMPDEST PUSH1 0x4 DUP3 ADD SWAP1 POP SWAP2 SWAP1 POP JUMP JUMPDEST PUSH1 0x0 PUSH3 0x479 DUP3 PUSH3 0x445 JUMP JUMPDEST SWAP2 POP DUP2 SWAP1 POP SWAP2 SWAP1 POP JUMP JUMPDEST PUSH1 0x0 DUP2 MLOAD SWAP1 POP SWAP2 SWAP1 POP JUMP JUMPDEST PUSH32 0x4E487B7100000000000000000000000000000000000000000000000000000000 PUSH1 0x0 MSTORE PUSH1 0x41 PUSH1 0x4 MSTORE PUSH1 0x24 PUSH1 0x0 REVERT JUMPDEST PUSH32 0x4E487B7100000000000000000000000000000000000000000000000000000000 PUSH1 0x0 MSTORE PUSH1 0x22 PUSH1 0x4 MSTORE PUSH1 0x24 PUSH1 0x0 REVERT JUMPDEST PUSH1 0x0 PUSH1 0x2 DUP3 DIV SWAP1 POP PUSH1 0x1 DUP3 AND DUP1 PUSH3 0x505 JUMPI PUSH1 0x7F DUP3 AND SWAP2 POP JUMPDEST PUSH1 0x20 DUP3 LT DUP2 SUB PUSH3 0x51B JUMPI PUSH3 0x51A PUSH3 0x4BD JUMP JUMPDEST JUMPDEST POP SWAP2 SWAP1 POP JUMP JUMPDEST PUSH1 0x0 DUP2 SWAP1 POP DUP2 PUSH1 0x0 MSTORE PUSH1 0x20 PUSH1 0x0 KECCAK256 SWAP1 POP SWAP2 SWAP1 POP JUMP JUMPDEST PUSH1 0x0 PUSH1 0x20 PUSH1 0x1F DUP4 ADD DIV SWAP1 POP SWAP2 SWAP1 POP JUMP JUMPDEST PUSH1 0x0 DUP3 DUP3 SHL SWAP1 POP SWAP3 SWAP2 POP POP JUMP JUMPDEST PUSH1 0x0 PUSH1 0x8 DUP4 MUL PUSH3 0x585 PUSH32 0xFFFFFFFFFFFFFFFFFFFFFFFFFFFFFFFFFFFFFFFFFFFFFFFFFFFFFFFFFFFFFFFF DUP3 PUSH3 0x546 JUMP JUMPDEST PUSH3 0x591 DUP7 DUP4 PUSH3 0x546 JUMP JUMPDEST SWAP6 POP DUP1 NOT DUP5 AND SWAP4 POP DUP1 DUP7 AND DUP5 OR SWAP3 POP POP POP SWAP4 SWAP3 POP POP POP JUMP JUMPDEST PUSH1 0x0 DUP2 SWAP1 POP SWAP2 SWAP1 POP JUMP JUMPDEST PUSH1 0x0 DUP2 SWAP1 POP SWAP2 SWAP1 POP JUMP JUMPDEST PUSH1 0x0 PUSH3 0x5DE PUSH3 0x5D8 PUSH3 0x5D2 DUP5 PUSH3 0x5A9 JUMP JUMPDEST PUSH3 0x5B3 JUMP JUMPDEST PUSH3 0x5A9 JUMP JUMPDEST SWAP1 POP SWAP2 SWAP1 POP JUMP JUMPDEST PUSH1 0x0 DUP2 SWAP1 POP SWAP2 SWAP1 POP JUMP JUMPDEST PUSH3 0x5FA DUP4 PUSH3 0x5BD JUMP JUMPDEST PUSH3 0x612 PUSH3 0x609 DUP3 PUSH3 0x5E5 JUMP JUMPDEST DUP5 DUP5 SLOAD PUSH3 0x553 JUMP JUMPDEST DUP3 SSTORE POP POP POP POP JUMP JUMPDEST PUSH1 0x0 SWAP1 JUMP JUMPDEST PUSH3 0x629 PUSH3 0x61A JUMP JUMPDEST PUSH3 0x636 DUP2 DUP5 DUP5 PUSH3 0x5EF JUMP JUMPDEST POP POP POP JUMP JUMPDEST JUMPDEST DUP2 DUP2 LT ISZERO PUSH3 0x65E JUMPI PUSH3 0x652 PUSH1 0x0 DUP3 PUSH3 0x61F JUMP JUMPDEST PUSH1 0x1 DUP2 ADD SWAP1 POP PUSH3 0x63C JUMP JUMPDEST POP POP JUMP JUMPDEST PUSH1 0x1F DUP3 GT ISZERO PUSH3 0x6AD JUMPI PUSH3 0x677 DUP2 PUSH3 0x521 JUMP JUMPDEST PUSH3 0x682 DUP5 PUSH3 0x536 JUMP JUMPDEST DUP2 ADD PUSH1 0x20 DUP6 LT ISZERO PUSH3 0x692 JUMPI DUP2 SWAP1 POP JUMPDEST PUSH3 0x6AA PUSH3 0x6A1 DUP6 PUSH3 0x536 JUMP JUMPDEST DUP4 ADD DUP3 PUSH3 0x63B JUMP JUMPDEST POP POP JUMPDEST POP POP POP JUMP JUMPDEST PUSH1 0x0 DUP3 DUP3 SHR SWAP1 POP SWAP3 SWAP2 POP POP JUMP JUMPDEST PUSH1 0x0 PUSH3 0x6D2 PUSH1 0x0 NOT DUP5 PUSH1 0x8 MUL PUSH3 0x6B2 JUMP JUMPDEST NOT DUP1 DUP4 AND SWAP2 POP POP SWAP3 SWAP2 POP POP JUMP JUMPDEST PUSH1 0x0 PUSH3 0x6ED DUP4 DUP4 PUSH3 0x6BF JUMP JUMPDEST SWAP2 POP DUP3 PUSH1 0x2 MUL DUP3 OR SWAP1 POP SWAP3 SWAP2 POP POP JUMP JUMPDEST PUSH3 0x708 DUP3 PUSH3 0x483 JUMP JUMPDEST PUSH8 0xFFFFFFFFFFFFFFFF DUP2 GT ISZERO PUSH3 0x724 JUMPI PUSH3 0x723 PUSH3 0x48E JUMP JUMPDEST JUMPDEST PUSH3 0x730 DUP3 SLOAD PUSH3 0x4EC JUMP JUMPDEST PUSH3 0x73D DUP3 DUP3 DUP6 PUSH3 0x662 JUMP JUMPDEST PUSH1 0x0 PUSH1 0x20 SWAP1 POP PUSH1 0x1F DUP4 GT PUSH1 0x1 DUP2 EQ PUSH3 0x775 JUMPI PUSH1 0x0 DUP5 ISZERO PUSH3 0x760 JUMPI DUP3 DUP8 ADD MLOAD SWAP1 POP JUMPDEST PUSH3 0x76C DUP6 DUP3 PUSH3 0x6DF JUMP JUMPDEST DUP7 SSTORE POP PUSH3 0x7DC JUMP JUMPDEST PUSH1 0x1F NOT DUP5 AND PUSH3 0x785 DUP7 PUSH3 0x521 JUMP JUMPDEST PUSH1 0x0 JUMPDEST DUP3 DUP2 LT ISZERO PUSH3 0x7AF JUMPI DUP5 DUP10 ADD MLOAD DUP3 SSTORE PUSH1 0x1 DUP3 ADD SWAP2 POP PUSH1 0x20 DUP6 ADD SWAP5 POP PUSH1 0x20 DUP2 ADD SWAP1 POP PUSH3 0x788 JUMP JUMPDEST DUP7 DUP4 LT ISZERO PUSH3 0x7CF JUMPI DUP5 DUP10 ADD MLOAD PUSH3 0x7CB PUSH1 0x1F DUP10 AND DUP3 PUSH3 0x6BF JUMP JUMPDEST DUP4 SSTORE POP JUMPDEST PUSH1 0x1 PUSH1 0x2 DUP9 MUL ADD DUP9 SSTORE POP POP POP JUMPDEST POP POP POP POP POP POP JUMP JUMPDEST PUSH1 0x0 DUP3 DUP3 MSTORE PUSH1 0x20 DUP3 ADD SWAP1 POP SWAP3 SWAP2 POP POP JUMP JUMPDEST PUSH32 0x4F776E657220616363657373206F6E6C79000000000000000000000000000000 PUSH1 0x0 DUP3 ADD MSTORE POP JUMP JUMPDEST PUSH1 0x0 PUSH3 0x82D PUSH1 0x11 DUP4 PUSH3 0x7E4 JUMP JUMPDEST SWAP2 POP PUSH3 0x83A DUP3 PUSH3 0x7F5 JUMP JUMPDEST PUSH1 0x20 DUP3 ADD SWAP1 POP SWAP2 SWAP1 POP JUMP JUMPDEST PUSH1 0x0 PUSH1 0x20 DUP3 ADD SWAP1 POP DUP2 DUP2 SUB PUSH1 0x0 DUP4 ADD MSTORE PUSH3 0x860 DUP2 PUSH3 0x81E JUMP JUMPDEST SWAP1 POP SWAP2 SWAP1 POP JUMP JUMPDEST PUSH1 0x0 JUMPDEST DUP4 DUP2 LT ISZERO PUSH3 0x887 JUMPI DUP1 DUP3 ADD MLOAD DUP2 DUP5 ADD MSTORE PUSH1 0x20 DUP2 ADD SWAP1 POP PUSH3 0x86A JUMP JUMPDEST PUSH1 0x0 DUP5 DUP5 ADD MSTORE POP POP POP POP JUMP JUMPDEST PUSH1 0x0 PUSH3 0x8A0 DUP3 PUSH3 0x483 JUMP JUMPDEST PUSH3 0x8AC DUP2 DUP6 PUSH3 0x411 JUMP JUMPDEST SWAP4 POP PUSH3 0x8BE DUP2 DUP6 PUSH1 0x20 DUP7 ADD PUSH3 0x867 JUMP JUMPDEST DUP1 DUP5 ADD SWAP2 POP POP SWAP3 SWAP2 POP POP JUMP JUMPDEST PUSH1 0x0 PUSH3 0x8D8 DUP3 DUP5 PUSH3 0x893 JUMP JUMPDEST SWAP2 POP DUP2 SWAP1 POP SWAP3 SWAP2 POP POP JUMP JUMPDEST PUSH1 0x80 MLOAD PUSH2 0x6616 PUSH3 0x90D PUSH1 0x0 CODECOPY PUSH1 0x0 DUP2 DUP2 PUSH2 0x1E0D ADD MSTORE DUP2 DUP2 PUSH2 0x2D62 ADD MSTORE PUSH2 0x2E28 ADD MSTORE PUSH2 0x6616 PUSH1 0x0 RETURN INVALID PUSH1 0x80 PUSH1 0x40 MSTORE PUSH1 0x4 CALLDATASIZE LT PUSH2 0x138 JUMPI PUSH1 0x0 CALLDATALOAD PUSH1 0xE0 SHR DUP1 PUSH4 0x991F6826 GT PUSH2 0xAB JUMPI DUP1 PUSH4 0xD772927C GT PUSH2 0x6F JUMPI DUP1 PUSH4 0xD772927C EQ PUSH2 0x4B8 JUMPI DUP1 PUSH4 0xD863D544 EQ PUSH2 0x4F5 JUMPI DUP1 PUSH4 0xDEADA803 EQ PUSH2 0x51E JUMPI DUP1 PUSH4 0xE985E9C5 EQ PUSH2 0x55B JUMPI DUP1 PUSH4 0xEFB2E2AA EQ PUSH2 0x598 JUMPI DUP1 PUSH4 0xF242432A EQ PUSH2 0x5D5 JUMPI PUSH2 0x13F JUMP JUMPDEST DUP1 PUSH4 0x991F6826 EQ PUSH2 0x3BA JUMPI DUP1 PUSH4 0x9FE204B6 EQ PUSH2 0x3F7 JUMPI DUP1 PUSH4 0xA22CB465 EQ PUSH2 0x427 JUMPI DUP1 PUSH4 0xBD85B039 EQ PUSH2 0x450 JUMPI DUP1 PUSH4 0xC31C9C07 EQ PUSH2 0x48D JUMPI PUSH2 0x13F JUMP JUMPDEST DUP1 PUSH4 0x2EB2C2D6 GT PUSH2 0xFD JUMPI DUP1 PUSH4 0x2EB2C2D6 EQ PUSH2 0x260 JUMPI DUP1 PUSH4 0x4E1273F4 EQ PUSH2 0x289 JUMPI DUP1 PUSH4 0x4F558E79 EQ PUSH2 0x2C6 JUMPI DUP1 PUSH4 0x5F51CCA4 EQ PUSH2 0x303 JUMPI DUP1 PUSH4 0x8CBC8B07 EQ PUSH2 0x340 JUMPI DUP1 PUSH4 0x92A90A87 EQ PUSH2 0x37D JUMPI PUSH2 0x13F JUMP JUMPDEST DUP1 PUSH3 0xFDD58E EQ PUSH2 0x141 JUMPI DUP1 PUSH4 0x1FFC9A7 EQ PUSH2 0x17E JUMPI DUP1 PUSH4 0x89FE6AA EQ PUSH2 0x1BB JUMPI DUP1 PUSH4 0xE89341C EQ PUSH2 0x1E6 JUMPI DUP1 PUSH4 0x16345F18 EQ PUSH2 0x223 JUMPI PUSH2 0x13F JUMP JUMPDEST CALLDATASIZE PUSH2 0x13F JUMPI STOP JUMPDEST STOP JUMPDEST CALLVALUE DUP1 ISZERO PUSH2 0x14D JUMPI PUSH1 0x0 DUP1 REVERT JUMPDEST POP PUSH2 0x168 PUSH1 0x4 DUP1 CALLDATASIZE SUB DUP2 ADD SWAP1 PUSH2 0x163 SWAP2 SWAP1 PUSH2 0x400F JUMP JUMPDEST PUSH2 0x5FE JUMP JUMPDEST PUSH1 0x40 MLOAD PUSH2 0x175 SWAP2 SWAP1 PUSH2 0x405E JUMP JUMPDEST PUSH1 0x40 MLOAD DUP1 SWAP2 SUB SWAP1 RETURN JUMPDEST CALLVALUE DUP1 ISZERO PUSH2 0x18A JUMPI PUSH1 0x0 DUP1 REVERT JUMPDEST POP PUSH2 0x1A5 PUSH1 0x4 DUP1 CALLDATASIZE SUB DUP2 ADD SWAP1 PUSH2 0x1A0 SWAP2 SWAP1 PUSH2 0x40D1 JUMP JUMPDEST PUSH2 0x6C6 JUMP JUMPDEST PUSH1 0x40 MLOAD PUSH2 0x1B2 SWAP2 SWAP1 PUSH2 0x4119 JUMP JUMPDEST PUSH1 0x40 MLOAD DUP1 SWAP2 SUB SWAP1 RETURN JUMPDEST CALLVALUE DUP1 ISZERO PUSH2 0x1C7 JUMPI PUSH1 0x0 DUP1 REVERT JUMPDEST POP PUSH2 0x1D0 PUSH2 0x7A8 JUMP JUMPDEST PUSH1 0x40 MLOAD PUSH2 0x1DD SWAP2 SWAP1 PUSH2 0x4152 JUMP JUMPDEST PUSH1 0x40 MLOAD DUP1 SWAP2 SUB SWAP1 RETURN JUMPDEST CALLVALUE DUP1 ISZERO PUSH2 0x1F2 JUMPI PUSH1 0x0 DUP1 REVERT JUMPDEST POP PUSH2 0x20D PUSH1 0x4 DUP1 CALLDATASIZE SUB DUP2 ADD SWAP1 PUSH2 0x208 SWAP2 SWAP1 PUSH2 0x416D JUMP JUMPDEST PUSH2 0x7AE JUMP JUMPDEST PUSH1 0x40 MLOAD PUSH2 0x21A SWAP2 SWAP1 PUSH2 0x422A JUMP JUMPDEST PUSH1 0x40 MLOAD DUP1 SWAP2 SUB SWAP1 RETURN JUMPDEST CALLVALUE DUP1 ISZERO PUSH2 0x22F JUMPI PUSH1 0x0 DUP1 REVERT JUMPDEST POP PUSH2 0x24A PUSH1 0x4 DUP1 CALLDATASIZE SUB DUP2 ADD SWAP1 PUSH2 0x245 SWAP2 SWAP1 PUSH2 0x424C JUMP JUMPDEST PUSH2 0x842 JUMP JUMPDEST PUSH1 0x40 MLOAD PUSH2 0x257 SWAP2 SWAP1 PUSH2 0x4292 JUMP JUMPDEST PUSH1 0x40 MLOAD DUP1 SWAP2 SUB SWAP1 RETURN JUMPDEST CALLVALUE DUP1 ISZERO PUSH2 0x26C JUMPI PUSH1 0x0 DUP1 REVERT JUMPDEST POP PUSH2 0x287 PUSH1 0x4 DUP1 CALLDATASIZE SUB DUP2 ADD SWAP1 PUSH2 0x282 SWAP2 SWAP1 PUSH2 0x44AA JUMP JUMPDEST PUSH2 0x8C9 JUMP JUMPDEST STOP JUMPDEST CALLVALUE DUP1 ISZERO PUSH2 0x295 JUMPI PUSH1 0x0 DUP1 REVERT JUMPDEST POP PUSH2 0x2B0 PUSH1 0x4 DUP1 CALLDATASIZE SUB DUP2 ADD SWAP1 PUSH2 0x2AB SWAP2 SWAP1 PUSH2 0x463C JUMP JUMPDEST PUSH2 0x96A JUMP JUMPDEST PUSH1 0x40 MLOAD PUSH2 0x2BD SWAP2 SWAP1 PUSH2 0x4772 JUMP JUMPDEST PUSH1 0x40 MLOAD DUP1 SWAP2 SUB SWAP1 RETURN JUMPDEST CALLVALUE DUP1 ISZERO PUSH2 0x2D2 JUMPI PUSH1 0x0 DUP1 REVERT JUMPDEST POP PUSH2 0x2ED PUSH1 0x4 DUP1 CALLDATASIZE SUB DUP2 ADD SWAP1 PUSH2 0x2E8 SWAP2 SWAP1 PUSH2 0x416D JUMP JUMPDEST PUSH2 0xA83 JUMP JUMPDEST PUSH1 0x40 MLOAD PUSH2 0x2FA SWAP2 SWAP1 PUSH2 0x4119 JUMP JUMPDEST PUSH1 0x40 MLOAD DUP1 SWAP2 SUB SWAP1 RETURN JUMPDEST CALLVALUE DUP1 ISZERO PUSH2 0x30F JUMPI PUSH1 0x0 DUP1 REVERT JUMPDEST POP PUSH2 0x32A PUSH1 0x4 DUP1 CALLDATASIZE SUB DUP2 ADD SWAP1 PUSH2 0x325 SWAP2 SWAP1 PUSH2 0x47C0 JUMP JUMPDEST PUSH2 0xA97 JUMP JUMPDEST PUSH1 0x40 MLOAD PUSH2 0x337 SWAP2 SWAP1 PUSH2 0x405E JUMP JUMPDEST PUSH1 0x40 MLOAD DUP1 SWAP2 SUB SWAP1 RETURN JUMPDEST CALLVALUE DUP1 ISZERO PUSH2 0x34C JUMPI PUSH1 0x0 DUP1 REVERT JUMPDEST POP PUSH2 0x367 PUSH1 0x4 DUP1 CALLDATASIZE SUB DUP2 ADD SWAP1 PUSH2 0x362 SWAP2 SWAP1 PUSH2 0x47C0 JUMP JUMPDEST PUSH2 0xB20 JUMP JUMPDEST PUSH1 0x40 MLOAD PUSH2 0x374 SWAP2 SWAP1 PUSH2 0x405E JUMP JUMPDEST PUSH1 0x40 MLOAD DUP1 SWAP2 SUB SWAP1 RETURN JUMPDEST CALLVALUE DUP1 ISZERO PUSH2 0x389 JUMPI PUSH1 0x0 DUP1 REVERT JUMPDEST POP PUSH2 0x3A4 PUSH1 0x4 DUP1 CALLDATASIZE SUB DUP2 ADD SWAP1 PUSH2 0x39F SWAP2 SWAP1 PUSH2 0x47ED JUMP JUMPDEST PUSH2 0xBE8 JUMP JUMPDEST PUSH1 0x40 MLOAD PUSH2 0x3B1 SWAP2 SWAP1 PUSH2 0x48D0 JUMP JUMPDEST PUSH1 0x40 MLOAD DUP1 SWAP2 SUB SWAP1 RETURN JUMPDEST CALLVALUE DUP1 ISZERO PUSH2 0x3C6 JUMPI PUSH1 0x0 DUP1 REVERT JUMPDEST POP PUSH2 0x3E1 PUSH1 0x4 DUP1 CALLDATASIZE SUB DUP2 ADD SWAP1 PUSH2 0x3DC SWAP2 SWAP1 PUSH2 0x47ED JUMP JUMPDEST PUSH2 0xD4E JUMP JUMPDEST PUSH1 0x40 MLOAD PUSH2 0x3EE SWAP2 SWAP1 PUSH2 0x405E JUMP JUMPDEST PUSH1 0x40 MLOAD DUP1 SWAP2 SUB SWAP1 RETURN JUMPDEST PUSH2 0x411 PUSH1 0x4 DUP1 CALLDATASIZE SUB DUP2 ADD SWAP1 PUSH2 0x40C SWAP2 SWAP1 PUSH2 0x47C0 JUMP JUMPDEST PUSH2 0x16CA JUMP JUMPDEST PUSH1 0x40 MLOAD PUSH2 0x41E SWAP2 SWAP1 PUSH2 0x405E JUMP JUMPDEST PUSH1 0x40 MLOAD DUP1 SWAP2 SUB SWAP1 RETURN JUMPDEST CALLVALUE DUP1 ISZERO PUSH2 0x433 JUMPI PUSH1 0x0 DUP1 REVERT JUMPDEST POP PUSH2 0x44E PUSH1 0x4 DUP1 CALLDATASIZE SUB DUP2 ADD SWAP1 PUSH2 0x449 SWAP2 SWAP1 PUSH2 0x491E JUMP JUMPDEST PUSH2 0x1DD8 JUMP JUMPDEST STOP JUMPDEST CALLVALUE DUP1 ISZERO PUSH2 0x45C JUMPI PUSH1 0x0 DUP1 REVERT JUMPDEST POP PUSH2 0x477 PUSH1 0x4 DUP1 CALLDATASIZE SUB DUP2 ADD SWAP1 PUSH2 0x472 SWAP2 SWAP1 PUSH2 0x416D JUMP JUMPDEST PUSH2 0x1DEE JUMP JUMPDEST PUSH1 0x40 MLOAD PUSH2 0x484 SWAP2 SWAP1 PUSH2 0x405E JUMP JUMPDEST PUSH1 0x40 MLOAD DUP1 SWAP2 SUB SWAP1 RETURN JUMPDEST CALLVALUE DUP1 ISZERO PUSH2 0x499 JUMPI PUSH1 0x0 DUP1 REVERT JUMPDEST POP PUSH2 0x4A2 PUSH2 0x1E0B JUMP JUMPDEST PUSH1 0x40 MLOAD PUSH2 0x4AF SWAP2 SWAP1 PUSH2 0x49BD JUMP JUMPDEST PUSH1 0x40 MLOAD DUP1 SWAP2 SUB SWAP1 RETURN JUMPDEST CALLVALUE DUP1 ISZERO PUSH2 0x4C4 JUMPI PUSH1 0x0 DUP1 REVERT JUMPDEST POP PUSH2 0x4DF PUSH1 0x4 DUP1 CALLDATASIZE SUB DUP2 ADD SWAP1 PUSH2 0x4DA SWAP2 SWAP1 PUSH2 0x47C0 JUMP JUMPDEST PUSH2 0x1E2F JUMP JUMPDEST PUSH1 0x40 MLOAD PUSH2 0x4EC SWAP2 SWAP1 PUSH2 0x405E JUMP JUMPDEST PUSH1 0x40 MLOAD DUP1 SWAP2 SUB SWAP1 RETURN JUMPDEST CALLVALUE DUP1 ISZERO PUSH2 0x501 JUMPI PUSH1 0x0 DUP1 REVERT JUMPDEST POP PUSH2 0x51C PUSH1 0x4 DUP1 CALLDATASIZE SUB DUP2 ADD SWAP1 PUSH2 0x517 SWAP2 SWAP1 PUSH2 0x4A79 JUMP JUMPDEST PUSH2 0x2374 JUMP JUMPDEST STOP JUMPDEST CALLVALUE DUP1 ISZERO PUSH2 0x52A JUMPI PUSH1 0x0 DUP1 REVERT JUMPDEST POP PUSH2 0x545 PUSH1 0x4 DUP1 CALLDATASIZE SUB DUP2 ADD SWAP1 PUSH2 0x540 SWAP2 SWAP1 PUSH2 0x4AE8 JUMP JUMPDEST PUSH2 0x24C3 JUMP JUMPDEST PUSH1 0x40 MLOAD PUSH2 0x552 SWAP2 SWAP1 PUSH2 0x405E JUMP JUMPDEST PUSH1 0x40 MLOAD DUP1 SWAP2 SUB SWAP1 RETURN JUMPDEST CALLVALUE DUP1 ISZERO PUSH2 0x567 JUMPI PUSH1 0x0 DUP1 REVERT JUMPDEST POP PUSH2 0x582 PUSH1 0x4 DUP1 CALLDATASIZE SUB DUP2 ADD SWAP1 PUSH2 0x57D SWAP2 SWAP1 PUSH2 0x4B28 JUMP JUMPDEST PUSH2 0x24E8 JUMP JUMPDEST PUSH1 0x40 MLOAD PUSH2 0x58F SWAP2 SWAP1 PUSH2 0x4119 JUMP JUMPDEST PUSH1 0x40 MLOAD DUP1 SWAP2 SUB SWAP1 RETURN JUMPDEST CALLVALUE DUP1 ISZERO PUSH2 0x5A4 JUMPI PUSH1 0x0 DUP1 REVERT JUMPDEST POP PUSH2 0x5BF PUSH1 0x4 DUP1 CALLDATASIZE SUB DUP2 ADD SWAP1 PUSH2 0x5BA SWAP2 SWAP1 PUSH2 0x4CEB JUMP JUMPDEST PUSH2 0x257C JUMP JUMPDEST PUSH1 0x40 MLOAD PUSH2 0x5CC SWAP2 SWAP1 PUSH2 0x405E JUMP JUMPDEST PUSH1 0x40 MLOAD DUP1 SWAP2 SUB SWAP1 RETURN JUMPDEST CALLVALUE DUP1 ISZERO PUSH2 0x5E1 JUMPI PUSH1 0x0 DUP1 REVERT JUMPDEST POP PUSH2 0x5FC PUSH1 0x4 DUP1 CALLDATASIZE SUB DUP2 ADD SWAP1 PUSH2 0x5F7 SWAP2 SWAP1 PUSH2 0x4D34 JUMP JUMPDEST PUSH2 0x2926 JUMP JUMPDEST STOP JUMPDEST PUSH1 0x0 DUP1 PUSH20 0xFFFFFFFFFFFFFFFFFFFFFFFFFFFFFFFFFFFFFFFF AND DUP4 PUSH20 0xFFFFFFFFFFFFFFFFFFFFFFFFFFFFFFFFFFFFFFFF AND SUB PUSH2 0x66E JUMPI PUSH1 0x40 MLOAD PUSH32 0x8C379A000000000000000000000000000000000000000000000000000000000 DUP2 MSTORE PUSH1 0x4 ADD PUSH2 0x665 SWAP1 PUSH2 0x4E3D JUMP JUMPDEST PUSH1 0x40 MLOAD DUP1 SWAP2 SUB SWAP1 REVERT JUMPDEST PUSH1 0x0 DUP1 DUP4 DUP2 MSTORE PUSH1 0x20 ADD SWAP1 DUP2 MSTORE PUSH1 0x20 ADD PUSH1 0x0 KECCAK256 PUSH1 0x0 DUP5 PUSH20 0xFFFFFFFFFFFFFFFFFFFFFFFFFFFFFFFFFFFFFFFF AND PUSH20 0xFFFFFFFFFFFFFFFFFFFFFFFFFFFFFFFFFFFFFFFF AND DUP2 MSTORE PUSH1 0x20 ADD SWAP1 DUP2 MSTORE PUSH1 0x20 ADD PUSH1 0x0 KECCAK256 SLOAD SWAP1 POP SWAP3 SWAP2 POP POP JUMP JUMPDEST PUSH1 0x0 PUSH32 0xD9B67A2600000000000000000000000000000000000000000000000000000000 PUSH28 0xFFFFFFFFFFFFFFFFFFFFFFFFFFFFFFFFFFFFFFFFFFFFFFFFFFFFFFFF NOT AND DUP3 PUSH28 0xFFFFFFFFFFFFFFFFFFFFFFFFFFFFFFFFFFFFFFFFFFFFFFFFFFFFFFFF NOT AND EQ DUP1 PUSH2 0x791 JUMPI POP PUSH32 0xE89341C00000000000000000000000000000000000000000000000000000000 PUSH28 0xFFFFFFFFFFFFFFFFFFFFFFFFFFFFFFFFFFFFFFFFFFFFFFFFFFFFFFFF NOT AND DUP3 PUSH28 0xFFFFFFFFFFFFFFFFFFFFFFFFFFFFFFFFFFFFFFFFFFFFFFFFFFFFFFFF NOT AND EQ JUMPDEST DUP1 PUSH2 0x7A1 JUMPI POP PUSH2 0x7A0 DUP3 PUSH2 0x29C7 JUMP JUMPDEST JUMPDEST SWAP1 POP SWAP2 SWAP1 POP JUMP JUMPDEST PUSH2 0xBB8 DUP2 JUMP JUMPDEST PUSH1 0x60 PUSH1 0x2 DUP1 SLOAD PUSH2 0x7BD SWAP1 PUSH2 0x4E8C JUMP JUMPDEST DUP1 PUSH1 0x1F ADD PUSH1 0x20 DUP1 SWAP2 DIV MUL PUSH1 0x20 ADD PUSH1 0x40 MLOAD SWAP1 DUP2 ADD PUSH1 0x40 MSTORE DUP1 SWAP3 SWAP2 SWAP1 DUP2 DUP2 MSTORE PUSH1 0x20 ADD DUP3 DUP1 SLOAD PUSH2 0x7E9 SWAP1 PUSH2 0x4E8C JUMP JUMPDEST DUP1 ISZERO PUSH2 0x836 JUMPI DUP1 PUSH1 0x1F LT PUSH2 0x80B JUMPI PUSH2 0x100 DUP1 DUP4 SLOAD DIV MUL DUP4 MSTORE SWAP2 PUSH1 0x20 ADD SWAP2 PUSH2 0x836 JUMP JUMPDEST DUP3 ADD SWAP2 SWAP1 PUSH1 0x0 MSTORE PUSH1 0x20 PUSH1 0x0 KECCAK256 SWAP1 JUMPDEST DUP2 SLOAD DUP2 MSTORE SWAP1 PUSH1 0x1 ADD SWAP1 PUSH1 0x20 ADD DUP1 DUP4 GT PUSH2 0x819 JUMPI DUP3 SWAP1 SUB PUSH1 0x1F AND DUP3 ADD SWAP2 JUMPDEST POP POP POP POP POP SWAP1 POP SWAP2 SWAP1 POP JUMP JUMPDEST PUSH1 0x0 DUP1 DUP3 SWAP1 POP PUSH1 0x0 DUP2 PUSH20 0xFFFFFFFFFFFFFFFFFFFFFFFFFFFFFFFFFFFFFFFF AND PUSH4 0xFEAF968C PUSH1 0x40 MLOAD DUP2 PUSH4 0xFFFFFFFF AND PUSH1 0xE0 SHL DUP2 MSTORE PUSH1 0x4 ADD PUSH1 0xA0 PUSH1 0x40 MLOAD DUP1 DUP4 SUB DUP2 DUP7 GAS STATICCALL ISZERO DUP1 ISZERO PUSH2 0x895 JUMPI RETURNDATASIZE PUSH1 0x0 DUP1 RETURNDATACOPY RETURNDATASIZE PUSH1 0x0 REVERT JUMPDEST POP POP POP POP PUSH1 0x40 MLOAD RETURNDATASIZE PUSH1 0x1F NOT PUSH1 0x1F DUP3 ADD AND DUP3 ADD DUP1 PUSH1 0x40 MSTORE POP DUP2 ADD SWAP1 PUSH2 0x8B9 SWAP2 SWAP1 PUSH2 0x4F40 JUMP JUMPDEST POP POP POP SWAP2 POP POP DUP1 SWAP3 POP POP POP SWAP2 SWAP1 POP JUMP JUMPDEST PUSH2 0x8D1 PUSH2 0x2A31 JUMP JUMPDEST PUSH20 0xFFFFFFFFFFFFFFFFFFFFFFFFFFFFFFFFFFFFFFFF AND DUP6 PUSH20 0xFFFFFFFFFFFFFFFFFFFFFFFFFFFFFFFFFFFFFFFF AND EQ DUP1 PUSH2 0x917 JUMPI POP PUSH2 0x916 DUP6 PUSH2 0x911 PUSH2 0x2A31 JUMP JUMPDEST PUSH2 0x24E8 JUMP JUMPDEST JUMPDEST PUSH2 0x956 JUMPI PUSH1 0x40 MLOAD PUSH32 0x8C379A000000000000000000000000000000000000000000000000000000000 DUP2 MSTORE PUSH1 0x4 ADD PUSH2 0x94D SWAP1 PUSH2 0x502D JUMP JUMPDEST PUSH1 0x40 MLOAD DUP1 SWAP2 SUB SWAP1 REVERT JUMPDEST PUSH2 0x963 DUP6 DUP6 DUP6 DUP6 DUP6 PUSH2 0x2A39 JUMP JUMPDEST POP POP POP POP POP JUMP JUMPDEST PUSH1 0x60 DUP2 MLOAD DUP4 MLOAD EQ PUSH2 0x9B0 JUMPI PUSH1 0x40 MLOAD PUSH32 0x8C379A000000000000000000000000000000000000000000000000000000000 DUP2 MSTORE PUSH1 0x4 ADD PUSH2 0x9A7 SWAP1 PUSH2 0x50BF JUMP JUMPDEST PUSH1 0x40 MLOAD DUP1 SWAP2 SUB SWAP1 REVERT JUMPDEST PUSH1 0x0 DUP4 MLOAD PUSH8 0xFFFFFFFFFFFFFFFF DUP2 GT ISZERO PUSH2 0x9CD JUMPI PUSH2 0x9CC PUSH2 0x42B2 JUMP JUMPDEST JUMPDEST PUSH1 0x40 MLOAD SWAP1 DUP1 DUP3 MSTORE DUP1 PUSH1 0x20 MUL PUSH1 0x20 ADD DUP3 ADD PUSH1 0x40 MSTORE DUP1 ISZERO PUSH2 0x9FB JUMPI DUP2 PUSH1 0x20 ADD PUSH1 0x20 DUP3 MUL DUP1 CALLDATASIZE DUP4 CALLDATACOPY DUP1 DUP3 ADD SWAP2 POP POP SWAP1 POP JUMPDEST POP SWAP1 POP PUSH1 0x0 JUMPDEST DUP5 MLOAD DUP2 LT ISZERO PUSH2 0xA78 JUMPI PUSH2 0xA48 DUP6 DUP3 DUP2 MLOAD DUP2 LT PUSH2 0xA20 JUMPI PUSH2 0xA1F PUSH2 0x50DF JUMP JUMPDEST JUMPDEST PUSH1 0x20 MUL PUSH1 0x20 ADD ADD MLOAD DUP6 DUP4 DUP2 MLOAD DUP2 LT PUSH2 0xA3B JUMPI PUSH2 0xA3A PUSH2 0x50DF JUMP JUMPDEST JUMPDEST PUSH1 0x20 MUL PUSH1 0x20 ADD ADD MLOAD PUSH2 0x5FE JUMP JUMPDEST DUP3 DUP3 DUP2 MLOAD DUP2 LT PUSH2 0xA5B JUMPI PUSH2 0xA5A PUSH2 0x50DF JUMP JUMPDEST JUMPDEST PUSH1 0x20 MUL PUSH1 0x20 ADD ADD DUP2 DUP2 MSTORE POP POP DUP1 PUSH2 0xA71 SWAP1 PUSH2 0x513D JUMP JUMPDEST SWAP1 POP PUSH2 0xA01 JUMP JUMPDEST POP DUP1 SWAP2 POP POP SWAP3 SWAP2 POP POP JUMP JUMPDEST PUSH1 0x0 DUP1 PUSH2 0xA8F DUP4 PUSH2 0x1DEE JUMP JUMPDEST GT SWAP1 POP SWAP2 SWAP1 POP JUMP JUMPDEST PUSH1 0x0 DUP2 PUSH1 0xA PUSH1 0x14 SWAP1 SLOAD SWAP1 PUSH2 0x100 EXP SWAP1 DIV PUSH3 0xFFFFFF AND PUSH3 0xFFFFFF AND DUP2 PUSH3 0xFFFFFF AND LT PUSH2 0xAF7 JUMPI PUSH1 0x40 MLOAD PUSH32 0x8C379A000000000000000000000000000000000000000000000000000000000 DUP2 MSTORE PUSH1 0x4 ADD PUSH2 0xAEE SWAP1 PUSH2 0x51D1 JUMP JUMPDEST PUSH1 0x40 MLOAD DUP1 SWAP2 SUB SWAP1 REVERT JUMPDEST PUSH1 0x6 PUSH1 0x0 DUP5 PUSH3 0xFFFFFF AND PUSH3 0xFFFFFF AND DUP2 MSTORE PUSH1 0x20 ADD SWAP1 DUP2 MSTORE PUSH1 0x20 ADD PUSH1 0x0 KECCAK256 DUP1 SLOAD SWAP1 POP SWAP2 POP POP SWAP2 SWAP1 POP JUMP JUMPDEST PUSH1 0x0 DUP2 PUSH1 0xA PUSH1 0x14 SWAP1 SLOAD SWAP1 PUSH2 0x100 EXP SWAP1 DIV PUSH3 0xFFFFFF AND PUSH3 0xFFFFFF AND DUP2 PUSH3 0xFFFFFF AND LT PUSH2 0xB80 JUMPI PUSH1 0x40 MLOAD PUSH32 0x8C379A000000000000000000000000000000000000000000000000000000000 DUP2 MSTORE PUSH1 0x4 ADD PUSH2 0xB77 SWAP1 PUSH2 0x51D1 JUMP JUMPDEST PUSH1 0x40 MLOAD DUP1 SWAP2 SUB SWAP1 REVERT JUMPDEST PUSH1 0x0 PUSH2 0xB8B DUP5 PUSH2 0x1E2F JUMP JUMPDEST SWAP1 POP PUSH1 0x0 PUSH2 0xB9D DUP6 PUSH3 0xFFFFFF AND PUSH2 0x1DEE JUMP JUMPDEST SWAP1 POP PUSH1 0x0 DUP2 SUB PUSH2 0xBB9 JUMPI PUSH8 0xDE0B6B3A7640000 SWAP4 POP POP POP PUSH2 0xBE2 JUMP JUMPDEST DUP1 PUSH1 0x2 PUSH1 0xA PUSH2 0xBC8 SWAP2 SWAP1 PUSH2 0x5324 JUMP JUMPDEST DUP4 PUSH2 0xBD3 SWAP2 SWAP1 PUSH2 0x536F JUMP JUMPDEST PUSH2 0xBDD SWAP2 SWAP1 PUSH2 0x53E0 JUMP JUMPDEST SWAP4 POP POP POP JUMPDEST POP SWAP2 SWAP1 POP JUMP JUMPDEST PUSH2 0xBF0 PUSH2 0x3F4A JUMP JUMPDEST DUP3 PUSH1 0xA PUSH1 0x14 SWAP1 SLOAD SWAP1 PUSH2 0x100 EXP SWAP1 DIV PUSH3 0xFFFFFF AND PUSH3 0xFFFFFF AND DUP2 PUSH3 0xFFFFFF AND LT PUSH2 0xC4E JUMPI PUSH1 0x40 MLOAD PUSH32 0x8C379A000000000000000000000000000000000000000000000000000000000 DUP2 MSTORE PUSH1 0x4 ADD PUSH2 0xC45 SWAP1 PUSH2 0x51D1 JUMP JUMPDEST PUSH1 0x40 MLOAD DUP1 SWAP2 SUB SWAP1 REVERT JUMPDEST PUSH1 0x6 PUSH1 0x0 DUP6 PUSH3 0xFFFFFF AND PUSH3 0xFFFFFF AND DUP2 MSTORE PUSH1 0x20 ADD SWAP1 DUP2 MSTORE PUSH1 0x20 ADD PUSH1 0x0 KECCAK256 DUP4 DUP2 SLOAD DUP2 LT PUSH2 0xC7D JUMPI PUSH2 0xC7C PUSH2 0x50DF JUMP JUMPDEST JUMPDEST SWAP1 PUSH1 0x0 MSTORE PUSH1 0x20 PUSH1 0x0 KECCAK256 SWAP1 PUSH1 0x2 MUL ADD PUSH1 0x40 MLOAD DUP1 PUSH1 0x40 ADD PUSH1 0x40 MSTORE SWAP1 DUP2 PUSH1 0x0 DUP3 ADD DUP1 SLOAD PUSH2 0xCA6 SWAP1 PUSH2 0x4E8C JUMP JUMPDEST DUP1 PUSH1 0x1F ADD PUSH1 0x20 DUP1 SWAP2 DIV MUL PUSH1 0x20 ADD PUSH1 0x40 MLOAD SWAP1 DUP2 ADD PUSH1 0x40 MSTORE DUP1 SWAP3 SWAP2 SWAP1 DUP2 DUP2 MSTORE PUSH1 0x20 ADD DUP3 DUP1 SLOAD PUSH2 0xCD2 SWAP1 PUSH2 0x4E8C JUMP JUMPDEST DUP1 ISZERO PUSH2 0xD1F JUMPI DUP1 PUSH1 0x1F LT PUSH2 0xCF4 JUMPI PUSH2 0x100 DUP1 DUP4 SLOAD DIV MUL DUP4 MSTORE SWAP2 PUSH1 0x20 ADD SWAP2 PUSH2 0xD1F JUMP JUMPDEST DUP3 ADD SWAP2 SWAP1 PUSH1 0x0 MSTORE PUSH1 0x20 PUSH1 0x0 KECCAK256 SWAP1 JUMPDEST DUP2 SLOAD DUP2 MSTORE SWAP1 PUSH1 0x1 ADD SWAP1 PUSH1 0x20 ADD DUP1 DUP4 GT PUSH2 0xD02 JUMPI DUP3 SWAP1 SUB PUSH1 0x1F AND DUP3 ADD SWAP2 JUMPDEST POP POP POP POP POP DUP2 MSTORE PUSH1 0x20 ADD PUSH1 0x1 DUP3 ADD PUSH1 0x0 SWAP1 SLOAD SWAP1 PUSH2 0x100 EXP SWAP1 DIV PUSH1 0xFF AND PUSH1 0xFF AND PUSH1 0xFF AND DUP2 MSTORE POP POP SWAP2 POP POP SWAP3 SWAP2 POP POP JUMP JUMPDEST PUSH1 0x0 DUP3 PUSH1 0xA PUSH1 0x14 SWAP1 SLOAD SWAP1 PUSH2 0x100 EXP SWAP1 DIV PUSH3 0xFFFFFF AND PUSH3 0xFFFFFF AND DUP2 PUSH3 0xFFFFFF AND LT PUSH2 0xDAE JUMPI PUSH1 0x40 MLOAD PUSH32 0x8C379A000000000000000000000000000000000000000000000000000000000 DUP2 MSTORE PUSH1 0x4 ADD PUSH2 0xDA5 SWAP1 PUSH2 0x51D1 JUMP JUMPDEST PUSH1 0x40 MLOAD DUP1 SWAP2 SUB SWAP1 REVERT JUMPDEST PUSH1 0x0 PUSH2 0xDBE DUP6 PUSH3 0xFFFFFF AND PUSH2 0x1DEE JUMP JUMPDEST SWAP1 POP PUSH1 0x0 DUP2 PUSH2 0x3E8 PUSH1 0x64 DUP8 PUSH2 0xDD3 SWAP2 SWAP1 PUSH2 0x536F JUMP JUMPDEST PUSH2 0xDDD SWAP2 SWAP1 PUSH2 0x536F JUMP JUMPDEST PUSH2 0xDE7 SWAP2 SWAP1 PUSH2 0x53E0 JUMP JUMPDEST SWAP1 POP PUSH1 0x0 PUSH2 0xDF4 DUP8 PUSH2 0xA97 JUMP JUMPDEST SWAP1 POP PUSH1 0x0 DUP1 PUSH1 0x0 SWAP1 POP JUMPDEST DUP3 DUP2 LT ISZERO PUSH2 0x15F9 JUMPI PUSH1 0x0 PUSH1 0x6 PUSH1 0x0 DUP12 PUSH3 0xFFFFFF AND PUSH3 0xFFFFFF AND DUP2 MSTORE PUSH1 0x20 ADD SWAP1 DUP2 MSTORE PUSH1 0x20 ADD PUSH1 0x0 KECCAK256 DUP3 DUP2 SLOAD DUP2 LT PUSH2 0xE37 JUMPI PUSH2 0xE36 PUSH2 0x50DF JUMP JUMPDEST JUMPDEST SWAP1 PUSH1 0x0 MSTORE PUSH1 0x20 PUSH1 0x0 KECCAK256 SWAP1 PUSH1 0x2 MUL ADD PUSH1 0x40 MLOAD DUP1 PUSH1 0x40 ADD PUSH1 0x40 MSTORE SWAP1 DUP2 PUSH1 0x0 DUP3 ADD DUP1 SLOAD PUSH2 0xE60 SWAP1 PUSH2 0x4E8C JUMP JUMPDEST DUP1 PUSH1 0x1F ADD PUSH1 0x20 DUP1 SWAP2 DIV MUL PUSH1 0x20 ADD PUSH1 0x40 MLOAD SWAP1 DUP2 ADD PUSH1 0x40 MSTORE DUP1 SWAP3 SWAP2 SWAP1 DUP2 DUP2 MSTORE PUSH1 0x20 ADD DUP3 DUP1 SLOAD PUSH2 0xE8C SWAP1 PUSH2 0x4E8C JUMP JUMPDEST DUP1 ISZERO PUSH2 0xED9 JUMPI DUP1 PUSH1 0x1F LT PUSH2 0xEAE JUMPI PUSH2 0x100 DUP1 DUP4 SLOAD DIV MUL DUP4 MSTORE SWAP2 PUSH1 0x20 ADD SWAP2 PUSH2 0xED9 JUMP JUMPDEST DUP3 ADD SWAP2 SWAP1 PUSH1 0x0 MSTORE PUSH1 0x20 PUSH1 0x0 KECCAK256 SWAP1 JUMPDEST DUP2 SLOAD DUP2 MSTORE SWAP1 PUSH1 0x1 ADD SWAP1 PUSH1 0x20 ADD DUP1 DUP4 GT PUSH2 0xEBC JUMPI DUP3 SWAP1 SUB PUSH1 0x1F AND DUP3 ADD SWAP2 JUMPDEST POP POP POP POP POP DUP2 MSTORE PUSH1 0x20 ADD PUSH1 0x1 DUP3 ADD PUSH1 0x0 SWAP1 SLOAD SWAP1 PUSH2 0x100 EXP SWAP1 DIV PUSH1 0xFF AND PUSH1 0xFF AND PUSH1 0xFF AND DUP2 MSTORE POP POP SWAP1 POP PUSH1 0x40 MLOAD PUSH1 0x20 ADD PUSH2 0xF10 SWAP1 PUSH2 0x5468 JUMP JUMPDEST PUSH1 0x40 MLOAD PUSH1 0x20 DUP2 DUP4 SUB SUB DUP2 MSTORE SWAP1 PUSH1 0x40 MSTORE DUP1 MLOAD SWAP1 PUSH1 0x20 ADD KECCAK256 DUP2 PUSH1 0x0 ADD MLOAD PUSH1 0x40 MLOAD PUSH1 0x20 ADD PUSH2 0xF3B SWAP2 SWAP1 PUSH2 0x54AE JUMP JUMPDEST PUSH1 0x40 MLOAD PUSH1 0x20 DUP2 DUP4 SUB SUB DUP2 MSTORE SWAP1 PUSH1 0x40 MSTORE DUP1 MLOAD SWAP1 PUSH1 0x20 ADD KECCAK256 SUB PUSH2 0x10DD JUMPI PUSH1 0x0 PUSH1 0x7 PUSH1 0x0 DUP13 PUSH3 0xFFFFFF AND PUSH3 0xFFFFFF AND DUP2 MSTORE PUSH1 0x20 ADD SWAP1 DUP2 MSTORE PUSH1 0x20 ADD PUSH1 0x0 KECCAK256 PUSH1 0x0 PUSH1 0x8 DUP5 PUSH1 0x0 ADD MLOAD PUSH1 0x40 MLOAD PUSH2 0xF8B SWAP2 SWAP1 PUSH2 0x54AE JUMP JUMPDEST SWAP1 DUP2 MSTORE PUSH1 0x20 ADD PUSH1 0x40 MLOAD DUP1 SWAP2 SUB SWAP1 KECCAK256 PUSH1 0x0 SWAP1 SLOAD SWAP1 PUSH2 0x100 EXP SWAP1 DIV PUSH20 0xFFFFFFFFFFFFFFFFFFFFFFFFFFFFFFFFFFFFFFFF AND PUSH20 0xFFFFFFFFFFFFFFFFFFFFFFFFFFFFFFFFFFFFFFFF AND PUSH20 0xFFFFFFFFFFFFFFFFFFFFFFFFFFFFFFFFFFFFFFFF AND DUP2 MSTORE PUSH1 0x20 ADD SWAP1 DUP2 MSTORE PUSH1 0x20 ADD PUSH1 0x0 KECCAK256 SLOAD SWAP1 POP PUSH1 0x0 PUSH3 0x186A0 DUP8 DUP4 PUSH2 0x1009 SWAP2 SWAP1 PUSH2 0x536F JUMP JUMPDEST PUSH2 0x1013 SWAP2 SWAP1 PUSH2 0x53E0 JUMP JUMPDEST SWAP1 POP DUP1 PUSH1 0x7 PUSH1 0x0 DUP15 PUSH3 0xFFFFFF AND PUSH3 0xFFFFFF AND DUP2 MSTORE PUSH1 0x20 ADD SWAP1 DUP2 MSTORE PUSH1 0x20 ADD PUSH1 0x0 KECCAK256 PUSH1 0x0 PUSH1 0x8 DUP7 PUSH1 0x0 ADD MLOAD PUSH1 0x40 MLOAD PUSH2 0x1049 SWAP2 SWAP1 PUSH2 0x54AE JUMP JUMPDEST SWAP1 DUP2 MSTORE PUSH1 0x20 ADD PUSH1 0x40 MLOAD DUP1 SWAP2 SUB SWAP1 KECCAK256 PUSH1 0x0 SWAP1 SLOAD SWAP1 PUSH2 0x100 EXP SWAP1 DIV PUSH20 0xFFFFFFFFFFFFFFFFFFFFFFFFFFFFFFFFFFFFFFFF AND PUSH20 0xFFFFFFFFFFFFFFFFFFFFFFFFFFFFFFFFFFFFFFFF AND PUSH20 0xFFFFFFFFFFFFFFFFFFFFFFFFFFFFFFFFFFFFFFFF AND DUP2 MSTORE PUSH1 0x20 ADD SWAP1 DUP2 MSTORE PUSH1 0x20 ADD PUSH1 0x0 KECCAK256 PUSH1 0x0 DUP3 DUP3 SLOAD PUSH2 0x10C1 SWAP2 SWAP1 PUSH2 0x54C5 JUMP JUMPDEST SWAP3 POP POP DUP2 SWAP1 SSTORE POP DUP1 DUP6 PUSH2 0x10D4 SWAP2 SWAP1 PUSH2 0x54F9 JUMP JUMPDEST SWAP5 POP POP POP PUSH2 0x15E5 JUMP JUMPDEST PUSH1 0x40 MLOAD PUSH1 0x20 ADD PUSH2 0x10EC SWAP1 PUSH2 0x5579 JUMP JUMPDEST PUSH1 0x40 MLOAD PUSH1 0x20 DUP2 DUP4 SUB SUB DUP2 MSTORE SWAP1 PUSH1 0x40 MSTORE DUP1 MLOAD SWAP1 PUSH1 0x20 ADD KECCAK256 DUP2 PUSH1 0x0 ADD MLOAD PUSH1 0x40 MLOAD PUSH1 0x20 ADD PUSH2 0x1117 SWAP2 SWAP1 PUSH2 0x54AE JUMP JUMPDEST PUSH1 0x40 MLOAD PUSH1 0x20 DUP2 DUP4 SUB SUB DUP2 MSTORE SWAP1 PUSH1 0x40 MSTORE DUP1 MLOAD SWAP1 PUSH1 0x20 ADD KECCAK256 SUB PUSH2 0x1346 JUMPI PUSH1 0x0 PUSH1 0x7 PUSH1 0x0 DUP13 PUSH3 0xFFFFFF AND PUSH3 0xFFFFFF AND DUP2 MSTORE PUSH1 0x20 ADD SWAP1 DUP2 MSTORE PUSH1 0x20 ADD PUSH1 0x0 KECCAK256 PUSH1 0x0 PUSH1 0x8 DUP5 PUSH1 0x0 ADD MLOAD PUSH1 0x40 MLOAD PUSH2 0x1167 SWAP2 SWAP1 PUSH2 0x54AE JUMP JUMPDEST SWAP1 DUP2 MSTORE PUSH1 0x20 ADD PUSH1 0x40 MLOAD DUP1 SWAP2 SUB SWAP1 KECCAK256 PUSH1 0x0 SWAP1 SLOAD SWAP1 PUSH2 0x100 EXP SWAP1 DIV PUSH20 0xFFFFFFFFFFFFFFFFFFFFFFFFFFFFFFFFFFFFFFFF AND PUSH20 0xFFFFFFFFFFFFFFFFFFFFFFFFFFFFFFFFFFFFFFFF AND PUSH20 0xFFFFFFFFFFFFFFFFFFFFFFFFFFFFFFFFFFFFFFFF AND DUP2 MSTORE PUSH1 0x20 ADD SWAP1 DUP2 MSTORE PUSH1 0x20 ADD PUSH1 0x0 KECCAK256 SLOAD SWAP1 POP PUSH1 0x0 PUSH3 0x186A0 DUP8 DUP4 PUSH2 0x11E5 SWAP2 SWAP1 PUSH2 0x536F JUMP JUMPDEST PUSH2 0x11EF SWAP2 SWAP1 PUSH2 0x53E0 JUMP JUMPDEST SWAP1 POP DUP1 PUSH1 0x7 PUSH1 0x0 DUP15 PUSH3 0xFFFFFF AND PUSH3 0xFFFFFF AND DUP2 MSTORE PUSH1 0x20 ADD SWAP1 DUP2 MSTORE PUSH1 0x20 ADD PUSH1 0x0 KECCAK256 PUSH1 0x0 PUSH1 0x8 DUP7 PUSH1 0x0 ADD MLOAD PUSH1 0x40 MLOAD PUSH2 0x1225 SWAP2 SWAP1 PUSH2 0x54AE JUMP JUMPDEST SWAP1 DUP2 MSTORE PUSH1 0x20 ADD PUSH1 0x40 MLOAD DUP1 SWAP2 SUB SWAP1 KECCAK256 PUSH1 0x0 SWAP1 SLOAD SWAP1 PUSH2 0x100 EXP SWAP1 DIV PUSH20 0xFFFFFFFFFFFFFFFFFFFFFFFFFFFFFFFFFFFFFFFF AND PUSH20 0xFFFFFFFFFFFFFFFFFFFFFFFFFFFFFFFFFFFFFFFF AND PUSH20 0xFFFFFFFFFFFFFFFFFFFFFFFFFFFFFFFFFFFFFFFF AND DUP2 MSTORE PUSH1 0x20 ADD SWAP1 DUP2 MSTORE PUSH1 0x20 ADD PUSH1 0x0 KECCAK256 PUSH1 0x0 DUP3 DUP3 SLOAD PUSH2 0x129D SWAP2 SWAP1 PUSH2 0x54C5 JUMP JUMPDEST SWAP3 POP POP DUP2 SWAP1 SSTORE POP PUSH1 0x4 PUSH1 0x0 SWAP1 SLOAD SWAP1 PUSH2 0x100 EXP SWAP1 DIV PUSH20 0xFFFFFFFFFFFFFFFFFFFFFFFFFFFFFFFFFFFFFFFF AND PUSH20 0xFFFFFFFFFFFFFFFFFFFFFFFFFFFFFFFFFFFFFFFF AND PUSH4 0x2E1A7D4D DUP3 PUSH1 0x40 MLOAD DUP3 PUSH4 0xFFFFFFFF AND PUSH1 0xE0 SHL DUP2 MSTORE PUSH1 0x4 ADD PUSH2 0x12FF SWAP2 SWAP1 PUSH2 0x405E JUMP JUMPDEST PUSH1 0x0 PUSH1 0x40 MLOAD DUP1 DUP4 SUB DUP2 PUSH1 0x0 DUP8 DUP1 EXTCODESIZE ISZERO DUP1 ISZERO PUSH2 0x1319 JUMPI PUSH1 0x0 DUP1 REVERT JUMPDEST POP GAS CALL ISZERO DUP1 ISZERO PUSH2 0x132D JUMPI RETURNDATASIZE PUSH1 0x0 DUP1 RETURNDATACOPY RETURNDATASIZE PUSH1 0x0 REVERT JUMPDEST POP POP POP POP DUP1 DUP6 PUSH2 0x133D SWAP2 SWAP1 PUSH2 0x54F9 JUMP JUMPDEST SWAP5 POP POP POP PUSH2 0x15E4 JUMP JUMPDEST PUSH1 0x0 PUSH1 0x7 PUSH1 0x0 DUP13 PUSH3 0xFFFFFF AND PUSH3 0xFFFFFF AND DUP2 MSTORE PUSH1 0x20 ADD SWAP1 DUP2 MSTORE PUSH1 0x20 ADD PUSH1 0x0 KECCAK256 PUSH1 0x0 PUSH1 0x8 DUP5 PUSH1 0x0 ADD MLOAD PUSH1 0x40 MLOAD PUSH2 0x137B SWAP2 SWAP1 PUSH2 0x54AE JUMP JUMPDEST SWAP1 DUP2 MSTORE PUSH1 0x20 ADD PUSH1 0x40 MLOAD DUP1 SWAP2 SUB SWAP1 KECCAK256 PUSH1 0x0 SWAP1 SLOAD SWAP1 PUSH2 0x100 EXP SWAP1 DIV PUSH20 0xFFFFFFFFFFFFFFFFFFFFFFFFFFFFFFFFFFFFFFFF AND PUSH20 0xFFFFFFFFFFFFFFFFFFFFFFFFFFFFFFFFFFFFFFFF AND PUSH20 0xFFFFFFFFFFFFFFFFFFFFFFFFFFFFFFFFFFFFFFFF AND DUP2 MSTORE PUSH1 0x20 ADD SWAP1 DUP2 MSTORE PUSH1 0x20 ADD PUSH1 0x0 KECCAK256 SLOAD SWAP1 POP PUSH1 0x0 PUSH3 0x186A0 DUP8 DUP4 PUSH2 0x13F9 SWAP2 SWAP1 PUSH2 0x536F JUMP JUMPDEST PUSH2 0x1403 SWAP2 SWAP1 PUSH2 0x53E0 JUMP JUMPDEST SWAP1 POP DUP1 PUSH1 0x7 PUSH1 0x0 DUP15 PUSH3 0xFFFFFF AND PUSH3 0xFFFFFF AND DUP2 MSTORE PUSH1 0x20 ADD SWAP1 DUP2 MSTORE PUSH1 0x20 ADD PUSH1 0x0 KECCAK256 PUSH1 0x0 PUSH1 0x8 DUP7 PUSH1 0x0 ADD MLOAD PUSH1 0x40 MLOAD PUSH2 0x1439 SWAP2 SWAP1 PUSH2 0x54AE JUMP JUMPDEST SWAP1 DUP2 MSTORE PUSH1 0x20 ADD PUSH1 0x40 MLOAD DUP1 SWAP2 SUB SWAP1 KECCAK256 PUSH1 0x0 SWAP1 SLOAD SWAP1 PUSH2 0x100 EXP SWAP1 DIV PUSH20 0xFFFFFFFFFFFFFFFFFFFFFFFFFFFFFFFFFFFFFFFF AND PUSH20 0xFFFFFFFFFFFFFFFFFFFFFFFFFFFFFFFFFFFFFFFF AND PUSH20 0xFFFFFFFFFFFFFFFFFFFFFFFFFFFFFFFFFFFFFFFF AND DUP2 MSTORE PUSH1 0x20 ADD SWAP1 DUP2 MSTORE PUSH1 0x20 ADD PUSH1 0x0 KECCAK256 PUSH1 0x0 DUP3 DUP3 SLOAD PUSH2 0x14B1 SWAP2 SWAP1 PUSH2 0x54C5 JUMP JUMPDEST SWAP3 POP POP DUP2 SWAP1 SSTORE POP PUSH1 0x0 PUSH2 0x1543 DUP3 PUSH1 0x8 DUP7 PUSH1 0x0 ADD MLOAD PUSH1 0x40 MLOAD PUSH2 0x14D2 SWAP2 SWAP1 PUSH2 0x54AE JUMP JUMPDEST SWAP1 DUP2 MSTORE PUSH1 0x20 ADD PUSH1 0x40 MLOAD DUP1 SWAP2 SUB SWAP1 KECCAK256 PUSH1 0x0 SWAP1 SLOAD SWAP1 PUSH2 0x100 EXP SWAP1 DIV PUSH20 0xFFFFFFFFFFFFFFFFFFFFFFFFFFFFFFFFFFFFFFFF AND PUSH1 0x8 PUSH1 0x40 MLOAD PUSH2 0x150F SWAP1 PUSH2 0x5579 JUMP JUMPDEST SWAP1 DUP2 MSTORE PUSH1 0x20 ADD PUSH1 0x40 MLOAD DUP1 SWAP2 SUB SWAP1 KECCAK256 PUSH1 0x0 SWAP1 SLOAD SWAP1 PUSH2 0x100 EXP SWAP1 DIV PUSH20 0xFFFFFFFFFFFFFFFFFFFFFFFFFFFFFFFFFFFFFFFF AND PUSH2 0x2D5A JUMP JUMPDEST SWAP1 POP PUSH1 0x4 PUSH1 0x0 SWAP1 SLOAD SWAP1 PUSH2 0x100 EXP SWAP1 DIV PUSH20 0xFFFFFFFFFFFFFFFFFFFFFFFFFFFFFFFFFFFFFFFF AND PUSH20 0xFFFFFFFFFFFFFFFFFFFFFFFFFFFFFFFFFFFFFFFF AND PUSH4 0x2E1A7D4D DUP3 PUSH1 0x40 MLOAD DUP3 PUSH4 0xFFFFFFFF AND PUSH1 0xE0 SHL DUP2 MSTORE PUSH1 0x4 ADD PUSH2 0x15A0 SWAP2 SWAP1 PUSH2 0x405E JUMP JUMPDEST PUSH1 0x0 PUSH1 0x40 MLOAD DUP1 DUP4 SUB DUP2 PUSH1 0x0 DUP8 DUP1 EXTCODESIZE ISZERO DUP1 ISZERO PUSH2 0x15BA JUMPI PUSH1 0x0 DUP1 REVERT JUMPDEST POP GAS CALL ISZERO DUP1 ISZERO PUSH2 0x15CE JUMPI RETURNDATASIZE PUSH1 0x0 DUP1 RETURNDATACOPY RETURNDATASIZE PUSH1 0x0 REVERT JUMPDEST POP POP POP POP DUP1 DUP7 PUSH2 0x15DE SWAP2 SWAP1 PUSH2 0x54F9 JUMP JUMPDEST SWAP6 POP POP POP POP JUMPDEST JUMPDEST POP DUP1 DUP1 PUSH2 0x15F1 SWAP1 PUSH2 0x513D JUMP JUMPDEST SWAP2 POP POP PUSH2 0xDFE JUMP JUMPDEST POP PUSH2 0x160A CALLER DUP10 PUSH3 0xFFFFFF AND DUP10 PUSH2 0x2ECC JUMP JUMPDEST PUSH1 0x0 CALLER PUSH20 0xFFFFFFFFFFFFFFFFFFFFFFFFFFFFFFFFFFFFFFFF AND DUP3 PUSH1 0x40 MLOAD PUSH2 0x1630 SWAP1 PUSH2 0x55BF JUMP JUMPDEST PUSH1 0x0 PUSH1 0x40 MLOAD DUP1 DUP4 SUB DUP2 DUP6 DUP8 GAS CALL SWAP3 POP POP POP RETURNDATASIZE DUP1 PUSH1 0x0 DUP2 EQ PUSH2 0x166D JUMPI PUSH1 0x40 MLOAD SWAP2 POP PUSH1 0x1F NOT PUSH1 0x3F RETURNDATASIZE ADD AND DUP3 ADD PUSH1 0x40 MSTORE RETURNDATASIZE DUP3 MSTORE RETURNDATASIZE PUSH1 0x0 PUSH1 0x20 DUP5 ADD RETURNDATACOPY PUSH2 0x1672 JUMP JUMPDEST PUSH1 0x60 SWAP2 POP JUMPDEST POP POP SWAP1 POP DUP1 PUSH2 0x1680 JUMPI PUSH1 0x0 DUP1 REVERT JUMPDEST PUSH32 0x3A8C7F8EE392A5F03A68614A07481B2744D70742E4402781016D459204313AC8 DUP10 DUP10 DUP5 PUSH1 0x40 MLOAD PUSH2 0x16B3 SWAP4 SWAP3 SWAP2 SWAP1 PUSH2 0x5605 JUMP JUMPDEST PUSH1 0x40 MLOAD DUP1 SWAP2 SUB SWAP1 LOG1 DUP2 SWAP7 POP POP POP POP POP POP POP SWAP3 SWAP2 POP POP JUMP JUMPDEST PUSH1 0x0 DUP2 PUSH1 0xA PUSH1 0x14 SWAP1 SLOAD SWAP1 PUSH2 0x100 EXP SWAP1 DIV PUSH3 0xFFFFFF AND PUSH3 0xFFFFFF AND DUP2 PUSH3 0xFFFFFF AND LT PUSH2 0x172A JUMPI PUSH1 0x40 MLOAD PUSH32 0x8C379A000000000000000000000000000000000000000000000000000000000 DUP2 MSTORE PUSH1 0x4 ADD PUSH2 0x1721 SWAP1 PUSH2 0x51D1 JUMP JUMPDEST PUSH1 0x40 MLOAD DUP1 SWAP2 SUB SWAP1 REVERT JUMPDEST PUSH1 0x0 CALLVALUE GT PUSH2 0x176D JUMPI PUSH1 0x40 MLOAD PUSH32 0x8C379A000000000000000000000000000000000000000000000000000000000 DUP2 MSTORE PUSH1 0x4 ADD PUSH2 0x1764 SWAP1 PUSH2 0x5688 JUMP JUMPDEST PUSH1 0x40 MLOAD DUP1 SWAP2 SUB SWAP1 REVERT JUMPDEST PUSH1 0x0 PUSH2 0x1779 DUP5 CALLVALUE PUSH2 0x3112 JUMP JUMPDEST SWAP1 POP PUSH1 0x0 PUSH2 0x1786 DUP6 PUSH2 0xA97 JUMP JUMPDEST SWAP1 POP PUSH1 0x0 JUMPDEST DUP2 DUP2 LT ISZERO PUSH2 0x1D71 JUMPI PUSH1 0x0 PUSH1 0x6 PUSH1 0x0 DUP9 PUSH3 0xFFFFFF AND PUSH3 0xFFFFFF AND DUP2 MSTORE PUSH1 0x20 ADD SWAP1 DUP2 MSTORE PUSH1 0x20 ADD PUSH1 0x0 KECCAK256 DUP3 DUP2 SLOAD DUP2 LT PUSH2 0x17C4 JUMPI PUSH2 0x17C3 PUSH2 0x50DF JUMP JUMPDEST JUMPDEST SWAP1 PUSH1 0x0 MSTORE PUSH1 0x20 PUSH1 0x0 KECCAK256 SWAP1 PUSH1 0x2 MUL ADD PUSH1 0x40 MLOAD DUP1 PUSH1 0x40 ADD PUSH1 0x40 MSTORE SWAP1 DUP2 PUSH1 0x0 DUP3 ADD DUP1 SLOAD PUSH2 0x17ED SWAP1 PUSH2 0x4E8C JUMP JUMPDEST DUP1 PUSH1 0x1F ADD PUSH1 0x20 DUP1 SWAP2 DIV MUL PUSH1 0x20 ADD PUSH1 0x40 MLOAD SWAP1 DUP2 ADD PUSH1 0x40 MSTORE DUP1 SWAP3 SWAP2 SWAP1 DUP2 DUP2 MSTORE PUSH1 0x20 ADD DUP3 DUP1 SLOAD PUSH2 0x1819 SWAP1 PUSH2 0x4E8C JUMP JUMPDEST DUP1 ISZERO PUSH2 0x1866 JUMPI DUP1 PUSH1 0x1F LT PUSH2 0x183B JUMPI PUSH2 0x100 DUP1 DUP4 SLOAD DIV MUL DUP4 MSTORE SWAP2 PUSH1 0x20 ADD SWAP2 PUSH2 0x1866 JUMP JUMPDEST DUP3 ADD SWAP2 SWAP1 PUSH1 0x0 MSTORE PUSH1 0x20 PUSH1 0x0 KECCAK256 SWAP1 JUMPDEST DUP2 SLOAD DUP2 MSTORE SWAP1 PUSH1 0x1 ADD SWAP1 PUSH1 0x20 ADD DUP1 DUP4 GT PUSH2 0x1849 JUMPI DUP3 SWAP1 SUB PUSH1 0x1F AND DUP3 ADD SWAP2 JUMPDEST POP POP POP POP POP DUP2 MSTORE PUSH1 0x20 ADD PUSH1 0x1 DUP3 ADD PUSH1 0x0 SWAP1 SLOAD SWAP1 PUSH2 0x100 EXP SWAP1 DIV PUSH1 0xFF AND PUSH1 0xFF AND PUSH1 0xFF AND DUP2 MSTORE POP POP SWAP1 POP PUSH1 0x40 MLOAD PUSH1 0x20 ADD PUSH2 0x189D SWAP1 PUSH2 0x5468 JUMP JUMPDEST PUSH1 0x40 MLOAD PUSH1 0x20 DUP2 DUP4 SUB SUB DUP2 MSTORE SWAP1 PUSH1 0x40 MSTORE DUP1 MLOAD SWAP1 PUSH1 0x20 ADD KECCAK256 DUP2 PUSH1 0x0 ADD MLOAD PUSH1 0x40 MLOAD PUSH1 0x20 ADD PUSH2 0x18C8 SWAP2 SWAP1 PUSH2 0x54AE JUMP JUMPDEST PUSH1 0x40 MLOAD PUSH1 0x20 DUP2 DUP4 SUB SUB DUP2 MSTORE SWAP1 PUSH1 0x40 MSTORE DUP1 MLOAD SWAP1 PUSH1 0x20 ADD KECCAK256 SUB PUSH2 0x19BF JUMPI PUSH1 0x0 PUSH1 0x64 DUP3 PUSH1 0x20 ADD MLOAD PUSH1 0xFF AND CALLVALUE PUSH2 0x18FA SWAP2 SWAP1 PUSH2 0x536F JUMP JUMPDEST PUSH2 0x1904 SWAP2 SWAP1 PUSH2 0x53E0 JUMP JUMPDEST SWAP1 POP DUP1 PUSH1 0x7 PUSH1 0x0 DUP11 PUSH3 0xFFFFFF AND PUSH3 0xFFFFFF AND DUP2 MSTORE PUSH1 0x20 ADD SWAP1 DUP2 MSTORE PUSH1 0x20 ADD PUSH1 0x0 KECCAK256 PUSH1 0x0 PUSH1 0x8 DUP6 PUSH1 0x0 ADD MLOAD PUSH1 0x40 MLOAD PUSH2 0x193A SWAP2 SWAP1 PUSH2 0x54AE JUMP JUMPDEST SWAP1 DUP2 MSTORE PUSH1 0x20 ADD PUSH1 0x40 MLOAD DUP1 SWAP2 SUB SWAP1 KECCAK256 PUSH1 0x0 SWAP1 SLOAD SWAP1 PUSH2 0x100 EXP SWAP1 DIV PUSH20 0xFFFFFFFFFFFFFFFFFFFFFFFFFFFFFFFFFFFFFFFF AND PUSH20 0xFFFFFFFFFFFFFFFFFFFFFFFFFFFFFFFFFFFFFFFF AND PUSH20 0xFFFFFFFFFFFFFFFFFFFFFFFFFFFFFFFFFFFFFFFF AND DUP2 MSTORE PUSH1 0x20 ADD SWAP1 DUP2 MSTORE PUSH1 0x20 ADD PUSH1 0x0 KECCAK256 PUSH1 0x0 DUP3 DUP3 SLOAD PUSH2 0x19B2 SWAP2 SWAP1 PUSH2 0x54F9 JUMP JUMPDEST SWAP3 POP POP DUP2 SWAP1 SSTORE POP POP PUSH2 0x1D5D JUMP JUMPDEST PUSH1 0x40 MLOAD PUSH1 0x20 ADD PUSH2 0x19CE SWAP1 PUSH2 0x5579 JUMP JUMPDEST PUSH1 0x40 MLOAD PUSH1 0x20 DUP2 DUP4 SUB SUB DUP2 MSTORE SWAP1 PUSH1 0x40 MSTORE DUP1 MLOAD SWAP1 PUSH1 0x20 ADD KECCAK256 DUP2 PUSH1 0x0 ADD MLOAD PUSH1 0x40 MLOAD PUSH1 0x20 ADD PUSH2 0x19F9 SWAP2 SWAP1 PUSH2 0x54AE JUMP JUMPDEST PUSH1 0x40 MLOAD PUSH1 0x20 DUP2 DUP4 SUB SUB DUP2 MSTORE SWAP1 PUSH1 0x40 MSTORE DUP1 MLOAD SWAP1 PUSH1 0x20 ADD KECCAK256 SUB PUSH2 0x1B73 JUMPI PUSH1 0x0 PUSH1 0x64 DUP3 PUSH1 0x20 ADD MLOAD PUSH1 0xFF AND CALLVALUE PUSH2 0x1A2B SWAP2 SWAP1 PUSH2 0x536F JUMP JUMPDEST PUSH2 0x1A35 SWAP2 SWAP1 PUSH2 0x53E0 JUMP JUMPDEST SWAP1 POP PUSH1 0x4 PUSH1 0x0 SWAP1 SLOAD SWAP1 PUSH2 0x100 EXP SWAP1 DIV PUSH20 0xFFFFFFFFFFFFFFFFFFFFFFFFFFFFFFFFFFFFFFFF AND PUSH20 0xFFFFFFFFFFFFFFFFFFFFFFFFFFFFFFFFFFFFFFFF AND PUSH4 0xD0E30DB0 DUP3 PUSH1 0x40 MLOAD DUP3 PUSH4 0xFFFFFFFF AND PUSH1 0xE0 SHL DUP2 MSTORE PUSH1 0x4 ADD PUSH1 0x0 PUSH1 0x40 MLOAD DUP1 DUP4 SUB DUP2 DUP6 DUP9 DUP1 EXTCODESIZE ISZERO DUP1 ISZERO PUSH2 0x1AA1 JUMPI PUSH1 0x0 DUP1 REVERT JUMPDEST POP GAS CALL ISZERO DUP1 ISZERO PUSH2 0x1AB5 JUMPI RETURNDATASIZE PUSH1 0x0 DUP1 RETURNDATACOPY RETURNDATASIZE PUSH1 0x0 REVERT JUMPDEST POP POP POP POP POP DUP1 PUSH1 0x7 PUSH1 0x0 DUP11 PUSH3 0xFFFFFF AND PUSH3 0xFFFFFF AND DUP2 MSTORE PUSH1 0x20 ADD SWAP1 DUP2 MSTORE PUSH1 0x20 ADD PUSH1 0x0 KECCAK256 PUSH1 0x0 PUSH1 0x8 DUP6 PUSH1 0x0 ADD MLOAD PUSH1 0x40 MLOAD PUSH2 0x1AEE SWAP2 SWAP1 PUSH2 0x54AE JUMP JUMPDEST SWAP1 DUP2 MSTORE PUSH1 0x20 ADD PUSH1 0x40 MLOAD DUP1 SWAP2 SUB SWAP1 KECCAK256 PUSH1 0x0 SWAP1 SLOAD SWAP1 PUSH2 0x100 EXP SWAP1 DIV PUSH20 0xFFFFFFFFFFFFFFFFFFFFFFFFFFFFFFFFFFFFFFFF AND PUSH20 0xFFFFFFFFFFFFFFFFFFFFFFFFFFFFFFFFFFFFFFFF AND PUSH20 0xFFFFFFFFFFFFFFFFFFFFFFFFFFFFFFFFFFFFFFFF AND DUP2 MSTORE PUSH1 0x20 ADD SWAP1 DUP2 MSTORE PUSH1 0x20 ADD PUSH1 0x0 KECCAK256 PUSH1 0x0 DUP3 DUP3 SLOAD PUSH2 0x1B66 SWAP2 SWAP1 PUSH2 0x54F9 JUMP JUMPDEST SWAP3 POP POP DUP2 SWAP1 SSTORE POP POP PUSH2 0x1D5C JUMP JUMPDEST PUSH1 0x0 PUSH1 0x64 DUP3 PUSH1 0x20 ADD MLOAD PUSH1 0xFF AND CALLVALUE PUSH2 0x1B8A SWAP2 SWAP1 PUSH2 0x536F JUMP JUMPDEST PUSH2 0x1B94 SWAP2 SWAP1 PUSH2 0x53E0 JUMP JUMPDEST SWAP1 POP PUSH1 0x4 PUSH1 0x0 SWAP1 SLOAD SWAP1 PUSH2 0x100 EXP SWAP1 DIV PUSH20 0xFFFFFFFFFFFFFFFFFFFFFFFFFFFFFFFFFFFFFFFF AND PUSH20 0xFFFFFFFFFFFFFFFFFFFFFFFFFFFFFFFFFFFFFFFF AND PUSH4 0xD0E30DB0 DUP3 PUSH1 0x40 MLOAD DUP3 PUSH4 0xFFFFFFFF AND PUSH1 0xE0 SHL DUP2 MSTORE PUSH1 0x4 ADD PUSH1 0x0 PUSH1 0x40 MLOAD DUP1 DUP4 SUB DUP2 DUP6 DUP9 DUP1 EXTCODESIZE ISZERO DUP1 ISZERO PUSH2 0x1C00 JUMPI PUSH1 0x0 DUP1 REVERT JUMPDEST POP GAS CALL ISZERO DUP1 ISZERO PUSH2 0x1C14 JUMPI RETURNDATASIZE PUSH1 0x0 DUP1 RETURNDATACOPY RETURNDATASIZE PUSH1 0x0 REVERT JUMPDEST POP POP POP POP POP PUSH1 0x0 PUSH2 0x1CA4 DUP3 PUSH1 0x8 PUSH1 0x40 MLOAD PUSH2 0x1C2D SWAP1 PUSH2 0x5579 JUMP JUMPDEST SWAP1 DUP2 MSTORE PUSH1 0x20 ADD PUSH1 0x40 MLOAD DUP1 SWAP2 SUB SWAP1 KECCAK256 PUSH1 0x0 SWAP1 SLOAD SWAP1 PUSH2 0x100 EXP SWAP1 DIV PUSH20 0xFFFFFFFFFFFFFFFFFFFFFFFFFFFFFFFFFFFFFFFF AND PUSH1 0x8 DUP7 PUSH1 0x0 ADD MLOAD PUSH1 0x40 MLOAD PUSH2 0x1C70 SWAP2 SWAP1 PUSH2 0x54AE JUMP JUMPDEST SWAP1 DUP2 MSTORE PUSH1 0x20 ADD PUSH1 0x40 MLOAD DUP1 SWAP2 SUB SWAP1 KECCAK256 PUSH1 0x0 SWAP1 SLOAD SWAP1 PUSH2 0x100 EXP SWAP1 DIV PUSH20 0xFFFFFFFFFFFFFFFFFFFFFFFFFFFFFFFFFFFFFFFF AND PUSH2 0x2D5A JUMP JUMPDEST SWAP1 POP DUP1 PUSH1 0x7 PUSH1 0x0 DUP12 PUSH3 0xFFFFFF AND PUSH3 0xFFFFFF AND DUP2 MSTORE PUSH1 0x20 ADD SWAP1 DUP2 MSTORE PUSH1 0x20 ADD PUSH1 0x0 KECCAK256 PUSH1 0x0 PUSH1 0x8 DUP7 PUSH1 0x0 ADD MLOAD PUSH1 0x40 MLOAD PUSH2 0x1CDA SWAP2 SWAP1 PUSH2 0x54AE JUMP JUMPDEST SWAP1 DUP2 MSTORE PUSH1 0x20 ADD PUSH1 0x40 MLOAD DUP1 SWAP2 SUB SWAP1 KECCAK256 PUSH1 0x0 SWAP1 SLOAD SWAP1 PUSH2 0x100 EXP SWAP1 DIV PUSH20 0xFFFFFFFFFFFFFFFFFFFFFFFFFFFFFFFFFFFFFFFF AND PUSH20 0xFFFFFFFFFFFFFFFFFFFFFFFFFFFFFFFFFFFFFFFF AND PUSH20 0xFFFFFFFFFFFFFFFFFFFFFFFFFFFFFFFFFFFFFFFF AND DUP2 MSTORE PUSH1 0x20 ADD SWAP1 DUP2 MSTORE PUSH1 0x20 ADD PUSH1 0x0 KECCAK256 PUSH1 0x0 DUP3 DUP3 SLOAD PUSH2 0x1D52 SWAP2 SWAP1 PUSH2 0x54F9 JUMP JUMPDEST SWAP3 POP POP DUP2 SWAP1 SSTORE POP POP POP JUMPDEST JUMPDEST POP DUP1 DUP1 PUSH2 0x1D69 SWAP1 PUSH2 0x513D JUMP JUMPDEST SWAP2 POP POP PUSH2 0x178B JUMP JUMPDEST POP PUSH2 0x1D92 CALLER DUP7 PUSH3 0xFFFFFF AND DUP5 PUSH1 0x40 MLOAD DUP1 PUSH1 0x20 ADD PUSH1 0x40 MSTORE DUP1 PUSH1 0x0 DUP2 MSTORE POP PUSH2 0x31FD JUMP JUMPDEST PUSH32 0xB05532E21B444E9778DC1661BC462D41BA18EC113DC5E87D9D7A3849FF02D1E8 DUP6 CALLVALUE DUP5 PUSH1 0x40 MLOAD PUSH2 0x1DC5 SWAP4 SWAP3 SWAP2 SWAP1 PUSH2 0x5605 JUMP JUMPDEST PUSH1 0x40 MLOAD DUP1 SWAP2 SUB SWAP1 LOG1 DUP2 SWAP4 POP POP POP POP SWAP2 SWAP1 POP JUMP JUMPDEST PUSH2 0x1DEA PUSH2 0x1DE3 PUSH2 0x2A31 JUMP JUMPDEST DUP4 DUP4 PUSH2 0x33AD JUMP JUMPDEST POP POP JUMP JUMPDEST PUSH1 0x0 PUSH1 0x3 PUSH1 0x0 DUP4 DUP2 MSTORE PUSH1 0x20 ADD SWAP1 DUP2 MSTORE PUSH1 0x20 ADD PUSH1 0x0 KECCAK256 SLOAD SWAP1 POP SWAP2 SWAP1 POP JUMP JUMPDEST PUSH32 0x0 DUP2 JUMP JUMPDEST PUSH1 0x0 DUP2 PUSH1 0xA PUSH1 0x14 SWAP1 SLOAD SWAP1 PUSH2 0x100 EXP SWAP1 DIV PUSH3 0xFFFFFF AND PUSH3 0xFFFFFF AND DUP2 PUSH3 0xFFFFFF AND LT PUSH2 0x1E8F JUMPI PUSH1 0x40 MLOAD PUSH32 0x8C379A000000000000000000000000000000000000000000000000000000000 DUP2 MSTORE PUSH1 0x4 ADD PUSH2 0x1E86 SWAP1 PUSH2 0x51D1 JUMP JUMPDEST PUSH1 0x40 MLOAD DUP1 SWAP2 SUB SWAP1 REVERT JUMPDEST PUSH1 0x0 PUSH2 0x1E9A DUP5 PUSH2 0xA97 JUMP JUMPDEST SWAP1 POP PUSH1 0x0 DUP1 PUSH1 0x0 SWAP1 POP JUMPDEST DUP3 DUP2 LT ISZERO PUSH2 0x2368 JUMPI PUSH1 0x0 PUSH1 0x6 PUSH1 0x0 DUP9 PUSH3 0xFFFFFF AND PUSH3 0xFFFFFF AND DUP2 MSTORE PUSH1 0x20 ADD SWAP1 DUP2 MSTORE PUSH1 0x20 ADD PUSH1 0x0 KECCAK256 DUP3 DUP2 SLOAD DUP2 LT PUSH2 0x1EDD JUMPI PUSH2 0x1EDC PUSH2 0x50DF JUMP JUMPDEST JUMPDEST SWAP1 PUSH1 0x0 MSTORE PUSH1 0x20 PUSH1 0x0 KECCAK256 SWAP1 PUSH1 0x2 MUL ADD PUSH1 0x40 MLOAD DUP1 PUSH1 0x40 ADD PUSH1 0x40 MSTORE SWAP1 DUP2 PUSH1 0x0 DUP3 ADD DUP1 SLOAD PUSH2 0x1F06 SWAP1 PUSH2 0x4E8C JUMP JUMPDEST DUP1 PUSH1 0x1F ADD PUSH1 0x20 DUP1 SWAP2 DIV MUL PUSH1 0x20 ADD PUSH1 0x40 MLOAD SWAP1 DUP2 ADD PUSH1 0x40 MSTORE DUP1 SWAP3 SWAP2 SWAP1 DUP2 DUP2 MSTORE PUSH1 0x20 ADD DUP3 DUP1 SLOAD PUSH2 0x1F32 SWAP1 PUSH2 0x4E8C JUMP JUMPDEST DUP1 ISZERO PUSH2 0x1F7F JUMPI DUP1 PUSH1 0x1F LT PUSH2 0x1F54 JUMPI PUSH2 0x100 DUP1 DUP4 SLOAD DIV MUL DUP4 MSTORE SWAP2 PUSH1 0x20 ADD SWAP2 PUSH2 0x1F7F JUMP JUMPDEST DUP3 ADD SWAP2 SWAP1 PUSH1 0x0 MSTORE PUSH1 0x20 PUSH1 0x0 KECCAK256 SWAP1 JUMPDEST DUP2 SLOAD DUP2 MSTORE SWAP1 PUSH1 0x1 ADD SWAP1 PUSH1 0x20 ADD DUP1 DUP4 GT PUSH2 0x1F62 JUMPI DUP3 SWAP1 SUB PUSH1 0x1F AND DUP3 ADD SWAP2 JUMPDEST POP POP POP POP POP DUP2 MSTORE PUSH1 0x20 ADD PUSH1 0x1 DUP3 ADD PUSH1 0x0 SWAP1 SLOAD SWAP1 PUSH2 0x100 EXP SWAP1 DIV PUSH1 0xFF AND PUSH1 0xFF AND PUSH1 0xFF AND DUP2 MSTORE POP POP SWAP1 POP PUSH1 0x40 MLOAD PUSH1 0x20 ADD PUSH2 0x1FB6 SWAP1 PUSH2 0x5468 JUMP JUMPDEST PUSH1 0x40 MLOAD PUSH1 0x20 DUP2 DUP4 SUB SUB DUP2 MSTORE SWAP1 PUSH1 0x40 MSTORE DUP1 MLOAD SWAP1 PUSH1 0x20 ADD KECCAK256 DUP2 PUSH1 0x0 ADD MLOAD PUSH1 0x40 MLOAD PUSH1 0x20 ADD PUSH2 0x1FE1 SWAP2 SWAP1 PUSH2 0x54AE JUMP JUMPDEST PUSH1 0x40 MLOAD PUSH1 0x20 DUP2 DUP4 SUB SUB DUP2 MSTORE SWAP1 PUSH1 0x40 MSTORE DUP1 MLOAD SWAP1 PUSH1 0x20 ADD KECCAK256 EQ DUP1 PUSH2 0x2050 JUMPI POP PUSH1 0x40 MLOAD PUSH1 0x20 ADD PUSH2 0x200D SWAP1 PUSH2 0x5579 JUMP JUMPDEST PUSH1 0x40 MLOAD PUSH1 0x20 DUP2 DUP4 SUB SUB DUP2 MSTORE SWAP1 PUSH1 0x40 MSTORE DUP1 MLOAD SWAP1 PUSH1 0x20 ADD KECCAK256 DUP2 PUSH1 0x0 ADD MLOAD PUSH1 0x40 MLOAD PUSH1 0x20 ADD PUSH2 0x2038 SWAP2 SWAP1 PUSH2 0x54AE JUMP JUMPDEST PUSH1 0x40 MLOAD PUSH1 0x20 DUP2 DUP4 SUB SUB DUP2 MSTORE SWAP1 PUSH1 0x40 MSTORE DUP1 MLOAD SWAP1 PUSH1 0x20 ADD KECCAK256 EQ JUMPDEST ISZERO PUSH2 0x215A JUMPI PUSH1 0x0 PUSH1 0x7 PUSH1 0x0 DUP10 PUSH3 0xFFFFFF AND PUSH3 0xFFFFFF AND DUP2 MSTORE PUSH1 0x20 ADD SWAP1 DUP2 MSTORE PUSH1 0x20 ADD PUSH1 0x0 KECCAK256 PUSH1 0x0 PUSH1 0x8 DUP5 PUSH1 0x0 ADD MLOAD PUSH1 0x40 MLOAD PUSH2 0x208A SWAP2 SWAP1 PUSH2 0x54AE JUMP JUMPDEST SWAP1 DUP2 MSTORE PUSH1 0x20 ADD PUSH1 0x40 MLOAD DUP1 SWAP2 SUB SWAP1 KECCAK256 PUSH1 0x0 SWAP1 SLOAD SWAP1 PUSH2 0x100 EXP SWAP1 DIV PUSH20 0xFFFFFFFFFFFFFFFFFFFFFFFFFFFFFFFFFFFFFFFF AND PUSH20 0xFFFFFFFFFFFFFFFFFFFFFFFFFFFFFFFFFFFFFFFF AND PUSH20 0xFFFFFFFFFFFFFFFFFFFFFFFFFFFFFFFFFFFFFFFF AND DUP2 MSTORE PUSH1 0x20 ADD SWAP1 DUP2 MSTORE PUSH1 0x20 ADD PUSH1 0x0 KECCAK256 SLOAD SWAP1 POP PUSH1 0x0 PUSH2 0x2123 PUSH1 0xA PUSH1 0x0 SWAP1 SLOAD SWAP1 PUSH2 0x100 EXP SWAP1 DIV PUSH20 0xFFFFFFFFFFFFFFFFFFFFFFFFFFFFFFFFFFFFFFFF AND PUSH2 0x842 JUMP JUMPDEST SWAP1 POP PUSH1 0x0 PUSH4 0x5F5E100 DUP3 DUP5 PUSH2 0x2138 SWAP2 SWAP1 PUSH2 0x536F JUMP JUMPDEST PUSH2 0x2142 SWAP2 SWAP1 PUSH2 0x53E0 JUMP JUMPDEST SWAP1 POP DUP1 DUP7 PUSH2 0x2150 SWAP2 SWAP1 PUSH2 0x54F9 JUMP JUMPDEST SWAP6 POP POP POP POP PUSH2 0x2354 JUMP JUMPDEST PUSH1 0x0 PUSH1 0x8 DUP3 PUSH1 0x0 ADD MLOAD PUSH1 0x40 MLOAD PUSH2 0x2170 SWAP2 SWAP1 PUSH2 0x54AE JUMP JUMPDEST SWAP1 DUP2 MSTORE PUSH1 0x20 ADD PUSH1 0x40 MLOAD DUP1 SWAP2 SUB SWAP1 KECCAK256 PUSH1 0x0 SWAP1 SLOAD SWAP1 PUSH2 0x100 EXP SWAP1 DIV PUSH20 0xFFFFFFFFFFFFFFFFFFFFFFFFFFFFFFFFFFFFFFFF AND PUSH20 0xFFFFFFFFFFFFFFFFFFFFFFFFFFFFFFFFFFFFFFFF AND PUSH4 0x313CE567 PUSH1 0x40 MLOAD DUP2 PUSH4 0xFFFFFFFF AND PUSH1 0xE0 SHL DUP2 MSTORE PUSH1 0x4 ADD PUSH1 0x20 PUSH1 0x40 MLOAD DUP1 DUP4 SUB DUP2 DUP7 GAS STATICCALL ISZERO DUP1 ISZERO PUSH2 0x21E9 JUMPI RETURNDATASIZE PUSH1 0x0 DUP1 RETURNDATACOPY RETURNDATASIZE PUSH1 0x0 REVERT JUMPDEST POP POP POP POP PUSH1 0x40 MLOAD RETURNDATASIZE PUSH1 0x1F NOT PUSH1 0x1F DUP3 ADD AND DUP3 ADD DUP1 PUSH1 0x40 MSTORE POP DUP2 ADD SWAP1 PUSH2 0x220D SWAP2 SWAP1 PUSH2 0x56BD JUMP JUMPDEST SWAP1 POP PUSH1 0x0 PUSH1 0x7 PUSH1 0x0 DUP11 PUSH3 0xFFFFFF AND PUSH3 0xFFFFFF AND DUP2 MSTORE PUSH1 0x20 ADD SWAP1 DUP2 MSTORE PUSH1 0x20 ADD PUSH1 0x0 KECCAK256 PUSH1 0x0 PUSH1 0x8 DUP6 PUSH1 0x0 ADD MLOAD PUSH1 0x40 MLOAD PUSH2 0x2244 SWAP2 SWAP1 PUSH2 0x54AE JUMP JUMPDEST SWAP1 DUP2 MSTORE PUSH1 0x20 ADD PUSH1 0x40 MLOAD DUP1 SWAP2 SUB SWAP1 KECCAK256 PUSH1 0x0 SWAP1 SLOAD SWAP1 PUSH2 0x100 EXP SWAP1 DIV PUSH20 0xFFFFFFFFFFFFFFFFFFFFFFFFFFFFFFFFFFFFFFFF AND PUSH20 0xFFFFFFFFFFFFFFFFFFFFFFFFFFFFFFFFFFFFFFFF AND PUSH20 0xFFFFFFFFFFFFFFFFFFFFFFFFFFFFFFFFFFFFFFFF AND DUP2 MSTORE PUSH1 0x20 ADD SWAP1 DUP2 MSTORE PUSH1 0x20 ADD PUSH1 0x0 KECCAK256 SLOAD SWAP1 POP PUSH1 0x0 PUSH2 0x22FD PUSH1 0x9 DUP6 PUSH1 0x0 ADD MLOAD PUSH1 0x40 MLOAD PUSH2 0x22C9 SWAP2 SWAP1 PUSH2 0x54AE JUMP JUMPDEST SWAP1 DUP2 MSTORE PUSH1 0x20 ADD PUSH1 0x40 MLOAD DUP1 SWAP2 SUB SWAP1 KECCAK256 PUSH1 0x0 SWAP1 SLOAD SWAP1 PUSH2 0x100 EXP SWAP1 DIV PUSH20 0xFFFFFFFFFFFFFFFFFFFFFFFFFFFFFFFFFFFFFFFF AND PUSH2 0x842 JUMP JUMPDEST SWAP1 POP PUSH1 0x0 PUSH4 0x5F5E100 DUP3 DUP6 PUSH1 0x12 PUSH2 0x2314 SWAP2 SWAP1 PUSH2 0x56EA JUMP JUMPDEST PUSH1 0xA PUSH2 0x2320 SWAP2 SWAP1 PUSH2 0x5324 JUMP JUMPDEST DUP6 PUSH2 0x232B SWAP2 SWAP1 PUSH2 0x536F JUMP JUMPDEST PUSH2 0x2335 SWAP2 SWAP1 PUSH2 0x536F JUMP JUMPDEST PUSH2 0x233F SWAP2 SWAP1 PUSH2 0x53E0 JUMP JUMPDEST SWAP1 POP DUP1 DUP8 PUSH2 0x234D SWAP2 SWAP1 PUSH2 0x54F9 JUMP JUMPDEST SWAP7 POP POP POP POP POP JUMPDEST POP DUP1 DUP1 PUSH2 0x2360 SWAP1 PUSH2 0x513D JUMP JUMPDEST SWAP2 POP POP PUSH2 0x1EA4 JUMP JUMPDEST POP DUP1 SWAP4 POP POP POP POP SWAP2 SWAP1 POP JUMP JUMPDEST PUSH1 0x5 PUSH1 0x0 SWAP1 SLOAD SWAP1 PUSH2 0x100 EXP SWAP1 DIV PUSH20 0xFFFFFFFFFFFFFFFFFFFFFFFFFFFFFFFFFFFFFFFF AND PUSH20 0xFFFFFFFFFFFFFFFFFFFFFFFFFFFFFFFFFFFFFFFF AND CALLER PUSH20 0xFFFFFFFFFFFFFFFFFFFFFFFFFFFFFFFFFFFFFFFF AND EQ PUSH2 0x2404 JUMPI PUSH1 0x40 MLOAD PUSH32 0x8C379A000000000000000000000000000000000000000000000000000000000 DUP2 MSTORE PUSH1 0x4 ADD PUSH2 0x23FB SWAP1 PUSH2 0x576B JUMP JUMPDEST PUSH1 0x40 MLOAD DUP1 SWAP2 SUB SWAP1 REVERT JUMPDEST DUP2 PUSH1 0x8 DUP5 PUSH1 0x40 MLOAD PUSH2 0x2415 SWAP2 SWAP1 PUSH2 0x54AE JUMP JUMPDEST SWAP1 DUP2 MSTORE PUSH1 0x20 ADD PUSH1 0x40 MLOAD DUP1 SWAP2 SUB SWAP1 KECCAK256 PUSH1 0x0 PUSH2 0x100 EXP DUP2 SLOAD DUP2 PUSH20 0xFFFFFFFFFFFFFFFFFFFFFFFFFFFFFFFFFFFFFFFF MUL NOT AND SWAP1 DUP4 PUSH20 0xFFFFFFFFFFFFFFFFFFFFFFFFFFFFFFFFFFFFFFFF AND MUL OR SWAP1 SSTORE POP DUP1 PUSH1 0x9 DUP5 PUSH1 0x40 MLOAD PUSH2 0x2472 SWAP2 SWAP1 PUSH2 0x54AE JUMP JUMPDEST SWAP1 DUP2 MSTORE PUSH1 0x20 ADD PUSH1 0x40 MLOAD DUP1 SWAP2 SUB SWAP1 KECCAK256 PUSH1 0x0 PUSH2 0x100 EXP DUP2 SLOAD DUP2 PUSH20 0xFFFFFFFFFFFFFFFFFFFFFFFFFFFFFFFFFFFFFFFF MUL NOT AND SWAP1 DUP4 PUSH20 0xFFFFFFFFFFFFFFFFFFFFFFFFFFFFFFFFFFFFFFFF AND MUL OR SWAP1 SSTORE POP POP POP POP JUMP JUMPDEST PUSH1 0x7 PUSH1 0x20 MSTORE DUP2 PUSH1 0x0 MSTORE PUSH1 0x40 PUSH1 0x0 KECCAK256 PUSH1 0x20 MSTORE DUP1 PUSH1 0x0 MSTORE PUSH1 0x40 PUSH1 0x0 KECCAK256 PUSH1 0x0 SWAP2 POP SWAP2 POP POP SLOAD DUP2 JUMP JUMPDEST PUSH1 0x0 PUSH1 0x1 PUSH1 0x0 DUP5 PUSH20 0xFFFFFFFFFFFFFFFFFFFFFFFFFFFFFFFFFFFFFFFF AND PUSH20 0xFFFFFFFFFFFFFFFFFFFFFFFFFFFFFFFFFFFFFFFF AND DUP2 MSTORE PUSH1 0x20 ADD SWAP1 DUP2 MSTORE PUSH1 0x20 ADD PUSH1 0x0 KECCAK256 PUSH1 0x0 DUP4 PUSH20 0xFFFFFFFFFFFFFFFFFFFFFFFFFFFFFFFFFFFFFFFF AND PUSH20 0xFFFFFFFFFFFFFFFFFFFFFFFFFFFFFFFFFFFFFFFF AND DUP2 MSTORE PUSH1 0x20 ADD SWAP1 DUP2 MSTORE PUSH1 0x20 ADD PUSH1 0x0 KECCAK256 PUSH1 0x0 SWAP1 SLOAD SWAP1 PUSH2 0x100 EXP SWAP1 DIV PUSH1 0xFF AND SWAP1 POP SWAP3 SWAP2 POP POP JUMP JUMPDEST PUSH1 0x0 PUSH1 0x5 PUSH1 0x0 SWAP1 SLOAD SWAP1 PUSH2 0x100 EXP SWAP1 DIV PUSH20 0xFFFFFFFFFFFFFFFFFFFFFFFFFFFFFFFFFFFFFFFF AND PUSH20 0xFFFFFFFFFFFFFFFFFFFFFFFFFFFFFFFFFFFFFFFF AND CALLER PUSH20 0xFFFFFFFFFFFFFFFFFFFFFFFFFFFFFFFFFFFFFFFF AND EQ PUSH2 0x260E JUMPI PUSH1 0x40 MLOAD PUSH32 0x8C379A000000000000000000000000000000000000000000000000000000000 DUP2 MSTORE PUSH1 0x4 ADD PUSH2 0x2605 SWAP1 PUSH2 0x576B JUMP JUMPDEST PUSH1 0x40 MLOAD DUP1 SWAP2 SUB SWAP1 REVERT JUMPDEST PUSH1 0x0 DUP3 MLOAD SWAP1 POP PUSH2 0x261C PUSH2 0x3F4A JUMP JUMPDEST PUSH1 0x0 DUP1 PUSH1 0x0 SWAP1 POP JUMPDEST DUP4 DUP2 LT ISZERO PUSH2 0x2874 JUMPI PUSH1 0x40 MLOAD PUSH1 0x20 ADD PUSH2 0x263B SWAP1 PUSH2 0x5468 JUMP JUMPDEST PUSH1 0x40 MLOAD PUSH1 0x20 DUP2 DUP4 SUB SUB DUP2 MSTORE SWAP1 PUSH1 0x40 MSTORE DUP1 MLOAD SWAP1 PUSH1 0x20 ADD KECCAK256 DUP7 DUP3 DUP2 MLOAD DUP2 LT PUSH2 0x2664 JUMPI PUSH2 0x2663 PUSH2 0x50DF JUMP JUMPDEST JUMPDEST PUSH1 0x20 MUL PUSH1 0x20 ADD ADD MLOAD PUSH1 0x0 ADD MLOAD PUSH1 0x40 MLOAD PUSH1 0x20 ADD PUSH2 0x2680 SWAP2 SWAP1 PUSH2 0x54AE JUMP JUMPDEST PUSH1 0x40 MLOAD PUSH1 0x20 DUP2 DUP4 SUB SUB DUP2 MSTORE SWAP1 PUSH1 0x40 MSTORE DUP1 MLOAD SWAP1 PUSH1 0x20 ADD KECCAK256 EQ PUSH2 0x2767 JUMPI PUSH1 0x0 PUSH20 0xFFFFFFFFFFFFFFFFFFFFFFFFFFFFFFFFFFFFFFFF AND PUSH1 0x8 DUP8 DUP4 DUP2 MLOAD DUP2 LT PUSH2 0x26C8 JUMPI PUSH2 0x26C7 PUSH2 0x50DF JUMP JUMPDEST JUMPDEST PUSH1 0x20 MUL PUSH1 0x20 ADD ADD MLOAD PUSH1 0x0 ADD MLOAD PUSH1 0x40 MLOAD PUSH2 0x26E1 SWAP2 SWAP1 PUSH2 0x54AE JUMP JUMPDEST SWAP1 DUP2 MSTORE PUSH1 0x20 ADD PUSH1 0x40 MLOAD DUP1 SWAP2 SUB SWAP1 KECCAK256 PUSH1 0x0 SWAP1 SLOAD SWAP1 PUSH2 0x100 EXP SWAP1 DIV PUSH20 0xFFFFFFFFFFFFFFFFFFFFFFFFFFFFFFFFFFFFFFFF AND PUSH20 0xFFFFFFFFFFFFFFFFFFFFFFFFFFFFFFFFFFFFFFFF AND SUB PUSH2 0x2766 JUMPI PUSH1 0x40 MLOAD PUSH32 0x8C379A000000000000000000000000000000000000000000000000000000000 DUP2 MSTORE PUSH1 0x4 ADD PUSH2 0x275D SWAP1 PUSH2 0x57D7 JUMP JUMPDEST PUSH1 0x40 MLOAD DUP1 SWAP2 SUB SWAP1 REVERT JUMPDEST JUMPDEST DUP6 DUP2 DUP2 MLOAD DUP2 LT PUSH2 0x277A JUMPI PUSH2 0x2779 PUSH2 0x50DF JUMP JUMPDEST JUMPDEST PUSH1 0x20 MUL PUSH1 0x20 ADD ADD MLOAD PUSH1 0x0 ADD MLOAD DUP4 PUSH1 0x0 ADD DUP2 SWAP1 MSTORE POP DUP6 DUP2 DUP2 MLOAD DUP2 LT PUSH2 0x27A1 JUMPI PUSH2 0x27A0 PUSH2 0x50DF JUMP JUMPDEST JUMPDEST PUSH1 0x20 MUL PUSH1 0x20 ADD ADD MLOAD PUSH1 0x20 ADD MLOAD DUP4 PUSH1 0x20 ADD SWAP1 PUSH1 0xFF AND SWAP1 DUP2 PUSH1 0xFF AND DUP2 MSTORE POP POP DUP3 PUSH1 0x20 ADD MLOAD DUP3 PUSH2 0x27CE SWAP2 SWAP1 PUSH2 0x57F7 JUMP JUMPDEST SWAP2 POP PUSH1 0x6 PUSH1 0x0 PUSH1 0xA PUSH1 0x14 SWAP1 SLOAD SWAP1 PUSH2 0x100 EXP SWAP1 DIV PUSH3 0xFFFFFF AND PUSH3 0xFFFFFF AND PUSH3 0xFFFFFF AND DUP2 MSTORE PUSH1 0x20 ADD SWAP1 DUP2 MSTORE PUSH1 0x20 ADD PUSH1 0x0 KECCAK256 DUP4 SWAP1 DUP1 PUSH1 0x1 DUP2 SLOAD ADD DUP1 DUP3 SSTORE DUP1 SWAP2 POP POP PUSH1 0x1 SWAP1 SUB SWAP1 PUSH1 0x0 MSTORE PUSH1 0x20 PUSH1 0x0 KECCAK256 SWAP1 PUSH1 0x2 MUL ADD PUSH1 0x0 SWAP1 SWAP2 SWAP1 SWAP2 SWAP1 SWAP2 POP PUSH1 0x0 DUP3 ADD MLOAD DUP2 PUSH1 0x0 ADD SWAP1 DUP2 PUSH2 0x283D SWAP2 SWAP1 PUSH2 0x59CE JUMP JUMPDEST POP PUSH1 0x20 DUP3 ADD MLOAD DUP2 PUSH1 0x1 ADD PUSH1 0x0 PUSH2 0x100 EXP DUP2 SLOAD DUP2 PUSH1 0xFF MUL NOT AND SWAP1 DUP4 PUSH1 0xFF AND MUL OR SWAP1 SSTORE POP POP POP DUP1 DUP1 PUSH2 0x286C SWAP1 PUSH2 0x513D JUMP JUMPDEST SWAP2 POP POP PUSH2 0x2624 JUMP JUMPDEST POP PUSH1 0xA PUSH1 0x14 DUP2 DUP2 SWAP1 SLOAD SWAP1 PUSH2 0x100 EXP SWAP1 DIV PUSH3 0xFFFFFF AND DUP1 SWAP3 SWAP2 SWAP1 PUSH2 0x2896 SWAP1 PUSH2 0x5AA0 JUMP JUMPDEST SWAP2 SWAP1 PUSH2 0x100 EXP DUP2 SLOAD DUP2 PUSH3 0xFFFFFF MUL NOT AND SWAP1 DUP4 PUSH3 0xFFFFFF AND MUL OR SWAP1 SSTORE POP POP PUSH1 0x64 DUP2 PUSH1 0xFF AND EQ PUSH2 0x28F9 JUMPI PUSH1 0x40 MLOAD PUSH32 0x8C379A000000000000000000000000000000000000000000000000000000000 DUP2 MSTORE PUSH1 0x4 ADD PUSH2 0x28F0 SWAP1 PUSH2 0x5B17 JUMP JUMPDEST PUSH1 0x40 MLOAD DUP1 SWAP2 SUB SWAP1 REVERT JUMPDEST PUSH1 0x1 PUSH1 0xA PUSH1 0x14 SWAP1 SLOAD SWAP1 PUSH2 0x100 EXP SWAP1 DIV PUSH3 0xFFFFFF AND PUSH2 0x2917 SWAP2 SWAP1 PUSH2 0x5B37 JUMP JUMPDEST PUSH3 0xFFFFFF AND SWAP4 POP POP POP POP SWAP2 SWAP1 POP JUMP JUMPDEST PUSH2 0x292E PUSH2 0x2A31 JUMP JUMPDEST PUSH20 0xFFFFFFFFFFFFFFFFFFFFFFFFFFFFFFFFFFFFFFFF AND DUP6 PUSH20 0xFFFFFFFFFFFFFFFFFFFFFFFFFFFFFFFFFFFFFFFF AND EQ DUP1 PUSH2 0x2974 JUMPI POP PUSH2 0x2973 DUP6 PUSH2 0x296E PUSH2 0x2A31 JUMP JUMPDEST PUSH2 0x24E8 JUMP JUMPDEST JUMPDEST PUSH2 0x29B3 JUMPI PUSH1 0x40 MLOAD PUSH32 0x8C379A000000000000000000000000000000000000000000000000000000000 DUP2 MSTORE PUSH1 0x4 ADD PUSH2 0x29AA SWAP1 PUSH2 0x502D JUMP JUMPDEST PUSH1 0x40 MLOAD DUP1 SWAP2 SUB SWAP1 REVERT JUMPDEST PUSH2 0x29C0 DUP6 DUP6 DUP6 DUP6 DUP6 PUSH2 0x3519 JUMP JUMPDEST POP POP POP POP POP JUMP JUMPDEST PUSH1 0x0 PUSH32 0x1FFC9A700000000000000000000000000000000000000000000000000000000 PUSH28 0xFFFFFFFFFFFFFFFFFFFFFFFFFFFFFFFFFFFFFFFFFFFFFFFFFFFFFFFF NOT AND DUP3 PUSH28 0xFFFFFFFFFFFFFFFFFFFFFFFFFFFFFFFFFFFFFFFFFFFFFFFFFFFFFFFF NOT AND EQ SWAP1 POP SWAP2 SWAP1 POP JUMP JUMPDEST PUSH1 0x0 CALLER SWAP1 POP SWAP1 JUMP JUMPDEST DUP2 MLOAD DUP4 MLOAD EQ PUSH2 0x2A7D JUMPI PUSH1 0x40 MLOAD PUSH32 0x8C379A000000000000000000000000000000000000000000000000000000000 DUP2 MSTORE PUSH1 0x4 ADD PUSH2 0x2A74 SWAP1 PUSH2 0x5BE0 JUMP JUMPDEST PUSH1 0x40 MLOAD DUP1 SWAP2 SUB SWAP1 REVERT JUMPDEST PUSH1 0x0 PUSH20 0xFFFFFFFFFFFFFFFFFFFFFFFFFFFFFFFFFFFFFFFF AND DUP5 PUSH20 0xFFFFFFFFFFFFFFFFFFFFFFFFFFFFFFFFFFFFFFFF AND SUB PUSH2 0x2AEC JUMPI PUSH1 0x40 MLOAD PUSH32 0x8C379A000000000000000000000000000000000000000000000000000000000 DUP2 MSTORE PUSH1 0x4 ADD PUSH2 0x2AE3 SWAP1 PUSH2 0x5C72 JUMP JUMPDEST PUSH1 0x40 MLOAD DUP1 SWAP2 SUB SWAP1 REVERT JUMPDEST PUSH1 0x0 PUSH2 0x2AF6 PUSH2 0x2A31 JUMP JUMPDEST SWAP1 POP PUSH2 0x2B06 DUP2 DUP8 DUP8 DUP8 DUP8 DUP8 PUSH2 0x37B4 JUMP JUMPDEST PUSH1 0x0 JUMPDEST DUP5 MLOAD DUP2 LT ISZERO PUSH2 0x2CB7 JUMPI PUSH1 0x0 DUP6 DUP3 DUP2 MLOAD DUP2 LT PUSH2 0x2B27 JUMPI PUSH2 0x2B26 PUSH2 0x50DF JUMP JUMPDEST JUMPDEST PUSH1 0x20 MUL PUSH1 0x20 ADD ADD MLOAD SWAP1 POP PUSH1 0x0 DUP6 DUP4 DUP2 MLOAD DUP2 LT PUSH2 0x2B46 JUMPI PUSH2 0x2B45 PUSH2 0x50DF JUMP JUMPDEST JUMPDEST PUSH1 0x20 MUL PUSH1 0x20 ADD ADD MLOAD SWAP1 POP PUSH1 0x0 DUP1 PUSH1 0x0 DUP5 DUP2 MSTORE PUSH1 0x20 ADD SWAP1 DUP2 MSTORE PUSH1 0x20 ADD PUSH1 0x0 KECCAK256 PUSH1 0x0 DUP12 PUSH20 0xFFFFFFFFFFFFFFFFFFFFFFFFFFFFFFFFFFFFFFFF AND PUSH20 0xFFFFFFFFFFFFFFFFFFFFFFFFFFFFFFFFFFFFFFFF AND DUP2 MSTORE PUSH1 0x20 ADD SWAP1 DUP2 MSTORE PUSH1 0x20 ADD PUSH1 0x0 KECCAK256 SLOAD SWAP1 POP DUP2 DUP2 LT ISZERO PUSH2 0x2BE7 JUMPI PUSH1 0x40 MLOAD PUSH32 0x8C379A000000000000000000000000000000000000000000000000000000000 DUP2 MSTORE PUSH1 0x4 ADD PUSH2 0x2BDE SWAP1 PUSH2 0x5D04 JUMP JUMPDEST PUSH1 0x40 MLOAD DUP1 SWAP2 SUB SWAP1 REVERT JUMPDEST DUP2 DUP2 SUB PUSH1 0x0 DUP1 DUP6 DUP2 MSTORE PUSH1 0x20 ADD SWAP1 DUP2 MSTORE PUSH1 0x20 ADD PUSH1 0x0 KECCAK256 PUSH1 0x0 DUP13 PUSH20 0xFFFFFFFFFFFFFFFFFFFFFFFFFFFFFFFFFFFFFFFF AND PUSH20 0xFFFFFFFFFFFFFFFFFFFFFFFFFFFFFFFFFFFFFFFF AND DUP2 MSTORE PUSH1 0x20 ADD SWAP1 DUP2 MSTORE PUSH1 0x20 ADD PUSH1 0x0 KECCAK256 DUP2 SWAP1 SSTORE POP DUP2 PUSH1 0x0 DUP1 DUP6 DUP2 MSTORE PUSH1 0x20 ADD SWAP1 DUP2 MSTORE PUSH1 0x20 ADD PUSH1 0x0 KECCAK256 PUSH1 0x0 DUP12 PUSH20 0xFFFFFFFFFFFFFFFFFFFFFFFFFFFFFFFFFFFFFFFF AND PUSH20 0xFFFFFFFFFFFFFFFFFFFFFFFFFFFFFFFFFFFFFFFF AND DUP2 MSTORE PUSH1 0x20 ADD SWAP1 DUP2 MSTORE PUSH1 0x20 ADD PUSH1 0x0 KECCAK256 PUSH1 0x0 DUP3 DUP3 SLOAD PUSH2 0x2C9C SWAP2 SWAP1 PUSH2 0x54F9 JUMP JUMPDEST SWAP3 POP POP DUP2 SWAP1 SSTORE POP POP POP POP DUP1 PUSH2 0x2CB0 SWAP1 PUSH2 0x513D JUMP JUMPDEST SWAP1 POP PUSH2 0x2B09 JUMP JUMPDEST POP DUP5 PUSH20 0xFFFFFFFFFFFFFFFFFFFFFFFFFFFFFFFFFFFFFFFF AND DUP7 PUSH20 0xFFFFFFFFFFFFFFFFFFFFFFFFFFFFFFFFFFFFFFFF AND DUP3 PUSH20 0xFFFFFFFFFFFFFFFFFFFFFFFFFFFFFFFFFFFFFFFF AND PUSH32 0x4A39DC06D4C0DBC64B70AF90FD698A233A518AA5D07E595D983B8C0526C8F7FB DUP8 DUP8 PUSH1 0x40 MLOAD PUSH2 0x2D2E SWAP3 SWAP2 SWAP1 PUSH2 0x5D24 JUMP JUMPDEST PUSH1 0x40 MLOAD DUP1 SWAP2 SUB SWAP1 LOG4 PUSH2 0x2D44 DUP2 DUP8 DUP8 DUP8 DUP8 DUP8 PUSH2 0x37CA JUMP JUMPDEST PUSH2 0x2D52 DUP2 DUP8 DUP8 DUP8 DUP8 DUP8 PUSH2 0x37D2 JUMP JUMPDEST POP POP POP POP POP POP JUMP JUMPDEST PUSH1 0x0 PUSH2 0x2D87 DUP4 PUSH32 0x0 DUP7 PUSH2 0x39A9 JUMP JUMPDEST PUSH1 0x0 PUSH1 0x40 MLOAD DUP1 PUSH2 0x100 ADD PUSH1 0x40 MSTORE DUP1 DUP6 PUSH20 0xFFFFFFFFFFFFFFFFFFFFFFFFFFFFFFFFFFFFFFFF AND DUP2 MSTORE PUSH1 0x20 ADD DUP5 PUSH20 0xFFFFFFFFFFFFFFFFFFFFFFFFFFFFFFFFFFFFFFFF AND DUP2 MSTORE PUSH1 0x20 ADD PUSH2 0xBB8 PUSH3 0xFFFFFF AND DUP2 MSTORE PUSH1 0x20 ADD ADDRESS PUSH20 0xFFFFFFFFFFFFFFFFFFFFFFFFFFFFFFFFFFFFFFFF AND DUP2 MSTORE PUSH1 0x20 ADD TIMESTAMP DUP2 MSTORE PUSH1 0x20 ADD DUP7 DUP2 MSTORE PUSH1 0x20 ADD PUSH1 0x0 DUP2 MSTORE PUSH1 0x20 ADD PUSH1 0x0 PUSH20 0xFFFFFFFFFFFFFFFFFFFFFFFFFFFFFFFFFFFFFFFF AND DUP2 MSTORE POP SWAP1 POP PUSH32 0x0 PUSH20 0xFFFFFFFFFFFFFFFFFFFFFFFFFFFFFFFFFFFFFFFF AND PUSH4 0x414BF389 DUP3 PUSH1 0x40 MLOAD DUP3 PUSH4 0xFFFFFFFF AND PUSH1 0xE0 SHL DUP2 MSTORE PUSH1 0x4 ADD PUSH2 0x2E7F SWAP2 SWAP1 PUSH2 0x5E2A JUMP JUMPDEST PUSH1 0x20 PUSH1 0x40 MLOAD DUP1 DUP4 SUB DUP2 PUSH1 0x0 DUP8 GAS CALL ISZERO DUP1 ISZERO PUSH2 0x2E9E JUMPI RETURNDATASIZE PUSH1 0x0 DUP1 RETURNDATACOPY RETURNDATASIZE PUSH1 0x0 REVERT JUMPDEST POP POP POP POP PUSH1 0x40 MLOAD RETURNDATASIZE PUSH1 0x1F NOT PUSH1 0x1F DUP3 ADD AND DUP3 ADD DUP1 PUSH1 0x40 MSTORE POP DUP2 ADD SWAP1 PUSH2 0x2EC2 SWAP2 SWAP1 PUSH2 0x5E46 JUMP JUMPDEST SWAP2 POP POP SWAP4 SWAP3 POP POP POP JUMP JUMPDEST PUSH1 0x0 PUSH20 0xFFFFFFFFFFFFFFFFFFFFFFFFFFFFFFFFFFFFFFFF AND DUP4 PUSH20 0xFFFFFFFFFFFFFFFFFFFFFFFFFFFFFFFFFFFFFFFF AND SUB PUSH2 0x2F3B JUMPI PUSH1 0x40 MLOAD PUSH32 0x8C379A000000000000000000000000000000000000000000000000000000000 DUP2 MSTORE PUSH1 0x4 ADD PUSH2 0x2F32 SWAP1 PUSH2 0x5EE5 JUMP JUMPDEST PUSH1 0x40 MLOAD DUP1 SWAP2 SUB SWAP1 REVERT JUMPDEST PUSH1 0x0 PUSH2 0x2F45 PUSH2 0x2A31 JUMP JUMPDEST SWAP1 POP PUSH1 0x0 PUSH2 0x2F52 DUP5 PUSH2 0x3AFE JUMP JUMPDEST SWAP1 POP PUSH1 0x0 PUSH2 0x2F5F DUP5 PUSH2 0x3AFE JUMP JUMPDEST SWAP1 POP PUSH2 0x2F7F DUP4 DUP8 PUSH1 0x0 DUP6 DUP6 PUSH1 0x40 MLOAD DUP1 PUSH1 0x20 ADD PUSH1 0x40 MSTORE DUP1 PUSH1 0x0 DUP2 MSTORE POP PUSH2 0x37B4 JUMP JUMPDEST PUSH1 0x0 DUP1 PUSH1 0x0 DUP8 DUP2 MSTORE PUSH1 0x20 ADD SWAP1 DUP2 MSTORE PUSH1 0x20 ADD PUSH1 0x0 KECCAK256 PUSH1 0x0 DUP9 PUSH20 0xFFFFFFFFFFFFFFFFFFFFFFFFFFFFFFFFFFFFFFFF AND PUSH20 0xFFFFFFFFFFFFFFFFFFFFFFFFFFFFFFFFFFFFFFFF AND DUP2 MSTORE PUSH1 0x20 ADD SWAP1 DUP2 MSTORE PUSH1 0x20 ADD PUSH1 0x0 KECCAK256 SLOAD SWAP1 POP DUP5 DUP2 LT ISZERO PUSH2 0x3016 JUMPI PUSH1 0x40 MLOAD PUSH32 0x8C379A000000000000000000000000000000000000000000000000000000000 DUP2 MSTORE PUSH1 0x4 ADD PUSH2 0x300D SWAP1 PUSH2 0x5F77 JUMP JUMPDEST PUSH1 0x40 MLOAD DUP1 SWAP2 SUB SWAP1 REVERT JUMPDEST DUP5 DUP2 SUB PUSH1 0x0 DUP1 DUP9 DUP2 MSTORE PUSH1 0x20 ADD SWAP1 DUP2 MSTORE PUSH1 0x20 ADD PUSH1 0x0 KECCAK256 PUSH1 0x0 DUP10 PUSH20 0xFFFFFFFFFFFFFFFFFFFFFFFFFFFFFFFFFFFFFFFF AND PUSH20 0xFFFFFFFFFFFFFFFFFFFFFFFFFFFFFFFFFFFFFFFF AND DUP2 MSTORE PUSH1 0x20 ADD SWAP1 DUP2 MSTORE PUSH1 0x20 ADD PUSH1 0x0 KECCAK256 DUP2 SWAP1 SSTORE POP PUSH1 0x0 PUSH20 0xFFFFFFFFFFFFFFFFFFFFFFFFFFFFFFFFFFFFFFFF AND DUP8 PUSH20 0xFFFFFFFFFFFFFFFFFFFFFFFFFFFFFFFFFFFFFFFF AND DUP6 PUSH20 0xFFFFFFFFFFFFFFFFFFFFFFFFFFFFFFFFFFFFFFFF AND PUSH32 0xC3D58168C5AE7397731D063D5BBF3D657854427343F4C083240F7AACAA2D0F62 DUP10 DUP10 PUSH1 0x40 MLOAD PUSH2 0x30E3 SWAP3 SWAP2 SWAP1 PUSH2 0x5F97 JUMP JUMPDEST PUSH1 0x40 MLOAD DUP1 SWAP2 SUB SWAP1 LOG4 PUSH2 0x3109 DUP5 DUP9 PUSH1 0x0 DUP7 DUP7 PUSH1 0x40 MLOAD DUP1 PUSH1 0x20 ADD PUSH1 0x40 MSTORE DUP1 PUSH1 0x0 DUP2 MSTORE POP PUSH2 0x37CA JUMP JUMPDEST POP POP POP POP POP POP POP JUMP JUMPDEST PUSH1 0x0 DUP3 PUSH1 0xA PUSH1 0x14 SWAP1 SLOAD SWAP1 PUSH2 0x100 EXP SWAP1 DIV PUSH3 0xFFFFFF AND PUSH3 0xFFFFFF AND DUP2 PUSH3 0xFFFFFF AND LT PUSH2 0x3172 JUMPI PUSH1 0x40 MLOAD PUSH32 0x8C379A000000000000000000000000000000000000000000000000000000000 DUP2 MSTORE PUSH1 0x4 ADD PUSH2 0x3169 SWAP1 PUSH2 0x51D1 JUMP JUMPDEST PUSH1 0x40 MLOAD DUP1 SWAP2 SUB SWAP1 REVERT JUMPDEST PUSH1 0x0 PUSH2 0x319F PUSH1 0xA PUSH1 0x0 SWAP1 SLOAD SWAP1 PUSH2 0x100 EXP SWAP1 DIV PUSH20 0xFFFFFFFFFFFFFFFFFFFFFFFFFFFFFFFFFFFFFFFF AND PUSH2 0x842 JUMP JUMPDEST SWAP1 POP PUSH1 0x0 PUSH4 0x5F5E100 DUP3 DUP7 PUSH2 0x31B4 SWAP2 SWAP1 PUSH2 0x536F JUMP JUMPDEST PUSH2 0x31BE SWAP2 SWAP1 PUSH2 0x53E0 JUMP JUMPDEST SWAP1 POP PUSH1 0x0 PUSH2 0x31CB DUP8 PUSH2 0xB20 JUMP JUMPDEST SWAP1 POP DUP1 PUSH1 0x2 PUSH1 0xA PUSH2 0x31DC SWAP2 SWAP1 PUSH2 0x5324 JUMP JUMPDEST DUP4 PUSH2 0x31E7 SWAP2 SWAP1 PUSH2 0x536F JUMP JUMPDEST PUSH2 0x31F1 SWAP2 SWAP1 PUSH2 0x53E0 JUMP JUMPDEST SWAP5 POP POP POP POP POP SWAP3 SWAP2 POP POP JUMP JUMPDEST PUSH1 0x0 PUSH20 0xFFFFFFFFFFFFFFFFFFFFFFFFFFFFFFFFFFFFFFFF AND DUP5 PUSH20 0xFFFFFFFFFFFFFFFFFFFFFFFFFFFFFFFFFFFFFFFF AND SUB PUSH2 0x326C JUMPI PUSH1 0x40 MLOAD PUSH32 0x8C379A000000000000000000000000000000000000000000000000000000000 DUP2 MSTORE PUSH1 0x4 ADD PUSH2 0x3263 SWAP1 PUSH2 0x6032 JUMP JUMPDEST PUSH1 0x40 MLOAD DUP1 SWAP2 SUB SWAP1 REVERT JUMPDEST PUSH1 0x0 PUSH2 0x3276 PUSH2 0x2A31 JUMP JUMPDEST SWAP1 POP PUSH1 0x0 PUSH2 0x3283 DUP6 PUSH2 0x3AFE JUMP JUMPDEST SWAP1 POP PUSH1 0x0 PUSH2 0x3290 DUP6 PUSH2 0x3AFE JUMP JUMPDEST SWAP1 POP PUSH2 0x32A1 DUP4 PUSH1 0x0 DUP10 DUP6 DUP6 DUP10 PUSH2 0x37B4 JUMP JUMPDEST DUP5 PUSH1 0x0 DUP1 DUP9 DUP2 MSTORE PUSH1 0x20 ADD SWAP1 DUP2 MSTORE PUSH1 0x20 ADD PUSH1 0x0 KECCAK256 PUSH1 0x0 DUP10 PUSH20 0xFFFFFFFFFFFFFFFFFFFFFFFFFFFFFFFFFFFFFFFF AND PUSH20 0xFFFFFFFFFFFFFFFFFFFFFFFFFFFFFFFFFFFFFFFF AND DUP2 MSTORE PUSH1 0x20 ADD SWAP1 DUP2 MSTORE PUSH1 0x20 ADD PUSH1 0x0 KECCAK256 PUSH1 0x0 DUP3 DUP3 SLOAD PUSH2 0x3300 SWAP2 SWAP1 PUSH2 0x54F9 JUMP JUMPDEST SWAP3 POP POP DUP2 SWAP1 SSTORE POP DUP7 PUSH20 0xFFFFFFFFFFFFFFFFFFFFFFFFFFFFFFFFFFFFFFFF AND PUSH1 0x0 PUSH20 0xFFFFFFFFFFFFFFFFFFFFFFFFFFFFFFFFFFFFFFFF AND DUP5 PUSH20 0xFFFFFFFFFFFFFFFFFFFFFFFFFFFFFFFFFFFFFFFF AND PUSH32 0xC3D58168C5AE7397731D063D5BBF3D657854427343F4C083240F7AACAA2D0F62 DUP10 DUP10 PUSH1 0x40 MLOAD PUSH2 0x337E SWAP3 SWAP2 SWAP1 PUSH2 0x5F97 JUMP JUMPDEST PUSH1 0x40 MLOAD DUP1 SWAP2 SUB SWAP1 LOG4 PUSH2 0x3395 DUP4 PUSH1 0x0 DUP10 DUP6 DUP6 DUP10 PUSH2 0x37CA JUMP JUMPDEST PUSH2 0x33A4 DUP4 PUSH1 0x0 DUP10 DUP10 DUP10 DUP10 PUSH2 0x3B78 JUMP JUMPDEST POP POP POP POP POP POP POP JUMP JUMPDEST DUP2 PUSH20 0xFFFFFFFFFFFFFFFFFFFFFFFFFFFFFFFFFFFFFFFF AND DUP4 PUSH20 0xFFFFFFFFFFFFFFFFFFFFFFFFFFFFFFFFFFFFFFFF AND SUB PUSH2 0x341B JUMPI PUSH1 0x40 MLOAD PUSH32 0x8C379A000000000000000000000000000000000000000000000000000000000 DUP2 MSTORE PUSH1 0x4 ADD PUSH2 0x3412 SWAP1 PUSH2 0x60C4 JUMP JUMPDEST PUSH1 0x40 MLOAD DUP1 SWAP2 SUB SWAP1 REVERT JUMPDEST DUP1 PUSH1 0x1 PUSH1 0x0 DUP6 PUSH20 0xFFFFFFFFFFFFFFFFFFFFFFFFFFFFFFFFFFFFFFFF AND PUSH20 0xFFFFFFFFFFFFFFFFFFFFFFFFFFFFFFFFFFFFFFFF AND DUP2 MSTORE PUSH1 0x20 ADD SWAP1 DUP2 MSTORE PUSH1 0x20 ADD PUSH1 0x0 KECCAK256 PUSH1 0x0 DUP5 PUSH20 0xFFFFFFFFFFFFFFFFFFFFFFFFFFFFFFFFFFFFFFFF AND PUSH20 0xFFFFFFFFFFFFFFFFFFFFFFFFFFFFFFFFFFFFFFFF AND DUP2 MSTORE PUSH1 0x20 ADD SWAP1 DUP2 MSTORE PUSH1 0x20 ADD PUSH1 0x0 KECCAK256 PUSH1 0x0 PUSH2 0x100 EXP DUP2 SLOAD DUP2 PUSH1 0xFF MUL NOT AND SWAP1 DUP4 ISZERO ISZERO MUL OR SWAP1 SSTORE POP DUP2 PUSH20 0xFFFFFFFFFFFFFFFFFFFFFFFFFFFFFFFFFFFFFFFF AND DUP4 PUSH20 0xFFFFFFFFFFFFFFFFFFFFFFFFFFFFFFFFFFFFFFFF AND PUSH32 0x17307EAB39AB6107E8899845AD3D59BD9653F200F220920489CA2B5937696C31 DUP4 PUSH1 0x40 MLOAD PUSH2 0x350C SWAP2 SWAP1 PUSH2 0x4119 JUMP JUMPDEST PUSH1 0x40 MLOAD DUP1 SWAP2 SUB SWAP1 LOG3 POP POP POP JUMP JUMPDEST PUSH1 0x0 PUSH20 0xFFFFFFFFFFFFFFFFFFFFFFFFFFFFFFFFFFFFFFFF AND DUP5 PUSH20 0xFFFFFFFFFFFFFFFFFFFFFFFFFFFFFFFFFFFFFFFF AND SUB PUSH2 0x3588 JUMPI PUSH1 0x40 MLOAD PUSH32 0x8C379A000000000000000000000000000000000000000000000000000000000 DUP2 MSTORE PUSH1 0x4 ADD PUSH2 0x357F SWAP1 PUSH2 0x5C72 JUMP JUMPDEST PUSH1 0x40 MLOAD DUP1 SWAP2 SUB SWAP1 REVERT JUMPDEST PUSH1 0x0 PUSH2 0x3592 PUSH2 0x2A31 JUMP JUMPDEST SWAP1 POP PUSH1 0x0 PUSH2 0x359F DUP6 PUSH2 0x3AFE JUMP JUMPDEST SWAP1 POP PUSH1 0x0 PUSH2 0x35AC DUP6 PUSH2 0x3AFE JUMP JUMPDEST SWAP1 POP PUSH2 0x35BC DUP4 DUP10 DUP10 DUP6 DUP6 DUP10 PUSH2 0x37B4 JUMP JUMPDEST PUSH1 0x0 DUP1 PUSH1 0x0 DUP9 DUP2 MSTORE PUSH1 0x20 ADD SWAP1 DUP2 MSTORE PUSH1 0x20 ADD PUSH1 0x0 KECCAK256 PUSH1 0x0 DUP11 PUSH20 0xFFFFFFFFFFFFFFFFFFFFFFFFFFFFFFFFFFFFFFFF AND PUSH20 0xFFFFFFFFFFFFFFFFFFFFFFFFFFFFFFFFFFFFFFFF AND DUP2 MSTORE PUSH1 0x20 ADD SWAP1 DUP2 MSTORE PUSH1 0x20 ADD PUSH1 0x0 KECCAK256 SLOAD SWAP1 POP DUP6 DUP2 LT ISZERO PUSH2 0x3653 JUMPI PUSH1 0x40 MLOAD PUSH32 0x8C379A000000000000000000000000000000000000000000000000000000000 DUP2 MSTORE PUSH1 0x4 ADD PUSH2 0x364A SWAP1 PUSH2 0x5D04 JUMP JUMPDEST PUSH1 0x40 MLOAD DUP1 SWAP2 SUB SWAP1 REVERT JUMPDEST DUP6 DUP2 SUB PUSH1 0x0 DUP1 DUP10 DUP2 MSTORE PUSH1 0x20 ADD SWAP1 DUP2 MSTORE PUSH1 0x20 ADD PUSH1 0x0 KECCAK256 PUSH1 0x0 DUP12 PUSH20 0xFFFFFFFFFFFFFFFFFFFFFFFFFFFFFFFFFFFFFFFF AND PUSH20 0xFFFFFFFFFFFFFFFFFFFFFFFFFFFFFFFFFFFFFFFF AND DUP2 MSTORE PUSH1 0x20 ADD SWAP1 DUP2 MSTORE PUSH1 0x20 ADD PUSH1 0x0 KECCAK256 DUP2 SWAP1 SSTORE POP DUP6 PUSH1 0x0 DUP1 DUP10 DUP2 MSTORE PUSH1 0x20 ADD SWAP1 DUP2 MSTORE PUSH1 0x20 ADD PUSH1 0x0 KECCAK256 PUSH1 0x0 DUP11 PUSH20 0xFFFFFFFFFFFFFFFFFFFFFFFFFFFFFFFFFFFFFFFF AND PUSH20 0xFFFFFFFFFFFFFFFFFFFFFFFFFFFFFFFFFFFFFFFF AND DUP2 MSTORE PUSH1 0x20 ADD SWAP1 DUP2 MSTORE PUSH1 0x20 ADD PUSH1 0x0 KECCAK256 PUSH1 0x0 DUP3 DUP3 SLOAD PUSH2 0x3708 SWAP2 SWAP1 PUSH2 0x54F9 JUMP JUMPDEST SWAP3 POP POP DUP2 SWAP1 SSTORE POP DUP8 PUSH20 0xFFFFFFFFFFFFFFFFFFFFFFFFFFFFFFFFFFFFFFFF AND DUP10 PUSH20 0xFFFFFFFFFFFFFFFFFFFFFFFFFFFFFFFFFFFFFFFF AND DUP6 PUSH20 0xFFFFFFFFFFFFFFFFFFFFFFFFFFFFFFFFFFFFFFFF AND PUSH32 0xC3D58168C5AE7397731D063D5BBF3D657854427343F4C083240F7AACAA2D0F62 DUP11 DUP11 PUSH1 0x40 MLOAD PUSH2 0x3785 SWAP3 SWAP2 SWAP1 PUSH2 0x5F97 JUMP JUMPDEST PUSH1 0x40 MLOAD DUP1 SWAP2 SUB SWAP1 LOG4 PUSH2 0x379B DUP5 DUP11 DUP11 DUP7 DUP7 DUP11 PUSH2 0x37CA JUMP JUMPDEST PUSH2 0x37A9 DUP5 DUP11 DUP11 DUP11 DUP11 DUP11 PUSH2 0x3B78 JUMP JUMPDEST POP POP POP POP POP POP POP POP POP JUMP JUMPDEST PUSH2 0x37C2 DUP7 DUP7 DUP7 DUP7 DUP7 DUP7 PUSH2 0x3D4F JUMP JUMPDEST POP POP POP POP POP POP JUMP JUMPDEST POP POP POP POP POP POP JUMP JUMPDEST PUSH2 0x37F1 DUP5 PUSH20 0xFFFFFFFFFFFFFFFFFFFFFFFFFFFFFFFFFFFFFFFF AND PUSH2 0x3F1F JUMP JUMPDEST ISZERO PUSH2 0x39A1 JUMPI DUP4 PUSH20 0xFFFFFFFFFFFFFFFFFFFFFFFFFFFFFFFFFFFFFFFF AND PUSH4 0xBC197C81 DUP8 DUP8 DUP7 DUP7 DUP7 PUSH1 0x40 MLOAD DUP7 PUSH4 0xFFFFFFFF AND PUSH1 0xE0 SHL DUP2 MSTORE PUSH1 0x4 ADD PUSH2 0x3837 SWAP6 SWAP5 SWAP4 SWAP3 SWAP2 SWAP1 PUSH2 0x6148 JUMP JUMPDEST PUSH1 0x20 PUSH1 0x40 MLOAD DUP1 DUP4 SUB DUP2 PUSH1 0x0 DUP8 GAS CALL SWAP3 POP POP POP DUP1 ISZERO PUSH2 0x3873 JUMPI POP PUSH1 0x40 MLOAD RETURNDATASIZE PUSH1 0x1F NOT PUSH1 0x1F DUP3 ADD AND DUP3 ADD DUP1 PUSH1 0x40 MSTORE POP DUP2 ADD SWAP1 PUSH2 0x3870 SWAP2 SWAP1 PUSH2 0x61C5 JUMP JUMPDEST PUSH1 0x1 JUMPDEST PUSH2 0x3918 JUMPI PUSH2 0x387F PUSH2 0x61FF JUMP JUMPDEST DUP1 PUSH4 0x8C379A0 SUB PUSH2 0x38DB JUMPI POP PUSH2 0x3893 PUSH2 0x6221 JUMP JUMPDEST DUP1 PUSH2 0x389E JUMPI POP PUSH2 0x38DD JUMP JUMPDEST DUP1 PUSH1 0x40 MLOAD PUSH32 0x8C379A000000000000000000000000000000000000000000000000000000000 DUP2 MSTORE PUSH1 0x4 ADD PUSH2 0x38D2 SWAP2 SWAP1 PUSH2 0x422A JUMP JUMPDEST PUSH1 0x40 MLOAD DUP1 SWAP2 SUB SWAP1 REVERT JUMPDEST POP JUMPDEST PUSH1 0x40 MLOAD PUSH32 0x8C379A000000000000000000000000000000000000000000000000000000000 DUP2 MSTORE PUSH1 0x4 ADD PUSH2 0x390F SWAP1 PUSH2 0x6323 JUMP JUMPDEST PUSH1 0x40 MLOAD DUP1 SWAP2 SUB SWAP1 REVERT JUMPDEST PUSH4 0xBC197C81 PUSH1 0xE0 SHL PUSH28 0xFFFFFFFFFFFFFFFFFFFFFFFFFFFFFFFFFFFFFFFFFFFFFFFFFFFFFFFF NOT AND DUP2 PUSH28 0xFFFFFFFFFFFFFFFFFFFFFFFFFFFFFFFFFFFFFFFFFFFFFFFFFFFFFFFF NOT AND EQ PUSH2 0x399F JUMPI PUSH1 0x40 MLOAD PUSH32 0x8C379A000000000000000000000000000000000000000000000000000000000 DUP2 MSTORE PUSH1 0x4 ADD PUSH2 0x3996 SWAP1 PUSH2 0x63B5 JUMP JUMPDEST PUSH1 0x40 MLOAD DUP1 SWAP2 SUB SWAP1 REVERT JUMPDEST POP JUMPDEST POP POP POP POP POP POP JUMP JUMPDEST PUSH1 0x0 DUP1 DUP5 PUSH20 0xFFFFFFFFFFFFFFFFFFFFFFFFFFFFFFFFFFFFFFFF AND PUSH4 0x95EA7B3 PUSH1 0xE0 SHL DUP6 DUP6 PUSH1 0x40 MLOAD PUSH1 0x24 ADD PUSH2 0x39DE SWAP3 SWAP2 SWAP1 PUSH2 0x63D5 JUMP JUMPDEST PUSH1 0x40 MLOAD PUSH1 0x20 DUP2 DUP4 SUB SUB DUP2 MSTORE SWAP1 PUSH1 0x40 MSTORE SWAP1 PUSH28 0xFFFFFFFFFFFFFFFFFFFFFFFFFFFFFFFFFFFFFFFFFFFFFFFFFFFFFFFF NOT AND PUSH1 0x20 DUP3 ADD DUP1 MLOAD PUSH28 0xFFFFFFFFFFFFFFFFFFFFFFFFFFFFFFFFFFFFFFFFFFFFFFFFFFFFFFFF DUP4 DUP2 DUP4 AND OR DUP4 MSTORE POP POP POP POP PUSH1 0x40 MLOAD PUSH2 0x3A48 SWAP2 SWAP1 PUSH2 0x642F JUMP JUMPDEST PUSH1 0x0 PUSH1 0x40 MLOAD DUP1 DUP4 SUB DUP2 PUSH1 0x0 DUP7 GAS CALL SWAP2 POP POP RETURNDATASIZE DUP1 PUSH1 0x0 DUP2 EQ PUSH2 0x3A85 JUMPI PUSH1 0x40 MLOAD SWAP2 POP PUSH1 0x1F NOT PUSH1 0x3F RETURNDATASIZE ADD AND DUP3 ADD PUSH1 0x40 MSTORE RETURNDATASIZE DUP3 MSTORE RETURNDATASIZE PUSH1 0x0 PUSH1 0x20 DUP5 ADD RETURNDATACOPY PUSH2 0x3A8A JUMP JUMPDEST PUSH1 0x60 SWAP2 POP JUMPDEST POP SWAP2 POP SWAP2 POP DUP2 DUP1 ISZERO PUSH2 0x3AB8 JUMPI POP PUSH1 0x0 DUP2 MLOAD EQ DUP1 PUSH2 0x3AB7 JUMPI POP DUP1 DUP1 PUSH1 0x20 ADD SWAP1 MLOAD DUP2 ADD SWAP1 PUSH2 0x3AB6 SWAP2 SWAP1 PUSH2 0x645B JUMP JUMPDEST JUMPDEST JUMPDEST PUSH2 0x3AF7 JUMPI PUSH1 0x40 MLOAD PUSH32 0x8C379A000000000000000000000000000000000000000000000000000000000 DUP2 MSTORE PUSH1 0x4 ADD PUSH2 0x3AEE SWAP1 PUSH2 0x64D4 JUMP JUMPDEST PUSH1 0x40 MLOAD DUP1 SWAP2 SUB SWAP1 REVERT JUMPDEST POP POP POP POP POP JUMP JUMPDEST PUSH1 0x60 PUSH1 0x0 PUSH1 0x1 PUSH8 0xFFFFFFFFFFFFFFFF DUP2 GT ISZERO PUSH2 0x3B1D JUMPI PUSH2 0x3B1C PUSH2 0x42B2 JUMP JUMPDEST JUMPDEST PUSH1 0x40 MLOAD SWAP1 DUP1 DUP3 MSTORE DUP1 PUSH1 0x20 MUL PUSH1 0x20 ADD DUP3 ADD PUSH1 0x40 MSTORE DUP1 ISZERO PUSH2 0x3B4B JUMPI DUP2 PUSH1 0x20 ADD PUSH1 0x20 DUP3 MUL DUP1 CALLDATASIZE DUP4 CALLDATACOPY DUP1 DUP3 ADD SWAP2 POP POP SWAP1 POP JUMPDEST POP SWAP1 POP DUP3 DUP2 PUSH1 0x0 DUP2 MLOAD DUP2 LT PUSH2 0x3B63 JUMPI PUSH2 0x3B62 PUSH2 0x50DF JUMP JUMPDEST JUMPDEST PUSH1 0x20 MUL PUSH1 0x20 ADD ADD DUP2 DUP2 MSTORE POP POP DUP1 SWAP2 POP POP SWAP2 SWAP1 POP JUMP JUMPDEST PUSH2 0x3B97 DUP5 PUSH20 0xFFFFFFFFFFFFFFFFFFFFFFFFFFFFFFFFFFFFFFFF AND PUSH2 0x3F1F JUMP JUMPDEST ISZERO PUSH2 0x3D47 JUMPI DUP4 PUSH20 0xFFFFFFFFFFFFFFFFFFFFFFFFFFFFFFFFFFFFFFFF AND PUSH4 0xF23A6E61 DUP8 DUP8 DUP7 DUP7 DUP7 PUSH1 0x40 MLOAD DUP7 PUSH4 0xFFFFFFFF AND PUSH1 0xE0 SHL DUP2 MSTORE PUSH1 0x4 ADD PUSH2 0x3BDD SWAP6 SWAP5 SWAP4 SWAP3 SWAP2 SWAP1 PUSH2 0x64F4 JUMP JUMPDEST PUSH1 0x20 PUSH1 0x40 MLOAD DUP1 DUP4 SUB DUP2 PUSH1 0x0 DUP8 GAS CALL SWAP3 POP POP POP DUP1 ISZERO PUSH2 0x3C19 JUMPI POP PUSH1 0x40 MLOAD RETURNDATASIZE PUSH1 0x1F NOT PUSH1 0x1F DUP3 ADD AND DUP3 ADD DUP1 PUSH1 0x40 MSTORE POP DUP2 ADD SWAP1 PUSH2 0x3C16 SWAP2 SWAP1 PUSH2 0x61C5 JUMP JUMPDEST PUSH1 0x1 JUMPDEST PUSH2 0x3CBE JUMPI PUSH2 0x3C25 PUSH2 0x61FF JUMP JUMPDEST DUP1 PUSH4 0x8C379A0 SUB PUSH2 0x3C81 JUMPI POP PUSH2 0x3C39 PUSH2 0x6221 JUMP JUMPDEST DUP1 PUSH2 0x3C44 JUMPI POP PUSH2 0x3C83 JUMP JUMPDEST DUP1 PUSH1 0x40 MLOAD PUSH32 0x8C379A000000000000000000000000000000000000000000000000000000000 DUP2 MSTORE PUSH1 0x4 ADD PUSH2 0x3C78 SWAP2 SWAP1 PUSH2 0x422A JUMP JUMPDEST PUSH1 0x40 MLOAD DUP1 SWAP2 SUB SWAP1 REVERT JUMPDEST POP JUMPDEST PUSH1 0x40 MLOAD PUSH32 0x8C379A000000000000000000000000000000000000000000000000000000000 DUP2 MSTORE PUSH1 0x4 ADD PUSH2 0x3CB5 SWAP1 PUSH2 0x6323 JUMP JUMPDEST PUSH1 0x40 MLOAD DUP1 SWAP2 SUB SWAP1 REVERT JUMPDEST PUSH4 0xF23A6E61 PUSH1 0xE0 SHL PUSH28 0xFFFFFFFFFFFFFFFFFFFFFFFFFFFFFFFFFFFFFFFFFFFFFFFFFFFFFFFF NOT AND DUP2 PUSH28 0xFFFFFFFFFFFFFFFFFFFFFFFFFFFFFFFFFFFFFFFFFFFFFFFFFFFFFFFF NOT AND EQ PUSH2 0x3D45 JUMPI PUSH1 0x40 MLOAD PUSH32 0x8C379A000000000000000000000000000000000000000000000000000000000 DUP2 MSTORE PUSH1 0x4 ADD PUSH2 0x3D3C SWAP1 PUSH2 0x63B5 JUMP JUMPDEST PUSH1 0x40 MLOAD DUP1 SWAP2 SUB SWAP1 REVERT JUMPDEST POP JUMPDEST POP POP POP POP POP POP JUMP JUMPDEST PUSH2 0x3D5D DUP7 DUP7 DUP7 DUP7 DUP7 DUP7 PUSH2 0x3F42 JUMP JUMPDEST PUSH1 0x0 PUSH20 0xFFFFFFFFFFFFFFFFFFFFFFFFFFFFFFFFFFFFFFFF AND DUP6 PUSH20 0xFFFFFFFFFFFFFFFFFFFFFFFFFFFFFFFFFFFFFFFF AND SUB PUSH2 0x3E0E JUMPI PUSH1 0x0 JUMPDEST DUP4 MLOAD DUP2 LT ISZERO PUSH2 0x3E0C JUMPI DUP3 DUP2 DUP2 MLOAD DUP2 LT PUSH2 0x3DB0 JUMPI PUSH2 0x3DAF PUSH2 0x50DF JUMP JUMPDEST JUMPDEST PUSH1 0x20 MUL PUSH1 0x20 ADD ADD MLOAD PUSH1 0x3 PUSH1 0x0 DUP7 DUP5 DUP2 MLOAD DUP2 LT PUSH2 0x3DCF JUMPI PUSH2 0x3DCE PUSH2 0x50DF JUMP JUMPDEST JUMPDEST PUSH1 0x20 MUL PUSH1 0x20 ADD ADD MLOAD DUP2 MSTORE PUSH1 0x20 ADD SWAP1 DUP2 MSTORE PUSH1 0x20 ADD PUSH1 0x0 KECCAK256 PUSH1 0x0 DUP3 DUP3 SLOAD PUSH2 0x3DF4 SWAP2 SWAP1 PUSH2 0x54F9 JUMP JUMPDEST SWAP3 POP POP DUP2 SWAP1 SSTORE POP DUP1 PUSH2 0x3E05 SWAP1 PUSH2 0x513D JUMP JUMPDEST SWAP1 POP PUSH2 0x3D94 JUMP JUMPDEST POP JUMPDEST PUSH1 0x0 PUSH20 0xFFFFFFFFFFFFFFFFFFFFFFFFFFFFFFFFFFFFFFFF AND DUP5 PUSH20 0xFFFFFFFFFFFFFFFFFFFFFFFFFFFFFFFFFFFFFFFF AND SUB PUSH2 0x3F17 JUMPI PUSH1 0x0 JUMPDEST DUP4 MLOAD DUP2 LT ISZERO PUSH2 0x3F15 JUMPI PUSH1 0x0 DUP5 DUP3 DUP2 MLOAD DUP2 LT PUSH2 0x3E63 JUMPI PUSH2 0x3E62 PUSH2 0x50DF JUMP JUMPDEST JUMPDEST PUSH1 0x20 MUL PUSH1 0x20 ADD ADD MLOAD SWAP1 POP PUSH1 0x0 DUP5 DUP4 DUP2 MLOAD DUP2 LT PUSH2 0x3E82 JUMPI PUSH2 0x3E81 PUSH2 0x50DF JUMP JUMPDEST JUMPDEST PUSH1 0x20 MUL PUSH1 0x20 ADD ADD MLOAD SWAP1 POP PUSH1 0x0 PUSH1 0x3 PUSH1 0x0 DUP5 DUP2 MSTORE PUSH1 0x20 ADD SWAP1 DUP2 MSTORE PUSH1 0x20 ADD PUSH1 0x0 KECCAK256 SLOAD SWAP1 POP DUP2 DUP2 LT ISZERO PUSH2 0x3EE7 JUMPI PUSH1 0x40 MLOAD PUSH32 0x8C379A000000000000000000000000000000000000000000000000000000000 DUP2 MSTORE PUSH1 0x4 ADD PUSH2 0x3EDE SWAP1 PUSH2 0x65C0 JUMP JUMPDEST PUSH1 0x40 MLOAD DUP1 SWAP2 SUB SWAP1 REVERT JUMPDEST DUP2 DUP2 SUB PUSH1 0x3 PUSH1 0x0 DUP6 DUP2 MSTORE PUSH1 0x20 ADD SWAP1 DUP2 MSTORE PUSH1 0x20 ADD PUSH1 0x0 KECCAK256 DUP2 SWAP1 SSTORE POP POP POP POP DUP1 PUSH2 0x3F0E SWAP1 PUSH2 0x513D JUMP JUMPDEST SWAP1 POP PUSH2 0x3E45 JUMP JUMPDEST POP JUMPDEST POP POP POP POP POP POP JUMP JUMPDEST PUSH1 0x0 DUP1 DUP3 PUSH20 0xFFFFFFFFFFFFFFFFFFFFFFFFFFFFFFFFFFFFFFFF AND EXTCODESIZE GT SWAP1 POP SWAP2 SWAP1 POP JUMP JUMPDEST POP POP POP POP POP POP JUMP JUMPDEST PUSH1 0x40 MLOAD DUP1 PUSH1 0x40 ADD PUSH1 0x40 MSTORE DUP1 PUSH1 0x60 DUP2 MSTORE PUSH1 0x20 ADD PUSH1 0x0 PUSH1 0xFF AND DUP2 MSTORE POP SWAP1 JUMP JUMPDEST PUSH1 0x0 PUSH1 0x40 MLOAD SWAP1 POP SWAP1 JUMP JUMPDEST PUSH1 0x0 DUP1 REVERT JUMPDEST PUSH1 0x0 DUP1 REVERT JUMPDEST PUSH1 0x0 PUSH20 0xFFFFFFFFFFFFFFFFFFFFFFFFFFFFFFFFFFFFFFFF DUP3 AND SWAP1 POP SWAP2 SWAP1 POP JUMP JUMPDEST PUSH1 0x0 PUSH2 0x3FA6 DUP3 PUSH2 0x3F7B JUMP JUMPDEST SWAP1 POP SWAP2 SWAP1 POP JUMP JUMPDEST PUSH2 0x3FB6 DUP2 PUSH2 0x3F9B JUMP JUMPDEST DUP2 EQ PUSH2 0x3FC1 JUMPI PUSH1 0x0 DUP1 REVERT JUMPDEST POP JUMP JUMPDEST PUSH1 0x0 DUP2 CALLDATALOAD SWAP1 POP PUSH2 0x3FD3 DUP2 PUSH2 0x3FAD JUMP JUMPDEST SWAP3 SWAP2 POP POP JUMP JUMPDEST PUSH1 0x0 DUP2 SWAP1 POP SWAP2 SWAP1 POP JUMP JUMPDEST PUSH2 0x3FEC DUP2 PUSH2 0x3FD9 JUMP JUMPDEST DUP2 EQ PUSH2 0x3FF7 JUMPI PUSH1 0x0 DUP1 REVERT JUMPDEST POP JUMP JUMPDEST PUSH1 0x0 DUP2 CALLDATALOAD SWAP1 POP PUSH2 0x4009 DUP2 PUSH2 0x3FE3 JUMP JUMPDEST SWAP3 SWAP2 POP POP JUMP JUMPDEST PUSH1 0x0 DUP1 PUSH1 0x40 DUP4 DUP6 SUB SLT ISZERO PUSH2 0x4026 JUMPI PUSH2 0x4025 PUSH2 0x3F71 JUMP JUMPDEST JUMPDEST PUSH1 0x0 PUSH2 0x4034 DUP6 DUP3 DUP7 ADD PUSH2 0x3FC4 JUMP JUMPDEST SWAP3 POP POP PUSH1 0x20 PUSH2 0x4045 DUP6 DUP3 DUP7 ADD PUSH2 0x3FFA JUMP JUMPDEST SWAP2 POP POP SWAP3 POP SWAP3 SWAP1 POP JUMP JUMPDEST PUSH2 0x4058 DUP2 PUSH2 0x3FD9 JUMP JUMPDEST DUP3 MSTORE POP POP JUMP JUMPDEST PUSH1 0x0 PUSH1 0x20 DUP3 ADD SWAP1 POP PUSH2 0x4073 PUSH1 0x0 DUP4 ADD DUP5 PUSH2 0x404F JUMP JUMPDEST SWAP3 SWAP2 POP POP JUMP JUMPDEST PUSH1 0x0 PUSH32 0xFFFFFFFF00000000000000000000000000000000000000000000000000000000 DUP3 AND SWAP1 POP SWAP2 SWAP1 POP JUMP JUMPDEST PUSH2 0x40AE DUP2 PUSH2 0x4079 JUMP JUMPDEST DUP2 EQ PUSH2 0x40B9 JUMPI PUSH1 0x0 DUP1 REVERT JUMPDEST POP JUMP JUMPDEST PUSH1 0x0 DUP2 CALLDATALOAD SWAP1 POP PUSH2 0x40CB DUP2 PUSH2 0x40A5 JUMP JUMPDEST SWAP3 SWAP2 POP POP JUMP JUMPDEST PUSH1 0x0 PUSH1 0x20 DUP3 DUP5 SUB SLT ISZERO PUSH2 0x40E7 JUMPI PUSH2 0x40E6 PUSH2 0x3F71 JUMP JUMPDEST JUMPDEST PUSH1 0x0 PUSH2 0x40F5 DUP5 DUP3 DUP6 ADD PUSH2 0x40BC JUMP JUMPDEST SWAP2 POP POP SWAP3 SWAP2 POP POP JUMP JUMPDEST PUSH1 0x0 DUP2 ISZERO ISZERO SWAP1 POP SWAP2 SWAP1 POP JUMP JUMPDEST PUSH2 0x4113 DUP2 PUSH2 0x40FE JUMP JUMPDEST DUP3 MSTORE POP POP JUMP JUMPDEST PUSH1 0x0 PUSH1 0x20 DUP3 ADD SWAP1 POP PUSH2 0x412E PUSH1 0x0 DUP4 ADD DUP5 PUSH2 0x410A JUMP JUMPDEST SWAP3 SWAP2 POP POP JUMP JUMPDEST PUSH1 0x0 PUSH3 0xFFFFFF DUP3 AND SWAP1 POP SWAP2 SWAP1 POP JUMP JUMPDEST PUSH2 0x414C DUP2 PUSH2 0x4134 JUMP JUMPDEST DUP3 MSTORE POP POP JUMP JUMPDEST PUSH1 0x0 PUSH1 0x20 DUP3 ADD SWAP1 POP PUSH2 0x4167 PUSH1 0x0 DUP4 ADD DUP5 PUSH2 0x4143 JUMP JUMPDEST SWAP3 SWAP2 POP POP JUMP JUMPDEST PUSH1 0x0 PUSH1 0x20 DUP3 DUP5 SUB SLT ISZERO PUSH2 0x4183 JUMPI PUSH2 0x4182 PUSH2 0x3F71 JUMP JUMPDEST JUMPDEST PUSH1 0x0 PUSH2 0x4191 DUP5 DUP3 DUP6 ADD PUSH2 0x3FFA JUMP JUMPDEST SWAP2 POP POP SWAP3 SWAP2 POP POP JUMP JUMPDEST PUSH1 0x0 DUP2 MLOAD SWAP1 POP SWAP2 SWAP1 POP JUMP JUMPDEST PUSH1 0x0 DUP3 DUP3 MSTORE PUSH1 0x20 DUP3 ADD SWAP1 POP SWAP3 SWAP2 POP POP JUMP JUMPDEST PUSH1 0x0 JUMPDEST DUP4 DUP2 LT ISZERO PUSH2 0x41D4 JUMPI DUP1 DUP3 ADD MLOAD DUP2 DUP5 ADD MSTORE PUSH1 0x20 DUP2 ADD SWAP1 POP PUSH2 0x41B9 JUMP JUMPDEST PUSH1 0x0 DUP5 DUP5 ADD MSTORE POP POP POP POP JUMP JUMPDEST PUSH1 0x0 PUSH1 0x1F NOT PUSH1 0x1F DUP4 ADD AND SWAP1 POP SWAP2 SWAP1 POP JUMP JUMPDEST PUSH1 0x0 PUSH2 0x41FC DUP3 PUSH2 0x419A JUMP JUMPDEST PUSH2 0x4206 DUP2 DUP6 PUSH2 0x41A5 JUMP JUMPDEST SWAP4 POP PUSH2 0x4216 DUP2 DUP6 PUSH1 0x20 DUP7 ADD PUSH2 0x41B6 JUMP JUMPDEST PUSH2 0x421F DUP2 PUSH2 0x41E0 JUMP JUMPDEST DUP5 ADD SWAP2 POP POP SWAP3 SWAP2 POP POP JUMP JUMPDEST PUSH1 0x0 PUSH1 0x20 DUP3 ADD SWAP1 POP DUP2 DUP2 SUB PUSH1 0x0 DUP4 ADD MSTORE PUSH2 0x4244 DUP2 DUP5 PUSH2 0x41F1 JUMP JUMPDEST SWAP1 POP SWAP3 SWAP2 POP POP JUMP JUMPDEST PUSH1 0x0 PUSH1 0x20 DUP3 DUP5 SUB SLT ISZERO PUSH2 0x4262 JUMPI PUSH2 0x4261 PUSH2 0x3F71 JUMP JUMPDEST JUMPDEST PUSH1 0x0 PUSH2 0x4270 DUP5 DUP3 DUP6 ADD PUSH2 0x3FC4 JUMP JUMPDEST SWAP2 POP POP SWAP3 SWAP2 POP POP JUMP JUMPDEST PUSH1 0x0 DUP2 SWAP1 POP SWAP2 SWAP1 POP JUMP JUMPDEST PUSH2 0x428C DUP2 PUSH2 0x4279 JUMP JUMPDEST DUP3 MSTORE POP POP JUMP JUMPDEST PUSH1 0x0 PUSH1 0x20 DUP3 ADD SWAP1 POP PUSH2 0x42A7 PUSH1 0x0 DUP4 ADD DUP5 PUSH2 0x4283 JUMP JUMPDEST SWAP3 SWAP2 POP POP JUMP JUMPDEST PUSH1 0x0 DUP1 REVERT JUMPDEST PUSH32 0x4E487B7100000000000000000000000000000000000000000000000000000000 PUSH1 0x0 MSTORE PUSH1 0x41 PUSH1 0x4 MSTORE PUSH1 0x24 PUSH1 0x0 REVERT JUMPDEST PUSH2 0x42EA DUP3 PUSH2 0x41E0 JUMP JUMPDEST DUP2 ADD DUP2 DUP2 LT PUSH8 0xFFFFFFFFFFFFFFFF DUP3 GT OR ISZERO PUSH2 0x4309 JUMPI PUSH2 0x4308 PUSH2 0x42B2 JUMP JUMPDEST JUMPDEST DUP1 PUSH1 0x40 MSTORE POP POP POP JUMP JUMPDEST PUSH1 0x0 PUSH2 0x431C PUSH2 0x3F67 JUMP JUMPDEST SWAP1 POP PUSH2 0x4328 DUP3 DUP3 PUSH2 0x42E1 JUMP JUMPDEST SWAP2 SWAP1 POP JUMP JUMPDEST PUSH1 0x0 PUSH8 0xFFFFFFFFFFFFFFFF DUP3 GT ISZERO PUSH2 0x4348 JUMPI PUSH2 0x4347 PUSH2 0x42B2 JUMP JUMPDEST JUMPDEST PUSH1 0x20 DUP3 MUL SWAP1 POP PUSH1 0x20 DUP2 ADD SWAP1 POP SWAP2 SWAP1 POP JUMP JUMPDEST PUSH1 0x0 DUP1 REVERT JUMPDEST PUSH1 0x0 PUSH2 0x4371 PUSH2 0x436C DUP5 PUSH2 0x432D JUMP JUMPDEST PUSH2 0x4312 JUMP JUMPDEST SWAP1 POP DUP1 DUP4 DUP3 MSTORE PUSH1 0x20 DUP3 ADD SWAP1 POP PUSH1 0x20 DUP5 MUL DUP4 ADD DUP6 DUP2 GT ISZERO PUSH2 0x4394 JUMPI PUSH2 0x4393 PUSH2 0x4359 JUMP JUMPDEST JUMPDEST DUP4 JUMPDEST DUP2 DUP2 LT ISZERO PUSH2 0x43BD JUMPI DUP1 PUSH2 0x43A9 DUP9 DUP3 PUSH2 0x3FFA JUMP JUMPDEST DUP5 MSTORE PUSH1 0x20 DUP5 ADD SWAP4 POP POP PUSH1 0x20 DUP2 ADD SWAP1 POP PUSH2 0x4396 JUMP JUMPDEST POP POP POP SWAP4 SWAP3 POP POP POP JUMP JUMPDEST PUSH1 0x0 DUP3 PUSH1 0x1F DUP4 ADD SLT PUSH2 0x43DC JUMPI PUSH2 0x43DB PUSH2 0x42AD JUMP JUMPDEST JUMPDEST DUP2 CALLDATALOAD PUSH2 0x43EC DUP5 DUP3 PUSH1 0x20 DUP7 ADD PUSH2 0x435E JUMP JUMPDEST SWAP2 POP POP SWAP3 SWAP2 POP POP JUMP JUMPDEST PUSH1 0x0 DUP1 REVERT JUMPDEST PUSH1 0x0 PUSH8 0xFFFFFFFFFFFFFFFF DUP3 GT ISZERO PUSH2 0x4415 JUMPI PUSH2 0x4414 PUSH2 0x42B2 JUMP JUMPDEST JUMPDEST PUSH2 0x441E DUP3 PUSH2 0x41E0 JUMP JUMPDEST SWAP1 POP PUSH1 0x20 DUP2 ADD SWAP1 POP SWAP2 SWAP1 POP JUMP JUMPDEST DUP3 DUP2 DUP4 CALLDATACOPY PUSH1 0x0 DUP4 DUP4 ADD MSTORE POP POP POP JUMP JUMPDEST PUSH1 0x0 PUSH2 0x444D PUSH2 0x4448 DUP5 PUSH2 0x43FA JUMP JUMPDEST PUSH2 0x4312 JUMP JUMPDEST SWAP1 POP DUP3 DUP2 MSTORE PUSH1 0x20 DUP2 ADD DUP5 DUP5 DUP5 ADD GT ISZERO PUSH2 0x4469 JUMPI PUSH2 0x4468 PUSH2 0x43F5 JUMP JUMPDEST JUMPDEST PUSH2 0x4474 DUP5 DUP3 DUP6 PUSH2 0x442B JUMP JUMPDEST POP SWAP4 SWAP3 POP POP POP JUMP JUMPDEST PUSH1 0x0 DUP3 PUSH1 0x1F DUP4 ADD SLT PUSH2 0x4491 JUMPI PUSH2 0x4490 PUSH2 0x42AD JUMP JUMPDEST JUMPDEST DUP2 CALLDATALOAD PUSH2 0x44A1 DUP5 DUP3 PUSH1 0x20 DUP7 ADD PUSH2 0x443A JUMP JUMPDEST SWAP2 POP POP SWAP3 SWAP2 POP POP JUMP JUMPDEST PUSH1 0x0 DUP1 PUSH1 0x0 DUP1 PUSH1 0x0 PUSH1 0xA0 DUP7 DUP9 SUB SLT ISZERO PUSH2 0x44C6 JUMPI PUSH2 0x44C5 PUSH2 0x3F71 JUMP JUMPDEST JUMPDEST PUSH1 0x0 PUSH2 0x44D4 DUP9 DUP3 DUP10 ADD PUSH2 0x3FC4 JUMP JUMPDEST SWAP6 POP POP PUSH1 0x20 PUSH2 0x44E5 DUP9 DUP3 DUP10 ADD PUSH2 0x3FC4 JUMP JUMPDEST SWAP5 POP POP PUSH1 0x40 DUP7 ADD CALLDATALOAD PUSH8 0xFFFFFFFFFFFFFFFF DUP2 GT ISZERO PUSH2 0x4506 JUMPI PUSH2 0x4505 PUSH2 0x3F76 JUMP JUMPDEST JUMPDEST PUSH2 0x4512 DUP9 DUP3 DUP10 ADD PUSH2 0x43C7 JUMP JUMPDEST SWAP4 POP POP PUSH1 0x60 DUP7 ADD CALLDATALOAD PUSH8 0xFFFFFFFFFFFFFFFF DUP2 GT ISZERO PUSH2 0x4533 JUMPI PUSH2 0x4532 PUSH2 0x3F76 JUMP JUMPDEST JUMPDEST PUSH2 0x453F DUP9 DUP3 DUP10 ADD PUSH2 0x43C7 JUMP JUMPDEST SWAP3 POP POP PUSH1 0x80 DUP7 ADD CALLDATALOAD PUSH8 0xFFFFFFFFFFFFFFFF DUP2 GT ISZERO PUSH2 0x4560 JUMPI PUSH2 0x455F PUSH2 0x3F76 JUMP JUMPDEST JUMPDEST PUSH2 0x456C DUP9 DUP3 DUP10 ADD PUSH2 0x447C JUMP JUMPDEST SWAP2 POP POP SWAP3 SWAP6 POP SWAP3 SWAP6 SWAP1 SWAP4 POP JUMP JUMPDEST PUSH1 0x0 PUSH8 0xFFFFFFFFFFFFFFFF DUP3 GT ISZERO PUSH2 0x4594 JUMPI PUSH2 0x4593 PUSH2 0x42B2 JUMP JUMPDEST JUMPDEST PUSH1 0x20 DUP3 MUL SWAP1 POP PUSH1 0x20 DUP2 ADD SWAP1 POP SWAP2 SWAP1 POP JUMP JUMPDEST PUSH1 0x0 PUSH2 0x45B8 PUSH2 0x45B3 DUP5 PUSH2 0x4579 JUMP JUMPDEST PUSH2 0x4312 JUMP JUMPDEST SWAP1 POP DUP1 DUP4 DUP3 MSTORE PUSH1 0x20 DUP3 ADD SWAP1 POP PUSH1 0x20 DUP5 MUL DUP4 ADD DUP6 DUP2 GT ISZERO PUSH2 0x45DB JUMPI PUSH2 0x45DA PUSH2 0x4359 JUMP JUMPDEST JUMPDEST DUP4 JUMPDEST DUP2 DUP2 LT ISZERO PUSH2 0x4604 JUMPI DUP1 PUSH2 0x45F0 DUP9 DUP3 PUSH2 0x3FC4 JUMP JUMPDEST DUP5 MSTORE PUSH1 0x20 DUP5 ADD SWAP4 POP POP PUSH1 0x20 DUP2 ADD SWAP1 POP PUSH2 0x45DD JUMP JUMPDEST POP POP POP SWAP4 SWAP3 POP POP POP JUMP JUMPDEST PUSH1 0x0 DUP3 PUSH1 0x1F DUP4 ADD SLT PUSH2 0x4623 JUMPI PUSH2 0x4622 PUSH2 0x42AD JUMP JUMPDEST JUMPDEST DUP2 CALLDATALOAD PUSH2 0x4633 DUP5 DUP3 PUSH1 0x20 DUP7 ADD PUSH2 0x45A5 JUMP JUMPDEST SWAP2 POP POP SWAP3 SWAP2 POP POP JUMP JUMPDEST PUSH1 0x0 DUP1 PUSH1 0x40 DUP4 DUP6 SUB SLT ISZERO PUSH2 0x4653 JUMPI PUSH2 0x4652 PUSH2 0x3F71 JUMP JUMPDEST JUMPDEST PUSH1 0x0 DUP4 ADD CALLDATALOAD PUSH8 0xFFFFFFFFFFFFFFFF DUP2 GT ISZERO PUSH2 0x4671 JUMPI PUSH2 0x4670 PUSH2 0x3F76 JUMP JUMPDEST JUMPDEST PUSH2 0x467D DUP6 DUP3 DUP7 ADD PUSH2 0x460E JUMP JUMPDEST SWAP3 POP POP PUSH1 0x20 DUP4 ADD CALLDATALOAD PUSH8 0xFFFFFFFFFFFFFFFF DUP2 GT ISZERO PUSH2 0x469E JUMPI PUSH2 0x469D PUSH2 0x3F76 JUMP JUMPDEST JUMPDEST PUSH2 0x46AA DUP6 DUP3 DUP7 ADD PUSH2 0x43C7 JUMP JUMPDEST SWAP2 POP POP SWAP3 POP SWAP3 SWAP1 POP JUMP JUMPDEST PUSH1 0x0 DUP2 MLOAD SWAP1 POP SWAP2 SWAP1 POP JUMP JUMPDEST PUSH1 0x0 DUP3 DUP3 MSTORE PUSH1 0x20 DUP3 ADD SWAP1 POP SWAP3 SWAP2 POP POP JUMP JUMPDEST PUSH1 0x0 DUP2 SWAP1 POP PUSH1 0x20 DUP3 ADD SWAP1 POP SWAP2 SWAP1 POP JUMP JUMPDEST PUSH2 0x46E9 DUP2 PUSH2 0x3FD9 JUMP JUMPDEST DUP3 MSTORE POP POP JUMP JUMPDEST PUSH1 0x0 PUSH2 0x46FB DUP4 DUP4 PUSH2 0x46E0 JUMP JUMPDEST PUSH1 0x20 DUP4 ADD SWAP1 POP SWAP3 SWAP2 POP POP JUMP JUMPDEST PUSH1 0x0 PUSH1 0x20 DUP3 ADD SWAP1 POP SWAP2 SWAP1 POP JUMP JUMPDEST PUSH1 0x0 PUSH2 0x471F DUP3 PUSH2 0x46B4 JUMP JUMPDEST PUSH2 0x4729 DUP2 DUP6 PUSH2 0x46BF JUMP JUMPDEST SWAP4 POP PUSH2 0x4734 DUP4 PUSH2 0x46D0 JUMP JUMPDEST DUP1 PUSH1 0x0 JUMPDEST DUP4 DUP2 LT ISZERO PUSH2 0x4765 JUMPI DUP2 MLOAD PUSH2 0x474C DUP9 DUP3 PUSH2 0x46EF JUMP JUMPDEST SWAP8 POP PUSH2 0x4757 DUP4 PUSH2 0x4707 JUMP JUMPDEST SWAP3 POP POP PUSH1 0x1 DUP2 ADD SWAP1 POP PUSH2 0x4738 JUMP JUMPDEST POP DUP6 SWAP4 POP POP POP POP SWAP3 SWAP2 POP POP JUMP JUMPDEST PUSH1 0x0 PUSH1 0x20 DUP3 ADD SWAP1 POP DUP2 DUP2 SUB PUSH1 0x0 DUP4 ADD MSTORE PUSH2 0x478C DUP2 DUP5 PUSH2 0x4714 JUMP JUMPDEST SWAP1 POP SWAP3 SWAP2 POP POP JUMP JUMPDEST PUSH2 0x479D DUP2 PUSH2 0x4134 JUMP JUMPDEST DUP2 EQ PUSH2 0x47A8 JUMPI PUSH1 0x0 DUP1 REVERT JUMPDEST POP JUMP JUMPDEST PUSH1 0x0 DUP2 CALLDATALOAD SWAP1 POP PUSH2 0x47BA DUP2 PUSH2 0x4794 JUMP JUMPDEST SWAP3 SWAP2 POP POP JUMP JUMPDEST PUSH1 0x0 PUSH1 0x20 DUP3 DUP5 SUB SLT ISZERO PUSH2 0x47D6 JUMPI PUSH2 0x47D5 PUSH2 0x3F71 JUMP JUMPDEST JUMPDEST PUSH1 0x0 PUSH2 0x47E4 DUP5 DUP3 DUP6 ADD PUSH2 0x47AB JUMP JUMPDEST SWAP2 POP POP SWAP3 SWAP2 POP POP JUMP JUMPDEST PUSH1 0x0 DUP1 PUSH1 0x40 DUP4 DUP6 SUB SLT ISZERO PUSH2 0x4804 JUMPI PUSH2 0x4803 PUSH2 0x3F71 JUMP JUMPDEST JUMPDEST PUSH1 0x0 PUSH2 0x4812 DUP6 DUP3 DUP7 ADD PUSH2 0x47AB JUMP JUMPDEST SWAP3 POP POP PUSH1 0x20 PUSH2 0x4823 DUP6 DUP3 DUP7 ADD PUSH2 0x3FFA JUMP JUMPDEST SWAP2 POP POP SWAP3 POP SWAP3 SWAP1 POP JUMP JUMPDEST PUSH1 0x0 DUP3 DUP3 MSTORE PUSH1 0x20 DUP3 ADD SWAP1 POP SWAP3 SWAP2 POP POP JUMP JUMPDEST PUSH1 0x0 PUSH2 0x4849 DUP3 PUSH2 0x419A JUMP JUMPDEST PUSH2 0x4853 DUP2 DUP6 PUSH2 0x482D JUMP JUMPDEST SWAP4 POP PUSH2 0x4863 DUP2 DUP6 PUSH1 0x20 DUP7 ADD PUSH2 0x41B6 JUMP JUMPDEST PUSH2 0x486C DUP2 PUSH2 0x41E0 JUMP JUMPDEST DUP5 ADD SWAP2 POP POP SWAP3 SWAP2 POP POP JUMP JUMPDEST PUSH1 0x0 PUSH1 0xFF DUP3 AND SWAP1 POP SWAP2 SWAP1 POP JUMP JUMPDEST PUSH2 0x488D DUP2 PUSH2 0x4877 JUMP JUMPDEST DUP3 MSTORE POP POP JUMP JUMPDEST PUSH1 0x0 PUSH1 0x40 DUP4 ADD PUSH1 0x0 DUP4 ADD MLOAD DUP5 DUP3 SUB PUSH1 0x0 DUP7 ADD MSTORE PUSH2 0x48B0 DUP3 DUP3 PUSH2 0x483E JUMP JUMPDEST SWAP2 POP POP PUSH1 0x20 DUP4 ADD MLOAD PUSH2 0x48C5 PUSH1 0x20 DUP7 ADD DUP3 PUSH2 0x4884 JUMP JUMPDEST POP DUP1 SWAP2 POP POP SWAP3 SWAP2 POP POP JUMP JUMPDEST PUSH1 0x0 PUSH1 0x20 DUP3 ADD SWAP1 POP DUP2 DUP2 SUB PUSH1 0x0 DUP4 ADD MSTORE PUSH2 0x48EA DUP2 DUP5 PUSH2 0x4893 JUMP JUMPDEST SWAP1 POP SWAP3 SWAP2 POP POP JUMP JUMPDEST PUSH2 0x48FB DUP2 PUSH2 0x40FE JUMP JUMPDEST DUP2 EQ PUSH2 0x4906 JUMPI PUSH1 0x0 DUP1 REVERT JUMPDEST POP JUMP JUMPDEST PUSH1 0x0 DUP2 CALLDATALOAD SWAP1 POP PUSH2 0x4918 DUP2 PUSH2 0x48F2 JUMP JUMPDEST SWAP3 SWAP2 POP POP JUMP JUMPDEST PUSH1 0x0 DUP1 PUSH1 0x40 DUP4 DUP6 SUB SLT ISZERO PUSH2 0x4935 JUMPI PUSH2 0x4934 PUSH2 0x3F71 JUMP JUMPDEST JUMPDEST PUSH1 0x0 PUSH2 0x4943 DUP6 DUP3 DUP7 ADD PUSH2 0x3FC4 JUMP JUMPDEST SWAP3 POP POP PUSH1 0x20 PUSH2 0x4954 DUP6 DUP3 DUP7 ADD PUSH2 0x4909 JUMP JUMPDEST SWAP2 POP POP SWAP3 POP SWAP3 SWAP1 POP JUMP JUMPDEST PUSH1 0x0 DUP2 SWAP1 POP SWAP2 SWAP1 POP JUMP JUMPDEST PUSH1 0x0 PUSH2 0x4983 PUSH2 0x497E PUSH2 0x4979 DUP5 PUSH2 0x3F7B JUMP JUMPDEST PUSH2 0x495E JUMP JUMPDEST PUSH2 0x3F7B JUMP JUMPDEST SWAP1 POP SWAP2 SWAP1 POP JUMP JUMPDEST PUSH1 0x0 PUSH2 0x4995 DUP3 PUSH2 0x4968 JUMP JUMPDEST SWAP1 POP SWAP2 SWAP1 POP JUMP JUMPDEST PUSH1 0x0 PUSH2 0x49A7 DUP3 PUSH2 0x498A JUMP JUMPDEST SWAP1 POP SWAP2 SWAP1 POP JUMP JUMPDEST PUSH2 0x49B7 DUP2 PUSH2 0x499C JUMP JUMPDEST DUP3 MSTORE POP POP JUMP JUMPDEST PUSH1 0x0 PUSH1 0x20 DUP3 ADD SWAP1 POP PUSH2 0x49D2 PUSH1 0x0 DUP4 ADD DUP5 PUSH2 0x49AE JUMP JUMPDEST SWAP3 SWAP2 POP POP JUMP JUMPDEST PUSH1 0x0 PUSH8 0xFFFFFFFFFFFFFFFF DUP3 GT ISZERO PUSH2 0x49F3 JUMPI PUSH2 0x49F2 PUSH2 0x42B2 JUMP JUMPDEST JUMPDEST PUSH2 0x49FC DUP3 PUSH2 0x41E0 JUMP JUMPDEST SWAP1 POP PUSH1 0x20 DUP2 ADD SWAP1 POP SWAP2 SWAP1 POP JUMP JUMPDEST PUSH1 0x0 PUSH2 0x4A1C PUSH2 0x4A17 DUP5 PUSH2 0x49D8 JUMP JUMPDEST PUSH2 0x4312 JUMP JUMPDEST SWAP1 POP DUP3 DUP2 MSTORE PUSH1 0x20 DUP2 ADD DUP5 DUP5 DUP5 ADD GT ISZERO PUSH2 0x4A38 JUMPI PUSH2 0x4A37 PUSH2 0x43F5 JUMP JUMPDEST JUMPDEST PUSH2 0x4A43 DUP5 DUP3 DUP6 PUSH2 0x442B JUMP JUMPDEST POP SWAP4 SWAP3 POP POP POP JUMP JUMPDEST PUSH1 0x0 DUP3 PUSH1 0x1F DUP4 ADD SLT PUSH2 0x4A60 JUMPI PUSH2 0x4A5F PUSH2 0x42AD JUMP JUMPDEST JUMPDEST DUP2 CALLDATALOAD PUSH2 0x4A70 DUP5 DUP3 PUSH1 0x20 DUP7 ADD PUSH2 0x4A09 JUMP JUMPDEST SWAP2 POP POP SWAP3 SWAP2 POP POP JUMP JUMPDEST PUSH1 0x0 DUP1 PUSH1 0x0 PUSH1 0x60 DUP5 DUP7 SUB SLT ISZERO PUSH2 0x4A92 JUMPI PUSH2 0x4A91 PUSH2 0x3F71 JUMP JUMPDEST JUMPDEST PUSH1 0x0 DUP5 ADD CALLDATALOAD PUSH8 0xFFFFFFFFFFFFFFFF DUP2 GT ISZERO PUSH2 0x4AB0 JUMPI PUSH2 0x4AAF PUSH2 0x3F76 JUMP JUMPDEST JUMPDEST PUSH2 0x4ABC DUP7 DUP3 DUP8 ADD PUSH2 0x4A4B JUMP JUMPDEST SWAP4 POP POP PUSH1 0x20 PUSH2 0x4ACD DUP7 DUP3 DUP8 ADD PUSH2 0x3FC4 JUMP JUMPDEST SWAP3 POP POP PUSH1 0x40 PUSH2 0x4ADE DUP7 DUP3 DUP8 ADD PUSH2 0x3FC4 JUMP JUMPDEST SWAP2 POP POP SWAP3 POP SWAP3 POP SWAP3 JUMP JUMPDEST PUSH1 0x0 DUP1 PUSH1 0x40 DUP4 DUP6 SUB SLT ISZERO PUSH2 0x4AFF JUMPI PUSH2 0x4AFE PUSH2 0x3F71 JUMP JUMPDEST JUMPDEST PUSH1 0x0 PUSH2 0x4B0D DUP6 DUP3 DUP7 ADD PUSH2 0x47AB JUMP JUMPDEST SWAP3 POP POP PUSH1 0x20 PUSH2 0x4B1E DUP6 DUP3 DUP7 ADD PUSH2 0x3FC4 JUMP JUMPDEST SWAP2 POP POP SWAP3 POP SWAP3 SWAP1 POP JUMP JUMPDEST PUSH1 0x0 DUP1 PUSH1 0x40 DUP4 DUP6 SUB SLT ISZERO PUSH2 0x4B3F JUMPI PUSH2 0x4B3E PUSH2 0x3F71 JUMP JUMPDEST JUMPDEST PUSH1 0x0 PUSH2 0x4B4D DUP6 DUP3 DUP7 ADD PUSH2 0x3FC4 JUMP JUMPDEST SWAP3 POP POP PUSH1 0x20 PUSH2 0x4B5E DUP6 DUP3 DUP7 ADD PUSH2 0x3FC4 JUMP JUMPDEST SWAP2 POP POP SWAP3 POP SWAP3 SWAP1 POP JUMP JUMPDEST PUSH1 0x0 PUSH8 0xFFFFFFFFFFFFFFFF DUP3 GT ISZERO PUSH2 0x4B83 JUMPI PUSH2 0x4B82 PUSH2 0x42B2 JUMP JUMPDEST JUMPDEST PUSH1 0x20 DUP3 MUL SWAP1 POP PUSH1 0x20 DUP2 ADD SWAP1 POP SWAP2 SWAP1 POP JUMP JUMPDEST PUSH1 0x0 DUP1 REVERT JUMPDEST PUSH1 0x0 DUP1 REVERT JUMPDEST PUSH2 0x4BA7 DUP2 PUSH2 0x4877 JUMP JUMPDEST DUP2 EQ PUSH2 0x4BB2 JUMPI PUSH1 0x0 DUP1 REVERT JUMPDEST POP JUMP JUMPDEST PUSH1 0x0 DUP2 CALLDATALOAD SWAP1 POP PUSH2 0x4BC4 DUP2 PUSH2 0x4B9E JUMP JUMPDEST SWAP3 SWAP2 POP POP JUMP JUMPDEST PUSH1 0x0 PUSH1 0x40 DUP3 DUP5 SUB SLT ISZERO PUSH2 0x4BE0 JUMPI PUSH2 0x4BDF PUSH2 0x4B94 JUMP JUMPDEST JUMPDEST PUSH2 0x4BEA PUSH1 0x40 PUSH2 0x4312 JUMP JUMPDEST SWAP1 POP PUSH1 0x0 DUP3 ADD CALLDATALOAD PUSH8 0xFFFFFFFFFFFFFFFF DUP2 GT ISZERO PUSH2 0x4C0A JUMPI PUSH2 0x4C09 PUSH2 0x4B99 JUMP JUMPDEST JUMPDEST PUSH2 0x4C16 DUP5 DUP3 DUP6 ADD PUSH2 0x4A4B JUMP JUMPDEST PUSH1 0x0 DUP4 ADD MSTORE POP PUSH1 0x20 PUSH2 0x4C2A DUP5 DUP3 DUP6 ADD PUSH2 0x4BB5 JUMP JUMPDEST PUSH1 0x20 DUP4 ADD MSTORE POP SWAP3 SWAP2 POP POP JUMP JUMPDEST PUSH1 0x0 PUSH2 0x4C49 PUSH2 0x4C44 DUP5 PUSH2 0x4B68 JUMP JUMPDEST PUSH2 0x4312 JUMP JUMPDEST SWAP1 POP DUP1 DUP4 DUP3 MSTORE PUSH1 0x20 DUP3 ADD SWAP1 POP PUSH1 0x20 DUP5 MUL DUP4 ADD DUP6 DUP2 GT ISZERO PUSH2 0x4C6C JUMPI PUSH2 0x4C6B PUSH2 0x4359 JUMP JUMPDEST JUMPDEST DUP4 JUMPDEST DUP2 DUP2 LT ISZERO PUSH2 0x4CB3 JUMPI DUP1 CALLDATALOAD PUSH8 0xFFFFFFFFFFFFFFFF DUP2 GT ISZERO PUSH2 0x4C91 JUMPI PUSH2 0x4C90 PUSH2 0x42AD JUMP JUMPDEST JUMPDEST DUP1 DUP7 ADD PUSH2 0x4C9E DUP10 DUP3 PUSH2 0x4BCA JUMP JUMPDEST DUP6 MSTORE PUSH1 0x20 DUP6 ADD SWAP5 POP POP POP PUSH1 0x20 DUP2 ADD SWAP1 POP PUSH2 0x4C6E JUMP JUMPDEST POP POP POP SWAP4 SWAP3 POP POP POP JUMP JUMPDEST PUSH1 0x0 DUP3 PUSH1 0x1F DUP4 ADD SLT PUSH2 0x4CD2 JUMPI PUSH2 0x4CD1 PUSH2 0x42AD JUMP JUMPDEST JUMPDEST DUP2 CALLDATALOAD PUSH2 0x4CE2 DUP5 DUP3 PUSH1 0x20 DUP7 ADD PUSH2 0x4C36 JUMP JUMPDEST SWAP2 POP POP SWAP3 SWAP2 POP POP JUMP JUMPDEST PUSH1 0x0 PUSH1 0x20 DUP3 DUP5 SUB SLT ISZERO PUSH2 0x4D01 JUMPI PUSH2 0x4D00 PUSH2 0x3F71 JUMP JUMPDEST JUMPDEST PUSH1 0x0 DUP3 ADD CALLDATALOAD PUSH8 0xFFFFFFFFFFFFFFFF DUP2 GT ISZERO PUSH2 0x4D1F JUMPI PUSH2 0x4D1E PUSH2 0x3F76 JUMP JUMPDEST JUMPDEST PUSH2 0x4D2B DUP5 DUP3 DUP6 ADD PUSH2 0x4CBD JUMP JUMPDEST SWAP2 POP POP SWAP3 SWAP2 POP POP JUMP JUMPDEST PUSH1 0x0 DUP1 PUSH1 0x0 DUP1 PUSH1 0x0 PUSH1 0xA0 DUP7 DUP9 SUB SLT ISZERO PUSH2 0x4D50 JUMPI PUSH2 0x4D4F PUSH2 0x3F71 JUMP JUMPDEST JUMPDEST PUSH1 0x0 PUSH2 0x4D5E DUP9 DUP3 DUP10 ADD PUSH2 0x3FC4 JUMP JUMPDEST SWAP6 POP POP PUSH1 0x20 PUSH2 0x4D6F DUP9 DUP3 DUP10 ADD PUSH2 0x3FC4 JUMP JUMPDEST SWAP5 POP POP PUSH1 0x40 PUSH2 0x4D80 DUP9 DUP3 DUP10 ADD PUSH2 0x3FFA JUMP JUMPDEST SWAP4 POP POP PUSH1 0x60 PUSH2 0x4D91 DUP9 DUP3 DUP10 ADD PUSH2 0x3FFA JUMP JUMPDEST SWAP3 POP POP PUSH1 0x80 DUP7 ADD CALLDATALOAD PUSH8 0xFFFFFFFFFFFFFFFF DUP2 GT ISZERO PUSH2 0x4DB2 JUMPI PUSH2 0x4DB1 PUSH2 0x3F76 JUMP JUMPDEST JUMPDEST PUSH2 0x4DBE DUP9 DUP3 DUP10 ADD PUSH2 0x447C JUMP JUMPDEST SWAP2 POP POP SWAP3 SWAP6 POP SWAP3 SWAP6 SWAP1 SWAP4 POP JUMP JUMPDEST PUSH32 0x455243313135353A2061646472657373207A65726F206973206E6F7420612076 PUSH1 0x0 DUP3 ADD MSTORE PUSH32 0x616C6964206F776E657200000000000000000000000000000000000000000000 PUSH1 0x20 DUP3 ADD MSTORE POP JUMP JUMPDEST PUSH1 0x0 PUSH2 0x4E27 PUSH1 0x2A DUP4 PUSH2 0x41A5 JUMP JUMPDEST SWAP2 POP PUSH2 0x4E32 DUP3 PUSH2 0x4DCB JUMP JUMPDEST PUSH1 0x40 DUP3 ADD SWAP1 POP SWAP2 SWAP1 POP JUMP JUMPDEST PUSH1 0x0 PUSH1 0x20 DUP3 ADD SWAP1 POP DUP2 DUP2 SUB PUSH1 0x0 DUP4 ADD MSTORE PUSH2 0x4E56 DUP2 PUSH2 0x4E1A JUMP JUMPDEST SWAP1 POP SWAP2 SWAP1 POP JUMP JUMPDEST PUSH32 0x4E487B7100000000000000000000000000000000000000000000000000000000 PUSH1 0x0 MSTORE PUSH1 0x22 PUSH1 0x4 MSTORE PUSH1 0x24 PUSH1 0x0 REVERT JUMPDEST PUSH1 0x0 PUSH1 0x2 DUP3 DIV SWAP1 POP PUSH1 0x1 DUP3 AND DUP1 PUSH2 0x4EA4 JUMPI PUSH1 0x7F DUP3 AND SWAP2 POP JUMPDEST PUSH1 0x20 DUP3 LT DUP2 SUB PUSH2 0x4EB7 JUMPI PUSH2 0x4EB6 PUSH2 0x4E5D JUMP JUMPDEST JUMPDEST POP SWAP2 SWAP1 POP JUMP JUMPDEST PUSH1 0x0 PUSH10 0xFFFFFFFFFFFFFFFFFFFF DUP3 AND SWAP1 POP SWAP2 SWAP1 POP JUMP JUMPDEST PUSH2 0x4EDC DUP2 PUSH2 0x4EBD JUMP JUMPDEST DUP2 EQ PUSH2 0x4EE7 JUMPI PUSH1 0x0 DUP1 REVERT JUMPDEST POP JUMP JUMPDEST PUSH1 0x0 DUP2 MLOAD SWAP1 POP PUSH2 0x4EF9 DUP2 PUSH2 0x4ED3 JUMP JUMPDEST SWAP3 SWAP2 POP POP JUMP JUMPDEST PUSH2 0x4F08 DUP2 PUSH2 0x4279 JUMP JUMPDEST DUP2 EQ PUSH2 0x4F13 JUMPI PUSH1 0x0 DUP1 REVERT JUMPDEST POP JUMP JUMPDEST PUSH1 0x0 DUP2 MLOAD SWAP1 POP PUSH2 0x4F25 DUP2 PUSH2 0x4EFF JUMP JUMPDEST SWAP3 SWAP2 POP POP JUMP JUMPDEST PUSH1 0x0 DUP2 MLOAD SWAP1 POP PUSH2 0x4F3A DUP2 PUSH2 0x3FE3 JUMP JUMPDEST SWAP3 SWAP2 POP POP JUMP JUMPDEST PUSH1 0x0 DUP1 PUSH1 0x0 DUP1 PUSH1 0x0 PUSH1 0xA0 DUP7 DUP9 SUB SLT ISZERO PUSH2 0x4F5C JUMPI PUSH2 0x4F5B PUSH2 0x3F71 JUMP JUMPDEST JUMPDEST PUSH1 0x0 PUSH2 0x4F6A DUP9 DUP3 DUP10 ADD PUSH2 0x4EEA JUMP JUMPDEST SWAP6 POP POP PUSH1 0x20 PUSH2 0x4F7B DUP9 DUP3 DUP10 ADD PUSH2 0x4F16 JUMP JUMPDEST SWAP5 POP POP PUSH1 0x40 PUSH2 0x4F8C DUP9 DUP3 DUP10 ADD PUSH2 0x4F2B JUMP JUMPDEST SWAP4 POP POP PUSH1 0x60 PUSH2 0x4F9D DUP9 DUP3 DUP10 ADD PUSH2 0x4F2B JUMP JUMPDEST SWAP3 POP POP PUSH1 0x80 PUSH2 0x4FAE DUP9 DUP3 DUP10 ADD PUSH2 0x4EEA JUMP JUMPDEST SWAP2 POP POP SWAP3 SWAP6 POP SWAP3 SWAP6 SWAP1 SWAP4 POP JUMP JUMPDEST PUSH32 0x455243313135353A2063616C6C6572206973206E6F7420746F6B656E206F776E PUSH1 0x0 DUP3 ADD MSTORE PUSH32 0x6572206F7220617070726F766564000000000000000000000000000000000000 PUSH1 0x20 DUP3 ADD MSTORE POP JUMP JUMPDEST PUSH1 0x0 PUSH2 0x5017 PUSH1 0x2E DUP4 PUSH2 0x41A5 JUMP JUMPDEST SWAP2 POP PUSH2 0x5022 DUP3 PUSH2 0x4FBB JUMP JUMPDEST PUSH1 0x40 DUP3 ADD SWAP1 POP SWAP2 SWAP1 POP JUMP JUMPDEST PUSH1 0x0 PUSH1 0x20 DUP3 ADD SWAP1 POP DUP2 DUP2 SUB PUSH1 0x0 DUP4 ADD MSTORE PUSH2 0x5046 DUP2 PUSH2 0x500A JUMP JUMPDEST SWAP1 POP SWAP2 SWAP1 POP JUMP JUMPDEST PUSH32 0x455243313135353A206163636F756E747320616E6420696473206C656E677468 PUSH1 0x0 DUP3 ADD MSTORE PUSH32 0x206D69736D617463680000000000000000000000000000000000000000000000 PUSH1 0x20 DUP3 ADD MSTORE POP JUMP JUMPDEST PUSH1 0x0 PUSH2 0x50A9 PUSH1 0x29 DUP4 PUSH2 0x41A5 JUMP JUMPDEST SWAP2 POP PUSH2 0x50B4 DUP3 PUSH2 0x504D JUMP JUMPDEST PUSH1 0x40 DUP3 ADD SWAP1 POP SWAP2 SWAP1 POP JUMP JUMPDEST PUSH1 0x0 PUSH1 0x20 DUP3 ADD SWAP1 POP DUP2 DUP2 SUB PUSH1 0x0 DUP4 ADD MSTORE PUSH2 0x50D8 DUP2 PUSH2 0x509C JUMP JUMPDEST SWAP1 POP SWAP2 SWAP1 POP JUMP JUMPDEST PUSH32 0x4E487B7100000000000000000000000000000000000000000000000000000000 PUSH1 0x0 MSTORE PUSH1 0x32 PUSH1 0x4 MSTORE PUSH1 0x24 PUSH1 0x0 REVERT JUMPDEST PUSH32 0x4E487B7100000000000000000000000000000000000000000000000000000000 PUSH1 0x0 MSTORE PUSH1 0x11 PUSH1 0x4 MSTORE PUSH1 0x24 PUSH1 0x0 REVERT JUMPDEST PUSH1 0x0 PUSH2 0x5148 DUP3 PUSH2 0x3FD9 JUMP JUMPDEST SWAP2 POP PUSH32 0xFFFFFFFFFFFFFFFFFFFFFFFFFFFFFFFFFFFFFFFFFFFFFFFFFFFFFFFFFFFFFFFF DUP3 SUB PUSH2 0x517A JUMPI PUSH2 0x5179 PUSH2 0x510E JUMP JUMPDEST JUMPDEST PUSH1 0x1 DUP3 ADD SWAP1 POP SWAP2 SWAP1 POP JUMP JUMPDEST PUSH32 0x496E76616C696420426F78494420706172616D657465722E0000000000000000 PUSH1 0x0 DUP3 ADD MSTORE POP JUMP JUMPDEST PUSH1 0x0 PUSH2 0x51BB PUSH1 0x18 DUP4 PUSH2 0x41A5 JUMP JUMPDEST SWAP2 POP PUSH2 0x51C6 DUP3 PUSH2 0x5185 JUMP JUMPDEST PUSH1 0x20 DUP3 ADD SWAP1 POP SWAP2 SWAP1 POP JUMP JUMPDEST PUSH1 0x0 PUSH1 0x20 DUP3 ADD SWAP1 POP DUP2 DUP2 SUB PUSH1 0x0 DUP4 ADD MSTORE PUSH2 0x51EA DUP2 PUSH2 0x51AE JUMP JUMPDEST SWAP1 POP SWAP2 SWAP1 POP JUMP JUMPDEST PUSH1 0x0 DUP2 PUSH1 0x1 SHR SWAP1 POP SWAP2 SWAP1 POP JUMP JUMPDEST PUSH1 0x0 DUP1 DUP3 SWAP2 POP DUP4 SWAP1 POP JUMPDEST PUSH1 0x1 DUP6 GT ISZERO PUSH2 0x5248 JUMPI DUP1 DUP7 DIV DUP2 GT ISZERO PUSH2 0x5224 JUMPI PUSH2 0x5223 PUSH2 0x510E JUMP JUMPDEST JUMPDEST PUSH1 0x1 DUP6 AND ISZERO PUSH2 0x5233 JUMPI DUP1 DUP3 MUL SWAP2 POP JUMPDEST DUP1 DUP2 MUL SWAP1 POP PUSH2 0x5241 DUP6 PUSH2 0x51F1 JUMP JUMPDEST SWAP5 POP PUSH2 0x5208 JUMP JUMPDEST SWAP5 POP SWAP5 SWAP3 POP POP POP JUMP JUMPDEST PUSH1 0x0 DUP3 PUSH2 0x5261 JUMPI PUSH1 0x1 SWAP1 POP PUSH2 0x531D JUMP JUMPDEST DUP2 PUSH2 0x526F JUMPI PUSH1 0x0 SWAP1 POP PUSH2 0x531D JUMP JUMPDEST DUP2 PUSH1 0x1 DUP2 EQ PUSH2 0x5285 JUMPI PUSH1 0x2 DUP2 EQ PUSH2 0x528F JUMPI PUSH2 0x52BE JUMP JUMPDEST PUSH1 0x1 SWAP2 POP POP PUSH2 0x531D JUMP JUMPDEST PUSH1 0xFF DUP5 GT ISZERO PUSH2 0x52A1 JUMPI PUSH2 0x52A0 PUSH2 0x510E JUMP JUMPDEST JUMPDEST DUP4 PUSH1 0x2 EXP SWAP2 POP DUP5 DUP3 GT ISZERO PUSH2 0x52B8 JUMPI PUSH2 0x52B7 PUSH2 0x510E JUMP JUMPDEST JUMPDEST POP PUSH2 0x531D JUMP JUMPDEST POP PUSH1 0x20 DUP4 LT PUSH2 0x133 DUP4 LT AND PUSH1 0x4E DUP5 LT PUSH1 0xB DUP5 LT AND OR ISZERO PUSH2 0x52F3 JUMPI DUP3 DUP3 EXP SWAP1 POP DUP4 DUP2 GT ISZERO PUSH2 0x52EE JUMPI PUSH2 0x52ED PUSH2 0x510E JUMP JUMPDEST JUMPDEST PUSH2 0x531D JUMP JUMPDEST PUSH2 0x5300 DUP5 DUP5 DUP5 PUSH1 0x1 PUSH2 0x51FE JUMP JUMPDEST SWAP3 POP SWAP1 POP DUP2 DUP5 DIV DUP2 GT ISZERO PUSH2 0x5317 JUMPI PUSH2 0x5316 PUSH2 0x510E JUMP JUMPDEST JUMPDEST DUP2 DUP2 MUL SWAP1 POP JUMPDEST SWAP4 SWAP3 POP POP POP JUMP JUMPDEST PUSH1 0x0 PUSH2 0x532F DUP3 PUSH2 0x3FD9 JUMP JUMPDEST SWAP2 POP PUSH2 0x533A DUP4 PUSH2 0x4877 JUMP JUMPDEST SWAP3 POP PUSH2 0x5367 PUSH32 0xFFFFFFFFFFFFFFFFFFFFFFFFFFFFFFFFFFFFFFFFFFFFFFFFFFFFFFFFFFFFFFFF DUP5 DUP5 PUSH2 0x5251 JUMP JUMPDEST SWAP1 POP SWAP3 SWAP2 POP POP JUMP JUMPDEST PUSH1 0x0 PUSH2 0x537A DUP3 PUSH2 0x3FD9 JUMP JUMPDEST SWAP2 POP PUSH2 0x5385 DUP4 PUSH2 0x3FD9 JUMP JUMPDEST SWAP3 POP DUP3 DUP3 MUL PUSH2 0x5393 DUP2 PUSH2 0x3FD9 JUMP JUMPDEST SWAP2 POP DUP3 DUP3 DIV DUP5 EQ DUP4 ISZERO OR PUSH2 0x53AA JUMPI PUSH2 0x53A9 PUSH2 0x510E JUMP JUMPDEST JUMPDEST POP SWAP3 SWAP2 POP POP JUMP JUMPDEST PUSH32 0x4E487B7100000000000000000000000000000000000000000000000000000000 PUSH1 0x0 MSTORE PUSH1 0x12 PUSH1 0x4 MSTORE PUSH1 0x24 PUSH1 0x0 REVERT JUMPDEST PUSH1 0x0 PUSH2 0x53EB DUP3 PUSH2 0x3FD9 JUMP JUMPDEST SWAP2 POP PUSH2 0x53F6 DUP4 PUSH2 0x3FD9 JUMP JUMPDEST SWAP3 POP DUP3 PUSH2 0x5406 JUMPI PUSH2 0x5405 PUSH2 0x53B1 JUMP JUMPDEST JUMPDEST DUP3 DUP3 DIV SWAP1 POP SWAP3 SWAP2 POP POP JUMP JUMPDEST PUSH1 0x0 DUP2 SWAP1 POP SWAP3 SWAP2 POP POP JUMP JUMPDEST PUSH32 0x4445560000000000000000000000000000000000000000000000000000000000 PUSH1 0x0 DUP3 ADD MSTORE POP JUMP JUMPDEST PUSH1 0x0 PUSH2 0x5452 PUSH1 0x3 DUP4 PUSH2 0x5411 JUMP JUMPDEST SWAP2 POP PUSH2 0x545D DUP3 PUSH2 0x541C JUMP JUMPDEST PUSH1 0x3 DUP3 ADD SWAP1 POP SWAP2 SWAP1 POP JUMP JUMPDEST PUSH1 0x0 PUSH2 0x5473 DUP3 PUSH2 0x5445 JUMP JUMPDEST SWAP2 POP DUP2 SWAP1 POP SWAP2 SWAP1 POP JUMP JUMPDEST PUSH1 0x0 PUSH2 0x5488 DUP3 PUSH2 0x419A JUMP JUMPDEST PUSH2 0x5492 DUP2 DUP6 PUSH2 0x5411 JUMP JUMPDEST SWAP4 POP PUSH2 0x54A2 DUP2 DUP6 PUSH1 0x20 DUP7 ADD PUSH2 0x41B6 JUMP JUMPDEST DUP1 DUP5 ADD SWAP2 POP POP SWAP3 SWAP2 POP POP JUMP JUMPDEST PUSH1 0x0 PUSH2 0x54BA DUP3 DUP5 PUSH2 0x547D JUMP JUMPDEST SWAP2 POP DUP2 SWAP1 POP SWAP3 SWAP2 POP POP JUMP JUMPDEST PUSH1 0x0 PUSH2 0x54D0 DUP3 PUSH2 0x3FD9 JUMP JUMPDEST SWAP2 POP PUSH2 0x54DB DUP4 PUSH2 0x3FD9 JUMP JUMPDEST SWAP3 POP DUP3 DUP3 SUB SWAP1 POP DUP2 DUP2 GT ISZERO PUSH2 0x54F3 JUMPI PUSH2 0x54F2 PUSH2 0x510E JUMP JUMPDEST JUMPDEST SWAP3 SWAP2 POP POP JUMP JUMPDEST PUSH1 0x0 PUSH2 0x5504 DUP3 PUSH2 0x3FD9 JUMP JUMPDEST SWAP2 POP PUSH2 0x550F DUP4 PUSH2 0x3FD9 JUMP JUMPDEST SWAP3 POP DUP3 DUP3 ADD SWAP1 POP DUP1 DUP3 GT ISZERO PUSH2 0x5527 JUMPI PUSH2 0x5526 PUSH2 0x510E JUMP JUMPDEST JUMPDEST SWAP3 SWAP2 POP POP JUMP JUMPDEST PUSH32 0x5744455600000000000000000000000000000000000000000000000000000000 PUSH1 0x0 DUP3 ADD MSTORE POP JUMP JUMPDEST PUSH1 0x0 PUSH2 0x5563 PUSH1 0x4 DUP4 PUSH2 0x5411 JUMP JUMPDEST SWAP2 POP PUSH2 0x556E DUP3 PUSH2 0x552D JUMP JUMPDEST PUSH1 0x4 DUP3 ADD SWAP1 POP SWAP2 SWAP1 POP JUMP JUMPDEST PUSH1 0x0 PUSH2 0x5584 DUP3 PUSH2 0x5556 JUMP JUMPDEST SWAP2 POP DUP2 SWAP1 POP SWAP2 SWAP1 POP JUMP JUMPDEST PUSH1 0x0 DUP2 SWAP1 POP SWAP3 SWAP2 POP POP JUMP JUMPDEST POP JUMP JUMPDEST PUSH1 0x0 PUSH2 0x55A9 PUSH1 0x0 DUP4 PUSH2 0x558E JUMP JUMPDEST SWAP2 POP PUSH2 0x55B4 DUP3 PUSH2 0x5599 JUMP JUMPDEST PUSH1 0x0 DUP3 ADD SWAP1 POP SWAP2 SWAP1 POP JUMP JUMPDEST PUSH1 0x0 PUSH2 0x55CA DUP3 PUSH2 0x559C JUMP JUMPDEST SWAP2 POP DUP2 SWAP1 POP SWAP2 SWAP1 POP JUMP JUMPDEST PUSH1 0x0 PUSH2 0x55EF PUSH2 0x55EA PUSH2 0x55E5 DUP5 PUSH2 0x4134 JUMP JUMPDEST PUSH2 0x495E JUMP JUMPDEST PUSH2 0x3FD9 JUMP JUMPDEST SWAP1 POP SWAP2 SWAP1 POP JUMP JUMPDEST PUSH2 0x55FF DUP2 PUSH2 0x55D4 JUMP JUMPDEST DUP3 MSTORE POP POP JUMP JUMPDEST PUSH1 0x0 PUSH1 0x60 DUP3 ADD SWAP1 POP PUSH2 0x561A PUSH1 0x0 DUP4 ADD DUP7 PUSH2 0x55F6 JUMP JUMPDEST PUSH2 0x5627 PUSH1 0x20 DUP4 ADD DUP6 PUSH2 0x404F JUMP JUMPDEST PUSH2 0x5634 PUSH1 0x40 DUP4 ADD DUP5 PUSH2 0x404F JUMP JUMPDEST SWAP5 SWAP4 POP POP POP POP JUMP JUMPDEST PUSH32 0x6D73672E76616C75652069732030000000000000000000000000000000000000 PUSH1 0x0 DUP3 ADD MSTORE POP JUMP JUMPDEST PUSH1 0x0 PUSH2 0x5672 PUSH1 0xE DUP4 PUSH2 0x41A5 JUMP JUMPDEST SWAP2 POP PUSH2 0x567D DUP3 PUSH2 0x563C JUMP JUMPDEST PUSH1 0x20 DUP3 ADD SWAP1 POP SWAP2 SWAP1 POP JUMP JUMPDEST PUSH1 0x0 PUSH1 0x20 DUP3 ADD SWAP1 POP DUP2 DUP2 SUB PUSH1 0x0 DUP4 ADD MSTORE PUSH2 0x56A1 DUP2 PUSH2 0x5665 JUMP JUMPDEST SWAP1 POP SWAP2 SWAP1 POP JUMP JUMPDEST PUSH1 0x0 DUP2 MLOAD SWAP1 POP PUSH2 0x56B7 DUP2 PUSH2 0x4B9E JUMP JUMPDEST SWAP3 SWAP2 POP POP JUMP JUMPDEST PUSH1 0x0 PUSH1 0x20 DUP3 DUP5 SUB SLT ISZERO PUSH2 0x56D3 JUMPI PUSH2 0x56D2 PUSH2 0x3F71 JUMP JUMPDEST JUMPDEST PUSH1 0x0 PUSH2 0x56E1 DUP5 DUP3 DUP6 ADD PUSH2 0x56A8 JUMP JUMPDEST SWAP2 POP POP SWAP3 SWAP2 POP POP JUMP JUMPDEST PUSH1 0x0 PUSH2 0x56F5 DUP3 PUSH2 0x4877 JUMP JUMPDEST SWAP2 POP PUSH2 0x5700 DUP4 PUSH2 0x4877 JUMP JUMPDEST SWAP3 POP DUP3 DUP3 SUB SWAP1 POP PUSH1 0xFF DUP2 GT ISZERO PUSH2 0x5719 JUMPI PUSH2 0x5718 PUSH2 0x510E JUMP JUMPDEST JUMPDEST SWAP3 SWAP2 POP POP JUMP JUMPDEST PUSH32 0x4F776E657220616363657373206F6E6C79000000000000000000000000000000 PUSH1 0x0 DUP3 ADD MSTORE POP JUMP JUMPDEST PUSH1 0x0 PUSH2 0x5755 PUSH1 0x11 DUP4 PUSH2 0x41A5 JUMP JUMPDEST SWAP2 POP PUSH2 0x5760 DUP3 PUSH2 0x571F JUMP JUMPDEST PUSH1 0x20 DUP3 ADD SWAP1 POP SWAP2 SWAP1 POP JUMP JUMPDEST PUSH1 0x0 PUSH1 0x20 DUP3 ADD SWAP1 POP DUP2 DUP2 SUB PUSH1 0x0 DUP4 ADD MSTORE PUSH2 0x5784 DUP2 PUSH2 0x5748 JUMP JUMPDEST SWAP1 POP SWAP2 SWAP1 POP JUMP JUMPDEST PUSH32 0x546F6B656E206E6F7420626F7820636F6D70617469626C652E00000000000000 PUSH1 0x0 DUP3 ADD MSTORE POP JUMP JUMPDEST PUSH1 0x0 PUSH2 0x57C1 PUSH1 0x19 DUP4 PUSH2 0x41A5 JUMP JUMPDEST SWAP2 POP PUSH2 0x57CC DUP3 PUSH2 0x578B JUMP JUMPDEST PUSH1 0x20 DUP3 ADD SWAP1 POP SWAP2 SWAP1 POP JUMP JUMPDEST PUSH1 0x0 PUSH1 0x20 DUP3 ADD SWAP1 POP DUP2 DUP2 SUB PUSH1 0x0 DUP4 ADD MSTORE PUSH2 0x57F0 DUP2 PUSH2 0x57B4 JUMP JUMPDEST SWAP1 POP SWAP2 SWAP1 POP JUMP JUMPDEST PUSH1 0x0 PUSH2 0x5802 DUP3 PUSH2 0x4877 JUMP JUMPDEST SWAP2 POP PUSH2 0x580D DUP4 PUSH2 0x4877 JUMP JUMPDEST SWAP3 POP DUP3 DUP3 ADD SWAP1 POP PUSH1 0xFF DUP2 GT ISZERO PUSH2 0x5826 JUMPI PUSH2 0x5825 PUSH2 0x510E JUMP JUMPDEST JUMPDEST SWAP3 SWAP2 POP POP JUMP JUMPDEST PUSH1 0x0 DUP2 SWAP1 POP DUP2 PUSH1 0x0 MSTORE PUSH1 0x20 PUSH1 0x0 KECCAK256 SWAP1 POP SWAP2 SWAP1 POP JUMP JUMPDEST PUSH1 0x0 PUSH1 0x20 PUSH1 0x1F DUP4 ADD DIV SWAP1 POP SWAP2 SWAP1 POP JUMP JUMPDEST PUSH1 0x0 DUP3 DUP3 SHL SWAP1 POP SWAP3 SWAP2 POP POP JUMP JUMPDEST PUSH1 0x0 PUSH1 0x8 DUP4 MUL PUSH2 0x588E PUSH32 0xFFFFFFFFFFFFFFFFFFFFFFFFFFFFFFFFFFFFFFFFFFFFFFFFFFFFFFFFFFFFFFFF DUP3 PUSH2 0x5851 JUMP JUMPDEST PUSH2 0x5898 DUP7 DUP4 PUSH2 0x5851 JUMP JUMPDEST SWAP6 POP DUP1 NOT DUP5 AND SWAP4 POP DUP1 DUP7 AND DUP5 OR SWAP3 POP POP POP SWAP4 SWAP3 POP POP POP JUMP JUMPDEST PUSH1 0x0 PUSH2 0x58CB PUSH2 0x58C6 PUSH2 0x58C1 DUP5 PUSH2 0x3FD9 JUMP JUMPDEST PUSH2 0x495E JUMP JUMPDEST PUSH2 0x3FD9 JUMP JUMPDEST SWAP1 POP SWAP2 SWAP1 POP JUMP JUMPDEST PUSH1 0x0 DUP2 SWAP1 POP SWAP2 SWAP1 POP JUMP JUMPDEST PUSH2 0x58E5 DUP4 PUSH2 0x58B0 JUMP JUMPDEST PUSH2 0x58F9 PUSH2 0x58F1 DUP3 PUSH2 0x58D2 JUMP JUMPDEST DUP5 DUP5 SLOAD PUSH2 0x585E JUMP JUMPDEST DUP3 SSTORE POP POP POP POP JUMP JUMPDEST PUSH1 0x0 SWAP1 JUMP JUMPDEST PUSH2 0x590E PUSH2 0x5901 JUMP JUMPDEST PUSH2 0x5919 DUP2 DUP5 DUP5 PUSH2 0x58DC JUMP JUMPDEST POP POP POP JUMP JUMPDEST JUMPDEST DUP2 DUP2 LT ISZERO PUSH2 0x593D JUMPI PUSH2 0x5932 PUSH1 0x0 DUP3 PUSH2 0x5906 JUMP JUMPDEST PUSH1 0x1 DUP2 ADD SWAP1 POP PUSH2 0x591F JUMP JUMPDEST POP POP JUMP JUMPDEST PUSH1 0x1F DUP3 GT ISZERO PUSH2 0x5982 JUMPI PUSH2 0x5953 DUP2 PUSH2 0x582C JUMP JUMPDEST PUSH2 0x595C DUP5 PUSH2 0x5841 JUMP JUMPDEST DUP2 ADD PUSH1 0x20 DUP6 LT ISZERO PUSH2 0x596B JUMPI DUP2 SWAP1 POP JUMPDEST PUSH2 0x597F PUSH2 0x5977 DUP6 PUSH2 0x5841 JUMP JUMPDEST DUP4 ADD DUP3 PUSH2 0x591E JUMP JUMPDEST POP POP JUMPDEST POP POP POP JUMP JUMPDEST PUSH1 0x0 DUP3 DUP3 SHR SWAP1 POP SWAP3 SWAP2 POP POP JUMP JUMPDEST PUSH1 0x0 PUSH2 0x59A5 PUSH1 0x0 NOT DUP5 PUSH1 0x8 MUL PUSH2 0x5987 JUMP JUMPDEST NOT DUP1 DUP4 AND SWAP2 POP POP SWAP3 SWAP2 POP POP JUMP JUMPDEST PUSH1 0x0 PUSH2 0x59BE DUP4 DUP4 PUSH2 0x5994 JUMP JUMPDEST SWAP2 POP DUP3 PUSH1 0x2 MUL DUP3 OR SWAP1 POP SWAP3 SWAP2 POP POP JUMP JUMPDEST PUSH2 0x59D7 DUP3 PUSH2 0x419A JUMP JUMPDEST PUSH8 0xFFFFFFFFFFFFFFFF DUP2 GT ISZERO PUSH2 0x59F0 JUMPI PUSH2 0x59EF PUSH2 0x42B2 JUMP JUMPDEST JUMPDEST PUSH2 0x59FA DUP3 SLOAD PUSH2 0x4E8C JUMP JUMPDEST PUSH2 0x5A05 DUP3 DUP3 DUP6 PUSH2 0x5941 JUMP JUMPDEST PUSH1 0x0 PUSH1 0x20 SWAP1 POP PUSH1 0x1F DUP4 GT PUSH1 0x1 DUP2 EQ PUSH2 0x5A38 JUMPI PUSH1 0x0 DUP5 ISZERO PUSH2 0x5A26 JUMPI DUP3 DUP8 ADD MLOAD SWAP1 POP JUMPDEST PUSH2 0x5A30 DUP6 DUP3 PUSH2 0x59B2 JUMP JUMPDEST DUP7 SSTORE POP PUSH2 0x5A98 JUMP JUMPDEST PUSH1 0x1F NOT DUP5 AND PUSH2 0x5A46 DUP7 PUSH2 0x582C JUMP JUMPDEST PUSH1 0x0 JUMPDEST DUP3 DUP2 LT ISZERO PUSH2 0x5A6E JUMPI DUP5 DUP10 ADD MLOAD DUP3 SSTORE PUSH1 0x1 DUP3 ADD SWAP2 POP PUSH1 0x20 DUP6 ADD SWAP5 POP PUSH1 0x20 DUP2 ADD SWAP1 POP PUSH2 0x5A49 JUMP JUMPDEST DUP7 DUP4 LT ISZERO PUSH2 0x5A8B JUMPI DUP5 DUP10 ADD MLOAD PUSH2 0x5A87 PUSH1 0x1F DUP10 AND DUP3 PUSH2 0x5994 JUMP JUMPDEST DUP4 SSTORE POP JUMPDEST PUSH1 0x1 PUSH1 0x2 DUP9 MUL ADD DUP9 SSTORE POP POP POP JUMPDEST POP POP POP POP POP POP JUMP JUMPDEST PUSH1 0x0 PUSH2 0x5AAB DUP3 PUSH2 0x4134 JUMP JUMPDEST SWAP2 POP PUSH3 0xFFFFFF DUP3 SUB PUSH2 0x5AC0 JUMPI PUSH2 0x5ABF PUSH2 0x510E JUMP JUMPDEST JUMPDEST PUSH1 0x1 DUP3 ADD SWAP1 POP SWAP2 SWAP1 POP JUMP JUMPDEST PUSH32 0x70657263656E7461676520213D20313030000000000000000000000000000000 PUSH1 0x0 DUP3 ADD MSTORE POP JUMP JUMPDEST PUSH1 0x0 PUSH2 0x5B01 PUSH1 0x11 DUP4 PUSH2 0x41A5 JUMP JUMPDEST SWAP2 POP PUSH2 0x5B0C DUP3 PUSH2 0x5ACB JUMP JUMPDEST PUSH1 0x20 DUP3 ADD SWAP1 POP SWAP2 SWAP1 POP JUMP JUMPDEST PUSH1 0x0 PUSH1 0x20 DUP3 ADD SWAP1 POP DUP2 DUP2 SUB PUSH1 0x0 DUP4 ADD MSTORE PUSH2 0x5B30 DUP2 PUSH2 0x5AF4 JUMP JUMPDEST SWAP1 POP SWAP2 SWAP1 POP JUMP JUMPDEST PUSH1 0x0 PUSH2 0x5B42 DUP3 PUSH2 0x4134 JUMP JUMPDEST SWAP2 POP PUSH2 0x5B4D DUP4 PUSH2 0x4134 JUMP JUMPDEST SWAP3 POP DUP3 DUP3 SUB SWAP1 POP PUSH3 0xFFFFFF DUP2 GT ISZERO PUSH2 0x5B68 JUMPI PUSH2 0x5B67 PUSH2 0x510E JUMP JUMPDEST JUMPDEST SWAP3 SWAP2 POP POP JUMP JUMPDEST PUSH32 0x455243313135353A2069647320616E6420616D6F756E7473206C656E67746820 PUSH1 0x0 DUP3 ADD MSTORE PUSH32 0x6D69736D61746368000000000000000000000000000000000000000000000000 PUSH1 0x20 DUP3 ADD MSTORE POP JUMP JUMPDEST PUSH1 0x0 PUSH2 0x5BCA PUSH1 0x28 DUP4 PUSH2 0x41A5 JUMP JUMPDEST SWAP2 POP PUSH2 0x5BD5 DUP3 PUSH2 0x5B6E JUMP JUMPDEST PUSH1 0x40 DUP3 ADD SWAP1 POP SWAP2 SWAP1 POP JUMP JUMPDEST PUSH1 0x0 PUSH1 0x20 DUP3 ADD SWAP1 POP DUP2 DUP2 SUB PUSH1 0x0 DUP4 ADD MSTORE PUSH2 0x5BF9 DUP2 PUSH2 0x5BBD JUMP JUMPDEST SWAP1 POP SWAP2 SWAP1 POP JUMP JUMPDEST PUSH32 0x455243313135353A207472616E7366657220746F20746865207A65726F206164 PUSH1 0x0 DUP3 ADD MSTORE PUSH32 0x6472657373000000000000000000000000000000000000000000000000000000 PUSH1 0x20 DUP3 ADD MSTORE POP JUMP JUMPDEST PUSH1 0x0 PUSH2 0x5C5C PUSH1 0x25 DUP4 PUSH2 0x41A5 JUMP JUMPDEST SWAP2 POP PUSH2 0x5C67 DUP3 PUSH2 0x5C00 JUMP JUMPDEST PUSH1 0x40 DUP3 ADD SWAP1 POP SWAP2 SWAP1 POP JUMP JUMPDEST PUSH1 0x0 PUSH1 0x20 DUP3 ADD SWAP1 POP DUP2 DUP2 SUB PUSH1 0x0 DUP4 ADD MSTORE PUSH2 0x5C8B DUP2 PUSH2 0x5C4F JUMP JUMPDEST SWAP1 POP SWAP2 SWAP1 POP JUMP JUMPDEST PUSH32 0x455243313135353A20696E73756666696369656E742062616C616E636520666F PUSH1 0x0 DUP3 ADD MSTORE PUSH32 0x72207472616E7366657200000000000000000000000000000000000000000000 PUSH1 0x20 DUP3 ADD MSTORE POP JUMP JUMPDEST PUSH1 0x0 PUSH2 0x5CEE PUSH1 0x2A DUP4 PUSH2 0x41A5 JUMP JUMPDEST SWAP2 POP PUSH2 0x5CF9 DUP3 PUSH2 0x5C92 JUMP JUMPDEST PUSH1 0x40 DUP3 ADD SWAP1 POP SWAP2 SWAP1 POP JUMP JUMPDEST PUSH1 0x0 PUSH1 0x20 DUP3 ADD SWAP1 POP DUP2 DUP2 SUB PUSH1 0x0 DUP4 ADD MSTORE PUSH2 0x5D1D DUP2 PUSH2 0x5CE1 JUMP JUMPDEST SWAP1 POP SWAP2 SWAP1 POP JUMP JUMPDEST PUSH1 0x0 PUSH1 0x40 DUP3 ADD SWAP1 POP DUP2 DUP2 SUB PUSH1 0x0 DUP4 ADD MSTORE PUSH2 0x5D3E DUP2 DUP6 PUSH2 0x4714 JUMP JUMPDEST SWAP1 POP DUP2 DUP2 SUB PUSH1 0x20 DUP4 ADD MSTORE PUSH2 0x5D52 DUP2 DUP5 PUSH2 0x4714 JUMP JUMPDEST SWAP1 POP SWAP4 SWAP3 POP POP POP JUMP JUMPDEST PUSH2 0x5D64 DUP2 PUSH2 0x3F9B JUMP JUMPDEST DUP3 MSTORE POP POP JUMP JUMPDEST PUSH2 0x5D73 DUP2 PUSH2 0x4134 JUMP JUMPDEST DUP3 MSTORE POP POP JUMP JUMPDEST PUSH2 0x5D82 DUP2 PUSH2 0x3F7B JUMP JUMPDEST DUP3 MSTORE POP POP JUMP JUMPDEST PUSH2 0x100 DUP3 ADD PUSH1 0x0 DUP3 ADD MLOAD PUSH2 0x5D9F PUSH1 0x0 DUP6 ADD DUP3 PUSH2 0x5D5B JUMP JUMPDEST POP PUSH1 0x20 DUP3 ADD MLOAD PUSH2 0x5DB2 PUSH1 0x20 DUP6 ADD DUP3 PUSH2 0x5D5B JUMP JUMPDEST POP PUSH1 0x40 DUP3 ADD MLOAD PUSH2 0x5DC5 PUSH1 0x40 DUP6 ADD DUP3 PUSH2 0x5D6A JUMP JUMPDEST POP PUSH1 0x60 DUP3 ADD MLOAD PUSH2 0x5DD8 PUSH1 0x60 DUP6 ADD DUP3 PUSH2 0x5D5B JUMP JUMPDEST POP PUSH1 0x80 DUP3 ADD MLOAD PUSH2 0x5DEB PUSH1 0x80 DUP6 ADD DUP3 PUSH2 0x46E0 JUMP JUMPDEST POP PUSH1 0xA0 DUP3 ADD MLOAD PUSH2 0x5DFE PUSH1 0xA0 DUP6 ADD DUP3 PUSH2 0x46E0 JUMP JUMPDEST POP PUSH1 0xC0 DUP3 ADD MLOAD PUSH2 0x5E11 PUSH1 0xC0 DUP6 ADD DUP3 PUSH2 0x46E0 JUMP JUMPDEST POP PUSH1 0xE0 DUP3 ADD MLOAD PUSH2 0x5E24 PUSH1 0xE0 DUP6 ADD DUP3 PUSH2 0x5D79 JUMP JUMPDEST POP POP POP POP JUMP JUMPDEST PUSH1 0x0 PUSH2 0x100 DUP3 ADD SWAP1 POP PUSH2 0x5E40 PUSH1 0x0 DUP4 ADD DUP5 PUSH2 0x5D88 JUMP JUMPDEST SWAP3 SWAP2 POP POP JUMP JUMPDEST PUSH1 0x0 PUSH1 0x20 DUP3 DUP5 SUB SLT ISZERO PUSH2 0x5E5C JUMPI PUSH2 0x5E5B PUSH2 0x3F71 JUMP JUMPDEST JUMPDEST PUSH1 0x0 PUSH2 0x5E6A DUP5 DUP3 DUP6 ADD PUSH2 0x4F2B JUMP JUMPDEST SWAP2 POP POP SWAP3 SWAP2 POP POP JUMP JUMPDEST PUSH32 0x455243313135353A206275726E2066726F6D20746865207A65726F2061646472 PUSH1 0x0 DUP3 ADD MSTORE PUSH32 0x6573730000000000000000000000000000000000000000000000000000000000 PUSH1 0x20 DUP3 ADD MSTORE POP JUMP JUMPDEST PUSH1 0x0 PUSH2 0x5ECF PUSH1 0x23 DUP4 PUSH2 0x41A5 JUMP JUMPDEST SWAP2 POP PUSH2 0x5EDA DUP3 PUSH2 0x5E73 JUMP JUMPDEST PUSH1 0x40 DUP3 ADD SWAP1 POP SWAP2 SWAP1 POP JUMP JUMPDEST PUSH1 0x0 PUSH1 0x20 DUP3 ADD SWAP1 POP DUP2 DUP2 SUB PUSH1 0x0 DUP4 ADD MSTORE PUSH2 0x5EFE DUP2 PUSH2 0x5EC2 JUMP JUMPDEST SWAP1 POP SWAP2 SWAP1 POP JUMP JUMPDEST PUSH32 0x455243313135353A206275726E20616D6F756E7420657863656564732062616C PUSH1 0x0 DUP3 ADD MSTORE PUSH32 0x616E636500000000000000000000000000000000000000000000000000000000 PUSH1 0x20 DUP3 ADD MSTORE POP JUMP JUMPDEST PUSH1 0x0 PUSH2 0x5F61 PUSH1 0x24 DUP4 PUSH2 0x41A5 JUMP JUMPDEST SWAP2 POP PUSH2 0x5F6C DUP3 PUSH2 0x5F05 JUMP JUMPDEST PUSH1 0x40 DUP3 ADD SWAP1 POP SWAP2 SWAP1 POP JUMP JUMPDEST PUSH1 0x0 PUSH1 0x20 DUP3 ADD SWAP1 POP DUP2 DUP2 SUB PUSH1 0x0 DUP4 ADD MSTORE PUSH2 0x5F90 DUP2 PUSH2 0x5F54 JUMP JUMPDEST SWAP1 POP SWAP2 SWAP1 POP JUMP JUMPDEST PUSH1 0x0 PUSH1 0x40 DUP3 ADD SWAP1 POP PUSH2 0x5FAC PUSH1 0x0 DUP4 ADD DUP6 PUSH2 0x404F JUMP JUMPDEST PUSH2 0x5FB9 PUSH1 0x20 DUP4 ADD DUP5 PUSH2 0x404F JUMP JUMPDEST SWAP4 SWAP3 POP POP POP JUMP JUMPDEST PUSH32 0x455243313135353A206D696E7420746F20746865207A65726F20616464726573 PUSH1 0x0 DUP3 ADD MSTORE PUSH32 0x7300000000000000000000000000000000000000000000000000000000000000 PUSH1 0x20 DUP3 ADD MSTORE POP JUMP JUMPDEST PUSH1 0x0 PUSH2 0x601C PUSH1 0x21 DUP4 PUSH2 0x41A5 JUMP JUMPDEST SWAP2 POP PUSH2 0x6027 DUP3 PUSH2 0x5FC0 JUMP JUMPDEST PUSH1 0x40 DUP3 ADD SWAP1 POP SWAP2 SWAP1 POP JUMP JUMPDEST PUSH1 0x0 PUSH1 0x20 DUP3 ADD SWAP1 POP DUP2 DUP2 SUB PUSH1 0x0 DUP4 ADD MSTORE PUSH2 0x604B DUP2 PUSH2 0x600F JUMP JUMPDEST SWAP1 POP SWAP2 SWAP1 POP JUMP JUMPDEST PUSH32 0x455243313135353A2073657474696E6720617070726F76616C20737461747573 PUSH1 0x0 DUP3 ADD MSTORE PUSH32 0x20666F722073656C660000000000000000000000000000000000000000000000 PUSH1 0x20 DUP3 ADD MSTORE POP JUMP JUMPDEST PUSH1 0x0 PUSH2 0x60AE PUSH1 0x29 DUP4 PUSH2 0x41A5 JUMP JUMPDEST SWAP2 POP PUSH2 0x60B9 DUP3 PUSH2 0x6052 JUMP JUMPDEST PUSH1 0x40 DUP3 ADD SWAP1 POP SWAP2 SWAP1 POP JUMP JUMPDEST PUSH1 0x0 PUSH1 0x20 DUP3 ADD SWAP1 POP DUP2 DUP2 SUB PUSH1 0x0 DUP4 ADD MSTORE PUSH2 0x60DD DUP2 PUSH2 0x60A1 JUMP JUMPDEST SWAP1 POP SWAP2 SWAP1 POP JUMP JUMPDEST PUSH2 0x60ED DUP2 PUSH2 0x3F9B JUMP JUMPDEST DUP3 MSTORE POP POP JUMP JUMPDEST PUSH1 0x0 DUP2 MLOAD SWAP1 POP SWAP2 SWAP1 POP JUMP JUMPDEST PUSH1 0x0 DUP3 DUP3 MSTORE PUSH1 0x20 DUP3 ADD SWAP1 POP SWAP3 SWAP2 POP POP JUMP JUMPDEST PUSH1 0x0 PUSH2 0x611A DUP3 PUSH2 0x60F3 JUMP JUMPDEST PUSH2 0x6124 DUP2 DUP6 PUSH2 0x60FE JUMP JUMPDEST SWAP4 POP PUSH2 0x6134 DUP2 DUP6 PUSH1 0x20 DUP7 ADD PUSH2 0x41B6 JUMP JUMPDEST PUSH2 0x613D DUP2 PUSH2 0x41E0 JUMP JUMPDEST DUP5 ADD SWAP2 POP POP SWAP3 SWAP2 POP POP JUMP JUMPDEST PUSH1 0x0 PUSH1 0xA0 DUP3 ADD SWAP1 POP PUSH2 0x615D PUSH1 0x0 DUP4 ADD DUP9 PUSH2 0x60E4 JUMP JUMPDEST PUSH2 0x616A PUSH1 0x20 DUP4 ADD DUP8 PUSH2 0x60E4 JUMP JUMPDEST DUP2 DUP2 SUB PUSH1 0x40 DUP4 ADD MSTORE PUSH2 0x617C DUP2 DUP7 PUSH2 0x4714 JUMP JUMPDEST SWAP1 POP DUP2 DUP2 SUB PUSH1 0x60 DUP4 ADD MSTORE PUSH2 0x6190 DUP2 DUP6 PUSH2 0x4714 JUMP JUMPDEST SWAP1 POP DUP2 DUP2 SUB PUSH1 0x80 DUP4 ADD MSTORE PUSH2 0x61A4 DUP2 DUP5 PUSH2 0x610F JUMP JUMPDEST SWAP1 POP SWAP7 SWAP6 POP POP POP POP POP POP JUMP JUMPDEST PUSH1 0x0 DUP2 MLOAD SWAP1 POP PUSH2 0x61BF DUP2 PUSH2 0x40A5 JUMP JUMPDEST SWAP3 SWAP2 POP POP JUMP JUMPDEST PUSH1 0x0 PUSH1 0x20 DUP3 DUP5 SUB SLT ISZERO PUSH2 0x61DB JUMPI PUSH2 0x61DA PUSH2 0x3F71 JUMP JUMPDEST JUMPDEST PUSH1 0x0 PUSH2 0x61E9 DUP5 DUP3 DUP6 ADD PUSH2 0x61B0 JUMP JUMPDEST SWAP2 POP POP SWAP3 SWAP2 POP POP JUMP JUMPDEST PUSH1 0x0 DUP2 PUSH1 0xE0 SHR SWAP1 POP SWAP2 SWAP1 POP JUMP JUMPDEST PUSH1 0x0 PUSH1 0x3 RETURNDATASIZE GT ISZERO PUSH2 0x621E JUMPI PUSH1 0x4 PUSH1 0x0 DUP1 RETURNDATACOPY PUSH2 0x621B PUSH1 0x0 MLOAD PUSH2 0x61F2 JUMP JUMPDEST SWAP1 POP JUMPDEST SWAP1 JUMP JUMPDEST PUSH1 0x0 PUSH1 0x44 RETURNDATASIZE LT PUSH2 0x62AE JUMPI PUSH2 0x6233 PUSH2 0x3F67 JUMP JUMPDEST PUSH1 0x4 RETURNDATASIZE SUB PUSH1 0x4 DUP3 RETURNDATACOPY DUP1 MLOAD RETURNDATASIZE PUSH1 0x24 DUP3 ADD GT PUSH8 0xFFFFFFFFFFFFFFFF DUP3 GT OR ISZERO PUSH2 0x625B JUMPI POP POP PUSH2 0x62AE JUMP JUMPDEST DUP1 DUP3 ADD DUP1 MLOAD PUSH8 0xFFFFFFFFFFFFFFFF DUP2 GT ISZERO PUSH2 0x6279 JUMPI POP POP POP POP PUSH2 0x62AE JUMP JUMPDEST DUP1 PUSH1 0x20 DUP4 ADD ADD PUSH1 0x4 RETURNDATASIZE SUB DUP6 ADD DUP2 GT ISZERO PUSH2 0x6296 JUMPI POP POP POP POP POP PUSH2 0x62AE JUMP JUMPDEST PUSH2 0x62A5 DUP3 PUSH1 0x20 ADD DUP6 ADD DUP7 PUSH2 0x42E1 JUMP JUMPDEST DUP3 SWAP6 POP POP POP POP POP POP JUMPDEST SWAP1 JUMP JUMPDEST PUSH32 0x455243313135353A207472616E7366657220746F206E6F6E2D45524331313535 PUSH1 0x0 DUP3 ADD MSTORE PUSH32 0x526563656976657220696D706C656D656E746572000000000000000000000000 PUSH1 0x20 DUP3 ADD MSTORE POP JUMP JUMPDEST PUSH1 0x0 PUSH2 0x630D PUSH1 0x34 DUP4 PUSH2 0x41A5 JUMP JUMPDEST SWAP2 POP PUSH2 0x6318 DUP3 PUSH2 0x62B1 JUMP JUMPDEST PUSH1 0x40 DUP3 ADD SWAP1 POP SWAP2 SWAP1 POP JUMP JUMPDEST PUSH1 0x0 PUSH1 0x20 DUP3 ADD SWAP1 POP DUP2 DUP2 SUB PUSH1 0x0 DUP4 ADD MSTORE PUSH2 0x633C DUP2 PUSH2 0x6300 JUMP JUMPDEST SWAP1 POP SWAP2 SWAP1 POP JUMP JUMPDEST PUSH32 0x455243313135353A204552433131353552656365697665722072656A65637465 PUSH1 0x0 DUP3 ADD MSTORE PUSH32 0x6420746F6B656E73000000000000000000000000000000000000000000000000 PUSH1 0x20 DUP3 ADD MSTORE POP JUMP JUMPDEST PUSH1 0x0 PUSH2 0x639F PUSH1 0x28 DUP4 PUSH2 0x41A5 JUMP JUMPDEST SWAP2 POP PUSH2 0x63AA DUP3 PUSH2 0x6343 JUMP JUMPDEST PUSH1 0x40 DUP3 ADD SWAP1 POP SWAP2 SWAP1 POP JUMP JUMPDEST PUSH1 0x0 PUSH1 0x20 DUP3 ADD SWAP1 POP DUP2 DUP2 SUB PUSH1 0x0 DUP4 ADD MSTORE PUSH2 0x63CE DUP2 PUSH2 0x6392 JUMP JUMPDEST SWAP1 POP SWAP2 SWAP1 POP JUMP JUMPDEST PUSH1 0x0 PUSH1 0x40 DUP3 ADD SWAP1 POP PUSH2 0x63EA PUSH1 0x0 DUP4 ADD DUP6 PUSH2 0x60E4 JUMP JUMPDEST PUSH2 0x63F7 PUSH1 0x20 DUP4 ADD DUP5 PUSH2 0x404F JUMP JUMPDEST SWAP4 SWAP3 POP POP POP JUMP JUMPDEST PUSH1 0x0 PUSH2 0x6409 DUP3 PUSH2 0x60F3 JUMP JUMPDEST PUSH2 0x6413 DUP2 DUP6 PUSH2 0x558E JUMP JUMPDEST SWAP4 POP PUSH2 0x6423 DUP2 DUP6 PUSH1 0x20 DUP7 ADD PUSH2 0x41B6 JUMP JUMPDEST DUP1 DUP5 ADD SWAP2 POP POP SWAP3 SWAP2 POP POP JUMP JUMPDEST PUSH1 0x0 PUSH2 0x643B DUP3 DUP5 PUSH2 0x63FE JUMP JUMPDEST SWAP2 POP DUP2 SWAP1 POP SWAP3 SWAP2 POP POP JUMP JUMPDEST PUSH1 0x0 DUP2 MLOAD SWAP1 POP PUSH2 0x6455 DUP2 PUSH2 0x48F2 JUMP JUMPDEST SWAP3 SWAP2 POP POP JUMP JUMPDEST PUSH1 0x0 PUSH1 0x20 DUP3 DUP5 SUB SLT ISZERO PUSH2 0x6471 JUMPI PUSH2 0x6470 PUSH2 0x3F71 JUMP JUMPDEST JUMPDEST PUSH1 0x0 PUSH2 0x647F DUP5 DUP3 DUP6 ADD PUSH2 0x6446 JUMP JUMPDEST SWAP2 POP POP SWAP3 SWAP2 POP POP JUMP JUMPDEST PUSH32 0x5341000000000000000000000000000000000000000000000000000000000000 PUSH1 0x0 DUP3 ADD MSTORE POP JUMP JUMPDEST PUSH1 0x0 PUSH2 0x64BE PUSH1 0x2 DUP4 PUSH2 0x41A5 JUMP JUMPDEST SWAP2 POP PUSH2 0x64C9 DUP3 PUSH2 0x6488 JUMP JUMPDEST PUSH1 0x20 DUP3 ADD SWAP1 POP SWAP2 SWAP1 POP JUMP JUMPDEST PUSH1 0x0 PUSH1 0x20 DUP3 ADD SWAP1 POP DUP2 DUP2 SUB PUSH1 0x0 DUP4 ADD MSTORE PUSH2 0x64ED DUP2 PUSH2 0x64B1 JUMP JUMPDEST SWAP1 POP SWAP2 SWAP1 POP JUMP JUMPDEST PUSH1 0x0 PUSH1 0xA0 DUP3 ADD SWAP1 POP PUSH2 0x6509 PUSH1 0x0 DUP4 ADD DUP9 PUSH2 0x60E4 JUMP JUMPDEST PUSH2 0x6516 PUSH1 0x20 DUP4 ADD DUP8 PUSH2 0x60E4 JUMP JUMPDEST PUSH2 0x6523 PUSH1 0x40 DUP4 ADD DUP7 PUSH2 0x404F JUMP JUMPDEST PUSH2 0x6530 PUSH1 0x60 DUP4 ADD DUP6 PUSH2 0x404F JUMP JUMPDEST DUP2 DUP2 SUB PUSH1 0x80 DUP4 ADD MSTORE PUSH2 0x6542 DUP2 DUP5 PUSH2 0x610F JUMP JUMPDEST SWAP1 POP SWAP7 SWAP6 POP POP POP POP POP POP JUMP JUMPDEST PUSH32 0x455243313135353A206275726E20616D6F756E74206578636565647320746F74 PUSH1 0x0 DUP3 ADD MSTORE PUSH32 0x616C537570706C79000000000000000000000000000000000000000000000000 PUSH1 0x20 DUP3 ADD MSTORE POP JUMP JUMPDEST PUSH1 0x0 PUSH2 0x65AA PUSH1 0x28 DUP4 PUSH2 0x41A5 JUMP JUMPDEST SWAP2 POP PUSH2 0x65B5 DUP3 PUSH2 0x654E JUMP JUMPDEST PUSH1 0x40 DUP3 ADD SWAP1 POP SWAP2 SWAP1 POP JUMP JUMPDEST PUSH1 0x0 PUSH1 0x20 DUP3 ADD SWAP1 POP DUP2 DUP2 SUB PUSH1 0x0 DUP4 ADD MSTORE PUSH2 0x65D9 DUP2 PUSH2 0x659D JUMP JUMPDEST SWAP1 POP SWAP2 SWAP1 POP JUMP INVALID LOG2 PUSH5 0x6970667358 0x22 SLT KECCAK256 0xD4 0xF9 0xF9 INVALID 0xD8 SWAP10 0x2D DUP10 0x29 LOG0 ADD 0xDC PUSH25 0xEA8770DD9F55EEADF78AE67AC55D2CBB58F5C064736F6C6343 STOP ADDMOD SLT STOP CALLER "},"methodIdentifiers":{"addToken(string,address,address)":"d863d544","balanceOf(address,uint256)":"00fdd58e","balanceOfBatch(address[],uint256[])":"4e1273f4","boxBalance(uint24,address)":"deada803","buy(uint24)":"9fe204b6","createBox((string,uint8)[])":"efb2e2aa","exists(uint256)":"4f558e79","getBoxDistribution(uint24,uint256)":"92a90a87","getBoxTVL(uint24)":"d772927c","getBoxTokenPrice(uint24)":"8cbc8b07","getLatestPrice(address)":"16345f18","getNumberOfTokensInBox(uint24)":"5f51cca4","isApprovedForAll(address,address)":"e985e9c5","poolFee()":"089fe6aa","safeBatchTransferFrom(address,address,uint256[],uint256[],bytes)":"2eb2c2d6","safeTransferFrom(address,address,uint256,uint256,bytes)":"f242432a","sell(uint24,uint256)":"991f6826","setApprovalForAll(address,bool)":"a22cb465","supportsInterface(bytes4)":"01ffc9a7","swapRouter()":"c31c9c07","totalSupply(uint256)":"bd85b039","uri(uint256)":"0e89341c"}}}}}