{
  "_format": "hh-sol-artifact-1",
  "contractName": "BoxDefi",
  "sourceName": "contracts/Safe.sol",
  "abi": [
    {
      "inputs": [],
      "stateMutability": "nonpayable",
      "type": "constructor"
    },
    {
      "anonymous": false,
      "inputs": [
        {
          "indexed": true,
          "internalType": "address",
          "name": "account",
          "type": "address"
        },
        {
          "indexed": true,
          "internalType": "address",
          "name": "operator",
          "type": "address"
        },
        {
          "indexed": false,
          "internalType": "bool",
          "name": "approved",
          "type": "bool"
        }
      ],
      "name": "ApprovalForAll",
      "type": "event"
    },
    {
      "anonymous": false,
      "inputs": [
        {
          "indexed": false,
          "internalType": "uint256",
          "name": "boxId",
          "type": "uint256"
        },
        {
          "indexed": false,
          "internalType": "uint256",
          "name": "buyAmount",
          "type": "uint256"
        },
        {
          "indexed": false,
          "internalType": "uint256",
          "name": "boxTokenReceived",
          "type": "uint256"
        }
      ],
      "name": "Buy",
      "type": "event"
    },
    {
      "anonymous": false,
      "inputs": [
        {
          "indexed": false,
          "internalType": "uint256",
          "name": "boxId",
          "type": "uint256"
        },
        {
          "indexed": false,
          "internalType": "uint256",
          "name": "sellAmount",
          "type": "uint256"
        },
        {
          "indexed": false,
          "internalType": "uint256",
          "name": "amountReceived",
          "type": "uint256"
        }
      ],
      "name": "Sell",
      "type": "event"
    },
    {
      "anonymous": false,
      "inputs": [
        {
          "indexed": false,
          "internalType": "uint256",
          "name": "amountIn",
          "type": "uint256"
        },
        {
          "indexed": false,
          "internalType": "uint256",
          "name": "amountOut",
          "type": "uint256"
        }
      ],
      "name": "TokenSwapped",
      "type": "event"
    },
    {
      "anonymous": false,
      "inputs": [
        {
          "indexed": true,
          "internalType": "address",
          "name": "operator",
          "type": "address"
        },
        {
          "indexed": true,
          "internalType": "address",
          "name": "from",
          "type": "address"
        },
        {
          "indexed": true,
          "internalType": "address",
          "name": "to",
          "type": "address"
        },
        {
          "indexed": false,
          "internalType": "uint256[]",
          "name": "ids",
          "type": "uint256[]"
        },
        {
          "indexed": false,
          "internalType": "uint256[]",
          "name": "values",
          "type": "uint256[]"
        }
      ],
      "name": "TransferBatch",
      "type": "event"
    },
    {
      "anonymous": false,
      "inputs": [
        {
          "indexed": true,
          "internalType": "address",
          "name": "operator",
          "type": "address"
        },
        {
          "indexed": true,
          "internalType": "address",
          "name": "from",
          "type": "address"
        },
        {
          "indexed": true,
          "internalType": "address",
          "name": "to",
          "type": "address"
        },
        {
          "indexed": false,
          "internalType": "uint256",
          "name": "id",
          "type": "uint256"
        },
        {
          "indexed": false,
          "internalType": "uint256",
          "name": "value",
          "type": "uint256"
        }
      ],
      "name": "TransferSingle",
      "type": "event"
    },
    {
      "anonymous": false,
      "inputs": [
        {
          "indexed": false,
          "internalType": "string",
          "name": "value",
          "type": "string"
        },
        {
          "indexed": true,
          "internalType": "uint256",
          "name": "id",
          "type": "uint256"
        }
      ],
      "name": "URI",
      "type": "event"
    },
    {
      "inputs": [
        {
          "internalType": "string",
          "name": "_tokenSymbol",
          "type": "string"
        },
        {
          "internalType": "address",
          "name": "_tokenAddress",
          "type": "address"
        },
        {
          "internalType": "address",
          "name": "_tokenPriceFeed",
          "type": "address"
        }
      ],
      "name": "addToken",
      "outputs": [],
      "stateMutability": "nonpayable",
      "type": "function"
    },
    {
      "inputs": [
        {
          "internalType": "address",
          "name": "account",
          "type": "address"
        },
        {
          "internalType": "uint256",
          "name": "id",
          "type": "uint256"
        }
      ],
      "name": "balanceOf",
      "outputs": [
        {
          "internalType": "uint256",
          "name": "",
          "type": "uint256"
        }
      ],
      "stateMutability": "view",
      "type": "function"
    },
    {
      "inputs": [
        {
          "internalType": "address[]",
          "name": "accounts",
          "type": "address[]"
        },
        {
          "internalType": "uint256[]",
          "name": "ids",
          "type": "uint256[]"
        }
      ],
      "name": "balanceOfBatch",
      "outputs": [
        {
          "internalType": "uint256[]",
          "name": "",
          "type": "uint256[]"
        }
      ],
      "stateMutability": "view",
      "type": "function"
    },
    {
      "inputs": [
        {
          "internalType": "uint24",
          "name": "",
          "type": "uint24"
        },
        {
          "internalType": "address",
          "name": "",
          "type": "address"
        }
      ],
      "name": "boxBalance",
      "outputs": [
        {
          "internalType": "uint256",
          "name": "",
          "type": "uint256"
        }
      ],
      "stateMutability": "view",
      "type": "function"
    },
    {
      "inputs": [
        {
          "internalType": "uint24",
          "name": "boxId",
          "type": "uint24"
        }
      ],
      "name": "buy",
      "outputs": [
        {
          "internalType": "uint256",
          "name": "boxTokenMinted",
          "type": "uint256"
        }
      ],
      "stateMutability": "payable",
      "type": "function"
    },
    {
      "inputs": [
        {
          "internalType": "uint256",
          "name": "id",
          "type": "uint256"
        }
      ],
      "name": "exists",
      "outputs": [
        {
          "internalType": "bool",
          "name": "",
          "type": "bool"
        }
      ],
      "stateMutability": "view",
      "type": "function"
    },
    {
      "inputs": [
        {
          "internalType": "address",
          "name": "_tokenPriceFeed",
          "type": "address"
        }
      ],
      "name": "getLatestPrice",
      "outputs": [
        {
          "internalType": "int256",
          "name": "",
          "type": "int256"
        }
      ],
      "stateMutability": "view",
      "type": "function"
    },
    {
      "inputs": [
        {
          "internalType": "uint24",
          "name": "boxId",
          "type": "uint24"
        }
      ],
      "name": "getNumberOfTokensInBox",
      "outputs": [
        {
          "internalType": "uint256",
          "name": "",
          "type": "uint256"
        }
      ],
      "stateMutability": "view",
      "type": "function"
    },
    {
      "inputs": [
        {
          "internalType": "address",
          "name": "account",
          "type": "address"
        },
        {
          "internalType": "address",
          "name": "operator",
          "type": "address"
        }
      ],
      "name": "isApprovedForAll",
      "outputs": [
        {
          "internalType": "bool",
          "name": "",
          "type": "bool"
        }
      ],
      "stateMutability": "view",
      "type": "function"
    },
    {
      "inputs": [],
      "name": "poolFee",
      "outputs": [
        {
          "internalType": "uint24",
          "name": "",
          "type": "uint24"
        }
      ],
      "stateMutability": "view",
      "type": "function"
    },
    {
      "inputs": [
        {
          "internalType": "address",
          "name": "from",
          "type": "address"
        },
        {
          "internalType": "address",
          "name": "to",
          "type": "address"
        },
        {
          "internalType": "uint256[]",
          "name": "ids",
          "type": "uint256[]"
        },
        {
          "internalType": "uint256[]",
          "name": "amounts",
          "type": "uint256[]"
        },
        {
          "internalType": "bytes",
          "name": "data",
          "type": "bytes"
        }
      ],
      "name": "safeBatchTransferFrom",
      "outputs": [],
      "stateMutability": "nonpayable",
      "type": "function"
    },
    {
      "inputs": [
        {
          "internalType": "address",
          "name": "from",
          "type": "address"
        },
        {
          "internalType": "address",
          "name": "to",
          "type": "address"
        },
        {
          "internalType": "uint256",
          "name": "id",
          "type": "uint256"
        },
        {
          "internalType": "uint256",
          "name": "amount",
          "type": "uint256"
        },
        {
          "internalType": "bytes",
          "name": "data",
          "type": "bytes"
        }
      ],
      "name": "safeTransferFrom",
      "outputs": [],
      "stateMutability": "nonpayable",
      "type": "function"
    },
    {
      "inputs": [
        {
          "internalType": "uint24",
          "name": "boxId",
          "type": "uint24"
        },
        {
          "internalType": "uint256",
          "name": "amount",
          "type": "uint256"
        }
      ],
      "name": "sell",
      "outputs": [],
      "stateMutability": "nonpayable",
      "type": "function"
    },
    {
      "inputs": [
        {
          "internalType": "address",
          "name": "operator",
          "type": "address"
        },
        {
          "internalType": "bool",
          "name": "approved",
          "type": "bool"
        }
      ],
      "name": "setApprovalForAll",
      "outputs": [],
      "stateMutability": "nonpayable",
      "type": "function"
    },
    {
      "inputs": [
        {
          "internalType": "bytes4",
          "name": "interfaceId",
          "type": "bytes4"
        }
      ],
      "name": "supportsInterface",
      "outputs": [
        {
          "internalType": "bool",
          "name": "",
          "type": "bool"
        }
      ],
      "stateMutability": "view",
      "type": "function"
    },
    {
      "inputs": [],
      "name": "swapRouter",
      "outputs": [
        {
          "internalType": "contract ISwapRouter",
          "name": "",
          "type": "address"
        }
      ],
      "stateMutability": "view",
      "type": "function"
    },
    {
      "inputs": [
        {
          "internalType": "address",
          "name": "_tokenIn",
          "type": "address"
        },
        {
          "internalType": "address",
          "name": "_tokenOut",
          "type": "address"
        },
        {
          "internalType": "uint256",
          "name": "_amountIn",
          "type": "uint256"
        },
        {
          "internalType": "uint256",
          "name": "_amountOutMin",
          "type": "uint256"
        },
        {
          "internalType": "uint160",
          "name": "_sqrtPriceLimitX96",
          "type": "uint160"
        }
      ],
      "name": "swapTokens",
      "outputs": [
        {
          "internalType": "uint256",
          "name": "amountOut",
          "type": "uint256"
        }
      ],
      "stateMutability": "nonpayable",
      "type": "function"
    },
    {
      "inputs": [
        {
          "internalType": "uint256",
          "name": "id",
          "type": "uint256"
        }
      ],
      "name": "totalSupply",
      "outputs": [
        {
          "internalType": "uint256",
          "name": "",
          "type": "uint256"
        }
      ],
      "stateMutability": "view",
      "type": "function"
    },
    {
      "inputs": [
        {
          "internalType": "uint256",
          "name": "",
          "type": "uint256"
        }
      ],
      "name": "uri",
      "outputs": [
        {
          "internalType": "string",
          "name": "",
          "type": "string"
        }
      ],
      "stateMutability": "view",
      "type": "function"
    }
  ],
  "bytecode": "0x60a06040523480156200001157600080fd5b506040518060400160405280600181526020017f20000000000000000000000000000000000000000000000000000000000000008152506200005981620002a660201b60201c565b5033600560006101000a81548173ffffffffffffffffffffffffffffffffffffffff021916908373ffffffffffffffffffffffffffffffffffffffff16021790555073e592427a0aece92de3edee1f18e0157c0586156473ffffffffffffffffffffffffffffffffffffffff1660808173ffffffffffffffffffffffffffffffffffffffff168152505073a39d8684b8cd74821db73deeb4836ea46e145300600a60006101000a81548173ffffffffffffffffffffffffffffffffffffffff021916908373ffffffffffffffffffffffffffffffffffffffff160217905550620001a36040518060400160405280600381526020017f44455600000000000000000000000000000000000000000000000000000000008152506000600a60009054906101000a900473ffffffffffffffffffffffffffffffffffffffff16620002bb60201b60201c565b620002216040518060400160405280600481526020017f5744455600000000000000000000000000000000000000000000000000000000815250737128af8f5aa6abe92b5f9ba9545146027a995b16600a60009054906101000a900473ffffffffffffffffffffffffffffffffffffffff16620002bb60201b60201c565b600860405162000231906200046c565b908152602001604051809103902060009054906101000a900473ffffffffffffffffffffffffffffffffffffffff16600460006101000a81548173ffffffffffffffffffffffffffffffffffffffff021916908373ffffffffffffffffffffffffffffffffffffffff160217905550620008e3565b8060029081620002b79190620006fd565b5050565b600560009054906101000a900473ffffffffffffffffffffffffffffffffffffffff1673ffffffffffffffffffffffffffffffffffffffff163373ffffffffffffffffffffffffffffffffffffffff16146200034e576040517f08c379a0000000000000000000000000000000000000000000000000000000008152600401620003459062000845565b60405180910390fd5b81600884604051620003619190620008ca565b908152602001604051809103902060006101000a81548173ffffffffffffffffffffffffffffffffffffffff021916908373ffffffffffffffffffffffffffffffffffffffff16021790555080600984604051620003c09190620008ca565b908152602001604051809103902060006101000a81548173ffffffffffffffffffffffffffffffffffffffff021916908373ffffffffffffffffffffffffffffffffffffffff160217905550505050565b600081905092915050565b7f5744455600000000000000000000000000000000000000000000000000000000600082015250565b60006200045460048362000411565b915062000461826200041c565b600482019050919050565b6000620004798262000445565b9150819050919050565b600081519050919050565b7f4e487b7100000000000000000000000000000000000000000000000000000000600052604160045260246000fd5b7f4e487b7100000000000000000000000000000000000000000000000000000000600052602260045260246000fd5b600060028204905060018216806200050557607f821691505b6020821081036200051b576200051a620004bd565b5b50919050565b60008190508160005260206000209050919050565b60006020601f8301049050919050565b600082821b905092915050565b600060088302620005857fffffffffffffffffffffffffffffffffffffffffffffffffffffffffffffffff8262000546565b62000591868362000546565b95508019841693508086168417925050509392505050565b6000819050919050565b6000819050919050565b6000620005de620005d8620005d284620005a9565b620005b3565b620005a9565b9050919050565b6000819050919050565b620005fa83620005bd565b620006126200060982620005e5565b84845462000553565b825550505050565b600090565b620006296200061a565b62000636818484620005ef565b505050565b5b818110156200065e57620006526000826200061f565b6001810190506200063c565b5050565b601f821115620006ad57620006778162000521565b620006828462000536565b8101602085101562000692578190505b620006aa620006a18562000536565b8301826200063b565b50505b505050565b600082821c905092915050565b6000620006d260001984600802620006b2565b1980831691505092915050565b6000620006ed8383620006bf565b9150826002028217905092915050565b620007088262000483565b67ffffffffffffffff8111156200072457620007236200048e565b5b620007308254620004ec565b6200073d82828562000662565b600060209050601f83116001811462000775576000841562000760578287015190505b6200076c8582620006df565b865550620007dc565b601f198416620007858662000521565b60005b82811015620007af5784890151825560018201915060208501945060208101905062000788565b86831015620007cf5784890151620007cb601f891682620006bf565b8355505b6001600288020188555050505b505050505050565b600082825260208201905092915050565b7f4f776e657220616363657373206f6e6c79000000000000000000000000000000600082015250565b60006200082d601183620007e4565b91506200083a82620007f5565b602082019050919050565b6000602082019050818103600083015262000860816200081e565b9050919050565b60005b83811015620008875780820151818401526020810190506200086a565b60008484015250505050565b6000620008a08262000483565b620008ac818562000411565b9350620008be81856020860162000867565b80840191505092915050565b6000620008d8828462000893565b915081905092915050565b6080516153076200090d600039600081816107e8015281816108ab015261169601526153076000f3fe6080604052600436106101135760003560e01c80635f51cca4116100a0578063c31c9c0711610064578063c31c9c0714610413578063d863d5441461043e578063deada80314610467578063e985e9c5146104a4578063f242432a146104e157610113565b80635f51cca414610317578063991f6826146103545780639fe204b61461037d578063a22cb465146103ad578063bd85b039146103d657610113565b806316345f18116100e757806316345f18146101fa57806321ef7308146102375780632eb2c2d6146102745780634e1273f41461029d5780634f558e79146102da57610113565b8062fdd58e1461011857806301ffc9a714610155578063089fe6aa146101925780630e89341c146101bd575b600080fd5b34801561012457600080fd5b5061013f600480360381019061013a9190613316565b61050a565b60405161014c9190613365565b60405180910390f35b34801561016157600080fd5b5061017c600480360381019061017791906133d8565b6105d2565b6040516101899190613420565b60405180910390f35b34801561019e57600080fd5b506101a76106b4565b6040516101b49190613459565b60405180910390f35b3480156101c957600080fd5b506101e460048036038101906101df9190613474565b6106b9565b6040516101f19190613531565b60405180910390f35b34801561020657600080fd5b50610221600480360381019061021c9190613553565b61074d565b60405161022e9190613599565b60405180910390f35b34801561024357600080fd5b5061025e600480360381019061025991906135e0565b6107d4565b60405161026b9190613365565b60405180910390f35b34801561028057600080fd5b5061029b60048036038101906102969190613858565b610995565b005b3480156102a957600080fd5b506102c460048036038101906102bf91906139ea565b610a36565b6040516102d19190613b20565b60405180910390f35b3480156102e657600080fd5b5061030160048036038101906102fc9190613474565b610b4f565b60405161030e9190613420565b60405180910390f35b34801561032357600080fd5b5061033e60048036038101906103399190613b6e565b610b63565b60405161034b9190613365565b60405180910390f35b34801561036057600080fd5b5061037b60048036038101906103769190613b9b565b610bec565b005b61039760048036038101906103929190613b6e565b611189565b6040516103a49190613365565b60405180910390f35b3480156103b957600080fd5b506103d460048036038101906103cf9190613c07565b611661565b005b3480156103e257600080fd5b506103fd60048036038101906103f89190613474565b611677565b60405161040a9190613365565b60405180910390f35b34801561041f57600080fd5b50610428611694565b6040516104359190613ca6565b60405180910390f35b34801561044a57600080fd5b5061046560048036038101906104609190613d62565b6116b8565b005b34801561047357600080fd5b5061048e60048036038101906104899190613dd1565b611807565b60405161049b9190613365565b60405180910390f35b3480156104b057600080fd5b506104cb60048036038101906104c69190613e11565b61182c565b6040516104d89190613420565b60405180910390f35b3480156104ed57600080fd5b5061050860048036038101906105039190613e51565b6118c0565b005b60008073ffffffffffffffffffffffffffffffffffffffff168373ffffffffffffffffffffffffffffffffffffffff160361057a576040517f08c379a000000000000000000000000000000000000000000000000000000000815260040161057190613f5a565b60405180910390fd5b60008083815260200190815260200160002060008473ffffffffffffffffffffffffffffffffffffffff1673ffffffffffffffffffffffffffffffffffffffff16815260200190815260200160002054905092915050565b60007fd9b67a26000000000000000000000000000000000000000000000000000000007bffffffffffffffffffffffffffffffffffffffffffffffffffffffff1916827bffffffffffffffffffffffffffffffffffffffffffffffffffffffff1916148061069d57507f0e89341c000000000000000000000000000000000000000000000000000000007bffffffffffffffffffffffffffffffffffffffffffffffffffffffff1916827bffffffffffffffffffffffffffffffffffffffffffffffffffffffff1916145b806106ad57506106ac82611961565b5b9050919050565b601e81565b6060600280546106c890613fa9565b80601f01602080910402602001604051908101604052809291908181526020018280546106f490613fa9565b80156107415780601f1061071657610100808354040283529160200191610741565b820191906000526020600020905b81548152906001019060200180831161072457829003601f168201915b50505050509050919050565b60008082905060008173ffffffffffffffffffffffffffffffffffffffff1663feaf968c6040518163ffffffff1660e01b815260040160a060405180830381865afa1580156107a0573d6000803e3d6000fd5b505050506040513d601f19601f820116820180604052508101906107c4919061405d565b5050509150508092505050919050565b60006107e2863330876119cb565b61080d867f000000000000000000000000000000000000000000000000000000000000000086611b23565b60006040518061010001604052808873ffffffffffffffffffffffffffffffffffffffff1681526020018773ffffffffffffffffffffffffffffffffffffffff168152602001601e62ffffff1681526020013073ffffffffffffffffffffffffffffffffffffffff1681526020014281526020018681526020018581526020018473ffffffffffffffffffffffffffffffffffffffff1681525090507f000000000000000000000000000000000000000000000000000000000000000073ffffffffffffffffffffffffffffffffffffffff1663414bf389826040518263ffffffff1660e01b815260040161090291906141a7565b6020604051808303816000875af1158015610921573d6000803e3d6000fd5b505050506040513d601f19601f8201168201806040525081019061094591906141c3565b9150610952863384611c78565b7fd99d0113e641f144f0787f9c16b31c7f5c1d2f2db186411c678c226253922feb85836040516109839291906141f0565b60405180910390a15095945050505050565b61099d611dcd565b73ffffffffffffffffffffffffffffffffffffffff168573ffffffffffffffffffffffffffffffffffffffff1614806109e357506109e2856109dd611dcd565b61182c565b5b610a22576040517f08c379a0000000000000000000000000000000000000000000000000000000008152600401610a199061428b565b60405180910390fd5b610a2f8585858585611dd5565b5050505050565b60608151835114610a7c576040517f08c379a0000000000000000000000000000000000000000000000000000000008152600401610a739061431d565b60405180910390fd5b6000835167ffffffffffffffff811115610a9957610a98613660565b5b604051908082528060200260200182016040528015610ac75781602001602082028036833780820191505090505b50905060005b8451811015610b4457610b14858281518110610aec57610aeb61433d565b5b6020026020010151858381518110610b0757610b0661433d565b5b602002602001015161050a565b828281518110610b2757610b2661433d565b5b60200260200101818152505080610b3d9061439b565b9050610acd565b508091505092915050565b600080610b5b83611677565b119050919050565b600081600a60149054906101000a900462ffffff1662ffffff168162ffffff1610610bc3576040517f08c379a0000000000000000000000000000000000000000000000000000000008152600401610bba9061442f565b60405180910390fd5b600660008462ffffff1662ffffff16815260200190815260200160002080549050915050919050565b81600a60149054906101000a900462ffffff1662ffffff168162ffffff1610610c4a576040517f08c379a0000000000000000000000000000000000000000000000000000000008152600401610c419061442f565b60405180910390fd5b81610c5a338562ffffff1661050a565b1015610c9b576040517f08c379a0000000000000000000000000000000000000000000000000000000008152600401610c929061449b565b60405180910390fd5b6000610ca684610b63565b905060005b81811015611172576000600660008762ffffff1662ffffff1681526020019081526020016000208281548110610ce457610ce361433d565b5b9060005260206000209060020201604051806040016040529081600082018054610d0d90613fa9565b80601f0160208091040260200160405190810160405280929190818152602001828054610d3990613fa9565b8015610d865780601f10610d5b57610100808354040283529160200191610d86565b820191906000526020600020905b815481529060010190602001808311610d6957829003601f168201915b505050505081526020016001820160009054906101000a900460ff1660ff1660ff16815250509050604051602001610dbd90614512565b604051602081830303815290604052805190602001208160000151604051602001610de89190614558565b6040516020818303038152906040528051906020012003610f41576000610e138762ffffff16611677565b86600760008a62ffffff1662ffffff16815260200190815260200160002060003073ffffffffffffffffffffffffffffffffffffffff1673ffffffffffffffffffffffffffffffffffffffff16815260200190815260200160002054610e79919061456f565b610e8391906145e0565b905080600760008962ffffff1662ffffff16815260200190815260200160002060003073ffffffffffffffffffffffffffffffffffffffff1673ffffffffffffffffffffffffffffffffffffffff1681526020019081526020016000206000828254610eef9190614611565b925050819055507f3a8c7f8ee392a5f03a68614a07481b2744d70742e4402781016d459204313ac8878783604051610f2993929190614676565b60405180910390a1610f3b33826120f6565b5061115e565b604051602001610f50906146f9565b604051602081830303815290604052805190602001208160000151604051602001610f7b9190614558565b604051602081830303815290604052805190602001200361115d576000610fa68762ffffff16611677565b86600760008a62ffffff1662ffffff16815260200190815260200160002060003073ffffffffffffffffffffffffffffffffffffffff1673ffffffffffffffffffffffffffffffffffffffff1681526020019081526020016000205461100c919061456f565b61101691906145e0565b905080600760008962ffffff1662ffffff16815260200190815260200160002060003073ffffffffffffffffffffffffffffffffffffffff1673ffffffffffffffffffffffffffffffffffffffff16815260200190815260200160002060008282546110829190614611565b925050819055507f3a8c7f8ee392a5f03a68614a07481b2744d70742e4402781016d459204313ac88787836040516110bc93929190614676565b60405180910390a1600460009054906101000a900473ffffffffffffffffffffffffffffffffffffffff1673ffffffffffffffffffffffffffffffffffffffff16632e1a7d4d826040518263ffffffff1660e01b815260040161111f9190613365565b600060405180830381600087803b15801561113957600080fd5b505af115801561114d573d6000803e3d6000fd5b5050505061115b33826120f6565b505b5b50808061116a9061439b565b915050610cab565b50611183338562ffffff16856121f6565b50505050565b600081600a60149054906101000a900462ffffff1662ffffff168162ffffff16106111e9576040517f08c379a00000000000000000000000000000000000000000000000000000000081526004016111e09061442f565b60405180910390fd5b6000341161122c576040517f08c379a00000000000000000000000000000000000000000000000000000000081526004016112239061475a565b60405180910390fd5b6000611238843461243c565b9050600061124585610b63565b905060005b81811015611635576000600660008862ffffff1662ffffff16815260200190815260200160002082815481106112835761128261433d565b5b90600052602060002090600202016040518060400160405290816000820180546112ac90613fa9565b80601f01602080910402602001604051908101604052809291908181526020018280546112d890613fa9565b80156113255780601f106112fa57610100808354040283529160200191611325565b820191906000526020600020905b81548152906001019060200180831161130857829003601f168201915b505050505081526020016001820160009054906101000a900460ff1660ff1660ff1681525050905060405160200161135c90614512565b6040516020818303038152906040528051906020012081600001516040516020016113879190614558565b60405160208183030381529060405280519060200120036114775760006064826020015160ff16346113b9919061456f565b6113c391906145e0565b905080600760008a62ffffff1662ffffff16815260200190815260200160002060003073ffffffffffffffffffffffffffffffffffffffff1673ffffffffffffffffffffffffffffffffffffffff168152602001908152602001600020600082825461142f919061477a565b925050819055507fb05532e21b444e9778dc1661bc462d41ba18ec113dc5e87d9d7a3849ff02d1e888348360405161146993929190614676565b60405180910390a150611621565b604051602001611486906146f9565b6040516020818303038152906040528051906020012081600001516040516020016114b19190614558565b60405160208183030381529060405280519060200120036116205760006064826020015160ff16346114e3919061456f565b6114ed91906145e0565b9050600460009054906101000a900473ffffffffffffffffffffffffffffffffffffffff1673ffffffffffffffffffffffffffffffffffffffff1663d0e30db0826040518263ffffffff1660e01b81526004016000604051808303818588803b15801561155957600080fd5b505af115801561156d573d6000803e3d6000fd5b505050505080600760008a62ffffff1662ffffff16815260200190815260200160002060003073ffffffffffffffffffffffffffffffffffffffff1673ffffffffffffffffffffffffffffffffffffffff16815260200190815260200160002060008282546115dc919061477a565b925050819055507fb05532e21b444e9778dc1661bc462d41ba18ec113dc5e87d9d7a3849ff02d1e888348360405161161693929190614676565b60405180910390a1505b5b50808061162d9061439b565b91505061124a565b50611656338662ffffff16846040518060200160405280600081525061268c565b819350505050919050565b61167361166c611dcd565b838361283c565b5050565b600060036000838152602001908152602001600020549050919050565b7f000000000000000000000000000000000000000000000000000000000000000081565b600560009054906101000a900473ffffffffffffffffffffffffffffffffffffffff1673ffffffffffffffffffffffffffffffffffffffff163373ffffffffffffffffffffffffffffffffffffffff1614611748576040517f08c379a000000000000000000000000000000000000000000000000000000000815260040161173f906147fa565b60405180910390fd5b816008846040516117599190614558565b908152602001604051809103902060006101000a81548173ffffffffffffffffffffffffffffffffffffffff021916908373ffffffffffffffffffffffffffffffffffffffff160217905550806009846040516117b69190614558565b908152602001604051809103902060006101000a81548173ffffffffffffffffffffffffffffffffffffffff021916908373ffffffffffffffffffffffffffffffffffffffff160217905550505050565b6007602052816000526040600020602052806000526040600020600091509150505481565b6000600160008473ffffffffffffffffffffffffffffffffffffffff1673ffffffffffffffffffffffffffffffffffffffff16815260200190815260200160002060008373ffffffffffffffffffffffffffffffffffffffff1673ffffffffffffffffffffffffffffffffffffffff16815260200190815260200160002060009054906101000a900460ff16905092915050565b6118c8611dcd565b73ffffffffffffffffffffffffffffffffffffffff168573ffffffffffffffffffffffffffffffffffffffff16148061190e575061190d85611908611dcd565b61182c565b5b61194d576040517f08c379a00000000000000000000000000000000000000000000000000000000081526004016119449061428b565b60405180910390fd5b61195a85858585856129a8565b5050505050565b60007f01ffc9a7000000000000000000000000000000000000000000000000000000007bffffffffffffffffffffffffffffffffffffffffffffffffffffffff1916827bffffffffffffffffffffffffffffffffffffffffffffffffffffffff1916149050919050565b6000808573ffffffffffffffffffffffffffffffffffffffff166323b872dd60e01b868686604051602401611a0293929190614829565b604051602081830303815290604052907bffffffffffffffffffffffffffffffffffffffffffffffffffffffff19166020820180517bffffffffffffffffffffffffffffffffffffffffffffffffffffffff8381831617835250505050604051611a6c91906148a7565b6000604051808303816000865af19150503d8060008114611aa9576040519150601f19603f3d011682016040523d82523d6000602084013e611aae565b606091505b5091509150818015611adc5750600081511480611adb575080806020019051810190611ada91906148d3565b5b5b611b1b576040517f08c379a0000000000000000000000000000000000000000000000000000000008152600401611b129061494c565b60405180910390fd5b505050505050565b6000808473ffffffffffffffffffffffffffffffffffffffff1663095ea7b360e01b8585604051602401611b5892919061496c565b604051602081830303815290604052907bffffffffffffffffffffffffffffffffffffffffffffffffffffffff19166020820180517bffffffffffffffffffffffffffffffffffffffffffffffffffffffff8381831617835250505050604051611bc291906148a7565b6000604051808303816000865af19150503d8060008114611bff576040519150601f19603f3d011682016040523d82523d6000602084013e611c04565b606091505b5091509150818015611c325750600081511480611c31575080806020019051810190611c3091906148d3565b5b5b611c71576040517f08c379a0000000000000000000000000000000000000000000000000000000008152600401611c68906149e1565b60405180910390fd5b5050505050565b6000808473ffffffffffffffffffffffffffffffffffffffff1663a9059cbb60e01b8585604051602401611cad92919061496c565b604051602081830303815290604052907bffffffffffffffffffffffffffffffffffffffffffffffffffffffff19166020820180517bffffffffffffffffffffffffffffffffffffffffffffffffffffffff8381831617835250505050604051611d1791906148a7565b6000604051808303816000865af19150503d8060008114611d54576040519150601f19603f3d011682016040523d82523d6000602084013e611d59565b606091505b5091509150818015611d875750600081511480611d86575080806020019051810190611d8591906148d3565b5b5b611dc6576040517f08c379a0000000000000000000000000000000000000000000000000000000008152600401611dbd90614a4d565b60405180910390fd5b5050505050565b600033905090565b8151835114611e19576040517f08c379a0000000000000000000000000000000000000000000000000000000008152600401611e1090614adf565b60405180910390fd5b600073ffffffffffffffffffffffffffffffffffffffff168473ffffffffffffffffffffffffffffffffffffffff1603611e88576040517f08c379a0000000000000000000000000000000000000000000000000000000008152600401611e7f90614b71565b60405180910390fd5b6000611e92611dcd565b9050611ea2818787878787612c43565b60005b8451811015612053576000858281518110611ec357611ec261433d565b5b602002602001015190506000858381518110611ee257611ee161433d565b5b60200260200101519050600080600084815260200190815260200160002060008b73ffffffffffffffffffffffffffffffffffffffff1673ffffffffffffffffffffffffffffffffffffffff16815260200190815260200160002054905081811015611f83576040517f08c379a0000000000000000000000000000000000000000000000000000000008152600401611f7a90614c03565b60405180910390fd5b81810360008085815260200190815260200160002060008c73ffffffffffffffffffffffffffffffffffffffff1673ffffffffffffffffffffffffffffffffffffffff168152602001908152602001600020819055508160008085815260200190815260200160002060008b73ffffffffffffffffffffffffffffffffffffffff1673ffffffffffffffffffffffffffffffffffffffff1681526020019081526020016000206000828254612038919061477a565b925050819055505050508061204c9061439b565b9050611ea5565b508473ffffffffffffffffffffffffffffffffffffffff168673ffffffffffffffffffffffffffffffffffffffff168273ffffffffffffffffffffffffffffffffffffffff167f4a39dc06d4c0dbc64b70af90fd698a233a518aa5d07e595d983b8c0526c8f7fb87876040516120ca929190614c23565b60405180910390a46120e0818787878787612e13565b6120ee818787878787612e1b565b505050505050565b60008273ffffffffffffffffffffffffffffffffffffffff1682600067ffffffffffffffff81111561212b5761212a613660565b5b6040519080825280601f01601f19166020018201604052801561215d5781602001600182028036833780820191505090505b5060405161216b91906148a7565b60006040518083038185875af1925050503d80600081146121a8576040519150601f19603f3d011682016040523d82523d6000602084013e6121ad565b606091505b50509050806121f1576040517f08c379a00000000000000000000000000000000000000000000000000000000081526004016121e890614ca6565b60405180910390fd5b505050565b600073ffffffffffffffffffffffffffffffffffffffff168373ffffffffffffffffffffffffffffffffffffffff1603612265576040517f08c379a000000000000000000000000000000000000000000000000000000000815260040161225c90614d38565b60405180910390fd5b600061226f611dcd565b9050600061227c84612ff2565b9050600061228984612ff2565b90506122a983876000858560405180602001604052806000815250612c43565b600080600087815260200190815260200160002060008873ffffffffffffffffffffffffffffffffffffffff1673ffffffffffffffffffffffffffffffffffffffff16815260200190815260200160002054905084811015612340576040517f08c379a000000000000000000000000000000000000000000000000000000000815260040161233790614dca565b60405180910390fd5b84810360008088815260200190815260200160002060008973ffffffffffffffffffffffffffffffffffffffff1673ffffffffffffffffffffffffffffffffffffffff16815260200190815260200160002081905550600073ffffffffffffffffffffffffffffffffffffffff168773ffffffffffffffffffffffffffffffffffffffff168573ffffffffffffffffffffffffffffffffffffffff167fc3d58168c5ae7397731d063d5bbf3d657854427343f4c083240f7aacaa2d0f62898960405161240d9291906141f0565b60405180910390a461243384886000868660405180602001604052806000815250612e13565b50505050505050565b60008061244d8462ffffff16611677565b9050600081036124605782915050612686565b6000600760008662ffffff1662ffffff16815260200190815260200160002060003073ffffffffffffffffffffffffffffffffffffffff1673ffffffffffffffffffffffffffffffffffffffff16815260200190815260200160002054905060006124ca86610b63565b905060005b81811015612668576000600660008962ffffff1662ffffff16815260200190815260200160002082815481106125085761250761433d565b5b906000526020600020906002020160405180604001604052908160008201805461253190613fa9565b80601f016020809104026020016040519081016040528092919081815260200182805461255d90613fa9565b80156125aa5780601f1061257f576101008083540402835291602001916125aa565b820191906000526020600020905b81548152906001019060200180831161258d57829003601f168201915b505050505081526020016001820160009054906101000a900460ff1660ff1660ff168152505090506040516020016125e190614512565b60405160208183030381529060405280519060200120816000015160405160200161260c9190614558565b6040516020818303038152906040528051906020012003612654576064816020015160ff168861263c919061456f565b61264691906145e0565b84612651919061477a565b93505b5080806126609061439b565b9150506124cf565b50818386612676919061456f565b61268091906145e0565b93505050505b92915050565b600073ffffffffffffffffffffffffffffffffffffffff168473ffffffffffffffffffffffffffffffffffffffff16036126fb576040517f08c379a00000000000000000000000000000000000000000000000000000000081526004016126f290614e5c565b60405180910390fd5b6000612705611dcd565b9050600061271285612ff2565b9050600061271f85612ff2565b905061273083600089858589612c43565b8460008088815260200190815260200160002060008973ffffffffffffffffffffffffffffffffffffffff1673ffffffffffffffffffffffffffffffffffffffff168152602001908152602001600020600082825461278f919061477a565b925050819055508673ffffffffffffffffffffffffffffffffffffffff16600073ffffffffffffffffffffffffffffffffffffffff168473ffffffffffffffffffffffffffffffffffffffff167fc3d58168c5ae7397731d063d5bbf3d657854427343f4c083240f7aacaa2d0f62898960405161280d9291906141f0565b60405180910390a461282483600089858589612e13565b6128338360008989898961306c565b50505050505050565b8173ffffffffffffffffffffffffffffffffffffffff168373ffffffffffffffffffffffffffffffffffffffff16036128aa576040517f08c379a00000000000000000000000000000000000000000000000000000000081526004016128a190614eee565b60405180910390fd5b80600160008573ffffffffffffffffffffffffffffffffffffffff1673ffffffffffffffffffffffffffffffffffffffff16815260200190815260200160002060008473ffffffffffffffffffffffffffffffffffffffff1673ffffffffffffffffffffffffffffffffffffffff16815260200190815260200160002060006101000a81548160ff0219169083151502179055508173ffffffffffffffffffffffffffffffffffffffff168373ffffffffffffffffffffffffffffffffffffffff167f17307eab39ab6107e8899845ad3d59bd9653f200f220920489ca2b5937696c318360405161299b9190613420565b60405180910390a3505050565b600073ffffffffffffffffffffffffffffffffffffffff168473ffffffffffffffffffffffffffffffffffffffff1603612a17576040517f08c379a0000000000000000000000000000000000000000000000000000000008152600401612a0e90614b71565b60405180910390fd5b6000612a21611dcd565b90506000612a2e85612ff2565b90506000612a3b85612ff2565b9050612a4b838989858589612c43565b600080600088815260200190815260200160002060008a73ffffffffffffffffffffffffffffffffffffffff1673ffffffffffffffffffffffffffffffffffffffff16815260200190815260200160002054905085811015612ae2576040517f08c379a0000000000000000000000000000000000000000000000000000000008152600401612ad990614c03565b60405180910390fd5b85810360008089815260200190815260200160002060008b73ffffffffffffffffffffffffffffffffffffffff1673ffffffffffffffffffffffffffffffffffffffff168152602001908152602001600020819055508560008089815260200190815260200160002060008a73ffffffffffffffffffffffffffffffffffffffff1673ffffffffffffffffffffffffffffffffffffffff1681526020019081526020016000206000828254612b97919061477a565b925050819055508773ffffffffffffffffffffffffffffffffffffffff168973ffffffffffffffffffffffffffffffffffffffff168573ffffffffffffffffffffffffffffffffffffffff167fc3d58168c5ae7397731d063d5bbf3d657854427343f4c083240f7aacaa2d0f628a8a604051612c149291906141f0565b60405180910390a4612c2a848a8a86868a612e13565b612c38848a8a8a8a8a61306c565b505050505050505050565b612c51868686868686613243565b600073ffffffffffffffffffffffffffffffffffffffff168573ffffffffffffffffffffffffffffffffffffffff1603612d025760005b8351811015612d0057828181518110612ca457612ca361433d565b5b602002602001015160036000868481518110612cc357612cc261433d565b5b602002602001015181526020019081526020016000206000828254612ce8919061477a565b9250508190555080612cf99061439b565b9050612c88565b505b600073ffffffffffffffffffffffffffffffffffffffff168473ffffffffffffffffffffffffffffffffffffffff1603612e0b5760005b8351811015612e09576000848281518110612d5757612d5661433d565b5b602002602001015190506000848381518110612d7657612d7561433d565b5b6020026020010151905060006003600084815260200190815260200160002054905081811015612ddb576040517f08c379a0000000000000000000000000000000000000000000000000000000008152600401612dd290614f80565b60405180910390fd5b818103600360008581526020019081526020016000208190555050505080612e029061439b565b9050612d39565b505b505050505050565b505050505050565b612e3a8473ffffffffffffffffffffffffffffffffffffffff1661324b565b15612fea578373ffffffffffffffffffffffffffffffffffffffff1663bc197c8187878686866040518663ffffffff1660e01b8152600401612e80959493929190614fea565b6020604051808303816000875af1925050508015612ebc57506040513d601f19601f82011682018060405250810190612eb99190615067565b60015b612f6157612ec86150a1565b806308c379a003612f245750612edc6150c3565b80612ee75750612f26565b806040517f08c379a0000000000000000000000000000000000000000000000000000000008152600401612f1b9190613531565b60405180910390fd5b505b6040517f08c379a0000000000000000000000000000000000000000000000000000000008152600401612f58906151c5565b60405180910390fd5b63bc197c8160e01b7bffffffffffffffffffffffffffffffffffffffffffffffffffffffff1916817bffffffffffffffffffffffffffffffffffffffffffffffffffffffff191614612fe8576040517f08c379a0000000000000000000000000000000000000000000000000000000008152600401612fdf90615257565b60405180910390fd5b505b505050505050565b60606000600167ffffffffffffffff81111561301157613010613660565b5b60405190808252806020026020018201604052801561303f5781602001602082028036833780820191505090505b50905082816000815181106130575761305661433d565b5b60200260200101818152505080915050919050565b61308b8473ffffffffffffffffffffffffffffffffffffffff1661324b565b1561323b578373ffffffffffffffffffffffffffffffffffffffff1663f23a6e6187878686866040518663ffffffff1660e01b81526004016130d1959493929190615277565b6020604051808303816000875af192505050801561310d57506040513d601f19601f8201168201806040525081019061310a9190615067565b60015b6131b2576131196150a1565b806308c379a003613175575061312d6150c3565b806131385750613177565b806040517f08c379a000000000000000000000000000000000000000000000000000000000815260040161316c9190613531565b60405180910390fd5b505b6040517f08c379a00000000000000000000000000000000000000000000000000000000081526004016131a9906151c5565b60405180910390fd5b63f23a6e6160e01b7bffffffffffffffffffffffffffffffffffffffffffffffffffffffff1916817bffffffffffffffffffffffffffffffffffffffffffffffffffffffff191614613239576040517f08c379a000000000000000000000000000000000000000000000000000000000815260040161323090615257565b60405180910390fd5b505b505050505050565b505050505050565b6000808273ffffffffffffffffffffffffffffffffffffffff163b119050919050565b6000604051905090565b600080fd5b600080fd5b600073ffffffffffffffffffffffffffffffffffffffff82169050919050565b60006132ad82613282565b9050919050565b6132bd816132a2565b81146132c857600080fd5b50565b6000813590506132da816132b4565b92915050565b6000819050919050565b6132f3816132e0565b81146132fe57600080fd5b50565b600081359050613310816132ea565b92915050565b6000806040838503121561332d5761332c613278565b5b600061333b858286016132cb565b925050602061334c85828601613301565b9150509250929050565b61335f816132e0565b82525050565b600060208201905061337a6000830184613356565b92915050565b60007fffffffff0000000000000000000000000000000000000000000000000000000082169050919050565b6133b581613380565b81146133c057600080fd5b50565b6000813590506133d2816133ac565b92915050565b6000602082840312156133ee576133ed613278565b5b60006133fc848285016133c3565b91505092915050565b60008115159050919050565b61341a81613405565b82525050565b60006020820190506134356000830184613411565b92915050565b600062ffffff82169050919050565b6134538161343b565b82525050565b600060208201905061346e600083018461344a565b92915050565b60006020828403121561348a57613489613278565b5b600061349884828501613301565b91505092915050565b600081519050919050565b600082825260208201905092915050565b60005b838110156134db5780820151818401526020810190506134c0565b60008484015250505050565b6000601f19601f8301169050919050565b6000613503826134a1565b61350d81856134ac565b935061351d8185602086016134bd565b613526816134e7565b840191505092915050565b6000602082019050818103600083015261354b81846134f8565b905092915050565b60006020828403121561356957613568613278565b5b6000613577848285016132cb565b91505092915050565b6000819050919050565b61359381613580565b82525050565b60006020820190506135ae600083018461358a565b92915050565b6135bd81613282565b81146135c857600080fd5b50565b6000813590506135da816135b4565b92915050565b600080600080600060a086880312156135fc576135fb613278565b5b600061360a888289016132cb565b955050602061361b888289016132cb565b945050604061362c88828901613301565b935050606061363d88828901613301565b925050608061364e888289016135cb565b9150509295509295909350565b600080fd5b7f4e487b7100000000000000000000000000000000000000000000000000000000600052604160045260246000fd5b613698826134e7565b810181811067ffffffffffffffff821117156136b7576136b6613660565b5b80604052505050565b60006136ca61326e565b90506136d6828261368f565b919050565b600067ffffffffffffffff8211156136f6576136f5613660565b5b602082029050602081019050919050565b600080fd5b600061371f61371a846136db565b6136c0565b9050808382526020820190506020840283018581111561374257613741613707565b5b835b8181101561376b57806137578882613301565b845260208401935050602081019050613744565b5050509392505050565b600082601f83011261378a5761378961365b565b5b813561379a84826020860161370c565b91505092915050565b600080fd5b600067ffffffffffffffff8211156137c3576137c2613660565b5b6137cc826134e7565b9050602081019050919050565b82818337600083830152505050565b60006137fb6137f6846137a8565b6136c0565b905082815260208101848484011115613817576138166137a3565b5b6138228482856137d9565b509392505050565b600082601f83011261383f5761383e61365b565b5b813561384f8482602086016137e8565b91505092915050565b600080600080600060a0868803121561387457613873613278565b5b6000613882888289016132cb565b9550506020613893888289016132cb565b945050604086013567ffffffffffffffff8111156138b4576138b361327d565b5b6138c088828901613775565b935050606086013567ffffffffffffffff8111156138e1576138e061327d565b5b6138ed88828901613775565b925050608086013567ffffffffffffffff81111561390e5761390d61327d565b5b61391a8882890161382a565b9150509295509295909350565b600067ffffffffffffffff82111561394257613941613660565b5b602082029050602081019050919050565b600061396661396184613927565b6136c0565b9050808382526020820190506020840283018581111561398957613988613707565b5b835b818110156139b2578061399e88826132cb565b84526020840193505060208101905061398b565b5050509392505050565b600082601f8301126139d1576139d061365b565b5b81356139e1848260208601613953565b91505092915050565b60008060408385031215613a0157613a00613278565b5b600083013567ffffffffffffffff811115613a1f57613a1e61327d565b5b613a2b858286016139bc565b925050602083013567ffffffffffffffff811115613a4c57613a4b61327d565b5b613a5885828601613775565b9150509250929050565b600081519050919050565b600082825260208201905092915050565b6000819050602082019050919050565b613a97816132e0565b82525050565b6000613aa98383613a8e565b60208301905092915050565b6000602082019050919050565b6000613acd82613a62565b613ad78185613a6d565b9350613ae283613a7e565b8060005b83811015613b13578151613afa8882613a9d565b9750613b0583613ab5565b925050600181019050613ae6565b5085935050505092915050565b60006020820190508181036000830152613b3a8184613ac2565b905092915050565b613b4b8161343b565b8114613b5657600080fd5b50565b600081359050613b6881613b42565b92915050565b600060208284031215613b8457613b83613278565b5b6000613b9284828501613b59565b91505092915050565b60008060408385031215613bb257613bb1613278565b5b6000613bc085828601613b59565b9250506020613bd185828601613301565b9150509250929050565b613be481613405565b8114613bef57600080fd5b50565b600081359050613c0181613bdb565b92915050565b60008060408385031215613c1e57613c1d613278565b5b6000613c2c858286016132cb565b9250506020613c3d85828601613bf2565b9150509250929050565b6000819050919050565b6000613c6c613c67613c6284613282565b613c47565b613282565b9050919050565b6000613c7e82613c51565b9050919050565b6000613c9082613c73565b9050919050565b613ca081613c85565b82525050565b6000602082019050613cbb6000830184613c97565b92915050565b600067ffffffffffffffff821115613cdc57613cdb613660565b5b613ce5826134e7565b9050602081019050919050565b6000613d05613d0084613cc1565b6136c0565b905082815260208101848484011115613d2157613d206137a3565b5b613d2c8482856137d9565b509392505050565b600082601f830112613d4957613d4861365b565b5b8135613d59848260208601613cf2565b91505092915050565b600080600060608486031215613d7b57613d7a613278565b5b600084013567ffffffffffffffff811115613d9957613d9861327d565b5b613da586828701613d34565b9350506020613db6868287016132cb565b9250506040613dc7868287016132cb565b9150509250925092565b60008060408385031215613de857613de7613278565b5b6000613df685828601613b59565b9250506020613e07858286016132cb565b9150509250929050565b60008060408385031215613e2857613e27613278565b5b6000613e36858286016132cb565b9250506020613e47858286016132cb565b9150509250929050565b600080600080600060a08688031215613e6d57613e6c613278565b5b6000613e7b888289016132cb565b9550506020613e8c888289016132cb565b9450506040613e9d88828901613301565b9350506060613eae88828901613301565b925050608086013567ffffffffffffffff811115613ecf57613ece61327d565b5b613edb8882890161382a565b9150509295509295909350565b7f455243313135353a2061646472657373207a65726f206973206e6f742061207660008201527f616c6964206f776e657200000000000000000000000000000000000000000000602082015250565b6000613f44602a836134ac565b9150613f4f82613ee8565b604082019050919050565b60006020820190508181036000830152613f7381613f37565b9050919050565b7f4e487b7100000000000000000000000000000000000000000000000000000000600052602260045260246000fd5b60006002820490506001821680613fc157607f821691505b602082108103613fd457613fd3613f7a565b5b50919050565b600069ffffffffffffffffffff82169050919050565b613ff981613fda565b811461400457600080fd5b50565b60008151905061401681613ff0565b92915050565b61402581613580565b811461403057600080fd5b50565b6000815190506140428161401c565b92915050565b600081519050614057816132ea565b92915050565b600080600080600060a0868803121561407957614078613278565b5b600061408788828901614007565b955050602061409888828901614033565b94505060406140a988828901614048565b93505060606140ba88828901614048565b92505060806140cb88828901614007565b9150509295509295909350565b6140e1816132a2565b82525050565b6140f08161343b565b82525050565b6140ff81613282565b82525050565b6101008201600082015161411c60008501826140d8565b50602082015161412f60208501826140d8565b50604082015161414260408501826140e7565b50606082015161415560608501826140d8565b5060808201516141686080850182613a8e565b5060a082015161417b60a0850182613a8e565b5060c082015161418e60c0850182613a8e565b5060e08201516141a160e08501826140f6565b50505050565b6000610100820190506141bd6000830184614105565b92915050565b6000602082840312156141d9576141d8613278565b5b60006141e784828501614048565b91505092915050565b60006040820190506142056000830185613356565b6142126020830184613356565b9392505050565b7f455243313135353a2063616c6c6572206973206e6f7420746f6b656e206f776e60008201527f6572206f7220617070726f766564000000000000000000000000000000000000602082015250565b6000614275602e836134ac565b915061428082614219565b604082019050919050565b600060208201905081810360008301526142a481614268565b9050919050565b7f455243313135353a206163636f756e747320616e6420696473206c656e67746860008201527f206d69736d617463680000000000000000000000000000000000000000000000602082015250565b60006143076029836134ac565b9150614312826142ab565b604082019050919050565b60006020820190508181036000830152614336816142fa565b9050919050565b7f4e487b7100000000000000000000000000000000000000000000000000000000600052603260045260246000fd5b7f4e487b7100000000000000000000000000000000000000000000000000000000600052601160045260246000fd5b60006143a6826132e0565b91507fffffffffffffffffffffffffffffffffffffffffffffffffffffffffffffffff82036143d8576143d761436c565b5b600182019050919050565b7f496e76616c696420426f78494420706172616d657465722e0000000000000000600082015250565b60006144196018836134ac565b9150614424826143e3565b602082019050919050565b600060208201905081810360008301526144488161440c565b9050919050565b7f496e73756666696369656e7420626f7820746f6b656e73000000000000000000600082015250565b60006144856017836134ac565b91506144908261444f565b602082019050919050565b600060208201905081810360008301526144b481614478565b9050919050565b600081905092915050565b7f4445560000000000000000000000000000000000000000000000000000000000600082015250565b60006144fc6003836144bb565b9150614507826144c6565b600382019050919050565b600061451d826144ef565b9150819050919050565b6000614532826134a1565b61453c81856144bb565b935061454c8185602086016134bd565b80840191505092915050565b60006145648284614527565b915081905092915050565b600061457a826132e0565b9150614585836132e0565b9250828202614593816132e0565b915082820484148315176145aa576145a961436c565b5b5092915050565b7f4e487b7100000000000000000000000000000000000000000000000000000000600052601260045260246000fd5b60006145eb826132e0565b91506145f6836132e0565b925082614606576146056145b1565b5b828204905092915050565b600061461c826132e0565b9150614627836132e0565b925082820390508181111561463f5761463e61436c565b5b92915050565b600061466061465b6146568461343b565b613c47565b6132e0565b9050919050565b61467081614645565b82525050565b600060608201905061468b6000830186614667565b6146986020830185613356565b6146a56040830184613356565b949350505050565b7f5744455600000000000000000000000000000000000000000000000000000000600082015250565b60006146e36004836144bb565b91506146ee826146ad565b600482019050919050565b6000614704826146d6565b9150819050919050565b7f6d73672e76616c75652069732030000000000000000000000000000000000000600082015250565b6000614744600e836134ac565b915061474f8261470e565b602082019050919050565b6000602082019050818103600083015261477381614737565b9050919050565b6000614785826132e0565b9150614790836132e0565b92508282019050808211156147a8576147a761436c565b5b92915050565b7f4f776e657220616363657373206f6e6c79000000000000000000000000000000600082015250565b60006147e46011836134ac565b91506147ef826147ae565b602082019050919050565b60006020820190508181036000830152614813816147d7565b9050919050565b614823816132a2565b82525050565b600060608201905061483e600083018661481a565b61484b602083018561481a565b6148586040830184613356565b949350505050565b600081519050919050565b600081905092915050565b600061488182614860565b61488b818561486b565b935061489b8185602086016134bd565b80840191505092915050565b60006148b38284614876565b915081905092915050565b6000815190506148cd81613bdb565b92915050565b6000602082840312156148e9576148e8613278565b5b60006148f7848285016148be565b91505092915050565b7f5354460000000000000000000000000000000000000000000000000000000000600082015250565b60006149366003836134ac565b915061494182614900565b602082019050919050565b6000602082019050818103600083015261496581614929565b9050919050565b6000604082019050614981600083018561481a565b61498e6020830184613356565b9392505050565b7f5341000000000000000000000000000000000000000000000000000000000000600082015250565b60006149cb6002836134ac565b91506149d682614995565b602082019050919050565b600060208201905081810360008301526149fa816149be565b9050919050565b7f5354000000000000000000000000000000000000000000000000000000000000600082015250565b6000614a376002836134ac565b9150614a4282614a01565b602082019050919050565b60006020820190508181036000830152614a6681614a2a565b9050919050565b7f455243313135353a2069647320616e6420616d6f756e7473206c656e6774682060008201527f6d69736d61746368000000000000000000000000000000000000000000000000602082015250565b6000614ac96028836134ac565b9150614ad482614a6d565b604082019050919050565b60006020820190508181036000830152614af881614abc565b9050919050565b7f455243313135353a207472616e7366657220746f20746865207a65726f20616460008201527f6472657373000000000000000000000000000000000000000000000000000000602082015250565b6000614b5b6025836134ac565b9150614b6682614aff565b604082019050919050565b60006020820190508181036000830152614b8a81614b4e565b9050919050565b7f455243313135353a20696e73756666696369656e742062616c616e636520666f60008201527f72207472616e7366657200000000000000000000000000000000000000000000602082015250565b6000614bed602a836134ac565b9150614bf882614b91565b604082019050919050565b60006020820190508181036000830152614c1c81614be0565b9050919050565b60006040820190508181036000830152614c3d8185613ac2565b90508181036020830152614c518184613ac2565b90509392505050565b7f5354450000000000000000000000000000000000000000000000000000000000600082015250565b6000614c906003836134ac565b9150614c9b82614c5a565b602082019050919050565b60006020820190508181036000830152614cbf81614c83565b9050919050565b7f455243313135353a206275726e2066726f6d20746865207a65726f206164647260008201527f6573730000000000000000000000000000000000000000000000000000000000602082015250565b6000614d226023836134ac565b9150614d2d82614cc6565b604082019050919050565b60006020820190508181036000830152614d5181614d15565b9050919050565b7f455243313135353a206275726e20616d6f756e7420657863656564732062616c60008201527f616e636500000000000000000000000000000000000000000000000000000000602082015250565b6000614db46024836134ac565b9150614dbf82614d58565b604082019050919050565b60006020820190508181036000830152614de381614da7565b9050919050565b7f455243313135353a206d696e7420746f20746865207a65726f2061646472657360008201527f7300000000000000000000000000000000000000000000000000000000000000602082015250565b6000614e466021836134ac565b9150614e5182614dea565b604082019050919050565b60006020820190508181036000830152614e7581614e39565b9050919050565b7f455243313135353a2073657474696e6720617070726f76616c2073746174757360008201527f20666f722073656c660000000000000000000000000000000000000000000000602082015250565b6000614ed86029836134ac565b9150614ee382614e7c565b604082019050919050565b60006020820190508181036000830152614f0781614ecb565b9050919050565b7f455243313135353a206275726e20616d6f756e74206578636565647320746f7460008201527f616c537570706c79000000000000000000000000000000000000000000000000602082015250565b6000614f6a6028836134ac565b9150614f7582614f0e565b604082019050919050565b60006020820190508181036000830152614f9981614f5d565b9050919050565b600082825260208201905092915050565b6000614fbc82614860565b614fc68185614fa0565b9350614fd68185602086016134bd565b614fdf816134e7565b840191505092915050565b600060a082019050614fff600083018861481a565b61500c602083018761481a565b818103604083015261501e8186613ac2565b905081810360608301526150328185613ac2565b905081810360808301526150468184614fb1565b90509695505050505050565b600081519050615061816133ac565b92915050565b60006020828403121561507d5761507c613278565b5b600061508b84828501615052565b91505092915050565b60008160e01c9050919050565b600060033d11156150c05760046000803e6150bd600051615094565b90505b90565b600060443d10615150576150d561326e565b60043d036004823e80513d602482011167ffffffffffffffff821117156150fd575050615150565b808201805167ffffffffffffffff81111561511b5750505050615150565b80602083010160043d038501811115615138575050505050615150565b6151478260200185018661368f565b82955050505050505b90565b7f455243313135353a207472616e7366657220746f206e6f6e2d4552433131353560008201527f526563656976657220696d706c656d656e746572000000000000000000000000602082015250565b60006151af6034836134ac565b91506151ba82615153565b604082019050919050565b600060208201905081810360008301526151de816151a2565b9050919050565b7f455243313135353a204552433131353552656365697665722072656a6563746560008201527f6420746f6b656e73000000000000000000000000000000000000000000000000602082015250565b60006152416028836134ac565b915061524c826151e5565b604082019050919050565b6000602082019050818103600083015261527081615234565b9050919050565b600060a08201905061528c600083018861481a565b615299602083018761481a565b6152a66040830186613356565b6152b36060830185613356565b81810360808301526152c58184614fb1565b9050969550505050505056fea2646970667358221220d5ec276fb62edfe81444cbdb21673224f05f9a000cac848b2b407a25e0fecd4464736f6c63430008120033",
  "linkReferences": {},
  "deployedLinkReferences": {}
}