{
  "_format": "hh-sol-artifact-1",
  "contractName": "BoxProtocol",
  "sourceName": "contracts/BoxProtocol.sol",
  "abi": [
    {
      "inputs": [],
      "stateMutability": "nonpayable",
      "type": "constructor"
    },
    {
      "anonymous": false,
      "inputs": [
        {
          "indexed": true,
          "internalType": "address",
          "name": "account",
          "type": "address"
        },
        {
          "indexed": true,
          "internalType": "address",
          "name": "operator",
          "type": "address"
        },
        {
          "indexed": false,
          "internalType": "bool",
          "name": "approved",
          "type": "bool"
        }
      ],
      "name": "ApprovalForAll",
      "type": "event"
    },
    {
      "anonymous": false,
      "inputs": [
        {
          "indexed": false,
          "internalType": "uint256",
          "name": "boxId",
          "type": "uint256"
        },
        {
          "indexed": false,
          "internalType": "uint256",
          "name": "buyAmount",
          "type": "uint256"
        },
        {
          "indexed": false,
          "internalType": "uint256",
          "name": "boxTokenReceived",
          "type": "uint256"
        }
      ],
      "name": "Buy",
      "type": "event"
    },
    {
      "anonymous": false,
      "inputs": [
        {
          "indexed": false,
          "internalType": "uint256",
          "name": "boxId",
          "type": "uint256"
        },
        {
          "indexed": false,
          "internalType": "uint256",
          "name": "sellAmount",
          "type": "uint256"
        },
        {
          "indexed": false,
          "internalType": "uint256",
          "name": "amountReceived",
          "type": "uint256"
        }
      ],
      "name": "Sell",
      "type": "event"
    },
    {
      "anonymous": false,
      "inputs": [
        {
          "indexed": true,
          "internalType": "address",
          "name": "operator",
          "type": "address"
        },
        {
          "indexed": true,
          "internalType": "address",
          "name": "from",
          "type": "address"
        },
        {
          "indexed": true,
          "internalType": "address",
          "name": "to",
          "type": "address"
        },
        {
          "indexed": false,
          "internalType": "uint256[]",
          "name": "ids",
          "type": "uint256[]"
        },
        {
          "indexed": false,
          "internalType": "uint256[]",
          "name": "values",
          "type": "uint256[]"
        }
      ],
      "name": "TransferBatch",
      "type": "event"
    },
    {
      "anonymous": false,
      "inputs": [
        {
          "indexed": true,
          "internalType": "address",
          "name": "operator",
          "type": "address"
        },
        {
          "indexed": true,
          "internalType": "address",
          "name": "from",
          "type": "address"
        },
        {
          "indexed": true,
          "internalType": "address",
          "name": "to",
          "type": "address"
        },
        {
          "indexed": false,
          "internalType": "uint256",
          "name": "id",
          "type": "uint256"
        },
        {
          "indexed": false,
          "internalType": "uint256",
          "name": "value",
          "type": "uint256"
        }
      ],
      "name": "TransferSingle",
      "type": "event"
    },
    {
      "anonymous": false,
      "inputs": [
        {
          "indexed": false,
          "internalType": "string",
          "name": "value",
          "type": "string"
        },
        {
          "indexed": true,
          "internalType": "uint256",
          "name": "id",
          "type": "uint256"
        }
      ],
      "name": "URI",
      "type": "event"
    },
    {
      "stateMutability": "payable",
      "type": "fallback"
    },
    {
      "inputs": [
        {
          "internalType": "string",
          "name": "_tokenSymbol",
          "type": "string"
        },
        {
          "internalType": "address",
          "name": "_tokenAddress",
          "type": "address"
        },
        {
          "internalType": "address",
          "name": "_tokenPriceFeed",
          "type": "address"
        }
      ],
      "name": "addToken",
      "outputs": [],
      "stateMutability": "nonpayable",
      "type": "function"
    },
    {
      "inputs": [
        {
          "internalType": "address",
          "name": "account",
          "type": "address"
        },
        {
          "internalType": "uint256",
          "name": "id",
          "type": "uint256"
        }
      ],
      "name": "balanceOf",
      "outputs": [
        {
          "internalType": "uint256",
          "name": "",
          "type": "uint256"
        }
      ],
      "stateMutability": "view",
      "type": "function"
    },
    {
      "inputs": [
        {
          "internalType": "address[]",
          "name": "accounts",
          "type": "address[]"
        },
        {
          "internalType": "uint256[]",
          "name": "ids",
          "type": "uint256[]"
        }
      ],
      "name": "balanceOfBatch",
      "outputs": [
        {
          "internalType": "uint256[]",
          "name": "",
          "type": "uint256[]"
        }
      ],
      "stateMutability": "view",
      "type": "function"
    },
    {
      "inputs": [
        {
          "internalType": "uint24",
          "name": "",
          "type": "uint24"
        },
        {
          "internalType": "address",
          "name": "",
          "type": "address"
        }
      ],
      "name": "boxBalance",
      "outputs": [
        {
          "internalType": "uint256",
          "name": "",
          "type": "uint256"
        }
      ],
      "stateMutability": "view",
      "type": "function"
    },
    {
      "inputs": [
        {
          "internalType": "uint24",
          "name": "boxId",
          "type": "uint24"
        }
      ],
      "name": "buy",
      "outputs": [
        {
          "internalType": "uint256",
          "name": "boxTokenMinted",
          "type": "uint256"
        }
      ],
      "stateMutability": "payable",
      "type": "function"
    },
    {
      "inputs": [
        {
          "components": [
            {
              "internalType": "string",
              "name": "name",
              "type": "string"
            },
            {
              "internalType": "uint8",
              "name": "percentage",
              "type": "uint8"
            }
          ],
          "internalType": "struct BoxProtocol.Token[]",
          "name": "tokens",
          "type": "tuple[]"
        }
      ],
      "name": "createBox",
      "outputs": [
        {
          "internalType": "uint256",
          "name": "boxId",
          "type": "uint256"
        }
      ],
      "stateMutability": "nonpayable",
      "type": "function"
    },
    {
      "inputs": [
        {
          "internalType": "uint256",
          "name": "id",
          "type": "uint256"
        }
      ],
      "name": "exists",
      "outputs": [
        {
          "internalType": "bool",
          "name": "",
          "type": "bool"
        }
      ],
      "stateMutability": "view",
      "type": "function"
    },
    {
      "inputs": [
        {
          "internalType": "uint24",
          "name": "boxId",
          "type": "uint24"
        },
        {
          "internalType": "uint256",
          "name": "tokenNumber",
          "type": "uint256"
        }
      ],
      "name": "getBoxDistribution",
      "outputs": [
        {
          "components": [
            {
              "internalType": "string",
              "name": "name",
              "type": "string"
            },
            {
              "internalType": "uint8",
              "name": "percentage",
              "type": "uint8"
            }
          ],
          "internalType": "struct BoxProtocol.Token",
          "name": "",
          "type": "tuple"
        }
      ],
      "stateMutability": "view",
      "type": "function"
    },
    {
      "inputs": [
        {
          "internalType": "uint24",
          "name": "boxId",
          "type": "uint24"
        }
      ],
      "name": "getBoxTVL",
      "outputs": [
        {
          "internalType": "uint256",
          "name": "",
          "type": "uint256"
        }
      ],
      "stateMutability": "view",
      "type": "function"
    },
    {
      "inputs": [
        {
          "internalType": "uint24",
          "name": "boxId",
          "type": "uint24"
        }
      ],
      "name": "getBoxTokenPrice",
      "outputs": [
        {
          "internalType": "uint256",
          "name": "",
          "type": "uint256"
        }
      ],
      "stateMutability": "view",
      "type": "function"
    },
    {
      "inputs": [
        {
          "internalType": "address",
          "name": "_tokenPriceFeed",
          "type": "address"
        }
      ],
      "name": "getLatestPrice",
      "outputs": [
        {
          "internalType": "int256",
          "name": "",
          "type": "int256"
        }
      ],
      "stateMutability": "view",
      "type": "function"
    },
    {
      "inputs": [
        {
          "internalType": "uint24",
          "name": "boxId",
          "type": "uint24"
        }
      ],
      "name": "getNumberOfTokensInBox",
      "outputs": [
        {
          "internalType": "uint256",
          "name": "",
          "type": "uint256"
        }
      ],
      "stateMutability": "view",
      "type": "function"
    },
    {
      "inputs": [
        {
          "internalType": "address",
          "name": "account",
          "type": "address"
        },
        {
          "internalType": "address",
          "name": "operator",
          "type": "address"
        }
      ],
      "name": "isApprovedForAll",
      "outputs": [
        {
          "internalType": "bool",
          "name": "",
          "type": "bool"
        }
      ],
      "stateMutability": "view",
      "type": "function"
    },
    {
      "inputs": [],
      "name": "poolFee",
      "outputs": [
        {
          "internalType": "uint24",
          "name": "",
          "type": "uint24"
        }
      ],
      "stateMutability": "view",
      "type": "function"
    },
    {
      "inputs": [
        {
          "internalType": "address",
          "name": "from",
          "type": "address"
        },
        {
          "internalType": "address",
          "name": "to",
          "type": "address"
        },
        {
          "internalType": "uint256[]",
          "name": "ids",
          "type": "uint256[]"
        },
        {
          "internalType": "uint256[]",
          "name": "amounts",
          "type": "uint256[]"
        },
        {
          "internalType": "bytes",
          "name": "data",
          "type": "bytes"
        }
      ],
      "name": "safeBatchTransferFrom",
      "outputs": [],
      "stateMutability": "nonpayable",
      "type": "function"
    },
    {
      "inputs": [
        {
          "internalType": "address",
          "name": "from",
          "type": "address"
        },
        {
          "internalType": "address",
          "name": "to",
          "type": "address"
        },
        {
          "internalType": "uint256",
          "name": "id",
          "type": "uint256"
        },
        {
          "internalType": "uint256",
          "name": "amount",
          "type": "uint256"
        },
        {
          "internalType": "bytes",
          "name": "data",
          "type": "bytes"
        }
      ],
      "name": "safeTransferFrom",
      "outputs": [],
      "stateMutability": "nonpayable",
      "type": "function"
    },
    {
      "inputs": [
        {
          "internalType": "uint24",
          "name": "boxId",
          "type": "uint24"
        },
        {
          "internalType": "uint256",
          "name": "tokenSellAmount",
          "type": "uint256"
        }
      ],
      "name": "sell",
      "outputs": [
        {
          "internalType": "uint256",
          "name": "",
          "type": "uint256"
        }
      ],
      "stateMutability": "nonpayable",
      "type": "function"
    },
    {
      "inputs": [
        {
          "internalType": "address",
          "name": "operator",
          "type": "address"
        },
        {
          "internalType": "bool",
          "name": "approved",
          "type": "bool"
        }
      ],
      "name": "setApprovalForAll",
      "outputs": [],
      "stateMutability": "nonpayable",
      "type": "function"
    },
    {
      "inputs": [
        {
          "internalType": "bytes4",
          "name": "interfaceId",
          "type": "bytes4"
        }
      ],
      "name": "supportsInterface",
      "outputs": [
        {
          "internalType": "bool",
          "name": "",
          "type": "bool"
        }
      ],
      "stateMutability": "view",
      "type": "function"
    },
    {
      "inputs": [],
      "name": "swapRouter",
      "outputs": [
        {
          "internalType": "contract ISwapRouter",
          "name": "",
          "type": "address"
        }
      ],
      "stateMutability": "view",
      "type": "function"
    },
    {
      "inputs": [
        {
          "internalType": "uint256",
          "name": "id",
          "type": "uint256"
        }
      ],
      "name": "totalSupply",
      "outputs": [
        {
          "internalType": "uint256",
          "name": "",
          "type": "uint256"
        }
      ],
      "stateMutability": "view",
      "type": "function"
    },
    {
      "inputs": [
        {
          "internalType": "uint256",
          "name": "",
          "type": "uint256"
        }
      ],
      "name": "uri",
      "outputs": [
        {
          "internalType": "string",
          "name": "",
          "type": "string"
        }
      ],
      "stateMutability": "view",
      "type": "function"
    },
    {
      "stateMutability": "payable",
      "type": "receive"
    }
  ],
  "bytecode": "0x60a06040523480156200001157600080fd5b506040518060400160405280600181526020017f20000000000000000000000000000000000000000000000000000000000000008152506200005981620002a660201b60201c565b5033600560006101000a81548173ffffffffffffffffffffffffffffffffffffffff021916908373ffffffffffffffffffffffffffffffffffffffff16021790555073e592427a0aece92de3edee1f18e0157c0586156473ffffffffffffffffffffffffffffffffffffffff1660808173ffffffffffffffffffffffffffffffffffffffff168152505073ab594600376ec9fd91f8e885dadf0ce036862de0600a60006101000a81548173ffffffffffffffffffffffffffffffffffffffff021916908373ffffffffffffffffffffffffffffffffffffffff160217905550620001a36040518060400160405280600381526020017f44455600000000000000000000000000000000000000000000000000000000008152506000600a60009054906101000a900473ffffffffffffffffffffffffffffffffffffffff16620002bb60201b60201c565b620002216040518060400160405280600481526020017f5744455600000000000000000000000000000000000000000000000000000000815250730d500b1d8e8ef31e21c99d1db9a6444d3adf1270600a60009054906101000a900473ffffffffffffffffffffffffffffffffffffffff16620002bb60201b60201c565b600860405162000231906200046c565b908152602001604051809103902060009054906101000a900473ffffffffffffffffffffffffffffffffffffffff16600460006101000a81548173ffffffffffffffffffffffffffffffffffffffff021916908373ffffffffffffffffffffffffffffffffffffffff160217905550620008e3565b8060029081620002b79190620006fd565b5050565b600560009054906101000a900473ffffffffffffffffffffffffffffffffffffffff1673ffffffffffffffffffffffffffffffffffffffff163373ffffffffffffffffffffffffffffffffffffffff16146200034e576040517f08c379a0000000000000000000000000000000000000000000000000000000008152600401620003459062000845565b60405180910390fd5b81600884604051620003619190620008ca565b908152602001604051809103902060006101000a81548173ffffffffffffffffffffffffffffffffffffffff021916908373ffffffffffffffffffffffffffffffffffffffff16021790555080600984604051620003c09190620008ca565b908152602001604051809103902060006101000a81548173ffffffffffffffffffffffffffffffffffffffff021916908373ffffffffffffffffffffffffffffffffffffffff160217905550505050565b600081905092915050565b7f5744455600000000000000000000000000000000000000000000000000000000600082015250565b60006200045460048362000411565b915062000461826200041c565b600482019050919050565b6000620004798262000445565b9150819050919050565b600081519050919050565b7f4e487b7100000000000000000000000000000000000000000000000000000000600052604160045260246000fd5b7f4e487b7100000000000000000000000000000000000000000000000000000000600052602260045260246000fd5b600060028204905060018216806200050557607f821691505b6020821081036200051b576200051a620004bd565b5b50919050565b60008190508160005260206000209050919050565b60006020601f8301049050919050565b600082821b905092915050565b600060088302620005857fffffffffffffffffffffffffffffffffffffffffffffffffffffffffffffffff8262000546565b62000591868362000546565b95508019841693508086168417925050509392505050565b6000819050919050565b6000819050919050565b6000620005de620005d8620005d284620005a9565b620005b3565b620005a9565b9050919050565b6000819050919050565b620005fa83620005bd565b620006126200060982620005e5565b84845462000553565b825550505050565b600090565b620006296200061a565b62000636818484620005ef565b505050565b5b818110156200065e57620006526000826200061f565b6001810190506200063c565b5050565b601f821115620006ad57620006778162000521565b620006828462000536565b8101602085101562000692578190505b620006aa620006a18562000536565b8301826200063b565b50505b505050565b600082821c905092915050565b6000620006d260001984600802620006b2565b1980831691505092915050565b6000620006ed8383620006bf565b9150826002028217905092915050565b620007088262000483565b67ffffffffffffffff8111156200072457620007236200048e565b5b620007308254620004ec565b6200073d82828562000662565b600060209050601f83116001811462000775576000841562000760578287015190505b6200076c8582620006df565b865550620007dc565b601f198416620007858662000521565b60005b82811015620007af5784890151825560018201915060208501945060208101905062000788565b86831015620007cf5784890151620007cb601f891682620006bf565b8355505b6001600288020188555050505b505050505050565b600082825260208201905092915050565b7f4f776e657220616363657373206f6e6c79000000000000000000000000000000600082015250565b60006200082d601183620007e4565b91506200083a82620007f5565b602082019050919050565b6000602082019050818103600083015262000860816200081e565b9050919050565b60005b83811015620008875780820151818401526020810190506200086a565b60008484015250505050565b6000620008a08262000483565b620008ac818562000411565b9350620008be81856020860162000867565b80840191505092915050565b6000620008d8828462000893565b915081905092915050565b6080516166166200090d60003960008181611e0d01528181612d620152612e2801526166166000f3fe6080604052600436106101385760003560e01c8063991f6826116100ab578063d772927c1161006f578063d772927c146104b8578063d863d544146104f5578063deada8031461051e578063e985e9c51461055b578063efb2e2aa14610598578063f242432a146105d55761013f565b8063991f6826146103ba5780639fe204b6146103f7578063a22cb46514610427578063bd85b03914610450578063c31c9c071461048d5761013f565b80632eb2c2d6116100fd5780632eb2c2d6146102605780634e1273f4146102895780634f558e79146102c65780635f51cca4146103035780638cbc8b071461034057806392a90a871461037d5761013f565b8062fdd58e1461014157806301ffc9a71461017e578063089fe6aa146101bb5780630e89341c146101e657806316345f18146102235761013f565b3661013f57005b005b34801561014d57600080fd5b506101686004803603810190610163919061400f565b6105fe565b604051610175919061405e565b60405180910390f35b34801561018a57600080fd5b506101a560048036038101906101a091906140d1565b6106c6565b6040516101b29190614119565b60405180910390f35b3480156101c757600080fd5b506101d06107a8565b6040516101dd9190614152565b60405180910390f35b3480156101f257600080fd5b5061020d6004803603810190610208919061416d565b6107ae565b60405161021a919061422a565b60405180910390f35b34801561022f57600080fd5b5061024a6004803603810190610245919061424c565b610842565b6040516102579190614292565b60405180910390f35b34801561026c57600080fd5b50610287600480360381019061028291906144aa565b6108c9565b005b34801561029557600080fd5b506102b060048036038101906102ab919061463c565b61096a565b6040516102bd9190614772565b60405180910390f35b3480156102d257600080fd5b506102ed60048036038101906102e8919061416d565b610a83565b6040516102fa9190614119565b60405180910390f35b34801561030f57600080fd5b5061032a600480360381019061032591906147c0565b610a97565b604051610337919061405e565b60405180910390f35b34801561034c57600080fd5b50610367600480360381019061036291906147c0565b610b20565b604051610374919061405e565b60405180910390f35b34801561038957600080fd5b506103a4600480360381019061039f91906147ed565b610be8565b6040516103b191906148d0565b60405180910390f35b3480156103c657600080fd5b506103e160048036038101906103dc91906147ed565b610d4e565b6040516103ee919061405e565b60405180910390f35b610411600480360381019061040c91906147c0565b6116ca565b60405161041e919061405e565b60405180910390f35b34801561043357600080fd5b5061044e6004803603810190610449919061491e565b611dd8565b005b34801561045c57600080fd5b506104776004803603810190610472919061416d565b611dee565b604051610484919061405e565b60405180910390f35b34801561049957600080fd5b506104a2611e0b565b6040516104af91906149bd565b60405180910390f35b3480156104c457600080fd5b506104df60048036038101906104da91906147c0565b611e2f565b6040516104ec919061405e565b60405180910390f35b34801561050157600080fd5b5061051c60048036038101906105179190614a79565b612374565b005b34801561052a57600080fd5b5061054560048036038101906105409190614ae8565b6124c3565b604051610552919061405e565b60405180910390f35b34801561056757600080fd5b50610582600480360381019061057d9190614b28565b6124e8565b60405161058f9190614119565b60405180910390f35b3480156105a457600080fd5b506105bf60048036038101906105ba9190614ceb565b61257c565b6040516105cc919061405e565b60405180910390f35b3480156105e157600080fd5b506105fc60048036038101906105f79190614d34565b612926565b005b60008073ffffffffffffffffffffffffffffffffffffffff168373ffffffffffffffffffffffffffffffffffffffff160361066e576040517f08c379a000000000000000000000000000000000000000000000000000000000815260040161066590614e3d565b60405180910390fd5b60008083815260200190815260200160002060008473ffffffffffffffffffffffffffffffffffffffff1673ffffffffffffffffffffffffffffffffffffffff16815260200190815260200160002054905092915050565b60007fd9b67a26000000000000000000000000000000000000000000000000000000007bffffffffffffffffffffffffffffffffffffffffffffffffffffffff1916827bffffffffffffffffffffffffffffffffffffffffffffffffffffffff1916148061079157507f0e89341c000000000000000000000000000000000000000000000000000000007bffffffffffffffffffffffffffffffffffffffffffffffffffffffff1916827bffffffffffffffffffffffffffffffffffffffffffffffffffffffff1916145b806107a157506107a0826129c7565b5b9050919050565b610bb881565b6060600280546107bd90614e8c565b80601f01602080910402602001604051908101604052809291908181526020018280546107e990614e8c565b80156108365780601f1061080b57610100808354040283529160200191610836565b820191906000526020600020905b81548152906001019060200180831161081957829003601f168201915b50505050509050919050565b60008082905060008173ffffffffffffffffffffffffffffffffffffffff1663feaf968c6040518163ffffffff1660e01b815260040160a060405180830381865afa158015610895573d6000803e3d6000fd5b505050506040513d601f19601f820116820180604052508101906108b99190614f40565b5050509150508092505050919050565b6108d1612a31565b73ffffffffffffffffffffffffffffffffffffffff168573ffffffffffffffffffffffffffffffffffffffff161480610917575061091685610911612a31565b6124e8565b5b610956576040517f08c379a000000000000000000000000000000000000000000000000000000000815260040161094d9061502d565b60405180910390fd5b6109638585858585612a39565b5050505050565b606081518351146109b0576040517f08c379a00000000000000000000000000000000000000000000000000000000081526004016109a7906150bf565b60405180910390fd5b6000835167ffffffffffffffff8111156109cd576109cc6142b2565b5b6040519080825280602002602001820160405280156109fb5781602001602082028036833780820191505090505b50905060005b8451811015610a7857610a48858281518110610a2057610a1f6150df565b5b6020026020010151858381518110610a3b57610a3a6150df565b5b60200260200101516105fe565b828281518110610a5b57610a5a6150df565b5b60200260200101818152505080610a719061513d565b9050610a01565b508091505092915050565b600080610a8f83611dee565b119050919050565b600081600a60149054906101000a900462ffffff1662ffffff168162ffffff1610610af7576040517f08c379a0000000000000000000000000000000000000000000000000000000008152600401610aee906151d1565b60405180910390fd5b600660008462ffffff1662ffffff16815260200190815260200160002080549050915050919050565b600081600a60149054906101000a900462ffffff1662ffffff168162ffffff1610610b80576040517f08c379a0000000000000000000000000000000000000000000000000000000008152600401610b77906151d1565b60405180910390fd5b6000610b8b84611e2f565b90506000610b9d8562ffffff16611dee565b905060008103610bb957670de0b6b3a764000093505050610be2565b806002600a610bc89190615324565b83610bd3919061536f565b610bdd91906153e0565b935050505b50919050565b610bf0613f4a565b82600a60149054906101000a900462ffffff1662ffffff168162ffffff1610610c4e576040517f08c379a0000000000000000000000000000000000000000000000000000000008152600401610c45906151d1565b60405180910390fd5b600660008562ffffff1662ffffff1681526020019081526020016000208381548110610c7d57610c7c6150df565b5b9060005260206000209060020201604051806040016040529081600082018054610ca690614e8c565b80601f0160208091040260200160405190810160405280929190818152602001828054610cd290614e8c565b8015610d1f5780601f10610cf457610100808354040283529160200191610d1f565b820191906000526020600020905b815481529060010190602001808311610d0257829003601f168201915b505050505081526020016001820160009054906101000a900460ff1660ff1660ff168152505091505092915050565b600082600a60149054906101000a900462ffffff1662ffffff168162ffffff1610610dae576040517f08c379a0000000000000000000000000000000000000000000000000000000008152600401610da5906151d1565b60405180910390fd5b6000610dbe8562ffffff16611dee565b90506000816103e8606487610dd3919061536f565b610ddd919061536f565b610de791906153e0565b90506000610df487610a97565b9050600080600090505b828110156115f9576000600660008b62ffffff1662ffffff1681526020019081526020016000208281548110610e3757610e366150df565b5b9060005260206000209060020201604051806040016040529081600082018054610e6090614e8c565b80601f0160208091040260200160405190810160405280929190818152602001828054610e8c90614e8c565b8015610ed95780601f10610eae57610100808354040283529160200191610ed9565b820191906000526020600020905b815481529060010190602001808311610ebc57829003601f168201915b505050505081526020016001820160009054906101000a900460ff1660ff1660ff16815250509050604051602001610f1090615468565b604051602081830303815290604052805190602001208160000151604051602001610f3b91906154ae565b60405160208183030381529060405280519060200120036110dd576000600760008c62ffffff1662ffffff168152602001908152602001600020600060088460000151604051610f8b91906154ae565b908152602001604051809103902060009054906101000a900473ffffffffffffffffffffffffffffffffffffffff1673ffffffffffffffffffffffffffffffffffffffff1673ffffffffffffffffffffffffffffffffffffffff1681526020019081526020016000205490506000620186a08783611009919061536f565b61101391906153e0565b905080600760008e62ffffff1662ffffff16815260200190815260200160002060006008866000015160405161104991906154ae565b908152602001604051809103902060009054906101000a900473ffffffffffffffffffffffffffffffffffffffff1673ffffffffffffffffffffffffffffffffffffffff1673ffffffffffffffffffffffffffffffffffffffff16815260200190815260200160002060008282546110c191906154c5565b9250508190555080856110d491906154f9565b945050506115e5565b6040516020016110ec90615579565b60405160208183030381529060405280519060200120816000015160405160200161111791906154ae565b6040516020818303038152906040528051906020012003611346576000600760008c62ffffff1662ffffff16815260200190815260200160002060006008846000015160405161116791906154ae565b908152602001604051809103902060009054906101000a900473ffffffffffffffffffffffffffffffffffffffff1673ffffffffffffffffffffffffffffffffffffffff1673ffffffffffffffffffffffffffffffffffffffff1681526020019081526020016000205490506000620186a087836111e5919061536f565b6111ef91906153e0565b905080600760008e62ffffff1662ffffff16815260200190815260200160002060006008866000015160405161122591906154ae565b908152602001604051809103902060009054906101000a900473ffffffffffffffffffffffffffffffffffffffff1673ffffffffffffffffffffffffffffffffffffffff1673ffffffffffffffffffffffffffffffffffffffff168152602001908152602001600020600082825461129d91906154c5565b92505081905550600460009054906101000a900473ffffffffffffffffffffffffffffffffffffffff1673ffffffffffffffffffffffffffffffffffffffff16632e1a7d4d826040518263ffffffff1660e01b81526004016112ff919061405e565b600060405180830381600087803b15801561131957600080fd5b505af115801561132d573d6000803e3d6000fd5b50505050808561133d91906154f9565b945050506115e4565b6000600760008c62ffffff1662ffffff16815260200190815260200160002060006008846000015160405161137b91906154ae565b908152602001604051809103902060009054906101000a900473ffffffffffffffffffffffffffffffffffffffff1673ffffffffffffffffffffffffffffffffffffffff1673ffffffffffffffffffffffffffffffffffffffff1681526020019081526020016000205490506000620186a087836113f9919061536f565b61140391906153e0565b905080600760008e62ffffff1662ffffff16815260200190815260200160002060006008866000015160405161143991906154ae565b908152602001604051809103902060009054906101000a900473ffffffffffffffffffffffffffffffffffffffff1673ffffffffffffffffffffffffffffffffffffffff1673ffffffffffffffffffffffffffffffffffffffff16815260200190815260200160002060008282546114b191906154c5565b92505081905550600061154382600886600001516040516114d291906154ae565b908152602001604051809103902060009054906101000a900473ffffffffffffffffffffffffffffffffffffffff16600860405161150f90615579565b908152602001604051809103902060009054906101000a900473ffffffffffffffffffffffffffffffffffffffff16612d5a565b9050600460009054906101000a900473ffffffffffffffffffffffffffffffffffffffff1673ffffffffffffffffffffffffffffffffffffffff16632e1a7d4d826040518263ffffffff1660e01b81526004016115a0919061405e565b600060405180830381600087803b1580156115ba57600080fd5b505af11580156115ce573d6000803e3d6000fd5b5050505080866115de91906154f9565b95505050505b5b5080806115f19061513d565b915050610dfe565b5061160a338962ffffff1689612ecc565b60003373ffffffffffffffffffffffffffffffffffffffff1682604051611630906155bf565b60006040518083038185875af1925050503d806000811461166d576040519150601f19603f3d011682016040523d82523d6000602084013e611672565b606091505b505090508061168057600080fd5b7f3a8c7f8ee392a5f03a68614a07481b2744d70742e4402781016d459204313ac88989846040516116b393929190615605565b60405180910390a181965050505050505092915050565b600081600a60149054906101000a900462ffffff1662ffffff168162ffffff161061172a576040517f08c379a0000000000000000000000000000000000000000000000000000000008152600401611721906151d1565b60405180910390fd5b6000341161176d576040517f08c379a000000000000000000000000000000000000000000000000000000000815260040161176490615688565b60405180910390fd5b60006117798434613112565b9050600061178685610a97565b905060005b81811015611d71576000600660008862ffffff1662ffffff16815260200190815260200160002082815481106117c4576117c36150df565b5b90600052602060002090600202016040518060400160405290816000820180546117ed90614e8c565b80601f016020809104026020016040519081016040528092919081815260200182805461181990614e8c565b80156118665780601f1061183b57610100808354040283529160200191611866565b820191906000526020600020905b81548152906001019060200180831161184957829003601f168201915b505050505081526020016001820160009054906101000a900460ff1660ff1660ff1681525050905060405160200161189d90615468565b6040516020818303038152906040528051906020012081600001516040516020016118c891906154ae565b60405160208183030381529060405280519060200120036119bf5760006064826020015160ff16346118fa919061536f565b61190491906153e0565b905080600760008a62ffffff1662ffffff16815260200190815260200160002060006008856000015160405161193a91906154ae565b908152602001604051809103902060009054906101000a900473ffffffffffffffffffffffffffffffffffffffff1673ffffffffffffffffffffffffffffffffffffffff1673ffffffffffffffffffffffffffffffffffffffff16815260200190815260200160002060008282546119b291906154f9565b9250508190555050611d5d565b6040516020016119ce90615579565b6040516020818303038152906040528051906020012081600001516040516020016119f991906154ae565b6040516020818303038152906040528051906020012003611b735760006064826020015160ff1634611a2b919061536f565b611a3591906153e0565b9050600460009054906101000a900473ffffffffffffffffffffffffffffffffffffffff1673ffffffffffffffffffffffffffffffffffffffff1663d0e30db0826040518263ffffffff1660e01b81526004016000604051808303818588803b158015611aa157600080fd5b505af1158015611ab5573d6000803e3d6000fd5b505050505080600760008a62ffffff1662ffffff168152602001908152602001600020600060088560000151604051611aee91906154ae565b908152602001604051809103902060009054906101000a900473ffffffffffffffffffffffffffffffffffffffff1673ffffffffffffffffffffffffffffffffffffffff1673ffffffffffffffffffffffffffffffffffffffff1681526020019081526020016000206000828254611b6691906154f9565b9250508190555050611d5c565b60006064826020015160ff1634611b8a919061536f565b611b9491906153e0565b9050600460009054906101000a900473ffffffffffffffffffffffffffffffffffffffff1673ffffffffffffffffffffffffffffffffffffffff1663d0e30db0826040518263ffffffff1660e01b81526004016000604051808303818588803b158015611c0057600080fd5b505af1158015611c14573d6000803e3d6000fd5b50505050506000611ca4826008604051611c2d90615579565b908152602001604051809103902060009054906101000a900473ffffffffffffffffffffffffffffffffffffffff1660088660000151604051611c7091906154ae565b908152602001604051809103902060009054906101000a900473ffffffffffffffffffffffffffffffffffffffff16612d5a565b905080600760008b62ffffff1662ffffff168152602001908152602001600020600060088660000151604051611cda91906154ae565b908152602001604051809103902060009054906101000a900473ffffffffffffffffffffffffffffffffffffffff1673ffffffffffffffffffffffffffffffffffffffff1673ffffffffffffffffffffffffffffffffffffffff1681526020019081526020016000206000828254611d5291906154f9565b9250508190555050505b5b508080611d699061513d565b91505061178b565b50611d92338662ffffff1684604051806020016040528060008152506131fd565b7fb05532e21b444e9778dc1661bc462d41ba18ec113dc5e87d9d7a3849ff02d1e8853484604051611dc593929190615605565b60405180910390a1819350505050919050565b611dea611de3612a31565b83836133ad565b5050565b600060036000838152602001908152602001600020549050919050565b7f000000000000000000000000000000000000000000000000000000000000000081565b600081600a60149054906101000a900462ffffff1662ffffff168162ffffff1610611e8f576040517f08c379a0000000000000000000000000000000000000000000000000000000008152600401611e86906151d1565b60405180910390fd5b6000611e9a84610a97565b9050600080600090505b82811015612368576000600660008862ffffff1662ffffff1681526020019081526020016000208281548110611edd57611edc6150df565b5b9060005260206000209060020201604051806040016040529081600082018054611f0690614e8c565b80601f0160208091040260200160405190810160405280929190818152602001828054611f3290614e8c565b8015611f7f5780601f10611f5457610100808354040283529160200191611f7f565b820191906000526020600020905b815481529060010190602001808311611f6257829003601f168201915b505050505081526020016001820160009054906101000a900460ff1660ff1660ff16815250509050604051602001611fb690615468565b604051602081830303815290604052805190602001208160000151604051602001611fe191906154ae565b604051602081830303815290604052805190602001201480612050575060405160200161200d90615579565b60405160208183030381529060405280519060200120816000015160405160200161203891906154ae565b60405160208183030381529060405280519060200120145b1561215a576000600760008962ffffff1662ffffff16815260200190815260200160002060006008846000015160405161208a91906154ae565b908152602001604051809103902060009054906101000a900473ffffffffffffffffffffffffffffffffffffffff1673ffffffffffffffffffffffffffffffffffffffff1673ffffffffffffffffffffffffffffffffffffffff1681526020019081526020016000205490506000612123600a60009054906101000a900473ffffffffffffffffffffffffffffffffffffffff16610842565b905060006305f5e1008284612138919061536f565b61214291906153e0565b9050808661215091906154f9565b9550505050612354565b60006008826000015160405161217091906154ae565b908152602001604051809103902060009054906101000a900473ffffffffffffffffffffffffffffffffffffffff1673ffffffffffffffffffffffffffffffffffffffff1663313ce5676040518163ffffffff1660e01b8152600401602060405180830381865afa1580156121e9573d6000803e3d6000fd5b505050506040513d601f19601f8201168201806040525081019061220d91906156bd565b90506000600760008a62ffffff1662ffffff16815260200190815260200160002060006008856000015160405161224491906154ae565b908152602001604051809103902060009054906101000a900473ffffffffffffffffffffffffffffffffffffffff1673ffffffffffffffffffffffffffffffffffffffff1673ffffffffffffffffffffffffffffffffffffffff16815260200190815260200160002054905060006122fd600985600001516040516122c991906154ae565b908152602001604051809103902060009054906101000a900473ffffffffffffffffffffffffffffffffffffffff16610842565b905060006305f5e1008285601261231491906156ea565b600a6123209190615324565b8561232b919061536f565b612335919061536f565b61233f91906153e0565b9050808761234d91906154f9565b9650505050505b5080806123609061513d565b915050611ea4565b50809350505050919050565b600560009054906101000a900473ffffffffffffffffffffffffffffffffffffffff1673ffffffffffffffffffffffffffffffffffffffff163373ffffffffffffffffffffffffffffffffffffffff1614612404576040517f08c379a00000000000000000000000000000000000000000000000000000000081526004016123fb9061576b565b60405180910390fd5b8160088460405161241591906154ae565b908152602001604051809103902060006101000a81548173ffffffffffffffffffffffffffffffffffffffff021916908373ffffffffffffffffffffffffffffffffffffffff1602179055508060098460405161247291906154ae565b908152602001604051809103902060006101000a81548173ffffffffffffffffffffffffffffffffffffffff021916908373ffffffffffffffffffffffffffffffffffffffff160217905550505050565b6007602052816000526040600020602052806000526040600020600091509150505481565b6000600160008473ffffffffffffffffffffffffffffffffffffffff1673ffffffffffffffffffffffffffffffffffffffff16815260200190815260200160002060008373ffffffffffffffffffffffffffffffffffffffff1673ffffffffffffffffffffffffffffffffffffffff16815260200190815260200160002060009054906101000a900460ff16905092915050565b6000600560009054906101000a900473ffffffffffffffffffffffffffffffffffffffff1673ffffffffffffffffffffffffffffffffffffffff163373ffffffffffffffffffffffffffffffffffffffff161461260e576040517f08c379a00000000000000000000000000000000000000000000000000000000081526004016126059061576b565b60405180910390fd5b60008251905061261c613f4a565b600080600090505b838110156128745760405160200161263b90615468565b60405160208183030381529060405280519060200120868281518110612664576126636150df565b5b60200260200101516000015160405160200161268091906154ae565b604051602081830303815290604052805190602001201461276757600073ffffffffffffffffffffffffffffffffffffffff1660088783815181106126c8576126c76150df565b5b6020026020010151600001516040516126e191906154ae565b908152602001604051809103902060009054906101000a900473ffffffffffffffffffffffffffffffffffffffff1673ffffffffffffffffffffffffffffffffffffffff1603612766576040517f08c379a000000000000000000000000000000000000000000000000000000000815260040161275d906157d7565b60405180910390fd5b5b85818151811061277a576127796150df565b5b60200260200101516000015183600001819052508581815181106127a1576127a06150df565b5b602002602001015160200151836020019060ff16908160ff16815250508260200151826127ce91906157f7565b915060066000600a60149054906101000a900462ffffff1662ffffff1662ffffff168152602001908152602001600020839080600181540180825580915050600190039060005260206000209060020201600090919091909150600082015181600001908161283d91906159ce565b5060208201518160010160006101000a81548160ff021916908360ff1602179055505050808061286c9061513d565b915050612624565b50600a601481819054906101000a900462ffffff168092919061289690615aa0565b91906101000a81548162ffffff021916908362ffffff1602179055505060648160ff16146128f9576040517f08c379a00000000000000000000000000000000000000000000000000000000081526004016128f090615b17565b60405180910390fd5b6001600a60149054906101000a900462ffffff166129179190615b37565b62ffffff169350505050919050565b61292e612a31565b73ffffffffffffffffffffffffffffffffffffffff168573ffffffffffffffffffffffffffffffffffffffff16148061297457506129738561296e612a31565b6124e8565b5b6129b3576040517f08c379a00000000000000000000000000000000000000000000000000000000081526004016129aa9061502d565b60405180910390fd5b6129c08585858585613519565b5050505050565b60007f01ffc9a7000000000000000000000000000000000000000000000000000000007bffffffffffffffffffffffffffffffffffffffffffffffffffffffff1916827bffffffffffffffffffffffffffffffffffffffffffffffffffffffff1916149050919050565b600033905090565b8151835114612a7d576040517f08c379a0000000000000000000000000000000000000000000000000000000008152600401612a7490615be0565b60405180910390fd5b600073ffffffffffffffffffffffffffffffffffffffff168473ffffffffffffffffffffffffffffffffffffffff1603612aec576040517f08c379a0000000000000000000000000000000000000000000000000000000008152600401612ae390615c72565b60405180910390fd5b6000612af6612a31565b9050612b068187878787876137b4565b60005b8451811015612cb7576000858281518110612b2757612b266150df565b5b602002602001015190506000858381518110612b4657612b456150df565b5b60200260200101519050600080600084815260200190815260200160002060008b73ffffffffffffffffffffffffffffffffffffffff1673ffffffffffffffffffffffffffffffffffffffff16815260200190815260200160002054905081811015612be7576040517f08c379a0000000000000000000000000000000000000000000000000000000008152600401612bde90615d04565b60405180910390fd5b81810360008085815260200190815260200160002060008c73ffffffffffffffffffffffffffffffffffffffff1673ffffffffffffffffffffffffffffffffffffffff168152602001908152602001600020819055508160008085815260200190815260200160002060008b73ffffffffffffffffffffffffffffffffffffffff1673ffffffffffffffffffffffffffffffffffffffff1681526020019081526020016000206000828254612c9c91906154f9565b9250508190555050505080612cb09061513d565b9050612b09565b508473ffffffffffffffffffffffffffffffffffffffff168673ffffffffffffffffffffffffffffffffffffffff168273ffffffffffffffffffffffffffffffffffffffff167f4a39dc06d4c0dbc64b70af90fd698a233a518aa5d07e595d983b8c0526c8f7fb8787604051612d2e929190615d24565b60405180910390a4612d448187878787876137ca565b612d528187878787876137d2565b505050505050565b6000612d87837f0000000000000000000000000000000000000000000000000000000000000000866139a9565b60006040518061010001604052808573ffffffffffffffffffffffffffffffffffffffff1681526020018473ffffffffffffffffffffffffffffffffffffffff168152602001610bb862ffffff1681526020013073ffffffffffffffffffffffffffffffffffffffff16815260200142815260200186815260200160008152602001600073ffffffffffffffffffffffffffffffffffffffff1681525090507f000000000000000000000000000000000000000000000000000000000000000073ffffffffffffffffffffffffffffffffffffffff1663414bf389826040518263ffffffff1660e01b8152600401612e7f9190615e2a565b6020604051808303816000875af1158015612e9e573d6000803e3d6000fd5b505050506040513d601f19601f82011682018060405250810190612ec29190615e46565b9150509392505050565b600073ffffffffffffffffffffffffffffffffffffffff168373ffffffffffffffffffffffffffffffffffffffff1603612f3b576040517f08c379a0000000000000000000000000000000000000000000000000000000008152600401612f3290615ee5565b60405180910390fd5b6000612f45612a31565b90506000612f5284613afe565b90506000612f5f84613afe565b9050612f7f838760008585604051806020016040528060008152506137b4565b600080600087815260200190815260200160002060008873ffffffffffffffffffffffffffffffffffffffff1673ffffffffffffffffffffffffffffffffffffffff16815260200190815260200160002054905084811015613016576040517f08c379a000000000000000000000000000000000000000000000000000000000815260040161300d90615f77565b60405180910390fd5b84810360008088815260200190815260200160002060008973ffffffffffffffffffffffffffffffffffffffff1673ffffffffffffffffffffffffffffffffffffffff16815260200190815260200160002081905550600073ffffffffffffffffffffffffffffffffffffffff168773ffffffffffffffffffffffffffffffffffffffff168573ffffffffffffffffffffffffffffffffffffffff167fc3d58168c5ae7397731d063d5bbf3d657854427343f4c083240f7aacaa2d0f6289896040516130e3929190615f97565b60405180910390a4613109848860008686604051806020016040528060008152506137ca565b50505050505050565b600082600a60149054906101000a900462ffffff1662ffffff168162ffffff1610613172576040517f08c379a0000000000000000000000000000000000000000000000000000000008152600401613169906151d1565b60405180910390fd5b600061319f600a60009054906101000a900473ffffffffffffffffffffffffffffffffffffffff16610842565b905060006305f5e10082866131b4919061536f565b6131be91906153e0565b905060006131cb87610b20565b9050806002600a6131dc9190615324565b836131e7919061536f565b6131f191906153e0565b94505050505092915050565b600073ffffffffffffffffffffffffffffffffffffffff168473ffffffffffffffffffffffffffffffffffffffff160361326c576040517f08c379a000000000000000000000000000000000000000000000000000000000815260040161326390616032565b60405180910390fd5b6000613276612a31565b9050600061328385613afe565b9050600061329085613afe565b90506132a1836000898585896137b4565b8460008088815260200190815260200160002060008973ffffffffffffffffffffffffffffffffffffffff1673ffffffffffffffffffffffffffffffffffffffff168152602001908152602001600020600082825461330091906154f9565b925050819055508673ffffffffffffffffffffffffffffffffffffffff16600073ffffffffffffffffffffffffffffffffffffffff168473ffffffffffffffffffffffffffffffffffffffff167fc3d58168c5ae7397731d063d5bbf3d657854427343f4c083240f7aacaa2d0f62898960405161337e929190615f97565b60405180910390a4613395836000898585896137ca565b6133a483600089898989613b78565b50505050505050565b8173ffffffffffffffffffffffffffffffffffffffff168373ffffffffffffffffffffffffffffffffffffffff160361341b576040517f08c379a0000000000000000000000000000000000000000000000000000000008152600401613412906160c4565b60405180910390fd5b80600160008573ffffffffffffffffffffffffffffffffffffffff1673ffffffffffffffffffffffffffffffffffffffff16815260200190815260200160002060008473ffffffffffffffffffffffffffffffffffffffff1673ffffffffffffffffffffffffffffffffffffffff16815260200190815260200160002060006101000a81548160ff0219169083151502179055508173ffffffffffffffffffffffffffffffffffffffff168373ffffffffffffffffffffffffffffffffffffffff167f17307eab39ab6107e8899845ad3d59bd9653f200f220920489ca2b5937696c318360405161350c9190614119565b60405180910390a3505050565b600073ffffffffffffffffffffffffffffffffffffffff168473ffffffffffffffffffffffffffffffffffffffff1603613588576040517f08c379a000000000000000000000000000000000000000000000000000000000815260040161357f90615c72565b60405180910390fd5b6000613592612a31565b9050600061359f85613afe565b905060006135ac85613afe565b90506135bc8389898585896137b4565b600080600088815260200190815260200160002060008a73ffffffffffffffffffffffffffffffffffffffff1673ffffffffffffffffffffffffffffffffffffffff16815260200190815260200160002054905085811015613653576040517f08c379a000000000000000000000000000000000000000000000000000000000815260040161364a90615d04565b60405180910390fd5b85810360008089815260200190815260200160002060008b73ffffffffffffffffffffffffffffffffffffffff1673ffffffffffffffffffffffffffffffffffffffff168152602001908152602001600020819055508560008089815260200190815260200160002060008a73ffffffffffffffffffffffffffffffffffffffff1673ffffffffffffffffffffffffffffffffffffffff168152602001908152602001600020600082825461370891906154f9565b925050819055508773ffffffffffffffffffffffffffffffffffffffff168973ffffffffffffffffffffffffffffffffffffffff168573ffffffffffffffffffffffffffffffffffffffff167fc3d58168c5ae7397731d063d5bbf3d657854427343f4c083240f7aacaa2d0f628a8a604051613785929190615f97565b60405180910390a461379b848a8a86868a6137ca565b6137a9848a8a8a8a8a613b78565b505050505050505050565b6137c2868686868686613d4f565b505050505050565b505050505050565b6137f18473ffffffffffffffffffffffffffffffffffffffff16613f1f565b156139a1578373ffffffffffffffffffffffffffffffffffffffff1663bc197c8187878686866040518663ffffffff1660e01b8152600401613837959493929190616148565b6020604051808303816000875af192505050801561387357506040513d601f19601f8201168201806040525081019061387091906161c5565b60015b6139185761387f6161ff565b806308c379a0036138db5750613893616221565b8061389e57506138dd565b806040517f08c379a00000000000000000000000000000000000000000000000000000000081526004016138d2919061422a565b60405180910390fd5b505b6040517f08c379a000000000000000000000000000000000000000000000000000000000815260040161390f90616323565b60405180910390fd5b63bc197c8160e01b7bffffffffffffffffffffffffffffffffffffffffffffffffffffffff1916817bffffffffffffffffffffffffffffffffffffffffffffffffffffffff19161461399f576040517f08c379a0000000000000000000000000000000000000000000000000000000008152600401613996906163b5565b60405180910390fd5b505b505050505050565b6000808473ffffffffffffffffffffffffffffffffffffffff1663095ea7b360e01b85856040516024016139de9291906163d5565b604051602081830303815290604052907bffffffffffffffffffffffffffffffffffffffffffffffffffffffff19166020820180517bffffffffffffffffffffffffffffffffffffffffffffffffffffffff8381831617835250505050604051613a48919061642f565b6000604051808303816000865af19150503d8060008114613a85576040519150601f19603f3d011682016040523d82523d6000602084013e613a8a565b606091505b5091509150818015613ab85750600081511480613ab7575080806020019051810190613ab6919061645b565b5b5b613af7576040517f08c379a0000000000000000000000000000000000000000000000000000000008152600401613aee906164d4565b60405180910390fd5b5050505050565b60606000600167ffffffffffffffff811115613b1d57613b1c6142b2565b5b604051908082528060200260200182016040528015613b4b5781602001602082028036833780820191505090505b5090508281600081518110613b6357613b626150df565b5b60200260200101818152505080915050919050565b613b978473ffffffffffffffffffffffffffffffffffffffff16613f1f565b15613d47578373ffffffffffffffffffffffffffffffffffffffff1663f23a6e6187878686866040518663ffffffff1660e01b8152600401613bdd9594939291906164f4565b6020604051808303816000875af1925050508015613c1957506040513d601f19601f82011682018060405250810190613c1691906161c5565b60015b613cbe57613c256161ff565b806308c379a003613c815750613c39616221565b80613c445750613c83565b806040517f08c379a0000000000000000000000000000000000000000000000000000000008152600401613c78919061422a565b60405180910390fd5b505b6040517f08c379a0000000000000000000000000000000000000000000000000000000008152600401613cb590616323565b60405180910390fd5b63f23a6e6160e01b7bffffffffffffffffffffffffffffffffffffffffffffffffffffffff1916817bffffffffffffffffffffffffffffffffffffffffffffffffffffffff191614613d45576040517f08c379a0000000000000000000000000000000000000000000000000000000008152600401613d3c906163b5565b60405180910390fd5b505b505050505050565b613d5d868686868686613f42565b600073ffffffffffffffffffffffffffffffffffffffff168573ffffffffffffffffffffffffffffffffffffffff1603613e0e5760005b8351811015613e0c57828181518110613db057613daf6150df565b5b602002602001015160036000868481518110613dcf57613dce6150df565b5b602002602001015181526020019081526020016000206000828254613df491906154f9565b9250508190555080613e059061513d565b9050613d94565b505b600073ffffffffffffffffffffffffffffffffffffffff168473ffffffffffffffffffffffffffffffffffffffff1603613f175760005b8351811015613f15576000848281518110613e6357613e626150df565b5b602002602001015190506000848381518110613e8257613e816150df565b5b6020026020010151905060006003600084815260200190815260200160002054905081811015613ee7576040517f08c379a0000000000000000000000000000000000000000000000000000000008152600401613ede906165c0565b60405180910390fd5b818103600360008581526020019081526020016000208190555050505080613f0e9061513d565b9050613e45565b505b505050505050565b6000808273ffffffffffffffffffffffffffffffffffffffff163b119050919050565b505050505050565b604051806040016040528060608152602001600060ff1681525090565b6000604051905090565b600080fd5b600080fd5b600073ffffffffffffffffffffffffffffffffffffffff82169050919050565b6000613fa682613f7b565b9050919050565b613fb681613f9b565b8114613fc157600080fd5b50565b600081359050613fd381613fad565b92915050565b6000819050919050565b613fec81613fd9565b8114613ff757600080fd5b50565b60008135905061400981613fe3565b92915050565b6000806040838503121561402657614025613f71565b5b600061403485828601613fc4565b925050602061404585828601613ffa565b9150509250929050565b61405881613fd9565b82525050565b6000602082019050614073600083018461404f565b92915050565b60007fffffffff0000000000000000000000000000000000000000000000000000000082169050919050565b6140ae81614079565b81146140b957600080fd5b50565b6000813590506140cb816140a5565b92915050565b6000602082840312156140e7576140e6613f71565b5b60006140f5848285016140bc565b91505092915050565b60008115159050919050565b614113816140fe565b82525050565b600060208201905061412e600083018461410a565b92915050565b600062ffffff82169050919050565b61414c81614134565b82525050565b60006020820190506141676000830184614143565b92915050565b60006020828403121561418357614182613f71565b5b600061419184828501613ffa565b91505092915050565b600081519050919050565b600082825260208201905092915050565b60005b838110156141d45780820151818401526020810190506141b9565b60008484015250505050565b6000601f19601f8301169050919050565b60006141fc8261419a565b61420681856141a5565b93506142168185602086016141b6565b61421f816141e0565b840191505092915050565b6000602082019050818103600083015261424481846141f1565b905092915050565b60006020828403121561426257614261613f71565b5b600061427084828501613fc4565b91505092915050565b6000819050919050565b61428c81614279565b82525050565b60006020820190506142a76000830184614283565b92915050565b600080fd5b7f4e487b7100000000000000000000000000000000000000000000000000000000600052604160045260246000fd5b6142ea826141e0565b810181811067ffffffffffffffff82111715614309576143086142b2565b5b80604052505050565b600061431c613f67565b905061432882826142e1565b919050565b600067ffffffffffffffff821115614348576143476142b2565b5b602082029050602081019050919050565b600080fd5b600061437161436c8461432d565b614312565b9050808382526020820190506020840283018581111561439457614393614359565b5b835b818110156143bd57806143a98882613ffa565b845260208401935050602081019050614396565b5050509392505050565b600082601f8301126143dc576143db6142ad565b5b81356143ec84826020860161435e565b91505092915050565b600080fd5b600067ffffffffffffffff821115614415576144146142b2565b5b61441e826141e0565b9050602081019050919050565b82818337600083830152505050565b600061444d614448846143fa565b614312565b905082815260208101848484011115614469576144686143f5565b5b61447484828561442b565b509392505050565b600082601f830112614491576144906142ad565b5b81356144a184826020860161443a565b91505092915050565b600080600080600060a086880312156144c6576144c5613f71565b5b60006144d488828901613fc4565b95505060206144e588828901613fc4565b945050604086013567ffffffffffffffff81111561450657614505613f76565b5b614512888289016143c7565b935050606086013567ffffffffffffffff81111561453357614532613f76565b5b61453f888289016143c7565b925050608086013567ffffffffffffffff8111156145605761455f613f76565b5b61456c8882890161447c565b9150509295509295909350565b600067ffffffffffffffff821115614594576145936142b2565b5b602082029050602081019050919050565b60006145b86145b384614579565b614312565b905080838252602082019050602084028301858111156145db576145da614359565b5b835b8181101561460457806145f08882613fc4565b8452602084019350506020810190506145dd565b5050509392505050565b600082601f830112614623576146226142ad565b5b81356146338482602086016145a5565b91505092915050565b6000806040838503121561465357614652613f71565b5b600083013567ffffffffffffffff81111561467157614670613f76565b5b61467d8582860161460e565b925050602083013567ffffffffffffffff81111561469e5761469d613f76565b5b6146aa858286016143c7565b9150509250929050565b600081519050919050565b600082825260208201905092915050565b6000819050602082019050919050565b6146e981613fd9565b82525050565b60006146fb83836146e0565b60208301905092915050565b6000602082019050919050565b600061471f826146b4565b61472981856146bf565b9350614734836146d0565b8060005b8381101561476557815161474c88826146ef565b975061475783614707565b925050600181019050614738565b5085935050505092915050565b6000602082019050818103600083015261478c8184614714565b905092915050565b61479d81614134565b81146147a857600080fd5b50565b6000813590506147ba81614794565b92915050565b6000602082840312156147d6576147d5613f71565b5b60006147e4848285016147ab565b91505092915050565b6000806040838503121561480457614803613f71565b5b6000614812858286016147ab565b925050602061482385828601613ffa565b9150509250929050565b600082825260208201905092915050565b60006148498261419a565b614853818561482d565b93506148638185602086016141b6565b61486c816141e0565b840191505092915050565b600060ff82169050919050565b61488d81614877565b82525050565b600060408301600083015184820360008601526148b0828261483e565b91505060208301516148c56020860182614884565b508091505092915050565b600060208201905081810360008301526148ea8184614893565b905092915050565b6148fb816140fe565b811461490657600080fd5b50565b600081359050614918816148f2565b92915050565b6000806040838503121561493557614934613f71565b5b600061494385828601613fc4565b925050602061495485828601614909565b9150509250929050565b6000819050919050565b600061498361497e61497984613f7b565b61495e565b613f7b565b9050919050565b600061499582614968565b9050919050565b60006149a78261498a565b9050919050565b6149b78161499c565b82525050565b60006020820190506149d260008301846149ae565b92915050565b600067ffffffffffffffff8211156149f3576149f26142b2565b5b6149fc826141e0565b9050602081019050919050565b6000614a1c614a17846149d8565b614312565b905082815260208101848484011115614a3857614a376143f5565b5b614a4384828561442b565b509392505050565b600082601f830112614a6057614a5f6142ad565b5b8135614a70848260208601614a09565b91505092915050565b600080600060608486031215614a9257614a91613f71565b5b600084013567ffffffffffffffff811115614ab057614aaf613f76565b5b614abc86828701614a4b565b9350506020614acd86828701613fc4565b9250506040614ade86828701613fc4565b9150509250925092565b60008060408385031215614aff57614afe613f71565b5b6000614b0d858286016147ab565b9250506020614b1e85828601613fc4565b9150509250929050565b60008060408385031215614b3f57614b3e613f71565b5b6000614b4d85828601613fc4565b9250506020614b5e85828601613fc4565b9150509250929050565b600067ffffffffffffffff821115614b8357614b826142b2565b5b602082029050602081019050919050565b600080fd5b600080fd5b614ba781614877565b8114614bb257600080fd5b50565b600081359050614bc481614b9e565b92915050565b600060408284031215614be057614bdf614b94565b5b614bea6040614312565b9050600082013567ffffffffffffffff811115614c0a57614c09614b99565b5b614c1684828501614a4b565b6000830152506020614c2a84828501614bb5565b60208301525092915050565b6000614c49614c4484614b68565b614312565b90508083825260208201905060208402830185811115614c6c57614c6b614359565b5b835b81811015614cb357803567ffffffffffffffff811115614c9157614c906142ad565b5b808601614c9e8982614bca565b85526020850194505050602081019050614c6e565b5050509392505050565b600082601f830112614cd257614cd16142ad565b5b8135614ce2848260208601614c36565b91505092915050565b600060208284031215614d0157614d00613f71565b5b600082013567ffffffffffffffff811115614d1f57614d1e613f76565b5b614d2b84828501614cbd565b91505092915050565b600080600080600060a08688031215614d5057614d4f613f71565b5b6000614d5e88828901613fc4565b9550506020614d6f88828901613fc4565b9450506040614d8088828901613ffa565b9350506060614d9188828901613ffa565b925050608086013567ffffffffffffffff811115614db257614db1613f76565b5b614dbe8882890161447c565b9150509295509295909350565b7f455243313135353a2061646472657373207a65726f206973206e6f742061207660008201527f616c6964206f776e657200000000000000000000000000000000000000000000602082015250565b6000614e27602a836141a5565b9150614e3282614dcb565b604082019050919050565b60006020820190508181036000830152614e5681614e1a565b9050919050565b7f4e487b7100000000000000000000000000000000000000000000000000000000600052602260045260246000fd5b60006002820490506001821680614ea457607f821691505b602082108103614eb757614eb6614e5d565b5b50919050565b600069ffffffffffffffffffff82169050919050565b614edc81614ebd565b8114614ee757600080fd5b50565b600081519050614ef981614ed3565b92915050565b614f0881614279565b8114614f1357600080fd5b50565b600081519050614f2581614eff565b92915050565b600081519050614f3a81613fe3565b92915050565b600080600080600060a08688031215614f5c57614f5b613f71565b5b6000614f6a88828901614eea565b9550506020614f7b88828901614f16565b9450506040614f8c88828901614f2b565b9350506060614f9d88828901614f2b565b9250506080614fae88828901614eea565b9150509295509295909350565b7f455243313135353a2063616c6c6572206973206e6f7420746f6b656e206f776e60008201527f6572206f7220617070726f766564000000000000000000000000000000000000602082015250565b6000615017602e836141a5565b915061502282614fbb565b604082019050919050565b600060208201905081810360008301526150468161500a565b9050919050565b7f455243313135353a206163636f756e747320616e6420696473206c656e67746860008201527f206d69736d617463680000000000000000000000000000000000000000000000602082015250565b60006150a96029836141a5565b91506150b48261504d565b604082019050919050565b600060208201905081810360008301526150d88161509c565b9050919050565b7f4e487b7100000000000000000000000000000000000000000000000000000000600052603260045260246000fd5b7f4e487b7100000000000000000000000000000000000000000000000000000000600052601160045260246000fd5b600061514882613fd9565b91507fffffffffffffffffffffffffffffffffffffffffffffffffffffffffffffffff820361517a5761517961510e565b5b600182019050919050565b7f496e76616c696420426f78494420706172616d657465722e0000000000000000600082015250565b60006151bb6018836141a5565b91506151c682615185565b602082019050919050565b600060208201905081810360008301526151ea816151ae565b9050919050565b60008160011c9050919050565b6000808291508390505b6001851115615248578086048111156152245761522361510e565b5b60018516156152335780820291505b8081029050615241856151f1565b9450615208565b94509492505050565b600082615261576001905061531d565b8161526f576000905061531d565b8160018114615285576002811461528f576152be565b600191505061531d565b60ff8411156152a1576152a061510e565b5b8360020a9150848211156152b8576152b761510e565b5b5061531d565b5060208310610133831016604e8410600b84101617156152f35782820a9050838111156152ee576152ed61510e565b5b61531d565b61530084848460016151fe565b925090508184048111156153175761531661510e565b5b81810290505b9392505050565b600061532f82613fd9565b915061533a83614877565b92506153677fffffffffffffffffffffffffffffffffffffffffffffffffffffffffffffffff8484615251565b905092915050565b600061537a82613fd9565b915061538583613fd9565b925082820261539381613fd9565b915082820484148315176153aa576153a961510e565b5b5092915050565b7f4e487b7100000000000000000000000000000000000000000000000000000000600052601260045260246000fd5b60006153eb82613fd9565b91506153f683613fd9565b925082615406576154056153b1565b5b828204905092915050565b600081905092915050565b7f4445560000000000000000000000000000000000000000000000000000000000600082015250565b6000615452600383615411565b915061545d8261541c565b600382019050919050565b600061547382615445565b9150819050919050565b60006154888261419a565b6154928185615411565b93506154a28185602086016141b6565b80840191505092915050565b60006154ba828461547d565b915081905092915050565b60006154d082613fd9565b91506154db83613fd9565b92508282039050818111156154f3576154f261510e565b5b92915050565b600061550482613fd9565b915061550f83613fd9565b92508282019050808211156155275761552661510e565b5b92915050565b7f5744455600000000000000000000000000000000000000000000000000000000600082015250565b6000615563600483615411565b915061556e8261552d565b600482019050919050565b600061558482615556565b9150819050919050565b600081905092915050565b50565b60006155a960008361558e565b91506155b482615599565b600082019050919050565b60006155ca8261559c565b9150819050919050565b60006155ef6155ea6155e584614134565b61495e565b613fd9565b9050919050565b6155ff816155d4565b82525050565b600060608201905061561a60008301866155f6565b615627602083018561404f565b615634604083018461404f565b949350505050565b7f6d73672e76616c75652069732030000000000000000000000000000000000000600082015250565b6000615672600e836141a5565b915061567d8261563c565b602082019050919050565b600060208201905081810360008301526156a181615665565b9050919050565b6000815190506156b781614b9e565b92915050565b6000602082840312156156d3576156d2613f71565b5b60006156e1848285016156a8565b91505092915050565b60006156f582614877565b915061570083614877565b9250828203905060ff8111156157195761571861510e565b5b92915050565b7f4f776e657220616363657373206f6e6c79000000000000000000000000000000600082015250565b60006157556011836141a5565b91506157608261571f565b602082019050919050565b6000602082019050818103600083015261578481615748565b9050919050565b7f546f6b656e206e6f7420626f7820636f6d70617469626c652e00000000000000600082015250565b60006157c16019836141a5565b91506157cc8261578b565b602082019050919050565b600060208201905081810360008301526157f0816157b4565b9050919050565b600061580282614877565b915061580d83614877565b9250828201905060ff8111156158265761582561510e565b5b92915050565b60008190508160005260206000209050919050565b60006020601f8301049050919050565b600082821b905092915050565b60006008830261588e7fffffffffffffffffffffffffffffffffffffffffffffffffffffffffffffffff82615851565b6158988683615851565b95508019841693508086168417925050509392505050565b60006158cb6158c66158c184613fd9565b61495e565b613fd9565b9050919050565b6000819050919050565b6158e5836158b0565b6158f96158f1826158d2565b84845461585e565b825550505050565b600090565b61590e615901565b6159198184846158dc565b505050565b5b8181101561593d57615932600082615906565b60018101905061591f565b5050565b601f821115615982576159538161582c565b61595c84615841565b8101602085101561596b578190505b61597f61597785615841565b83018261591e565b50505b505050565b600082821c905092915050565b60006159a560001984600802615987565b1980831691505092915050565b60006159be8383615994565b9150826002028217905092915050565b6159d78261419a565b67ffffffffffffffff8111156159f0576159ef6142b2565b5b6159fa8254614e8c565b615a05828285615941565b600060209050601f831160018114615a385760008415615a26578287015190505b615a3085826159b2565b865550615a98565b601f198416615a468661582c565b60005b82811015615a6e57848901518255600182019150602085019450602081019050615a49565b86831015615a8b5784890151615a87601f891682615994565b8355505b6001600288020188555050505b505050505050565b6000615aab82614134565b915062ffffff8203615ac057615abf61510e565b5b600182019050919050565b7f70657263656e7461676520213d20313030000000000000000000000000000000600082015250565b6000615b016011836141a5565b9150615b0c82615acb565b602082019050919050565b60006020820190508181036000830152615b3081615af4565b9050919050565b6000615b4282614134565b9150615b4d83614134565b9250828203905062ffffff811115615b6857615b6761510e565b5b92915050565b7f455243313135353a2069647320616e6420616d6f756e7473206c656e6774682060008201527f6d69736d61746368000000000000000000000000000000000000000000000000602082015250565b6000615bca6028836141a5565b9150615bd582615b6e565b604082019050919050565b60006020820190508181036000830152615bf981615bbd565b9050919050565b7f455243313135353a207472616e7366657220746f20746865207a65726f20616460008201527f6472657373000000000000000000000000000000000000000000000000000000602082015250565b6000615c5c6025836141a5565b9150615c6782615c00565b604082019050919050565b60006020820190508181036000830152615c8b81615c4f565b9050919050565b7f455243313135353a20696e73756666696369656e742062616c616e636520666f60008201527f72207472616e7366657200000000000000000000000000000000000000000000602082015250565b6000615cee602a836141a5565b9150615cf982615c92565b604082019050919050565b60006020820190508181036000830152615d1d81615ce1565b9050919050565b60006040820190508181036000830152615d3e8185614714565b90508181036020830152615d528184614714565b90509392505050565b615d6481613f9b565b82525050565b615d7381614134565b82525050565b615d8281613f7b565b82525050565b61010082016000820151615d9f6000850182615d5b565b506020820151615db26020850182615d5b565b506040820151615dc56040850182615d6a565b506060820151615dd86060850182615d5b565b506080820151615deb60808501826146e0565b5060a0820151615dfe60a08501826146e0565b5060c0820151615e1160c08501826146e0565b5060e0820151615e2460e0850182615d79565b50505050565b600061010082019050615e406000830184615d88565b92915050565b600060208284031215615e5c57615e5b613f71565b5b6000615e6a84828501614f2b565b91505092915050565b7f455243313135353a206275726e2066726f6d20746865207a65726f206164647260008201527f6573730000000000000000000000000000000000000000000000000000000000602082015250565b6000615ecf6023836141a5565b9150615eda82615e73565b604082019050919050565b60006020820190508181036000830152615efe81615ec2565b9050919050565b7f455243313135353a206275726e20616d6f756e7420657863656564732062616c60008201527f616e636500000000000000000000000000000000000000000000000000000000602082015250565b6000615f616024836141a5565b9150615f6c82615f05565b604082019050919050565b60006020820190508181036000830152615f9081615f54565b9050919050565b6000604082019050615fac600083018561404f565b615fb9602083018461404f565b9392505050565b7f455243313135353a206d696e7420746f20746865207a65726f2061646472657360008201527f7300000000000000000000000000000000000000000000000000000000000000602082015250565b600061601c6021836141a5565b915061602782615fc0565b604082019050919050565b6000602082019050818103600083015261604b8161600f565b9050919050565b7f455243313135353a2073657474696e6720617070726f76616c2073746174757360008201527f20666f722073656c660000000000000000000000000000000000000000000000602082015250565b60006160ae6029836141a5565b91506160b982616052565b604082019050919050565b600060208201905081810360008301526160dd816160a1565b9050919050565b6160ed81613f9b565b82525050565b600081519050919050565b600082825260208201905092915050565b600061611a826160f3565b61612481856160fe565b93506161348185602086016141b6565b61613d816141e0565b840191505092915050565b600060a08201905061615d60008301886160e4565b61616a60208301876160e4565b818103604083015261617c8186614714565b905081810360608301526161908185614714565b905081810360808301526161a4818461610f565b90509695505050505050565b6000815190506161bf816140a5565b92915050565b6000602082840312156161db576161da613f71565b5b60006161e9848285016161b0565b91505092915050565b60008160e01c9050919050565b600060033d111561621e5760046000803e61621b6000516161f2565b90505b90565b600060443d106162ae57616233613f67565b60043d036004823e80513d602482011167ffffffffffffffff8211171561625b5750506162ae565b808201805167ffffffffffffffff81111561627957505050506162ae565b80602083010160043d0385018111156162965750505050506162ae565b6162a5826020018501866142e1565b82955050505050505b90565b7f455243313135353a207472616e7366657220746f206e6f6e2d4552433131353560008201527f526563656976657220696d706c656d656e746572000000000000000000000000602082015250565b600061630d6034836141a5565b9150616318826162b1565b604082019050919050565b6000602082019050818103600083015261633c81616300565b9050919050565b7f455243313135353a204552433131353552656365697665722072656a6563746560008201527f6420746f6b656e73000000000000000000000000000000000000000000000000602082015250565b600061639f6028836141a5565b91506163aa82616343565b604082019050919050565b600060208201905081810360008301526163ce81616392565b9050919050565b60006040820190506163ea60008301856160e4565b6163f7602083018461404f565b9392505050565b6000616409826160f3565b616413818561558e565b93506164238185602086016141b6565b80840191505092915050565b600061643b82846163fe565b915081905092915050565b600081519050616455816148f2565b92915050565b60006020828403121561647157616470613f71565b5b600061647f84828501616446565b91505092915050565b7f5341000000000000000000000000000000000000000000000000000000000000600082015250565b60006164be6002836141a5565b91506164c982616488565b602082019050919050565b600060208201905081810360008301526164ed816164b1565b9050919050565b600060a08201905061650960008301886160e4565b61651660208301876160e4565b616523604083018661404f565b616530606083018561404f565b8181036080830152616542818461610f565b90509695505050505050565b7f455243313135353a206275726e20616d6f756e74206578636565647320746f7460008201527f616c537570706c79000000000000000000000000000000000000000000000000602082015250565b60006165aa6028836141a5565b91506165b58261654e565b604082019050919050565b600060208201905081810360008301526165d98161659d565b905091905056fea2646970667358221220d4f9f9fed8992d8929a001dc78ea8770dd9f55eeadf78ae67ac55d2cbb58f5c064736f6c63430008120033",
  "linkReferences": {},
  "deployedLinkReferences": {}
}